{
  "_format": "hh-sol-artifact-1",
  "contractName": "ConcentratedLiquidityPoolStaker",
  "sourceName": "contracts/pool/concentrated/ConcentratedLiquidityPoolStaker.sol",
  "abi": [
    {
      "inputs": [
        {
          "internalType": "contract IConcentratedLiquidityPoolManager",
          "name": "_poolManager",
          "type": "address"
        }
      ],
      "stateMutability": "nonpayable",
      "type": "constructor"
    },
    {
      "anonymous": false,
      "inputs": [
        {
          "indexed": true,
          "internalType": "contract IConcentratedLiquidityPool",
          "name": "pool",
          "type": "address"
        },
        {
          "indexed": true,
          "internalType": "uint256",
          "name": "incentiveId",
          "type": "uint256"
        },
        {
          "indexed": true,
          "internalType": "address",
          "name": "rewardToken",
          "type": "address"
        }
      ],
      "name": "AddIncentive",
      "type": "event"
    },
    {
      "anonymous": false,
      "inputs": [
        {
          "indexed": true,
          "internalType": "uint256",
          "name": "positionId",
          "type": "uint256"
        },
        {
          "indexed": true,
          "internalType": "uint256",
          "name": "incentiveId",
          "type": "uint256"
        },
        {
          "indexed": true,
          "internalType": "address",
          "name": "recipient",
          "type": "address"
        },
        {
          "indexed": false,
          "internalType": "uint96",
          "name": "amount",
          "type": "uint96"
        }
      ],
      "name": "ClaimReward",
      "type": "event"
    },
    {
      "anonymous": false,
      "inputs": [
        {
          "indexed": true,
          "internalType": "contract IConcentratedLiquidityPool",
          "name": "pool",
          "type": "address"
        },
        {
          "indexed": true,
          "internalType": "uint256",
          "name": "incentiveId",
          "type": "uint256"
        },
        {
          "indexed": false,
          "internalType": "uint256",
          "name": "amount",
          "type": "uint256"
        }
      ],
      "name": "ReclaimIncentive",
      "type": "event"
    },
    {
      "anonymous": false,
      "inputs": [
        {
          "indexed": true,
          "internalType": "uint256",
          "name": "positionId",
          "type": "uint256"
        },
        {
          "indexed": true,
          "internalType": "uint256",
          "name": "incentiveId",
          "type": "uint256"
        }
      ],
      "name": "Subscribe",
      "type": "event"
    },
    {
      "inputs": [
        {
          "internalType": "contract IConcentratedLiquidityPool",
          "name": "pool",
          "type": "address"
        },
        {
          "components": [
            {
              "internalType": "address",
              "name": "owner",
              "type": "address"
            },
            {
              "internalType": "address",
              "name": "token",
              "type": "address"
            },
            {
              "internalType": "uint32",
              "name": "startTime",
              "type": "uint32"
            },
            {
              "internalType": "uint32",
              "name": "endTime",
              "type": "uint32"
            },
            {
              "internalType": "uint32",
              "name": "expiry",
              "type": "uint32"
            },
            {
              "internalType": "uint160",
              "name": "secondsClaimed",
              "type": "uint160"
            },
            {
              "internalType": "uint96",
              "name": "rewardsUnclaimed",
              "type": "uint96"
            }
          ],
          "internalType": "struct ConcentratedLiquidityPoolStaker.Incentive",
          "name": "incentive",
          "type": "tuple"
        }
      ],
      "name": "addIncentive",
      "outputs": [],
      "stateMutability": "nonpayable",
      "type": "function"
    },
    {
      "inputs": [
        {
          "internalType": "uint256",
          "name": "positionId",
          "type": "uint256"
        },
        {
          "internalType": "uint256[]",
          "name": "incentiveIds",
          "type": "uint256[]"
        },
        {
          "internalType": "address",
          "name": "recipient",
          "type": "address"
        },
        {
          "internalType": "bool",
          "name": "unwrapVault",
          "type": "bool"
        }
      ],
      "name": "claimRewards",
      "outputs": [],
      "stateMutability": "nonpayable",
      "type": "function"
    },
    {
      "inputs": [
        {
          "internalType": "uint256",
          "name": "positionId",
          "type": "uint256"
        },
        {
          "internalType": "uint256",
          "name": "incentiveId",
          "type": "uint256"
        }
      ],
      "name": "getReward",
      "outputs": [
        {
          "internalType": "uint256",
          "name": "rewards",
          "type": "uint256"
        },
        {
          "internalType": "uint256",
          "name": "secondsInside",
          "type": "uint256"
        }
      ],
      "stateMutability": "view",
      "type": "function"
    },
    {
      "inputs": [
        {
          "internalType": "contract IConcentratedLiquidityPool",
          "name": "",
          "type": "address"
        }
      ],
      "name": "incentiveCount",
      "outputs": [
        {
          "internalType": "uint256",
          "name": "",
          "type": "uint256"
        }
      ],
      "stateMutability": "view",
      "type": "function"
    },
    {
      "inputs": [
        {
          "internalType": "contract IConcentratedLiquidityPool",
          "name": "",
          "type": "address"
        },
        {
          "internalType": "uint256",
          "name": "",
          "type": "uint256"
        }
      ],
      "name": "incentives",
      "outputs": [
        {
          "internalType": "address",
          "name": "owner",
          "type": "address"
        },
        {
          "internalType": "address",
          "name": "token",
          "type": "address"
        },
        {
          "internalType": "uint32",
          "name": "startTime",
          "type": "uint32"
        },
        {
          "internalType": "uint32",
          "name": "endTime",
          "type": "uint32"
        },
        {
          "internalType": "uint32",
          "name": "expiry",
          "type": "uint32"
        },
        {
          "internalType": "uint160",
          "name": "secondsClaimed",
          "type": "uint160"
        },
        {
          "internalType": "uint96",
          "name": "rewardsUnclaimed",
          "type": "uint96"
        }
      ],
      "stateMutability": "view",
      "type": "function"
    },
    {
      "inputs": [],
      "name": "poolManager",
      "outputs": [
        {
          "internalType": "contract IConcentratedLiquidityPoolManager",
          "name": "",
          "type": "address"
        }
      ],
      "stateMutability": "view",
      "type": "function"
    },
    {
      "inputs": [
        {
          "internalType": "contract IConcentratedLiquidityPool",
          "name": "pool",
          "type": "address"
        },
        {
          "internalType": "int24",
          "name": "lowerTick",
          "type": "int24"
        },
        {
          "internalType": "int24",
          "name": "upperTick",
          "type": "int24"
        }
      ],
      "name": "rangeSecondsInside",
      "outputs": [
        {
          "internalType": "uint256",
          "name": "secondsInside",
          "type": "uint256"
        }
      ],
      "stateMutability": "view",
      "type": "function"
    },
    {
      "inputs": [
        {
          "internalType": "contract IConcentratedLiquidityPool",
          "name": "pool",
          "type": "address"
        },
        {
          "internalType": "uint256",
          "name": "incentiveId",
          "type": "uint256"
        },
        {
          "internalType": "address",
          "name": "receiver",
          "type": "address"
        },
        {
          "internalType": "uint96",
          "name": "amount",
          "type": "uint96"
        },
        {
          "internalType": "bool",
          "name": "unwrapVault",
          "type": "bool"
        }
      ],
      "name": "reclaimIncentive",
      "outputs": [],
      "stateMutability": "nonpayable",
      "type": "function"
    },
    {
      "inputs": [
        {
          "internalType": "uint256",
          "name": "",
          "type": "uint256"
        },
        {
          "internalType": "uint256",
          "name": "",
          "type": "uint256"
        }
      ],
      "name": "stakes",
      "outputs": [
        {
          "internalType": "uint160",
          "name": "secondsGrowthInsideLast",
          "type": "uint160"
        },
        {
          "internalType": "uint32",
          "name": "timestamp",
          "type": "uint32"
        }
      ],
      "stateMutability": "view",
      "type": "function"
    },
    {
      "inputs": [
        {
          "internalType": "uint256",
          "name": "positionId",
          "type": "uint256"
        },
        {
          "internalType": "uint256[]",
          "name": "incentiveId",
          "type": "uint256[]"
        }
      ],
      "name": "subscribe",
      "outputs": [],
      "stateMutability": "nonpayable",
      "type": "function"
    },
    {
      "inputs": [],
      "name": "vault",
      "outputs": [
        {
          "internalType": "contract IVaultMinimal",
          "name": "",
          "type": "address"
        }
      ],
      "stateMutability": "view",
      "type": "function"
    }
  ],
  "bytecode": "0x60a06040523480156200001157600080fd5b506040516200205438038062002054833981016040819052620000349162000136565b600080546001600160a01b0319166001600160a01b03831690811782556040805163fbfa77cf60e01b8152905163fbfa77cf916004808201926020929091908290030181865afa1580156200008d573d6000803e3d6000fd5b505050506040513d601f19601f82011682018060405250810190620000b3919062000136565b9050806001600160a01b031663aee4d1b26040518163ffffffff1660e01b8152600401600060405180830381600087803b158015620000f157600080fd5b505af115801562000106573d6000803e3d6000fd5b505050506001600160a01b0316608052506200015d565b6001600160a01b03811681146200013357600080fd5b50565b6000602082840312156200014957600080fd5b815162000156816200011d565b9392505050565b608051611ecd62000187600039600081816102ef0152818161163301526116f50152611ecd6000f3fe608060405234801561001057600080fd5b50600436106100c95760003560e01c8063b221e5fd11610081578063dc4c90d31161005b578063dc4c90d3146102ac578063df674218146102d7578063fbfa77cf146102ea57600080fd5b8063b221e5fd1461020a578063b90bc51914610271578063cc6fa8c91461029957600080fd5b806371fa6b4d116100b257806371fa6b4d146101b6578063897217bc146101e45780638dde6dba146101f757600080fd5b806332e2e213146100ce57806355a93140146101a1575b600080fd5b6101496100dc366004611771565b600260208181526000938452604080852090915291835291208054600182015491909201546001600160a01b03928316928281169263ffffffff600160a01b808304821694600160c01b8404831694600160e01b909404909216928216916001600160601b039190041687565b604080516001600160a01b039889168152968816602088015263ffffffff95861690870152928416606086015292166080840152921660a08201526001600160601b0390911660c082015260e0015b60405180910390f35b6101b46101af3660046117d4565b610311565b005b6101d66101c4366004611836565b60016020526000908152604090205481565b604051908152602001610198565b6101b46101f236600461185a565b610509565b6101b4610205366004611966565b610984565b61024d610218366004611a2a565b60036020908152600092835260408084209091529082529020546001600160a01b03811690600160a01b900463ffffffff1682565b604080516001600160a01b03909316835263ffffffff909116602083015201610198565b61028461027f366004611a2a565b610cce565b60408051928352602083019190915201610198565b6101b46102a7366004611a4c565b610eea565b6000546102bf906001600160a01b031681565b6040516001600160a01b039091168152602001610198565b6101d66102e5366004611b2e565b61137d565b6102bf7f000000000000000000000000000000000000000000000000000000000000000081565b6001600160a01b0380861660009081526002602090815260408083208884529091529020805490911633146103795760405162461bcd60e51b81526020600482015260096024820152682727aa2fa7aba722a960b91b60448201526064015b60405180910390fd5b600181015442600160e01b90910463ffffffff16106103da5760405162461bcd60e51b815260206004820152600760248201527f45585049524544000000000000000000000000000000000000000000000000006044820152606401610370565b60028101546001600160601b03808516600160a01b9092041610156104415760405162461bcd60e51b815260206004820152600f60248201527f414c52454144595f434c41494d454400000000000000000000000000000000006044820152606401610370565b828160020160148282829054906101000a90046001600160601b03166104679190611b8f565b92506101000a8154816001600160601b0302191690836001600160601b031602179055506104b88160010160009054906101000a90046001600160a01b03163086866001600160601b0316866115d7565b6040516001600160601b038416815285906001600160a01b038816907f63156f3c47a8140de33d9354ed09cc696a65d2aae70b3600874fd35b6f082c469060200160405180910390a3505050505050565b6000546040516331a9108f60e11b81526004810185905233916001600160a01b031690636352211e90602401602060405180830381865afa158015610552573d6000803e3d6000fd5b505050506040513d601f19601f820116820180604052508101906105769190611bb7565b6001600160a01b0316146105b85760405162461bcd60e51b81526020600482015260096024820152682727aa2fa7aba722a960b91b6044820152606401610370565b6000805460405163133f757160e31b8152600481018690526001600160a01b03909116906399fbab889060240160e060405180830381865afa158015610602573d6000803e3d6000fd5b505050506040513d601f19601f820116820180604052508101906106269190611bf4565b80516020820151919250906fffffffffffffffffffffffffffffffff1661068f5760405162461bcd60e51b815260206004820152600860248201527f494e4143544956450000000000000000000000000000000000000000000000006044820152606401610370565b600060405180604001604052806106af848660400151876060015161137d565b6001600160a01b031681526020014263ffffffff16815250905060005b8481101561097b576001600160a01b0383166000908152600260205260408120818888858181106106ff576106ff611ca0565b602090810292909201358352508181019290925260409081016000908120825160e08101845281546001600160a01b03908116825260018301548082168388015263ffffffff600160a01b808304821685890152600160c01b830482166060860152600160e01b90920416608084015260029093015490811660a08301526001600160601b039290049190911660c08201528b8252600390935290812091925090818989868181106107b3576107b3611ca0565b6020908102929092013583525081019190915260400160002080549091506001600160a01b0316156108275760405162461bcd60e51b815260206004820152600a60248201527f53554253435249424544000000000000000000000000000000000000000000006044820152606401610370565b816040015163ffffffff16421015801561084a5750816060015163ffffffff1642105b6108965760405162461bcd60e51b815260206004820152601260248201527f494e4143544956455f494e43454e5449564500000000000000000000000000006044820152606401610370565b600089815260036020526040812085918a8a878181106108b8576108b8611ca0565b602090810292909201358352508181019290925260400160002082518154939092015163ffffffff16600160a01b027fffffffffffffffff0000000000000000000000000000000000000000000000009093166001600160a01b039092169190911791909117905587878481811061093257610932611ca0565b90506020020135897ff290eae22dead4b3e51c14d97c3ea66eb5c91286a496309828b9c28589d9021560405160405180910390a35050808061097390611cb6565b9150506106cc565b50505050505050565b6000429050816040015163ffffffff168163ffffffff1611156109e95760405162461bcd60e51b815260206004820152600f60248201527f414c52454144595f5354415254454400000000000000000000000000000000006044820152606401610370565b816060015163ffffffff16826040015163ffffffff1610610a4c5760405162461bcd60e51b815260206004820152600e60248201527f53544152545f504153545f454e440000000000000000000000000000000000006044820152606401610370565b816080015163ffffffff1682606001516276a700610a6a9190611cd1565b63ffffffff1610610abd5760405162461bcd60e51b815260206004820152600f60248201527f454e445f504153545f42554646455200000000000000000000000000000000006044820152606401610370565b60c08201516001600160601b0316610b175760405162461bcd60e51b815260206004820152600a60248201527f4e4f5f52455741524453000000000000000000000000000000000000000000006044820152606401610370565b600060a083018190526001600160a01b038416815260026020908152604080832060019092528220805485939182610b4e83611cb6565b909155508152602080820192909252604090810160009081208451815473ffffffffffffffffffffffffffffffffffffffff19166001600160a01b039182161782558585015160018301805495880151606089015160808a01519385167fffffffffffffffff00000000000000000000000000000000000000000000000090981697909717600160a01b63ffffffff92831681029190911777ffffffffffffffffffffffffffffffffffffffffffffffff16600160c01b988316989098027bffffffffffffffffffffffffffffffffffffffffffffffffffffffff1697909717600160e01b919093160291909117905560a086015160c09687015191166001600160601b03918216909402939093176002909101559185015192850151610c7b93923392309216906115d7565b6020808301516001600160a01b03858116600081815260019094526040808520549051929093169390917f700cf11d666684f2ebcf80048c6e6cb9e51e2a759375dc0f9d3290c6b957a72d9190a4505050565b6000805460405163133f757160e31b815260048101859052829182916001600160a01b03909116906399fbab889060240160e060405180830381865afa158015610d1c573d6000803e3d6000fd5b505050506040513d601f19601f82011682018060405250810190610d409190611bf4565b80516001600160a01b0380821660009081526002602081815260408084208c85528252808420815160e081018352815487168152600182015480881682860152600160a01b80820463ffffffff90811684870152600160c01b830481166060850152600160e01b90920482166080840152929095015480881660a08301528290046001600160601b031660c08201528d8652600384528286208d87528452948290208251808401909352549586168252909404909116908301819052939450919215610edf57600081600001516001600160a01b0316610e29858760400151886060015161137d565b610e339190611cf9565b905084602001516fffffffffffffffffffffffffffffffff1681610e579190611d10565b95506000836060015163ffffffff164210610e725742610e7e565b836060015163ffffffff165b905060008460a001516001600160a01b03166080866040015163ffffffff1684610ea89190611cf9565b610eb392911b611cf9565b905080888660c001516001600160601b0316610ecf9190611d10565b610ed99190611d2f565b98505050505b505050509250929050565b6000546040516331a9108f60e11b81526004810186905233916001600160a01b031690636352211e90602401602060405180830381865afa158015610f33573d6000803e3d6000fd5b505050506040513d601f19601f82011682018060405250810190610f579190611bb7565b6001600160a01b031614610f995760405162461bcd60e51b81526020600482015260096024820152682727aa2fa7aba722a960b91b6044820152606401610370565b6000805460405163133f757160e31b8152600481018790526001600160a01b03909116906399fbab889060240160e060405180830381865afa158015610fe3573d6000803e3d6000fd5b505050506040513d601f19601f820116820180604052508101906110079190611bf4565b90506000816000015190506000611027828460400151856060015161137d565b905060005b8651811015611373576001600160a01b0383166000908152600260205260408120885182908a908590811061106357611063611ca0565b6020026020010151815260200190815260200160002090506000600360008b815260200190815260200160002060008a85815181106110a4576110a4611ca0565b602002602001015181526020019081526020016000209050856080015163ffffffff168160000160149054906101000a900463ffffffff1663ffffffff1610156111305760405162461bcd60e51b815260206004820152601060248201527f4d5553545f5245535542534352494245000000000000000000000000000000006044820152606401610370565b80546000908190819061114c906001600160a01b031688611cf9565b6001860154909150600090600160c01b900463ffffffff1642106111705742611183565b6001860154600160c01b900463ffffffff165b600287015460018801549192506000916001600160a01b03909116906080906111b990600160a01b900463ffffffff1685611cf9565b6111c492911b611cf9565b90508a602001516fffffffffffffffffffffffffffffffff16836111e89190611d10565b6002880154909450819061120d908690600160a01b90046001600160601b0316611d10565b6112179190611d2f565b865473ffffffffffffffffffffffffffffffffffffffff19166001600160a01b038b811691909117885560028901805492975086955093506000925061125f91859116611d51565b92506101000a8154816001600160a01b0302191690836001600160a01b03160217905550818460020160148282829054906101000a90046001600160601b03166112a99190611b8f565b92506101000a8154816001600160601b0302191690836001600160601b031602179055506112f18460010160009054906101000a90046001600160a01b0316308c858d6115d7565b896001600160a01b03168b868151811061130d5761130d611ca0565b60200260200101518d7f65c447d181b93a7ecbcfb0582911789929f2eaf3dd655041ced82e3f361e34378560405161135491906001600160601b0391909116815260200190565b60405180910390a450505050808061136b90611cb6565b91505061102c565b5050505050505050565b600080846001600160a01b0316638c347f9b6040518163ffffffff1660e01b81526004016040805180830381865afa1580156113bd573d6000803e3d6000fd5b505050506040513d601f19601f820116820180604052508101906113e19190611d73565b60405163f30dba9360e01b8152600286900b6004820152909250600091506001600160a01b0387169063f30dba939060240160c060405180830381865afa158015611430573d6000803e3d6000fd5b505050506040513d601f19601f820116820180604052508101906114549190611dad565b60405163f30dba9360e01b8152600287900b60048201529091506000906001600160a01b0388169063f30dba939060240160c060405180830381865afa1580156114a2573d6000803e3d6000fd5b505050506040513d601f19601f820116820180604052508101906114c69190611dad565b90506000876001600160a01b0316636d59d8026040518163ffffffff1660e01b81526004016040805180830381865afa158015611507573d6000803e3d6000fd5b505050506040513d601f19601f8201168201806040525081019061152b9190611e44565b506001600160a01b031690506000808560020b8960020b1361155c578360a001516001600160a01b03169150611577565b60a0840151611574906001600160a01b031684611cf9565b91505b8760020b8660020b1215611599575060a08401516001600160a01b03166115b4565b60a08501516115b1906001600160a01b031684611cf9565b90505b806115bf8385611cf9565b6115c99190611cf9565b9a9950505050505050505050565b80156116a6576040517f97da6d300000000000000000000000000000000000000000000000000000000081526001600160a01b0386811660048301528581166024830152848116604483015260006064830152608482018490527f000000000000000000000000000000000000000000000000000000000000000016906397da6d309060a40160408051808303816000875af115801561167b573d6000803e3d6000fd5b505050506040513d601f19601f8201168201806040525081019061169f9190611e73565b5050611752565b6040517ff18d03cc0000000000000000000000000000000000000000000000000000000081526001600160a01b03868116600483015285811660248301528481166044830152606482018490527f0000000000000000000000000000000000000000000000000000000000000000169063f18d03cc90608401600060405180830381600087803b15801561173957600080fd5b505af115801561174d573d6000803e3d6000fd5b505050505b5050505050565b6001600160a01b038116811461176e57600080fd5b50565b6000806040838503121561178457600080fd5b823561178f81611759565b946020939093013593505050565b80356117a881611759565b919050565b80356001600160601b03811681146117a857600080fd5b803580151581146117a857600080fd5b600080600080600060a086880312156117ec57600080fd5b85356117f781611759565b945060208601359350604086013561180e81611759565b925061181c606087016117ad565b915061182a608087016117c4565b90509295509295909350565b60006020828403121561184857600080fd5b813561185381611759565b9392505050565b60008060006040848603121561186f57600080fd5b83359250602084013567ffffffffffffffff8082111561188e57600080fd5b818601915086601f8301126118a257600080fd5b8135818111156118b157600080fd5b8760208260051b85010111156118c657600080fd5b6020830194508093505050509250925092565b634e487b7160e01b600052604160045260246000fd5b60405160e0810167ffffffffffffffff81118282101715611912576119126118d9565b60405290565b604051601f8201601f1916810167ffffffffffffffff81118282101715611941576119416118d9565b604052919050565b63ffffffff8116811461176e57600080fd5b80356117a881611949565b60008082840361010081121561197b57600080fd5b833561198681611759565b925060e0601f198201121561199a57600080fd5b506119a36118ef565b60208401356119b181611759565b815260408401356119c181611759565b602082015260608401356119d481611949565b604082015260808401356119e781611949565b60608201526119f860a0850161195b565b6080820152611a0960c0850161179d565b60a0820152611a1a60e085016117ad565b60c0820152809150509250929050565b60008060408385031215611a3d57600080fd5b50508035926020909101359150565b60008060008060808587031215611a6257600080fd5b8435935060208086013567ffffffffffffffff80821115611a8257600080fd5b818801915088601f830112611a9657600080fd5b813581811115611aa857611aa86118d9565b8060051b9150611ab9848301611918565b818152918301840191848101908b841115611ad357600080fd5b938501935b83851015611af157843582529385019390850190611ad8565b809850505050505050611b066040860161179d565b9150611b14606086016117c4565b905092959194509250565b8060020b811461176e57600080fd5b600080600060608486031215611b4357600080fd5b8335611b4e81611759565b92506020840135611b5e81611b1f565b91506040840135611b6e81611b1f565b809150509250925092565b634e487b7160e01b600052601160045260246000fd5b60006001600160601b0383811690831681811015611baf57611baf611b79565b039392505050565b600060208284031215611bc957600080fd5b815161185381611759565b80516fffffffffffffffffffffffffffffffff811681146117a857600080fd5b600060e08284031215611c0657600080fd5b60405160e0810181811067ffffffffffffffff82111715611c2957611c296118d9565b6040528251611c3781611759565b8152611c4560208401611bd4565b60208201526040830151611c5881611b1f565b60408201526060830151611c6b81611b1f565b60608201526080830151611c7e81611949565b608082015260a0838101519082015260c0928301519281019290925250919050565b634e487b7160e01b600052603260045260246000fd5b6000600019821415611cca57611cca611b79565b5060010190565b600063ffffffff808316818516808303821115611cf057611cf0611b79565b01949350505050565b600082821015611d0b57611d0b611b79565b500390565b6000816000190483118215151615611d2a57611d2a611b79565b500290565b600082611d4c57634e487b7160e01b600052601260045260246000fd5b500490565b60006001600160a01b03808316818516808303821115611cf057611cf0611b79565b60008060408385031215611d8657600080fd5b8251611d9181611759565b6020840151909250611da281611b1f565b809150509250929050565b600060c08284031215611dbf57600080fd5b60405160c0810181811067ffffffffffffffff82111715611de257611de26118d9565b6040528251611df081611b1f565b81526020830151611e0081611b1f565b6020820152611e1160408401611bd4565b6040820152606083015160608201526080830151608082015260a0830151611e3881611759565b60a08201529392505050565b60008060408385031215611e5757600080fd5b8251611e6281611759565b6020840151909250611da281611949565b60008060408385031215611e8657600080fd5b50508051602090910151909290915056fea26469706673582212204822e83305f3c73d30b28b3da5bf1b5fc1447829c4b3ca1e0b33bea5f0ee956264736f6c634300080a0033",
  "linkReferences": {},
  "deployedLinkReferences": {}
}