{
  "_format": "hh-sol-artifact-1",
  "contractName": "ERC20Compliant",
  "sourceName": "contracts/mocks/ERC20Compliant.sol",
  "abi": [
    {
      "inputs": [
        {
          "internalType": "address",
          "name": "",
          "type": "address"
        },
        {
          "internalType": "uint256",
          "name": "",
          "type": "uint256"
        }
      ],
      "name": "approve",
      "outputs": [
        {
          "internalType": "bool",
          "name": "",
          "type": "bool"
        }
      ],
      "stateMutability": "view",
      "type": "function"
    },
    {
      "inputs": [
        {
          "internalType": "bool",
          "name": "success_",
          "type": "bool"
        },
        {
          "internalType": "bool",
          "name": "shouldRevert_",
          "type": "bool"
        }
      ],
      "name": "setup",
      "outputs": [],
      "stateMutability": "nonpayable",
      "type": "function"
    },
    {
      "inputs": [],
      "name": "shouldRevert",
      "outputs": [
        {
          "internalType": "bool",
          "name": "",
          "type": "bool"
        }
      ],
      "stateMutability": "view",
      "type": "function"
    },
    {
      "inputs": [],
      "name": "success",
      "outputs": [
        {
          "internalType": "bool",
          "name": "",
          "type": "bool"
        }
      ],
      "stateMutability": "view",
      "type": "function"
    },
    {
      "inputs": [
        {
          "internalType": "address",
          "name": "",
          "type": "address"
        },
        {
          "internalType": "uint256",
          "name": "",
          "type": "uint256"
        }
      ],
      "name": "transfer",
      "outputs": [
        {
          "internalType": "bool",
          "name": "",
          "type": "bool"
        }
      ],
      "stateMutability": "view",
      "type": "function"
    },
    {
      "inputs": [
        {
          "internalType": "address",
          "name": "",
          "type": "address"
        },
        {
          "internalType": "address",
          "name": "",
          "type": "address"
        },
        {
          "internalType": "uint256",
          "name": "",
          "type": "uint256"
        }
      ],
      "name": "transferFrom",
      "outputs": [
        {
          "internalType": "bool",
          "name": "",
          "type": "bool"
        }
      ],
      "stateMutability": "view",
      "type": "function"
    }
  ],
  "bytecode": "0x608060405234801561001057600080fd5b506102b0806100206000396000f3fe608060405234801561001057600080fd5b50600436106100725760003560e01c806323b872dd1161005057806323b872dd146100df578063a9059cbb14610077578063d3072d82146100f257600080fd5b8063095ea7b3146100775780630b93381b1461009e57806315d98b40146100ab575b600080fd5b61008a6100853660046101d1565b610104565b604051901515815260200160405180910390f35b60005461008a9060ff1681565b6100dd6100b936600461020b565b6000805461ffff191692151561ff0019169290921761010091151591909102179055565b005b61008a6100ed36600461023e565b610158565b60005461008a90610100900460ff1681565b60008054610100900460ff161561014b5760405162461bcd60e51b815260206004820152600660248201526514915591549560d21b60448201526064015b60405180910390fd5b5060005460ff1692915050565b60008054610100900460ff161561019a5760405162461bcd60e51b815260206004820152600660248201526514915591549560d21b6044820152606401610142565b5060005460ff169392505050565b803573ffffffffffffffffffffffffffffffffffffffff811681146101cc57600080fd5b919050565b600080604083850312156101e457600080fd5b6101ed836101a8565b946020939093013593505050565b803580151581146101cc57600080fd5b6000806040838503121561021e57600080fd5b610227836101fb565b9150610235602084016101fb565b90509250929050565b60008060006060848603121561025357600080fd5b61025c846101a8565b925061026a602085016101a8565b915060408401359050925092509256fea2646970667358221220d37eb6a02f45082440a78b14ec720275bf2d95e18b81dc3bf96bf2afcde9626564736f6c634300080a0033",
  "linkReferences": {},
  "deployedLinkReferences": {}
}