{
  "_format": "hh-sol-artifact-1",
  "contractName": "MulticallMock",
  "sourceName": "contracts/mocks/MulticallMock.sol",
  "abi": [
    {
      "inputs": [
        {
          "internalType": "uint256",
          "name": "a",
          "type": "uint256"
        },
        {
          "internalType": "uint256",
          "name": "b",
          "type": "uint256"
        }
      ],
      "name": "functionThatReturnsTuple",
      "outputs": [
        {
          "components": [
            {
              "internalType": "uint256",
              "name": "a",
              "type": "uint256"
            },
            {
              "internalType": "uint256",
              "name": "b",
              "type": "uint256"
            }
          ],
          "internalType": "struct MulticallMock.Tuple",
          "name": "tuple",
          "type": "tuple"
        }
      ],
      "stateMutability": "pure",
      "type": "function"
    },
    {
      "inputs": [
        {
          "internalType": "string",
          "name": "error",
          "type": "string"
        }
      ],
      "name": "functionThatRevertsWithError",
      "outputs": [],
      "stateMutability": "pure",
      "type": "function"
    },
    {
      "inputs": [],
      "name": "functionThatRevertsWithoutError",
      "outputs": [],
      "stateMutability": "pure",
      "type": "function"
    },
    {
      "inputs": [
        {
          "internalType": "bytes[]",
          "name": "data",
          "type": "bytes[]"
        }
      ],
      "name": "multicall",
      "outputs": [
        {
          "internalType": "bytes[]",
          "name": "results",
          "type": "bytes[]"
        }
      ],
      "stateMutability": "payable",
      "type": "function"
    },
    {
      "inputs": [],
      "name": "paid",
      "outputs": [
        {
          "internalType": "uint256",
          "name": "",
          "type": "uint256"
        }
      ],
      "stateMutability": "view",
      "type": "function"
    },
    {
      "inputs": [],
      "name": "pays",
      "outputs": [],
      "stateMutability": "payable",
      "type": "function"
    },
    {
      "inputs": [],
      "name": "returnSender",
      "outputs": [
        {
          "internalType": "address",
          "name": "",
          "type": "address"
        }
      ],
      "stateMutability": "view",
      "type": "function"
    }
  ],
  "bytecode": "0x608060405234801561001057600080fd5b506106a4806100206000396000f3fe6080604052600436106100705760003560e01c80633b16a6a31161004e5780633b16a6a3146100d55780635170a9d014610134578063ac9650d81461014f578063f3e222971461016f57600080fd5b8063127e33ab14610075578063295b4e171461008c57806334621235146100b5575b600080fd5b34801561008157600080fd5b5061008a600080fd5b005b34801561009857600080fd5b506100a260005481565b6040519081526020015b60405180910390f35b3480156100c157600080fd5b5061008a6100d036600461036e565b610177565b3480156100e157600080fd5b506101196100f03660046103ee565b604080518082018252600080825260209182015281518083019092529181529081019190915290565b604080518251815260209283015192810192909252016100ac565b34801561014057600080fd5b506040513381526020016100ac565b61016261015d366004610410565b61019a565b6040516100ac91906104e1565b61008a6102e7565b8060405162461bcd60e51b81526004016101919190610543565b60405180910390fd5b60608167ffffffffffffffff8111156101b5576101b56102ff565b6040519080825280602002602001820160405280156101e857816020015b60608152602001906001900390816101d35790505b50905060005b828110156102e0576000803086868581811061020c5761020c61055d565b905060200281019061021e9190610573565b60405161022c9291906105c1565b600060405180830381855af49150503d8060008114610267576040519150601f19603f3d011682016040523d82523d6000602084013e61026c565b606091505b5091509150816102b85760448151101561028557600080fd5b6004810190508080602001905181019061029f91906105d1565b60405162461bcd60e51b81526004016101919190610543565b808484815181106102cb576102cb61055d565b602090810291909101015250506001016101ee565b5092915050565b346000808282546102f89190610648565b9091555050565b634e487b7160e01b600052604160045260246000fd5b604051601f8201601f1916810167ffffffffffffffff8111828210171561033e5761033e6102ff565b604052919050565b600067ffffffffffffffff821115610360576103606102ff565b50601f01601f191660200190565b60006020828403121561038057600080fd5b813567ffffffffffffffff81111561039757600080fd5b8201601f810184136103a857600080fd5b80356103bb6103b682610346565b610315565b8181528560208385010111156103d057600080fd5b81602084016020830137600091810160200191909152949350505050565b6000806040838503121561040157600080fd5b50508035926020909101359150565b6000806020838503121561042357600080fd5b823567ffffffffffffffff8082111561043b57600080fd5b818501915085601f83011261044f57600080fd5b81358181111561045e57600080fd5b8660208260051b850101111561047357600080fd5b60209290920196919550909350505050565b60005b838110156104a0578181015183820152602001610488565b838111156104af576000848401525b50505050565b600081518084526104cd816020860160208601610485565b601f01601f19169290920160200192915050565b6000602080830181845280855180835260408601915060408160051b870101925083870160005b8281101561053657603f198886030184526105248583516104b5565b94509285019290850190600101610508565b5092979650505050505050565b60208152600061055660208301846104b5565b9392505050565b634e487b7160e01b600052603260045260246000fd5b6000808335601e1984360301811261058a57600080fd5b83018035915067ffffffffffffffff8211156105a557600080fd5b6020019150368190038213156105ba57600080fd5b9250929050565b8183823760009101908152919050565b6000602082840312156105e357600080fd5b815167ffffffffffffffff8111156105fa57600080fd5b8201601f8101841361060b57600080fd5b80516106196103b682610346565b81815285602083850101111561062e57600080fd5b61063f826020830160208601610485565b95945050505050565b6000821982111561066957634e487b7160e01b600052601160045260246000fd5b50019056fea264697066735822122017588b4fe1bd0098230349dafcfcbfc04d26ea619061b685f24497972f3f3b8264736f6c634300080a0033",
  "linkReferences": {},
  "deployedLinkReferences": {}
}