{
  "_format": "hh-sol-artifact-1",
  "contractName": "TridentRouter",
  "sourceName": "contracts/TridentRouter.sol",
  "abi": [
    {
      "inputs": [
        {
          "internalType": "contract IVaultMinimal",
          "name": "_vault",
          "type": "address"
        },
        {
          "internalType": "contract IMasterDeployer",
          "name": "_masterDeployer",
          "type": "address"
        },
        {
          "internalType": "address",
          "name": "_wETH",
          "type": "address"
        }
      ],
      "stateMutability": "nonpayable",
      "type": "constructor"
    },
    {
      "inputs": [],
      "name": "IncorrectTokenWithdrawn",
      "type": "error"
    },
    {
      "inputs": [],
      "name": "InsufficientWETH",
      "type": "error"
    },
    {
      "inputs": [],
      "name": "InvalidPool",
      "type": "error"
    },
    {
      "inputs": [],
      "name": "NotEnoughLiquidityMinted",
      "type": "error"
    },
    {
      "inputs": [],
      "name": "NotWethSender",
      "type": "error"
    },
    {
      "inputs": [],
      "name": "TooLittleReceived",
      "type": "error"
    },
    {
      "inputs": [
        {
          "components": [
            {
              "internalType": "address",
              "name": "token",
              "type": "address"
            },
            {
              "internalType": "bool",
              "name": "native",
              "type": "bool"
            },
            {
              "internalType": "uint256",
              "name": "amount",
              "type": "uint256"
            }
          ],
          "internalType": "struct ITridentRouter.TokenInput[]",
          "name": "tokenInput",
          "type": "tuple[]"
        },
        {
          "internalType": "address",
          "name": "pool",
          "type": "address"
        },
        {
          "internalType": "uint256",
          "name": "minLiquidity",
          "type": "uint256"
        },
        {
          "internalType": "bytes",
          "name": "data",
          "type": "bytes"
        }
      ],
      "name": "addLiquidity",
      "outputs": [
        {
          "internalType": "uint256",
          "name": "liquidity",
          "type": "uint256"
        }
      ],
      "stateMutability": "payable",
      "type": "function"
    },
    {
      "inputs": [
        {
          "internalType": "uint8",
          "name": "v",
          "type": "uint8"
        },
        {
          "internalType": "bytes32",
          "name": "r",
          "type": "bytes32"
        },
        {
          "internalType": "bytes32",
          "name": "s",
          "type": "bytes32"
        }
      ],
      "name": "approveMasterContract",
      "outputs": [],
      "stateMutability": "payable",
      "type": "function"
    },
    {
      "inputs": [
        {
          "internalType": "address",
          "name": "pool",
          "type": "address"
        },
        {
          "internalType": "uint256",
          "name": "liquidity",
          "type": "uint256"
        },
        {
          "internalType": "bytes",
          "name": "data",
          "type": "bytes"
        },
        {
          "components": [
            {
              "internalType": "address",
              "name": "token",
              "type": "address"
            },
            {
              "internalType": "uint256",
              "name": "amount",
              "type": "uint256"
            }
          ],
          "internalType": "struct IPool.TokenAmount[]",
          "name": "minWithdrawals",
          "type": "tuple[]"
        }
      ],
      "name": "burnLiquidity",
      "outputs": [],
      "stateMutability": "nonpayable",
      "type": "function"
    },
    {
      "inputs": [
        {
          "internalType": "address",
          "name": "pool",
          "type": "address"
        },
        {
          "internalType": "uint256",
          "name": "liquidity",
          "type": "uint256"
        },
        {
          "internalType": "bytes",
          "name": "data",
          "type": "bytes"
        },
        {
          "internalType": "uint256",
          "name": "minWithdrawal",
          "type": "uint256"
        }
      ],
      "name": "burnLiquiditySingle",
      "outputs": [],
      "stateMutability": "nonpayable",
      "type": "function"
    },
    {
      "inputs": [
        {
          "components": [
            {
              "components": [
                {
                  "internalType": "address",
                  "name": "tokenIn",
                  "type": "address"
                },
                {
                  "internalType": "address",
                  "name": "pool",
                  "type": "address"
                },
                {
                  "internalType": "bool",
                  "name": "native",
                  "type": "bool"
                },
                {
                  "internalType": "uint256",
                  "name": "amount",
                  "type": "uint256"
                },
                {
                  "internalType": "bytes",
                  "name": "data",
                  "type": "bytes"
                }
              ],
              "internalType": "struct ITridentRouter.InitialPath[]",
              "name": "initialPath",
              "type": "tuple[]"
            },
            {
              "components": [
                {
                  "internalType": "address",
                  "name": "tokenIn",
                  "type": "address"
                },
                {
                  "internalType": "address",
                  "name": "pool",
                  "type": "address"
                },
                {
                  "internalType": "uint64",
                  "name": "balancePercentage",
                  "type": "uint64"
                },
                {
                  "internalType": "bytes",
                  "name": "data",
                  "type": "bytes"
                }
              ],
              "internalType": "struct ITridentRouter.PercentagePath[]",
              "name": "percentagePath",
              "type": "tuple[]"
            },
            {
              "components": [
                {
                  "internalType": "address",
                  "name": "token",
                  "type": "address"
                },
                {
                  "internalType": "address",
                  "name": "to",
                  "type": "address"
                },
                {
                  "internalType": "bool",
                  "name": "unwrapVault",
                  "type": "bool"
                },
                {
                  "internalType": "uint256",
                  "name": "minAmount",
                  "type": "uint256"
                }
              ],
              "internalType": "struct ITridentRouter.Output[]",
              "name": "output",
              "type": "tuple[]"
            }
          ],
          "internalType": "struct ITridentRouter.ComplexPathParams",
          "name": "params",
          "type": "tuple"
        }
      ],
      "name": "complexPath",
      "outputs": [],
      "stateMutability": "payable",
      "type": "function"
    },
    {
      "inputs": [
        {
          "internalType": "address",
          "name": "factory",
          "type": "address"
        },
        {
          "internalType": "bytes",
          "name": "deployData",
          "type": "bytes"
        }
      ],
      "name": "deployPool",
      "outputs": [
        {
          "internalType": "address",
          "name": "",
          "type": "address"
        }
      ],
      "stateMutability": "payable",
      "type": "function"
    },
    {
      "inputs": [
        {
          "components": [
            {
              "internalType": "address",
              "name": "tokenIn",
              "type": "address"
            },
            {
              "internalType": "uint256",
              "name": "amountIn",
              "type": "uint256"
            },
            {
              "internalType": "uint256",
              "name": "amountOutMinimum",
              "type": "uint256"
            },
            {
              "components": [
                {
                  "internalType": "address",
                  "name": "pool",
                  "type": "address"
                },
                {
                  "internalType": "bytes",
                  "name": "data",
                  "type": "bytes"
                }
              ],
              "internalType": "struct ITridentRouter.Path[]",
              "name": "path",
              "type": "tuple[]"
            }
          ],
          "internalType": "struct ITridentRouter.ExactInputParams",
          "name": "params",
          "type": "tuple"
        }
      ],
      "name": "exactInput",
      "outputs": [
        {
          "internalType": "uint256",
          "name": "amountOut",
          "type": "uint256"
        }
      ],
      "stateMutability": "payable",
      "type": "function"
    },
    {
      "inputs": [
        {
          "components": [
            {
              "internalType": "uint256",
              "name": "amountIn",
              "type": "uint256"
            },
            {
              "internalType": "uint256",
              "name": "amountOutMinimum",
              "type": "uint256"
            },
            {
              "internalType": "address",
              "name": "pool",
              "type": "address"
            },
            {
              "internalType": "address",
              "name": "tokenIn",
              "type": "address"
            },
            {
              "internalType": "bytes",
              "name": "data",
              "type": "bytes"
            }
          ],
          "internalType": "struct ITridentRouter.ExactInputSingleParams",
          "name": "params",
          "type": "tuple"
        }
      ],
      "name": "exactInputSingle",
      "outputs": [
        {
          "internalType": "uint256",
          "name": "amountOut",
          "type": "uint256"
        }
      ],
      "stateMutability": "payable",
      "type": "function"
    },
    {
      "inputs": [
        {
          "components": [
            {
              "internalType": "uint256",
              "name": "amountIn",
              "type": "uint256"
            },
            {
              "internalType": "uint256",
              "name": "amountOutMinimum",
              "type": "uint256"
            },
            {
              "internalType": "address",
              "name": "pool",
              "type": "address"
            },
            {
              "internalType": "address",
              "name": "tokenIn",
              "type": "address"
            },
            {
              "internalType": "bytes",
              "name": "data",
              "type": "bytes"
            }
          ],
          "internalType": "struct ITridentRouter.ExactInputSingleParams",
          "name": "params",
          "type": "tuple"
        }
      ],
      "name": "exactInputSingleWithNativeToken",
      "outputs": [
        {
          "internalType": "uint256",
          "name": "amountOut",
          "type": "uint256"
        }
      ],
      "stateMutability": "payable",
      "type": "function"
    },
    {
      "inputs": [
        {
          "components": [
            {
              "internalType": "address",
              "name": "tokenIn",
              "type": "address"
            },
            {
              "internalType": "uint256",
              "name": "amountIn",
              "type": "uint256"
            },
            {
              "internalType": "uint256",
              "name": "amountOutMinimum",
              "type": "uint256"
            },
            {
              "components": [
                {
                  "internalType": "address",
                  "name": "pool",
                  "type": "address"
                },
                {
                  "internalType": "bytes",
                  "name": "data",
                  "type": "bytes"
                }
              ],
              "internalType": "struct ITridentRouter.Path[]",
              "name": "path",
              "type": "tuple[]"
            }
          ],
          "internalType": "struct ITridentRouter.ExactInputParams",
          "name": "params",
          "type": "tuple"
        }
      ],
      "name": "exactInputWithNativeToken",
      "outputs": [
        {
          "internalType": "uint256",
          "name": "amountOut",
          "type": "uint256"
        }
      ],
      "stateMutability": "payable",
      "type": "function"
    },
    {
      "inputs": [],
      "name": "masterDeployer",
      "outputs": [
        {
          "internalType": "contract IMasterDeployer",
          "name": "",
          "type": "address"
        }
      ],
      "stateMutability": "view",
      "type": "function"
    },
    {
      "inputs": [
        {
          "internalType": "bytes[]",
          "name": "data",
          "type": "bytes[]"
        }
      ],
      "name": "multicall",
      "outputs": [
        {
          "internalType": "bytes[]",
          "name": "results",
          "type": "bytes[]"
        }
      ],
      "stateMutability": "payable",
      "type": "function"
    },
    {
      "inputs": [
        {
          "internalType": "address",
          "name": "token",
          "type": "address"
        },
        {
          "internalType": "uint256",
          "name": "value",
          "type": "uint256"
        },
        {
          "internalType": "uint256",
          "name": "deadline",
          "type": "uint256"
        },
        {
          "internalType": "uint8",
          "name": "v",
          "type": "uint8"
        },
        {
          "internalType": "bytes32",
          "name": "r",
          "type": "bytes32"
        },
        {
          "internalType": "bytes32",
          "name": "s",
          "type": "bytes32"
        }
      ],
      "name": "selfPermit",
      "outputs": [],
      "stateMutability": "payable",
      "type": "function"
    },
    {
      "inputs": [
        {
          "internalType": "address",
          "name": "token",
          "type": "address"
        },
        {
          "internalType": "uint256",
          "name": "nonce",
          "type": "uint256"
        },
        {
          "internalType": "uint256",
          "name": "expiry",
          "type": "uint256"
        },
        {
          "internalType": "uint8",
          "name": "v",
          "type": "uint8"
        },
        {
          "internalType": "bytes32",
          "name": "r",
          "type": "bytes32"
        },
        {
          "internalType": "bytes32",
          "name": "s",
          "type": "bytes32"
        }
      ],
      "name": "selfPermitAllowed",
      "outputs": [],
      "stateMutability": "payable",
      "type": "function"
    },
    {
      "inputs": [
        {
          "internalType": "address",
          "name": "token",
          "type": "address"
        },
        {
          "internalType": "uint256",
          "name": "nonce",
          "type": "uint256"
        },
        {
          "internalType": "uint256",
          "name": "expiry",
          "type": "uint256"
        },
        {
          "internalType": "uint8",
          "name": "v",
          "type": "uint8"
        },
        {
          "internalType": "bytes32",
          "name": "r",
          "type": "bytes32"
        },
        {
          "internalType": "bytes32",
          "name": "s",
          "type": "bytes32"
        }
      ],
      "name": "selfPermitAllowedIfNecessary",
      "outputs": [],
      "stateMutability": "payable",
      "type": "function"
    },
    {
      "inputs": [
        {
          "internalType": "address",
          "name": "token",
          "type": "address"
        },
        {
          "internalType": "uint256",
          "name": "value",
          "type": "uint256"
        },
        {
          "internalType": "uint256",
          "name": "deadline",
          "type": "uint256"
        },
        {
          "internalType": "uint8",
          "name": "v",
          "type": "uint8"
        },
        {
          "internalType": "bytes32",
          "name": "r",
          "type": "bytes32"
        },
        {
          "internalType": "bytes32",
          "name": "s",
          "type": "bytes32"
        }
      ],
      "name": "selfPermitIfNecessary",
      "outputs": [],
      "stateMutability": "payable",
      "type": "function"
    },
    {
      "inputs": [
        {
          "internalType": "address",
          "name": "token",
          "type": "address"
        },
        {
          "internalType": "uint256",
          "name": "amount",
          "type": "uint256"
        },
        {
          "internalType": "address",
          "name": "recipient",
          "type": "address"
        },
        {
          "internalType": "bool",
          "name": "onVault",
          "type": "bool"
        }
      ],
      "name": "sweep",
      "outputs": [],
      "stateMutability": "payable",
      "type": "function"
    },
    {
      "inputs": [
        {
          "internalType": "uint256",
          "name": "amountMinimum",
          "type": "uint256"
        },
        {
          "internalType": "address",
          "name": "recipient",
          "type": "address"
        }
      ],
      "name": "unwrapWETH",
      "outputs": [],
      "stateMutability": "payable",
      "type": "function"
    },
    {
      "inputs": [],
      "name": "vault",
      "outputs": [
        {
          "internalType": "contract IVaultMinimal",
          "name": "",
          "type": "address"
        }
      ],
      "stateMutability": "view",
      "type": "function"
    },
    {
      "stateMutability": "payable",
      "type": "receive"
    }
  ],
  "bytecode": "0x60e06040523480156200001157600080fd5b5060405162003376380380620033768339810160408190526200003491620000c3565b6001600160a01b03808416608081905283821660a05290821660c0526040805163577268d960e11b8152905163aee4d1b29160048082019260009290919082900301818387803b1580156200008857600080fd5b505af11580156200009d573d6000803e3d6000fd5b5050505050505062000117565b6001600160a01b0381168114620000c057600080fd5b50565b600080600060608486031215620000d957600080fd5b8351620000e681620000aa565b6020850151909350620000f981620000aa565b60408501519092506200010c81620000aa565b809150509250925092565b60805160a05160c0516131bf620001b76000396000818161015801528181611edd0152611fc10152600081816103370152818161080601526121d3015260008181610391015281816105940152818161089601528181610b2e01528181610d3f0152818161136d015281816115fe01528181611748015281816119ae01528181611b0101528181611c2701528181611d8601526120b801526131bf6000f3fe6080604052600436106101485760003560e01c80639fa74491116100c0578063c2e3140a11610074578063e16d9ce511610059578063e16d9ce514610359578063f3995c671461036c578063fbfa77cf1461037f57600080fd5b8063c2e3140a14610312578063cf58879a1461032557600080fd5b8063ac9650d8116100a5578063ac9650d8146102cc578063b96c5c0e146102ec578063bc108693146102ff57600080fd5b80639fa74491146102a6578063a4a78f0c146102b957600080fd5b80632c0d9a0111610117578063403335a8116100fc578063403335a8146102605780634659a49414610273578063783312d91461028657600080fd5b80632c0d9a011461023a5780632cfcb94f1461024d57600080fd5b80630b0d1b1e146101b65780630f93d439146101dc5780631aa349a8146101ef578063250558dc1461020f57600080fd5b366101b157336001600160a01b037f000000000000000000000000000000000000000000000000000000000000000016146101af576040517fe7218bb300000000000000000000000000000000000000000000000000000000815260040160405180910390fd5b005b600080fd5b6101c96101c43660046125e4565b6103b3565b6040519081526020015b60405180910390f35b6101c96101ea366004612626565b610588565b3480156101fb57600080fd5b506101af61020a3660046126ca565b6106fd565b61022261021d36600461272e565b6107d3565b6040516001600160a01b0390911681526020016101d3565b6101c96102483660046125e4565b61088a565b6101c961025b366004612783565b610a95565b6101af61026e36600461284f565b610ced565b6101af610281366004612882565b610da8565b34801561029257600080fd5b506101af6102a13660046128dc565b610e56565b6101c96102b4366004612626565b61103f565b6101af6102c7366004612882565b61107b565b6102df6102da366004612997565b611101565b6040516101d39190612a64565b6101af6102fa366004612ac6565b611257565b6101af61030d366004612b0f565b611d33565b6101af610320366004612882565b611e28565b34801561033157600080fd5b506102227f000000000000000000000000000000000000000000000000000000000000000081565b6101af610367366004612b62565b611eac565b6101af61037a366004612882565b61203e565b34801561038b57600080fd5b506102227f000000000000000000000000000000000000000000000000000000000000000081565b600061040d6103c56020840184612b92565b6103d26060850185612baf565b60008181106103e3576103e3612bf9565b90506020028101906103f59190612c0f565b610403906020810190612b92565b84602001356120ae565b60005b61041d6060840184612baf565b905081101561055d5761046b6104366060850185612baf565b8381811061044657610446612bf9565b90506020028101906104589190612c0f565b610466906020810190612b92565b61217b565b6104786060840184612baf565b8281811061048857610488612bf9565b905060200281019061049a9190612c0f565b6104a8906020810190612b92565b6001600160a01b031663627dd56a6104c36060860186612baf565b848181106104d3576104d3612bf9565b90506020028101906104e59190612c0f565b6104f3906020810190612c2f565b6040518363ffffffff1660e01b8152600401610510929190612c9f565b6020604051808303816000875af115801561052f573d6000803e3d6000fd5b505050506040513d601f19601f820116820180604052508101906105539190612cb3565b9150600101610410565b5081604001358110156105835760405163c9f52c7160e01b815260040160405180910390fd5b919050565b60006001600160a01b037f00000000000000000000000000000000000000000000000000000000000000001663f18d03cc6105c96080850160608601612b92565b336105da6060870160408801612b92565b6040516001600160e01b031960e086901b1681526001600160a01b0393841660048201529183166024830152909116604482015284356064820152608401600060405180830381600087803b15801561063257600080fd5b505af1158015610646573d6000803e3d6000fd5b5061065b925050506060830160408401612b92565b6001600160a01b031663627dd56a6106766080850185612c2f565b6040518363ffffffff1660e01b8152600401610693929190612c9f565b6020604051808303816000875af11580156106b2573d6000803e3d6000fd5b505050506040513d601f19601f820116820180604052508101906106d69190612cb3565b905081602001358110156105835760405163c9f52c7160e01b815260040160405180910390fd5b6107068561217b565b61071b6001600160a01b03861633878761229b565b6040517faf8c09bf0000000000000000000000000000000000000000000000000000000081526000906001600160a01b0387169063af8c09bf906107659087908790600401612c9f565b6020604051808303816000875af1158015610784573d6000803e3d6000fd5b505050506040513d601f19601f820116820180604052508101906107a89190612cb3565b9050818110156107cb5760405163c9f52c7160e01b815260040160405180910390fd5b505050505050565b6040517f250558dc0000000000000000000000000000000000000000000000000000000081526000906001600160a01b037f0000000000000000000000000000000000000000000000000000000000000000169063250558dc9061083f90879087908790600401612ccc565b6020604051808303816000875af115801561085e573d6000803e3d6000fd5b505050506040513d601f19601f820116820180604052508101906108829190612cf8565b949350505050565b60006001600160a01b037f00000000000000000000000000000000000000000000000000000000000000001663f18d03cc6108c86020850185612b92565b336108d66060870187612baf565b60008181106108e7576108e7612bf9565b90506020028101906108f99190612c0f565b610907906020810190612b92565b60405160e085901b6001600160e01b03191681526001600160a01b0393841660048201529183166024830152909116604482015260208501356064820152608401600060405180830381600087803b15801561096257600080fd5b505af1158015610976573d6000803e3d6000fd5b5050505060005b61098a6060840184612baf565b905081101561055d576109a36104366060850185612baf565b6109b06060840184612baf565b828181106109c0576109c0612bf9565b90506020028101906109d29190612c0f565b6109e0906020810190612b92565b6001600160a01b031663627dd56a6109fb6060860186612baf565b84818110610a0b57610a0b612bf9565b9050602002810190610a1d9190612c0f565b610a2b906020810190612c2f565b6040518363ffffffff1660e01b8152600401610a48929190612c9f565b6020604051808303816000875af1158015610a67573d6000803e3d6000fd5b505050506040513d601f19601f82011682018060405250810190610a8b9190612cb3565b915060010161097d565b6000610aa08561217b565b60005b86811015610c1c57878782818110610abd57610abd612bf9565b9050606002016020016020810190610ad59190612d15565b15610b2c57610b27888883818110610aef57610aef612bf9565b610b059260206060909202019081019150612b92565b878a8a85818110610b1857610b18612bf9565b905060600201604001356120ae565b610c14565b7f00000000000000000000000000000000000000000000000000000000000000006001600160a01b031663f18d03cc898984818110610b6d57610b6d612bf9565b610b839260206060909202019081019150612b92565b33898c8c87818110610b9757610b97612bf9565b604080516001600160e01b031960e08a901b1681526001600160a01b03978816600482015295871660248701529590931660448501525060609091020191909101356064820152608401600060405180830381600087803b158015610bfb57600080fd5b505af1158015610c0f573d6000803e3d6000fd5b505050505b600101610aa3565b506040517f7ba0e2e70000000000000000000000000000000000000000000000000000000081526001600160a01b03861690637ba0e2e790610c649086908690600401612c9f565b6020604051808303816000875af1158015610c83573d6000803e3d6000fd5b505050506040513d601f19601f82011682018060405250810190610ca79190612cb3565b905083811015610ce3576040517f249942be00000000000000000000000000000000000000000000000000000000815260040160405180910390fd5b9695505050505050565b6040517fc0a47c930000000000000000000000000000000000000000000000000000000081523360048201523060248201526001604482015260ff841660648201526084810183905260a481018290527f00000000000000000000000000000000000000000000000000000000000000006001600160a01b03169063c0a47c939060c401600060405180830381600087803b158015610d8b57600080fd5b505af1158015610d9f573d6000803e3d6000fd5b50505050505050565b6040517f8fcbaf0c00000000000000000000000000000000000000000000000000000000815233600482015230602482015260448101869052606481018590526001608482015260ff841660a482015260c4810183905260e481018290526001600160a01b03871690638fcbaf0c90610104015b600060405180830381600087803b158015610e3657600080fd5b505af1158015610e4a573d6000803e3d6000fd5b50505050505050505050565b610e5f8661217b565b610e746001600160a01b03871633888861229b565b6040517f2a07b6c70000000000000000000000000000000000000000000000000000000081526000906001600160a01b03881690632a07b6c790610ebe9088908890600401612c9f565b6000604051808303816000875af1158015610edd573d6000803e3d6000fd5b505050506040513d6000823e601f3d908101601f19168201604052610f059190810190612da2565b905060005b828110156110355760005b8251811015610fea57848483818110610f3057610f30612bf9565b610f469260206040909202019081019150612b92565b6001600160a01b0316838281518110610f6157610f61612bf9565b6020026020010151600001516001600160a01b03161415610fda57848483818110610f8e57610f8e612bf9565b90506040020160200135838281518110610faa57610faa612bf9565b6020026020010151602001511015610fd55760405163c9f52c7160e01b815260040160405180910390fd5b610fea565b610fe381612e8e565b9050610f15565b82518110611024576040517f85b6199600000000000000000000000000000000000000000000000000000000815260040160405180910390fd5b5061102e81612e8e565b9050610f0a565b5050505050505050565b600061106b6110546080840160608501612b92565b6110646060850160408601612b92565b84356120ae565b61065b6060830160408401612b92565b604051636eb1769f60e11b8152336004820152306024820152600019906001600160a01b0388169063dd62ed3e90604401602060405180830381865afa1580156110c9573d6000803e3d6000fd5b505050506040513d601f19601f820116820180604052508101906110ed9190612cb3565b10156107cb576107cb868686868686610da8565b60608167ffffffffffffffff81111561111c5761111c612d32565b60405190808252806020026020018201604052801561114f57816020015b606081526020019060019003908161113a5790505b50905060005b82811015611250576000803086868581811061117357611173612bf9565b90506020028101906111859190612c2f565b604051611193929190612ea9565b600060405180830381855af49150503d80600081146111ce576040519150601f19603f3d011682016040523d82523d6000602084013e6111d3565b606091505b509150915081611228576044815110156111ec57600080fd5b600481019050808060200190518101906112069190612eb9565b60405162461bcd60e51b815260040161121f9190612f4d565b60405180910390fd5b8084848151811061123b5761123b612bf9565b60209081029190910101525050600101611155565b5092915050565b60005b6112648280612baf565b90508110156115d8576112778280612baf565b8281811061128757611287612bf9565b90506020028101906112999190612f60565b6112aa906060810190604001612d15565b156113635761135e6112bc8380612baf565b838181106112cc576112cc612bf9565b90506020028101906112de9190612f60565b6112ec906020810190612b92565b6112f68480612baf565b8481811061130657611306612bf9565b90506020028101906113189190612f60565b611329906040810190602001612b92565b6113338580612baf565b8581811061134357611343612bf9565b90506020028101906113559190612f60565b606001356120ae565b6114aa565b6001600160a01b037f00000000000000000000000000000000000000000000000000000000000000001663f18d03cc61139c8480612baf565b848181106113ac576113ac612bf9565b90506020028101906113be9190612f60565b6113cc906020810190612b92565b336113d78680612baf565b868181106113e7576113e7612bf9565b90506020028101906113f99190612f60565b61140a906040810190602001612b92565b6114148780612baf565b8781811061142457611424612bf9565b90506020028101906114369190612f60565b60405160e086901b6001600160e01b03191681526001600160a01b0394851660048201529284166024840152921660448201526060909101356064820152608401600060405180830381600087803b15801561149157600080fd5b505af11580156114a5573d6000803e3d6000fd5b505050505b6114ea6114b78380612baf565b838181106114c7576114c7612bf9565b90506020028101906114d99190612f60565b610466906040810190602001612b92565b6114f48280612baf565b8281811061150457611504612bf9565b90506020028101906115169190612f60565b611527906040810190602001612b92565b6001600160a01b031663627dd56a61153f8480612baf565b8481811061154f5761154f612bf9565b90506020028101906115619190612f60565b61156f906080810190612c2f565b6040518363ffffffff1660e01b815260040161158c929190612c9f565b6020604051808303816000875af11580156115ab573d6000803e3d6000fd5b505050506040513d601f19601f820116820180604052508101906115cf9190612cb3565b5060010161125a565b5060005b6115e96020830183612baf565b90508110156119885760006001600160a01b037f00000000000000000000000000000000000000000000000000000000000000001663f7888aec6116306020860186612baf565b8581811061164057611640612bf9565b90506020028101906116529190612f76565b611660906020810190612b92565b6040516001600160e01b031960e084901b1681526001600160a01b039091166004820152306024820152604401602060405180830381865afa1580156116aa573d6000803e3d6000fd5b505050506040513d601f19601f820116820180604052508101906116ce9190612cb3565b905060006116de6008600a613072565b6116eb6020860186612baf565b858181106116fb576116fb612bf9565b905060200281019061170d9190612f76565b61171e906060810190604001613081565b6117329067ffffffffffffffff16846130ab565b61173c91906130ca565b90506001600160a01b037f00000000000000000000000000000000000000000000000000000000000000001663f18d03cc61177a6020870187612baf565b8681811061178a5761178a612bf9565b905060200281019061179c9190612f76565b6117aa906020810190612b92565b306117b86020890189612baf565b888181106117c8576117c8612bf9565b90506020028101906117da9190612f76565b6117eb906040810190602001612b92565b60405160e085901b6001600160e01b03191681526001600160a01b0393841660048201529183166024830152909116604482015260648101849052608401600060405180830381600087803b15801561184357600080fd5b505af1158015611857573d6000803e3d6000fd5b5061188f925061186d9150506020860186612baf565b8581811061187d5761187d612bf9565b90506020028101906114d99190612f76565b61189c6020850185612baf565b848181106118ac576118ac612bf9565b90506020028101906118be9190612f76565b6118cf906040810190602001612b92565b6001600160a01b031663627dd56a6118ea6020870187612baf565b868181106118fa576118fa612bf9565b905060200281019061190c9190612f76565b61191a906060810190612c2f565b6040518363ffffffff1660e01b8152600401611937929190612c9f565b6020604051808303816000875af1158015611956573d6000803e3d6000fd5b505050506040513d601f19601f8201168201806040525081019061197a9190612cb3565b5082600101925050506115dc565b5060005b61199960408301836130ec565b9050811015611d2f5760006001600160a01b037f00000000000000000000000000000000000000000000000000000000000000001663f7888aec6119e060408601866130ec565b858181106119f0576119f0612bf9565b611a069260206080909202019081019150612b92565b6040516001600160e01b031960e084901b1681526001600160a01b039091166004820152306024820152604401602060405180830381865afa158015611a50573d6000803e3d6000fd5b505050506040513d601f19601f82011682018060405250810190611a749190612cb3565b9050611a8360408401846130ec565b83818110611a9357611a93612bf9565b90506080020160600135811015611abd5760405163c9f52c7160e01b815260040160405180910390fd5b611aca60408401846130ec565b83818110611ada57611ada612bf9565b9050608002016040016020810190611af29190612d15565b15611c1d576001600160a01b037f0000000000000000000000000000000000000000000000000000000000000000166397da6d30611b3360408601866130ec565b85818110611b4357611b43612bf9565b611b599260206080909202019081019150612b92565b30611b6760408801886130ec565b87818110611b7757611b77612bf9565b9050608002016020016020810190611b8f9190612b92565b60405160e085901b6001600160e01b03191681526001600160a01b03938416600482015291831660248301529091166044820152600060648201526084810184905260a40160408051808303816000875af1158015611bf2573d6000803e3d6000fd5b505050506040513d601f19601f82011682018060405250810190611c169190613136565b5050611d26565b6001600160a01b037f00000000000000000000000000000000000000000000000000000000000000001663f18d03cc611c5960408601866130ec565b85818110611c6957611c69612bf9565b611c7f9260206080909202019081019150612b92565b30611c8d60408801886130ec565b87818110611c9d57611c9d612bf9565b9050608002016020016020810190611cb59190612b92565b60405160e085901b6001600160e01b03191681526001600160a01b0393841660048201529183166024830152909116604482015260648101849052608401600060405180830381600087803b158015611d0d57600080fd5b505af1158015611d21573d6000803e3d6000fd5b505050505b5060010161198c565b5050565b8015611de7576040517ff18d03cc0000000000000000000000000000000000000000000000000000000081526001600160a01b0385811660048301523060248301528381166044830152606482018590527f0000000000000000000000000000000000000000000000000000000000000000169063f18d03cc90608401600060405180830381600087803b158015611dca57600080fd5b505af1158015611dde573d6000803e3d6000fd5b50505050611e22565b6001600160a01b03841615611e0f57611e0a6001600160a01b03851683856123e5565b611e22565b611e226001600160a01b03831647612527565b50505050565b604051636eb1769f60e11b815233600482015230602482015285906001600160a01b0388169063dd62ed3e90604401602060405180830381865afa158015611e74573d6000803e3d6000fd5b505050506040513d601f19601f82011682018060405250810190611e989190612cb3565b10156107cb576107cb86868686868661203e565b6040517f70a082310000000000000000000000000000000000000000000000000000000081523060048201526000907f00000000000000000000000000000000000000000000000000000000000000006001600160a01b0316906370a0823190602401602060405180830381865afa158015611f2c573d6000803e3d6000fd5b505050506040513d601f19601f82011682018060405250810190611f509190612cb3565b905082811015611f8c576040517f6f2750f500000000000000000000000000000000000000000000000000000000815260040160405180910390fd5b8015612039576040517f2e1a7d4d000000000000000000000000000000000000000000000000000000008152600481018290527f00000000000000000000000000000000000000000000000000000000000000006001600160a01b031690632e1a7d4d90602401600060405180830381600087803b15801561200d57600080fd5b505af1158015612021573d6000803e3d6000fd5b50612039925050506001600160a01b03831682612527565b505050565b6040517fd505accf000000000000000000000000000000000000000000000000000000008152336004820152306024820152604481018690526064810185905260ff8416608482015260a4810183905260c481018290526001600160a01b0387169063d505accf9060e401610e1c565b6001600160a01b037f00000000000000000000000000000000000000000000000000000000000000008116906302b9446c908516156120ee5760006120f0565b825b6040516001600160e01b031960e084901b1681526001600160a01b03808816600483015233602483015286166044820152606481018590526000608482015260a401604080518083038185885af115801561214f573d6000803e3d6000fd5b50505050506040513d601f19601f820116820180604052508101906121749190613136565b5050505050565b6001600160a01b03811660009081526020819052604090205460ff16612298576040517fa4063dbc0000000000000000000000000000000000000000000000000000000081526001600160a01b0382811660048301527f0000000000000000000000000000000000000000000000000000000000000000169063a4063dbc90602401602060405180830381865afa15801561221a573d6000803e3d6000fd5b505050506040513d601f19601f8201168201806040525081019061223e919061315a565b612274576040517f2083cd4000000000000000000000000000000000000000000000000000000000815260040160405180910390fd5b6001600160a01b0381166000908152602081905260409020805460ff191660011790555b50565b604080516001600160a01b0385811660248301528481166044830152606480830185905283518084039091018152608490920183526020820180517bffffffffffffffffffffffffffffffffffffffffffffffffffffffff167f23b872dd00000000000000000000000000000000000000000000000000000000179052915160009283929088169161232d9190613177565b6000604051808303816000865af19150503d806000811461236a576040519150601f19603f3d011682016040523d82523d6000602084013e61236f565b606091505b5091509150818015612399575080511580612399575080806020019051810190612399919061315a565b6107cb5760405162461bcd60e51b815260206004820152600360248201527f5354460000000000000000000000000000000000000000000000000000000000604482015260640161121f565b604080516001600160a01b038481166024830152604480830185905283518084039091018152606490920183526020820180517bffffffffffffffffffffffffffffffffffffffffffffffffffffffff167fa9059cbb00000000000000000000000000000000000000000000000000000000179052915160009283929087169161246f9190613177565b6000604051808303816000865af19150503d80600081146124ac576040519150601f19603f3d011682016040523d82523d6000602084013e6124b1565b606091505b50915091508180156124db5750805115806124db5750808060200190518101906124db919061315a565b6121745760405162461bcd60e51b815260206004820152600260248201527f5354000000000000000000000000000000000000000000000000000000000000604482015260640161121f565b604080516000808252602082019092526001600160a01b0384169083906040516125519190613177565b60006040518083038185875af1925050503d806000811461258e576040519150601f19603f3d011682016040523d82523d6000602084013e612593565b606091505b50509050806120395760405162461bcd60e51b815260206004820152600360248201527f5354450000000000000000000000000000000000000000000000000000000000604482015260640161121f565b6000602082840312156125f657600080fd5b813567ffffffffffffffff81111561260d57600080fd5b82016080818503121561261f57600080fd5b9392505050565b60006020828403121561263857600080fd5b813567ffffffffffffffff81111561264f57600080fd5b820160a0818503121561261f57600080fd5b6001600160a01b038116811461229857600080fd5b803561058381612661565b60008083601f84011261269357600080fd5b50813567ffffffffffffffff8111156126ab57600080fd5b6020830191508360208285010111156126c357600080fd5b9250929050565b6000806000806000608086880312156126e257600080fd5b85356126ed81612661565b945060208601359350604086013567ffffffffffffffff81111561271057600080fd5b61271c88828901612681565b96999598509660600135949350505050565b60008060006040848603121561274357600080fd5b833561274e81612661565b9250602084013567ffffffffffffffff81111561276a57600080fd5b61277686828701612681565b9497909650939450505050565b6000806000806000806080878903121561279c57600080fd5b863567ffffffffffffffff808211156127b457600080fd5b818901915089601f8301126127c857600080fd5b8135818111156127d757600080fd5b8a60206060830285010111156127ec57600080fd5b6020830198508097505061280260208a01612676565b955060408901359450606089013591508082111561281f57600080fd5b5061282c89828a01612681565b979a9699509497509295939492505050565b803560ff8116811461058357600080fd5b60008060006060848603121561286457600080fd5b61286d8461283e565b95602085013595506040909401359392505050565b60008060008060008060c0878903121561289b57600080fd5b86356128a681612661565b955060208701359450604087013593506128c26060880161283e565b92506080870135915060a087013590509295509295509295565b600080600080600080608087890312156128f557600080fd5b863561290081612661565b955060208701359450604087013567ffffffffffffffff8082111561292457600080fd5b6129308a838b01612681565b9096509450606089013591508082111561294957600080fd5b818901915089601f83011261295d57600080fd5b81358181111561296c57600080fd5b8a60208260061b850101111561298157600080fd5b6020830194508093505050509295509295509295565b600080602083850312156129aa57600080fd5b823567ffffffffffffffff808211156129c257600080fd5b818501915085601f8301126129d657600080fd5b8135818111156129e557600080fd5b8660208260051b85010111156129fa57600080fd5b60209290920196919550909350505050565b60005b83811015612a27578181015183820152602001612a0f565b83811115611e225750506000910152565b60008151808452612a50816020860160208601612a0c565b601f01601f19169290920160200192915050565b6000602080830181845280855180835260408601915060408160051b870101925083870160005b82811015612ab957603f19888603018452612aa7858351612a38565b94509285019290850190600101612a8b565b5092979650505050505050565b600060208284031215612ad857600080fd5b813567ffffffffffffffff811115612aef57600080fd5b82016060818503121561261f57600080fd5b801515811461229857600080fd5b60008060008060808587031215612b2557600080fd5b8435612b3081612661565b9350602085013592506040850135612b4781612661565b91506060850135612b5781612b01565b939692955090935050565b60008060408385031215612b7557600080fd5b823591506020830135612b8781612661565b809150509250929050565b600060208284031215612ba457600080fd5b813561261f81612661565b6000808335601e19843603018112612bc657600080fd5b83018035915067ffffffffffffffff821115612be157600080fd5b6020019150600581901b36038213156126c357600080fd5b634e487b7160e01b600052603260045260246000fd5b60008235603e19833603018112612c2557600080fd5b9190910192915050565b6000808335601e19843603018112612c4657600080fd5b83018035915067ffffffffffffffff821115612c6157600080fd5b6020019150368190038213156126c357600080fd5b81835281816020850137506000828201602090810191909152601f909101601f19169091010190565b602081526000610882602083018486612c76565b600060208284031215612cc557600080fd5b5051919050565b6001600160a01b0384168152604060208201526000612cef604083018486612c76565b95945050505050565b600060208284031215612d0a57600080fd5b815161261f81612661565b600060208284031215612d2757600080fd5b813561261f81612b01565b634e487b7160e01b600052604160045260246000fd5b6040805190810167ffffffffffffffff81118282101715612d6b57612d6b612d32565b60405290565b604051601f8201601f1916810167ffffffffffffffff81118282101715612d9a57612d9a612d32565b604052919050565b60006020808385031215612db557600080fd5b825167ffffffffffffffff80821115612dcd57600080fd5b818501915085601f830112612de157600080fd5b815181811115612df357612df3612d32565b612e01848260051b01612d71565b818152848101925060069190911b830184019087821115612e2157600080fd5b928401925b81841015612e6d5760408489031215612e3f5760008081fd5b612e47612d48565b8451612e5281612661565b81528486015186820152835260409093019291840191612e26565b979650505050505050565b634e487b7160e01b600052601160045260246000fd5b6000600019821415612ea257612ea2612e78565b5060010190565b8183823760009101908152919050565b600060208284031215612ecb57600080fd5b815167ffffffffffffffff80821115612ee357600080fd5b818401915084601f830112612ef757600080fd5b815181811115612f0957612f09612d32565b612f1c601f8201601f1916602001612d71565b9150808252856020828501011115612f3357600080fd5b612f44816020840160208601612a0c565b50949350505050565b60208152600061261f6020830184612a38565b60008235609e19833603018112612c2557600080fd5b60008235607e19833603018112612c2557600080fd5b600181815b80851115612fc7578160001904821115612fad57612fad612e78565b80851615612fba57918102915b93841c9390800290612f91565b509250929050565b600082612fde5750600161306c565b81612feb5750600061306c565b8160018114613001576002811461300b57613027565b600191505061306c565b60ff84111561301c5761301c612e78565b50506001821b61306c565b5060208310610133831016604e8410600b841016171561304a575081810a61306c565b6130548383612f8c565b806000190482111561306857613068612e78565b0290505b92915050565b600061261f60ff841683612fcf565b60006020828403121561309357600080fd5b813567ffffffffffffffff8116811461261f57600080fd5b60008160001904831182151516156130c5576130c5612e78565b500290565b6000826130e757634e487b7160e01b600052601260045260246000fd5b500490565b6000808335601e1984360301811261310357600080fd5b83018035915067ffffffffffffffff82111561311e57600080fd5b6020019150600781901b36038213156126c357600080fd5b6000806040838503121561314957600080fd5b505080516020909101519092909150565b60006020828403121561316c57600080fd5b815161261f81612b01565b60008251612c25818460208701612a0c56fea2646970667358221220154ed553e100f76531184f45cc3fbedfc55d47aa3fd98b216d48205d52d184b964736f6c634300080a0033",
  "linkReferences": {},
  "deployedLinkReferences": {}
}