{
  "_format": "hh-sol-artifact-1",
  "contractName": "ConcentratedLiquidityPoolManager",
  "sourceName": "contracts/pool/concentrated/ConcentratedLiquidityPoolManager.sol",
  "abi": [
    {
      "inputs": [
        {
          "internalType": "address",
          "name": "_masterDeployer",
          "type": "address"
        },
        {
          "internalType": "address",
          "name": "_wETH",
          "type": "address"
        }
      ],
      "stateMutability": "nonpayable",
      "type": "constructor"
    },
    {
      "inputs": [],
      "name": "TickOutOfBounds",
      "type": "error"
    },
    {
      "anonymous": false,
      "inputs": [
        {
          "indexed": true,
          "internalType": "address",
          "name": "owner",
          "type": "address"
        },
        {
          "indexed": true,
          "internalType": "address",
          "name": "approved",
          "type": "address"
        },
        {
          "indexed": true,
          "internalType": "uint256",
          "name": "tokenId",
          "type": "uint256"
        }
      ],
      "name": "Approval",
      "type": "event"
    },
    {
      "anonymous": false,
      "inputs": [
        {
          "indexed": true,
          "internalType": "address",
          "name": "owner",
          "type": "address"
        },
        {
          "indexed": true,
          "internalType": "address",
          "name": "operator",
          "type": "address"
        },
        {
          "indexed": false,
          "internalType": "bool",
          "name": "approved",
          "type": "bool"
        }
      ],
      "name": "ApprovalForAll",
      "type": "event"
    },
    {
      "anonymous": false,
      "inputs": [
        {
          "indexed": true,
          "internalType": "address",
          "name": "pool",
          "type": "address"
        },
        {
          "indexed": false,
          "internalType": "uint256",
          "name": "id",
          "type": "uint256"
        },
        {
          "indexed": false,
          "internalType": "uint256",
          "name": "amount",
          "type": "uint256"
        }
      ],
      "name": "CancelLimitOrder",
      "type": "event"
    },
    {
      "anonymous": false,
      "inputs": [
        {
          "indexed": true,
          "internalType": "address",
          "name": "pool",
          "type": "address"
        },
        {
          "indexed": false,
          "internalType": "uint256",
          "name": "id",
          "type": "uint256"
        },
        {
          "indexed": false,
          "internalType": "uint256",
          "name": "amount",
          "type": "uint256"
        }
      ],
      "name": "ClaimLimitOrder",
      "type": "event"
    },
    {
      "anonymous": false,
      "inputs": [
        {
          "indexed": true,
          "internalType": "address",
          "name": "pool",
          "type": "address"
        },
        {
          "indexed": true,
          "internalType": "uint256",
          "name": "price",
          "type": "uint256"
        },
        {
          "indexed": false,
          "internalType": "uint256",
          "name": "id",
          "type": "uint256"
        }
      ],
      "name": "CreateLImitOrder",
      "type": "event"
    },
    {
      "anonymous": false,
      "inputs": [
        {
          "indexed": true,
          "internalType": "address",
          "name": "pool",
          "type": "address"
        },
        {
          "indexed": true,
          "internalType": "address",
          "name": "owner",
          "type": "address"
        },
        {
          "indexed": true,
          "internalType": "uint256",
          "name": "positionId",
          "type": "uint256"
        },
        {
          "indexed": false,
          "internalType": "uint128",
          "name": "liquidity",
          "type": "uint128"
        }
      ],
      "name": "DecreaseLiquidity",
      "type": "event"
    },
    {
      "anonymous": false,
      "inputs": [
        {
          "indexed": true,
          "internalType": "address",
          "name": "pool",
          "type": "address"
        },
        {
          "indexed": true,
          "internalType": "address",
          "name": "owner",
          "type": "address"
        },
        {
          "indexed": true,
          "internalType": "uint256",
          "name": "positionId",
          "type": "uint256"
        },
        {
          "indexed": false,
          "internalType": "uint128",
          "name": "liquidity",
          "type": "uint128"
        }
      ],
      "name": "IncreaseLiquidity",
      "type": "event"
    },
    {
      "anonymous": false,
      "inputs": [
        {
          "indexed": true,
          "internalType": "address",
          "name": "from",
          "type": "address"
        },
        {
          "indexed": true,
          "internalType": "address",
          "name": "to",
          "type": "address"
        },
        {
          "indexed": true,
          "internalType": "uint256",
          "name": "tokenId",
          "type": "uint256"
        }
      ],
      "name": "Transfer",
      "type": "event"
    },
    {
      "inputs": [],
      "name": "DOMAIN_SEPARATOR",
      "outputs": [
        {
          "internalType": "bytes32",
          "name": "domainSeperator",
          "type": "bytes32"
        }
      ],
      "stateMutability": "view",
      "type": "function"
    },
    {
      "inputs": [],
      "name": "PERMIT_ALL_TYPEHASH",
      "outputs": [
        {
          "internalType": "bytes32",
          "name": "",
          "type": "bytes32"
        }
      ],
      "stateMutability": "view",
      "type": "function"
    },
    {
      "inputs": [],
      "name": "PERMIT_TYPEHASH",
      "outputs": [
        {
          "internalType": "bytes32",
          "name": "",
          "type": "bytes32"
        }
      ],
      "stateMutability": "view",
      "type": "function"
    },
    {
      "inputs": [
        {
          "internalType": "address",
          "name": "to",
          "type": "address"
        },
        {
          "internalType": "uint256",
          "name": "tokenId",
          "type": "uint256"
        }
      ],
      "name": "approve",
      "outputs": [],
      "stateMutability": "nonpayable",
      "type": "function"
    },
    {
      "inputs": [
        {
          "internalType": "address",
          "name": "owner",
          "type": "address"
        }
      ],
      "name": "balanceOf",
      "outputs": [
        {
          "internalType": "uint256",
          "name": "",
          "type": "uint256"
        }
      ],
      "stateMutability": "view",
      "type": "function"
    },
    {
      "inputs": [
        {
          "internalType": "uint256",
          "name": "tokenId",
          "type": "uint256"
        },
        {
          "internalType": "uint128",
          "name": "amount",
          "type": "uint128"
        },
        {
          "internalType": "address",
          "name": "recipient",
          "type": "address"
        },
        {
          "internalType": "bool",
          "name": "unwrapVault",
          "type": "bool"
        },
        {
          "internalType": "uint256",
          "name": "minimumOut0",
          "type": "uint256"
        },
        {
          "internalType": "uint256",
          "name": "minimumOut1",
          "type": "uint256"
        }
      ],
      "name": "burn",
      "outputs": [
        {
          "internalType": "uint256",
          "name": "token0Amount",
          "type": "uint256"
        },
        {
          "internalType": "uint256",
          "name": "token1Amount",
          "type": "uint256"
        }
      ],
      "stateMutability": "nonpayable",
      "type": "function"
    },
    {
      "inputs": [
        {
          "internalType": "uint256",
          "name": "tokenId",
          "type": "uint256"
        },
        {
          "internalType": "bool",
          "name": "unwrapVault",
          "type": "bool"
        }
      ],
      "name": "cancelLimitOrder",
      "outputs": [],
      "stateMutability": "nonpayable",
      "type": "function"
    },
    {
      "inputs": [
        {
          "internalType": "uint256",
          "name": "tokenId",
          "type": "uint256"
        },
        {
          "internalType": "uint256",
          "name": "amount",
          "type": "uint256"
        },
        {
          "internalType": "bool",
          "name": "unwrapVault",
          "type": "bool"
        }
      ],
      "name": "claimLimitOrder",
      "outputs": [],
      "stateMutability": "nonpayable",
      "type": "function"
    },
    {
      "inputs": [
        {
          "internalType": "uint256",
          "name": "tokenId",
          "type": "uint256"
        },
        {
          "internalType": "address",
          "name": "recipient",
          "type": "address"
        },
        {
          "internalType": "bool",
          "name": "unwrapVault",
          "type": "bool"
        }
      ],
      "name": "collect",
      "outputs": [
        {
          "internalType": "uint256",
          "name": "token0amount",
          "type": "uint256"
        },
        {
          "internalType": "uint256",
          "name": "token1amount",
          "type": "uint256"
        }
      ],
      "stateMutability": "nonpayable",
      "type": "function"
    },
    {
      "inputs": [
        {
          "internalType": "contract IConcentratedLiquidityPool",
          "name": "pool",
          "type": "address"
        },
        {
          "internalType": "int24",
          "name": "tick",
          "type": "int24"
        },
        {
          "internalType": "bool",
          "name": "native",
          "type": "bool"
        },
        {
          "internalType": "uint256",
          "name": "amountIn",
          "type": "uint256"
        },
        {
          "internalType": "bool",
          "name": "zeroForOne",
          "type": "bool"
        }
      ],
      "name": "createLimitOrder",
      "outputs": [
        {
          "internalType": "uint256",
          "name": "",
          "type": "uint256"
        }
      ],
      "stateMutability": "payable",
      "type": "function"
    },
    {
      "inputs": [
        {
          "internalType": "uint256",
          "name": "tokenId",
          "type": "uint256"
        }
      ],
      "name": "getApproved",
      "outputs": [
        {
          "internalType": "address",
          "name": "",
          "type": "address"
        }
      ],
      "stateMutability": "view",
      "type": "function"
    },
    {
      "inputs": [
        {
          "internalType": "address",
          "name": "owner",
          "type": "address"
        },
        {
          "internalType": "address",
          "name": "operator",
          "type": "address"
        }
      ],
      "name": "isApprovedForAll",
      "outputs": [
        {
          "internalType": "bool",
          "name": "",
          "type": "bool"
        }
      ],
      "stateMutability": "view",
      "type": "function"
    },
    {
      "inputs": [
        {
          "internalType": "address",
          "name": "token",
          "type": "address"
        },
        {
          "internalType": "uint256",
          "name": "amount",
          "type": "uint256"
        },
        {
          "internalType": "bool",
          "name": "native",
          "type": "bool"
        }
      ],
      "name": "limitOrderCallback",
      "outputs": [],
      "stateMutability": "nonpayable",
      "type": "function"
    },
    {
      "inputs": [],
      "name": "limitOrderId",
      "outputs": [
        {
          "internalType": "uint256",
          "name": "",
          "type": "uint256"
        }
      ],
      "stateMutability": "view",
      "type": "function"
    },
    {
      "inputs": [],
      "name": "limitOrderToken",
      "outputs": [
        {
          "internalType": "contract LimitOrderToken",
          "name": "",
          "type": "address"
        }
      ],
      "stateMutability": "view",
      "type": "function"
    },
    {
      "inputs": [
        {
          "internalType": "uint256",
          "name": "",
          "type": "uint256"
        }
      ],
      "name": "limitOrders",
      "outputs": [
        {
          "internalType": "contract IConcentratedLiquidityPool",
          "name": "pool",
          "type": "address"
        },
        {
          "internalType": "uint256",
          "name": "id",
          "type": "uint256"
        },
        {
          "internalType": "int24",
          "name": "tick",
          "type": "int24"
        },
        {
          "internalType": "uint256",
          "name": "price",
          "type": "uint256"
        },
        {
          "internalType": "bool",
          "name": "zeroForOne",
          "type": "bool"
        },
        {
          "internalType": "uint256",
          "name": "amountIn",
          "type": "uint256"
        },
        {
          "internalType": "uint256",
          "name": "amountOut",
          "type": "uint256"
        },
        {
          "internalType": "uint256",
          "name": "claimedAmount",
          "type": "uint256"
        },
        {
          "internalType": "enum IConcentratedLiquidityPoolManagerStruct.LimitOrderStatus",
          "name": "status",
          "type": "uint8"
        }
      ],
      "stateMutability": "view",
      "type": "function"
    },
    {
      "inputs": [],
      "name": "masterDeployer",
      "outputs": [
        {
          "internalType": "contract IMasterDeployer",
          "name": "",
          "type": "address"
        }
      ],
      "stateMutability": "view",
      "type": "function"
    },
    {
      "inputs": [
        {
          "internalType": "contract IConcentratedLiquidityPool",
          "name": "pool",
          "type": "address"
        },
        {
          "internalType": "int24",
          "name": "lowerOld",
          "type": "int24"
        },
        {
          "internalType": "int24",
          "name": "lower",
          "type": "int24"
        },
        {
          "internalType": "int24",
          "name": "upperOld",
          "type": "int24"
        },
        {
          "internalType": "int24",
          "name": "upper",
          "type": "int24"
        },
        {
          "internalType": "uint128",
          "name": "amount0Desired",
          "type": "uint128"
        },
        {
          "internalType": "uint128",
          "name": "amount1Desired",
          "type": "uint128"
        },
        {
          "internalType": "bool",
          "name": "native",
          "type": "bool"
        },
        {
          "internalType": "uint256",
          "name": "minLiquidity",
          "type": "uint256"
        },
        {
          "internalType": "uint256",
          "name": "positionId",
          "type": "uint256"
        }
      ],
      "name": "mint",
      "outputs": [
        {
          "internalType": "uint256",
          "name": "_positionId",
          "type": "uint256"
        }
      ],
      "stateMutability": "payable",
      "type": "function"
    },
    {
      "inputs": [
        {
          "internalType": "address",
          "name": "token0",
          "type": "address"
        },
        {
          "internalType": "address",
          "name": "token1",
          "type": "address"
        },
        {
          "internalType": "uint256",
          "name": "amount0",
          "type": "uint256"
        },
        {
          "internalType": "uint256",
          "name": "amount1",
          "type": "uint256"
        },
        {
          "internalType": "bool",
          "name": "native",
          "type": "bool"
        }
      ],
      "name": "mintCallback",
      "outputs": [],
      "stateMutability": "nonpayable",
      "type": "function"
    },
    {
      "inputs": [
        {
          "internalType": "bytes[]",
          "name": "data",
          "type": "bytes[]"
        }
      ],
      "name": "multicall",
      "outputs": [
        {
          "internalType": "bytes[]",
          "name": "results",
          "type": "bytes[]"
        }
      ],
      "stateMutability": "payable",
      "type": "function"
    },
    {
      "inputs": [],
      "name": "name",
      "outputs": [
        {
          "internalType": "string",
          "name": "",
          "type": "string"
        }
      ],
      "stateMutability": "view",
      "type": "function"
    },
    {
      "inputs": [],
      "name": "nftCount",
      "outputs": [
        {
          "internalType": "uint128",
          "name": "minted",
          "type": "uint128"
        },
        {
          "internalType": "uint128",
          "name": "burned",
          "type": "uint128"
        }
      ],
      "stateMutability": "view",
      "type": "function"
    },
    {
      "inputs": [
        {
          "internalType": "uint256",
          "name": "",
          "type": "uint256"
        }
      ],
      "name": "nonces",
      "outputs": [
        {
          "internalType": "uint256",
          "name": "",
          "type": "uint256"
        }
      ],
      "stateMutability": "view",
      "type": "function"
    },
    {
      "inputs": [
        {
          "internalType": "address",
          "name": "",
          "type": "address"
        }
      ],
      "name": "noncesForAll",
      "outputs": [
        {
          "internalType": "uint256",
          "name": "",
          "type": "uint256"
        }
      ],
      "stateMutability": "view",
      "type": "function"
    },
    {
      "inputs": [
        {
          "internalType": "uint256",
          "name": "tokenId",
          "type": "uint256"
        }
      ],
      "name": "ownerOf",
      "outputs": [
        {
          "internalType": "address",
          "name": "",
          "type": "address"
        }
      ],
      "stateMutability": "view",
      "type": "function"
    },
    {
      "inputs": [
        {
          "internalType": "address",
          "name": "spender",
          "type": "address"
        },
        {
          "internalType": "uint256",
          "name": "tokenId",
          "type": "uint256"
        },
        {
          "internalType": "uint256",
          "name": "deadline",
          "type": "uint256"
        },
        {
          "internalType": "uint8",
          "name": "v",
          "type": "uint8"
        },
        {
          "internalType": "bytes32",
          "name": "r",
          "type": "bytes32"
        },
        {
          "internalType": "bytes32",
          "name": "s",
          "type": "bytes32"
        }
      ],
      "name": "permit",
      "outputs": [],
      "stateMutability": "nonpayable",
      "type": "function"
    },
    {
      "inputs": [
        {
          "internalType": "address",
          "name": "tokenOwner",
          "type": "address"
        },
        {
          "internalType": "address",
          "name": "operator",
          "type": "address"
        },
        {
          "internalType": "uint256",
          "name": "deadline",
          "type": "uint256"
        },
        {
          "internalType": "uint8",
          "name": "v",
          "type": "uint8"
        },
        {
          "internalType": "bytes32",
          "name": "r",
          "type": "bytes32"
        },
        {
          "internalType": "bytes32",
          "name": "s",
          "type": "bytes32"
        }
      ],
      "name": "permitAll",
      "outputs": [],
      "stateMutability": "nonpayable",
      "type": "function"
    },
    {
      "inputs": [
        {
          "internalType": "uint256",
          "name": "tokenId",
          "type": "uint256"
        }
      ],
      "name": "positionFees",
      "outputs": [
        {
          "internalType": "uint256",
          "name": "token0amount",
          "type": "uint256"
        },
        {
          "internalType": "uint256",
          "name": "token1amount",
          "type": "uint256"
        },
        {
          "internalType": "uint256",
          "name": "feeGrowthInside0",
          "type": "uint256"
        },
        {
          "internalType": "uint256",
          "name": "feeGrowthInside1",
          "type": "uint256"
        }
      ],
      "stateMutability": "view",
      "type": "function"
    },
    {
      "inputs": [
        {
          "internalType": "uint256",
          "name": "",
          "type": "uint256"
        }
      ],
      "name": "positions",
      "outputs": [
        {
          "internalType": "contract IConcentratedLiquidityPool",
          "name": "pool",
          "type": "address"
        },
        {
          "internalType": "uint128",
          "name": "liquidity",
          "type": "uint128"
        },
        {
          "internalType": "int24",
          "name": "lower",
          "type": "int24"
        },
        {
          "internalType": "int24",
          "name": "upper",
          "type": "int24"
        },
        {
          "internalType": "uint32",
          "name": "latestAddition",
          "type": "uint32"
        },
        {
          "internalType": "uint256",
          "name": "feeGrowthInside0",
          "type": "uint256"
        },
        {
          "internalType": "uint256",
          "name": "feeGrowthInside1",
          "type": "uint256"
        }
      ],
      "stateMutability": "view",
      "type": "function"
    },
    {
      "inputs": [
        {
          "internalType": "address",
          "name": "from",
          "type": "address"
        },
        {
          "internalType": "address",
          "name": "to",
          "type": "address"
        },
        {
          "internalType": "uint256",
          "name": "tokenId",
          "type": "uint256"
        }
      ],
      "name": "safeTransferFrom",
      "outputs": [],
      "stateMutability": "nonpayable",
      "type": "function"
    },
    {
      "inputs": [
        {
          "internalType": "address",
          "name": "from",
          "type": "address"
        },
        {
          "internalType": "address",
          "name": "to",
          "type": "address"
        },
        {
          "internalType": "uint256",
          "name": "tokenId",
          "type": "uint256"
        },
        {
          "internalType": "bytes",
          "name": "_data",
          "type": "bytes"
        }
      ],
      "name": "safeTransferFrom",
      "outputs": [],
      "stateMutability": "nonpayable",
      "type": "function"
    },
    {
      "inputs": [
        {
          "internalType": "address",
          "name": "operator",
          "type": "address"
        },
        {
          "internalType": "bool",
          "name": "approved",
          "type": "bool"
        }
      ],
      "name": "setApprovalForAll",
      "outputs": [],
      "stateMutability": "nonpayable",
      "type": "function"
    },
    {
      "inputs": [
        {
          "internalType": "bytes4",
          "name": "interfaceId",
          "type": "bytes4"
        }
      ],
      "name": "supportsInterface",
      "outputs": [
        {
          "internalType": "bool",
          "name": "",
          "type": "bool"
        }
      ],
      "stateMutability": "view",
      "type": "function"
    },
    {
      "inputs": [],
      "name": "symbol",
      "outputs": [
        {
          "internalType": "string",
          "name": "",
          "type": "string"
        }
      ],
      "stateMutability": "view",
      "type": "function"
    },
    {
      "inputs": [
        {
          "internalType": "uint256",
          "name": "tokenId",
          "type": "uint256"
        }
      ],
      "name": "tokenURI",
      "outputs": [
        {
          "internalType": "string",
          "name": "",
          "type": "string"
        }
      ],
      "stateMutability": "view",
      "type": "function"
    },
    {
      "inputs": [],
      "name": "totalSupply",
      "outputs": [
        {
          "internalType": "uint256",
          "name": "",
          "type": "uint256"
        }
      ],
      "stateMutability": "view",
      "type": "function"
    },
    {
      "inputs": [
        {
          "internalType": "address",
          "name": "from",
          "type": "address"
        },
        {
          "internalType": "address",
          "name": "to",
          "type": "address"
        },
        {
          "internalType": "uint256",
          "name": "tokenId",
          "type": "uint256"
        }
      ],
      "name": "transferFrom",
      "outputs": [],
      "stateMutability": "nonpayable",
      "type": "function"
    },
    {
      "inputs": [],
      "name": "vault",
      "outputs": [
        {
          "internalType": "contract IVaultMinimal",
          "name": "",
          "type": "address"
        }
      ],
      "stateMutability": "view",
      "type": "function"
    }
  ],
  "bytecode": "0x6101206040526009805460016001600160a01b03199182168117909255600a805490911690911790553480156200003557600080fd5b50604051620078ce380380620078ce833981016040819052620000589162000583565b604080518082018252600781526604446594e5f4c560cc1b6020808301918252835180850190945260038452620444c560ec1b908401528151919291620000a291600091620004b2565b508051620000b8906001906020840190620004b2565b50504660a0818152604080518082018252600a815269151c9a59195b9d13919560b21b6020918201528151808301835260018152603160f81b9082015281517f8b73c3c69bb8fe3d512ecc4cf759cc79239f7b179b0ffacaa9a75d522b39400f818301527f790a7a9b65ea2ce0cf93ce97615ad3ceeb0a6082b5ad238c5227302f947047b0818401527fc89efdaa54c0f20c7adf612882df0950f5a951637e0307cdcb4c672f298b8bc66060820152608081019490945230848401528151808503909301835260c09093019052805191012090506080526001600160a01b0382166101008190526040805163fbfa77cf60e01b815290516000929163fbfa77cf9160048083019260209291908290030181865afa158015620001de573d6000803e3d6000fd5b505050506040513d601f19601f82011682018060405250810190620002049190620005bb565b9050806001600160a01b031663aee4d1b26040518163ffffffff1660e01b8152600401600060405180830381600087803b1580156200024257600080fd5b505af115801562000257573d6000803e3d6000fd5b5050506001600160a01b0380831660e052831660c052506040516200027c9062000541565b60408082526007908201526611199e5b9313d560ca1b606082015260806020820181905260049082015263111313d560e21b60a082015260c001604051809103906000f080158015620002d3573d6000803e3d6000fd5b50600d80546001600160a01b0319166001600160a01b0392909216919091179055620002ff3062000308565b50505062000678565b60068054620003639183916001600160801b03169060006200032a83620005f6565b91906101000a8154816001600160801b0302191690836001600160801b031602179055506001600160801b03166200036660201b60201c565b50565b6001600160a01b038216620003c25760405162461bcd60e51b815260206004820181905260248201527f4552433732313a206d696e7420746f20746865207a65726f206164647265737360448201526064015b60405180910390fd5b6000818152600260205260409020546001600160a01b031615620004295760405162461bcd60e51b815260206004820152601c60248201527f4552433732313a20746f6b656e20616c7265616479206d696e746564000000006044820152606401620003b9565b6001600160a01b03821660009081526003602052604081208054600192906200045490849062000620565b909155505060008181526002602052604080822080546001600160a01b0319166001600160a01b03861690811790915590518392907fddf252ad1be2c89b69c2b068fc378daa952ba7f163c4a11628f55a4df523b3ef908290a45050565b828054620004c0906200063b565b90600052602060002090601f016020900481019282620004e457600085556200052f565b82601f10620004ff57805160ff19168380011785556200052f565b828001600101855582156200052f579182015b828111156200052f57825182559160200191906001019062000512565b506200053d9291506200054f565b5090565b611c458062005c8983390190565b5b808211156200053d576000815560010162000550565b80516001600160a01b03811681146200057e57600080fd5b919050565b600080604083850312156200059757600080fd5b620005a28362000566565b9150620005b26020840162000566565b90509250929050565b600060208284031215620005ce57600080fd5b620005d98262000566565b9392505050565b634e487b7160e01b600052601160045260246000fd5b60006001600160801b0382811680821415620006165762000616620005e0565b6001019392505050565b60008219821115620006365762000636620005e0565b500190565b600181811c908216806200065057607f821691505b602082108114156200067257634e487b7160e01b600052602260045260246000fd5b50919050565b60805160a05160c05160e0516101005161557f6200070a60003960008181610836015261132f01526000818161093301528181612615015281816126ab01528181612d2901528181612dbc015281816133f2015281816136810152818161372801528181614022015281816140d6015261418a01526000613f95015260006111a9015260006112d2015261557f6000f3fe6080604052600436106102855760003560e01c80638c6ab01311610153578063ac9650d8116100cb578063d967f4311161007f578063e985e9c511610064578063e985e9c514610898578063ed7bba9a146108e1578063fbfa77cf1461092157600080fd5b8063d967f43114610858578063e6dd0e561461087857600080fd5b8063b88d4fde116100b0578063b88d4fde146107e4578063c87b56dd14610804578063cf58879a1461082457600080fd5b8063ac9650d814610790578063b4e13c8d146107b057600080fd5b8063a22cb46511610122578063a3e2b49511610107578063a3e2b495146106c1578063a7c1d44814610750578063aba078471461077057600080fd5b8063a22cb46514610681578063a322cbae146106a157600080fd5b80638c6ab01314610550578063904dfb8e1461057057806395d89b411461059d57806399fbab88146105b257600080fd5b806323b872dd116102015780636352211e116101b55780636c4bbbed1161019a5780636c4bbbed146104db57806370a08231146105105780637ac2ff7b1461053057600080fd5b80636352211e146104a8578063688db67e146104c857600080fd5b80633644e515116101e65780633644e515146104605780633f0331871461047557806342842e0e1461048857600080fd5b806323b872dd1461040c57806330adf81f1461042c57600080fd5b80630af2c6ca11610258578063116f575b1161023d578063116f575b146103a6578063141a468c146103ca57806318160ddd146103f757600080fd5b80630af2c6ca1461033b5780631112e2f31461038657600080fd5b806301ffc9a71461028a57806306fdde03146102bf578063081812fc146102e1578063095ea7b314610319575b600080fd5b34801561029657600080fd5b506102aa6102a53660046147ab565b610955565b60405190151581526020015b60405180910390f35b3480156102cb57600080fd5b506102d46109f2565b6040516102b69190614820565b3480156102ed57600080fd5b506103016102fc366004614833565b610a84565b6040516001600160a01b0390911681526020016102b6565b34801561032557600080fd5b50610339610334366004614861565b610b1e565b005b34801561034757600080fd5b50600654610366906001600160801b0380821691600160801b90041682565b604080516001600160801b039384168152929091166020830152016102b6565b34801561039257600080fd5b506103396103a136600461489b565b610c6e565b3480156103b257600080fd5b506103bc600e5481565b6040519081526020016102b6565b3480156103d657600080fd5b506103bc6103e5366004614833565b60076020526000908152604090205481565b34801561040357600080fd5b506103bc6110ee565b34801561041857600080fd5b506103396104273660046148d4565b61111e565b34801561043857600080fd5b506103bc7f49ecf333e5b8c95c40fdafc95c1ad136e8914a8fb55e9dc8bb01eaa83a2df9ad81565b34801561046c57600080fd5b506103bc6111a5565b6103bc610483366004614941565b6112f4565b34801561049457600080fd5b506103396104a33660046148d4565b6119ed565b3480156104b457600080fd5b506103016104c3366004614833565b611a08565b6103bc6104d63660046149f7565b611a93565b3480156104e757600080fd5b506104fb6104f6366004614a5d565b611de9565b604080519283526020830191909152016102b6565b34801561051c57600080fd5b506103bc61052b366004614ac2565b6121bf565b34801561053c57600080fd5b5061033961054b366004614af0565b612259565b34801561055c57600080fd5b506104fb61056b366004614b4a565b6124d6565b34801561057c57600080fd5b506103bc61058b366004614ac2565b60086020526000908152604090205481565b3480156105a957600080fd5b506102d4612837565b3480156105be57600080fd5b5061062c6105cd366004614833565b600b602052600090815260409020805460018201546002808401546003909401546001600160a01b03909316936001600160801b03831693600160801b8404830b93600160981b810490930b92600160b01b900463ffffffff16919087565b604080516001600160a01b0390981688526001600160801b039096166020880152600294850b958701959095529190920b606085015263ffffffff909116608084015260a083015260c082015260e0016102b6565b34801561068d57600080fd5b5061033961069c366004614b81565b612846565b3480156106ad57600080fd5b506103396106bc366004614bba565b612855565b3480156106cd57600080fd5b5061073b6106dc366004614833565b600c60205260009081526040902080546001820154600280840154600385015460048601546005870154600688015460078901546008909901546001600160a01b039098169896979490950b95929460ff928316949193909290911689565b6040516102b699989796959493929190614bf5565b34801561075c57600080fd5b5061033961076b366004614c6c565b612c5b565b34801561077c57600080fd5b5061033961078b366004614cbd565b612e47565b6107a361079e366004614d06565b613079565b6040516102b69190614d7b565b3480156107bc57600080fd5b506103bc7fdaab21af31ece73a508939fedd476a5ee5129a5ed4bb091f3236ffb45394df6281565b3480156107f057600080fd5b506103396107ff366004614e4c565b6131c6565b34801561081057600080fd5b506102d461081f366004614833565b613254565b34801561083057600080fd5b506103017f000000000000000000000000000000000000000000000000000000000000000081565b34801561086457600080fd5b50610339610873366004614efb565b61334a565b34801561088457600080fd5b50600d54610301906001600160a01b031681565b3480156108a457600080fd5b506102aa6108b3366004614f32565b6001600160a01b03918216600090815260056020908152604080832093909416825291909152205460ff1690565b3480156108ed57600080fd5b506109016108fc366004614833565b613479565b6040805194855260208501939093529183015260608201526080016102b6565b34801561092d57600080fd5b506103017f000000000000000000000000000000000000000000000000000000000000000081565b60006001600160e01b031982167f80ac58cd0000000000000000000000000000000000000000000000000000000014806109b857506001600160e01b031982167f5b5e139f00000000000000000000000000000000000000000000000000000000145b806109ec57507f01ffc9a7000000000000000000000000000000000000000000000000000000006001600160e01b03198316145b92915050565b606060008054610a0190614f60565b80601f0160208091040260200160405190810160405280929190818152602001828054610a2d90614f60565b8015610a7a5780601f10610a4f57610100808354040283529160200191610a7a565b820191906000526020600020905b815481529060010190602001808311610a5d57829003601f168201915b5050505050905090565b6000818152600260205260408120546001600160a01b0316610b025760405162461bcd60e51b815260206004820152602c60248201527f4552433732313a20617070726f76656420717565727920666f72206e6f6e657860448201526b34b9ba32b73a103a37b5b2b760a11b60648201526084015b60405180910390fd5b506000908152600460205260409020546001600160a01b031690565b6000610b2982611a08565b9050806001600160a01b0316836001600160a01b03161415610bb35760405162461bcd60e51b815260206004820152602160248201527f4552433732313a20617070726f76616c20746f2063757272656e74206f776e6560448201527f72000000000000000000000000000000000000000000000000000000000000006064820152608401610af9565b336001600160a01b0382161480610bed57506001600160a01b038116600090815260056020908152604080832033845290915290205460ff165b610c5f5760405162461bcd60e51b815260206004820152603860248201527f4552433732313a20617070726f76652063616c6c6572206973206e6f74206f7760448201527f6e6572206e6f7220617070726f76656420666f7220616c6c00000000000000006064820152608401610af9565b610c6983836135b9565b505050565b600d546040516331a9108f60e11b8152600481018590526001600160a01b0390911690636352211e90602401602060405180830381865afa158015610cb7573d6000803e3d6000fd5b505050506040513d601f19601f82011682018060405250810190610cdb9190614f9b565b6001600160a01b0316336001600160a01b031614610d2a5760405162461bcd60e51b815260206004820152600c60248201526b2727aa2fa4a22fa7aba722a960a11b6044820152606401610af9565b6000838152600c6020908152604080832081516101208101835281546001600160a01b0316815260018083015494820194909452600280830154900b9281019290925260038101546060830152600481015460ff90811615156080840152600582015460a0840152600682015460c0840152600782015460e0840152600882015492939192610100850192911690811115610dc757610dc7614bdf565b6001811115610dd857610dd8614bdf565b905250905060008161010001516001811115610df657610df6614bdf565b1415610e445760405162461bcd60e51b815260206004820152601560248201527f4c696d6974204f726465723a20496e61637469766500000000000000000000006044820152606401610af9565b60008082600001516001600160a01b031663bcdb4dad6040518163ffffffff1660e01b815260040161010060405180830381865afa158015610e8a573d6000803e3d6000fd5b505050506040513d601f19601f82011682018060405250810190610eae9190614fcb565b9750975050505050505060008360e001518460c00151610ece919061508a565b905085811015610f205760405162461bcd60e51b815260206004820152601f60248201527f416d6f756e74204578636565647320436c61696d61626c6520416d6f756e74006044820152606401610af9565b8351604080860151608087015191517f0328e801000000000000000000000000000000000000000000000000000000008152600481018a905260029190910b602482015290151560448201526001600160a01b0390911690630328e80190606401600060405180830381600087803b158015610f9b57600080fd5b505af1158015610faf573d6000803e3d6000fd5b5050506000888152600c602052604081206007018054899350909190610fd69084906150a1565b90915550506000878152600c602052604090206006810154600790910154141561107d576000610100850181905250600d546040517f42966c68000000000000000000000000000000000000000000000000000000008152600481018990526001600160a01b03909116906342966c6890602401600060405180830381600087803b15801561106457600080fd5b505af1158015611078573d6000803e3d6000fd5b505050505b8360800151156110985761109382338888613627565b6110a4565b6110a483338888613627565b835160405187815288916001600160a01b0316907ffff3bd55d564c53a976551a7bdc67545baf1094e6c71a716de19c9fd1060a8859060200160405180910390a350505050505050565b600654600090611110906001600160801b03600160801b8204811691166150b9565b6001600160801b0316905090565b611128338261378a565b61119a5760405162461bcd60e51b815260206004820152603160248201527f4552433732313a207472616e736665722063616c6c6572206973206e6f74206f60448201527f776e6572206e6f7220617070726f7665640000000000000000000000000000006064820152608401610af9565b610c69838383613881565b60007f000000000000000000000000000000000000000000000000000000000000000046146112cf5750604080518082018252600a81527f54726964656e744e46540000000000000000000000000000000000000000000060209182015281518083018352600181527f31000000000000000000000000000000000000000000000000000000000000009082015281517f8b73c3c69bb8fe3d512ecc4cf759cc79239f7b179b0ffacaa9a75d522b39400f818301527f790a7a9b65ea2ce0cf93ce97615ad3ceeb0a6082b5ad238c5227302f947047b0818401527fc89efdaa54c0f20c7adf612882df0950f5a951637e0307cdcb4c672f298b8bc660608201524660808201523060a0808301919091528351808303909101815260c0909101909252815191012090565b507f000000000000000000000000000000000000000000000000000000000000000090565b6040517fa4063dbc0000000000000000000000000000000000000000000000000000000081526001600160a01b038b811660048301526000917f00000000000000000000000000000000000000000000000000000000000000009091169063a4063dbc90602401602060405180830381865afa158015611378573d6000803e3d6000fd5b505050506040513d601f19601f8201168201806040525081019061139c91906150e1565b6113e85760405162461bcd60e51b815260206004820152600c60248201527f494e56414c49445f504f4f4c00000000000000000000000000000000000000006044820152606401610af9565b600980546001600160a01b03199081163317909155600a80546001600160a01b038e169216821790556040805160e08101825260028d810b82528c810b602083019081528c820b8385019081528c830b606085019081526001600160801b038d8116608087019081528d821660a088019081528d151560c0890190815298517f4d7b7ed10000000000000000000000000000000000000000000000000000000081529751870b60048901529451860b60248801529251850b6044870152905190930b60648501525182166084840152511660a48201529051151560c482015260009190634d7b7ed19060e4016020604051808303816000875af11580156114f3573d6000803e3d6000fd5b505050506040513d601f19601f8201168201806040525081019061151791906150fe565b905083816001600160801b031610156115725760405162461bcd60e51b815260206004820152601360248201527f544f4f5f4c4954544c455f5245434549564544000000000000000000000000006044820152606401610af9565b60405163159fd11f60e31b815260028b810b600483015289900b602482015260009081906001600160a01b038f169063acfe88f8906044016040805180830381865afa1580156115c6573d6000803e3d6000fd5b505050506040513d601f19601f820116820180604052508101906115ea9190615117565b91509150846000141561177557600660000160009054906101000a90046001600160801b03166001600160801b031693506040518060e001604052808f6001600160a01b03168152602001846001600160801b031681526020018d60020b81526020018b60020b81526020014263ffffffff16815260200183815260200182815250600b600086815260200190815260200160002060008201518160000160006101000a8154816001600160a01b0302191690836001600160a01b0316021790555060208201518160010160006101000a8154816001600160801b0302191690836001600160801b0316021790555060408201518160010160106101000a81548162ffffff021916908360020b62ffffff16021790555060608201518160010160136101000a81548162ffffff021916908360020b62ffffff16021790555060808201518160010160166101000a81548163ffffffff021916908363ffffffff16021790555060a0820151816002015560c0820151816003015590505061177033613a4e565b61195e565b8493506000600b600086815260200190815260200160002090508e6001600160a01b03168160000160009054906101000a90046001600160a01b03166001600160a01b0316146118075760405162461bcd60e51b815260206004820152600e60248201527f504f4f4c5f4d49535f4d415443480000000000000000000000000000000000006044820152606401610af9565b600181015460028e810b600160801b909204900b1480156118395750600181015460028c810b600160981b909204900b145b6118855760405162461bcd60e51b815260206004820152600f60248201527f52414e47455f4d49535f4d4154434800000000000000000000000000000000006044820152606401610af9565b3361188f87611a08565b6001600160a01b0316146118d45760405162461bcd60e51b815260206004820152600c60248201526b2727aa2fa4a22fa7aba722a960a11b6044820152606401610af9565b60028101839055600381018290556001810180548591906000906119029084906001600160801b031661513b565b82546101009290920a6001600160801b038181021990931691909216919091021790555060010180547fffffffffffff00000000ffffffffffffffffffffffffffffffffffffffffffff16600160b01b4263ffffffff16021790555b83336001600160a01b03168f6001600160a01b03167fc8dd8ccfbeefd448504efbf8f0f1228f3874a3556303d43aec4cc814237755f4866040516119b191906001600160801b0391909116815260200190565b60405180910390a450506009805460016001600160a01b03199182168117909255600a80549091169091179055509a9950505050505050505050565b610c69838383604051806020016040528060008152506131c6565b6000818152600260205260408120546001600160a01b0316806109ec5760405162461bcd60e51b815260206004820152602960248201527f4552433732313a206f776e657220717565727920666f72206e6f6e657869737460448201527f656e7420746f6b656e00000000000000000000000000000000000000000000006064820152608401610af9565b600a80546001600160a01b0387166001600160a01b0319918216811790925560098054909116331790556040517f5ce5539b000000000000000000000000000000000000000000000000000000008152600286900b600482015260248101849052841515604482015282151560648201526000918291635ce5539b90608401600060405180830381600087803b158015611b2c57600080fd5b505af1158015611b40573d6000803e3d6000fd5b505050506000611b4f87613aa2565b90506c01000000000000000000000000611b6c82620f4240615166565b611b7691906151ab565b6001600160a01b03169150611b8c6002836152b5565b915060008415611bb75764e8d4a51000611ba684886152c4565b611bb091906152e3565b9050611bd3565b611bc68664e8d4a510006152c4565b611bd090846152e3565b90505b600e8054906000611be3836152f7565b91905055506040518061012001604052808a6001600160a01b03168152602001600e5481526020018960020b8152602001848152602001861515815260200187815260200182815260200160008152602001600180811115611c4757611c47614bdf565b9052600e546000908152600c6020908152604091829020835181546001600160a01b0319166001600160a01b03909116178155908301516001808301919091559183015160028201805462ffffff191662ffffff90921691909117905560608301516003820155608083015160048201805460ff1990811692151592909217905560a0840151600583015560c0840151600683015560e0840151600783015561010084015160088301805493949193909216908381811115611d0b57611d0b614bdf565b021790555050600d54600e546040517f40c10f1900000000000000000000000000000000000000000000000000000000815233600482015260248101919091526001600160a01b0390911691506340c10f1990604401600060405180830381600087803b158015611d7b57600080fd5b505af1158015611d8f573d6000803e3d6000fd5b5050505082896001600160a01b03167ffff3bd55d564c53a976551a7bdc67545baf1094e6c71a716de19c9fd1060a885600e54604051611dd191815260200190565b60405180910390a35050600e54979650505050505050565b600080611df588611a08565b6001600160a01b0316336001600160a01b031614611e445760405162461bcd60e51b815260206004820152600c60248201526b2727aa2fa4a22fa7aba722a960a11b6044820152606401610af9565b6000888152600b60209081526040808320815160e08101835281546001600160a01b0316815260018201546001600160801b03811694820194909452600160801b8404600290810b93820193909352600160981b8404830b6060820152600160b01b90930463ffffffff1660808401529081015460a08301526003015460c082015290808080611ed38d613479565b935093509350935084602001516001600160801b03168c6001600160801b03161015611ff35784516040808701516060880151915163a34123a760e01b8152600291820b600482015291900b60248201526001600160801b038e1660448201526001600160a01b039091169063a34123a7906064016080604051808303816000875af1158015611f67573d6000803e3d6000fd5b505050506040513d601f19601f82011682018060405250810190611f8b9190615312565b505060008f8152600b6020526040812060028101869055600381018590556001018054939a509198508e92611fca9084906001600160801b03166150b9565b92506101000a8154816001600160801b0302191690836001600160801b031602179055506120ee565b602085015185516040808801516060890151915163a34123a760e01b8152600291820b600482015291900b60248201526001600160801b0383166044820152919d506001600160a01b03169063a34123a7906064016080604051808303816000875af1158015612067573d6000803e3d6000fd5b505050506040513d601f19601f8201168201806040525081019061208b9190615312565b50919850965061209c90508d613dee565b60008d8152600b6020526040812080546001600160a01b03191681556001810180547fffffffffffff000000000000000000000000000000000000000000000000000016905560028101829055600301555b8887101580156120fe5750878610155b61214a5760405162461bcd60e51b815260206004820152601360248201527f544f4f5f4c4954544c455f5245434549564544000000000000000000000000006044820152606401610af9565b84519684019695830195612161908c89898e613e3c565b84516040516001600160801b038e1681528e9133916001600160a01b03909116907fa246c3c6c374294b514c67820df22c91e7d4946b79d7e9fbcdc2a9ea99036ce09060200160405180910390a45050505050965096945050505050565b60006001600160a01b03821661223d5760405162461bcd60e51b815260206004820152602a60248201527f4552433732313a2062616c616e636520717565727920666f7220746865207a6560448201527f726f2061646472657373000000000000000000000000000000000000000000006064820152608401610af9565b506001600160a01b031660009081526003602052604090205490565b428410156122a95760405162461bcd60e51b815260206004820152601760248201527f5045524d49545f444541444c494e455f455850495245440000000000000000006044820152606401610af9565b60006122b486611a08565b905060006122c06111a5565b60008881526007602090815260409182902080546001810190915582517f49ecf333e5b8c95c40fdafc95c1ad136e8914a8fb55e9dc8bb01eaa83a2df9ad818401526001600160a01b038d1681850152606081018c9052608081019190915260a08082018b90528351808303909101815260c082019093528251929091019190912061190160f01b60e083015260e28201929092526101028101919091526101220160408051601f198184030181528282528051602091820120600080855291840180845281905260ff89169284019290925260608301879052608083018690529092509060019060a0016020604051602081039080840390855afa1580156123cd573d6000803e3d6000fd5b5050604051601f1901519150506001600160a01b0381166124305760405162461bcd60e51b815260206004820152601860248201527f494e56414c49445f5045524d49545f5349474e415455524500000000000000006044820152606401610af9565b826001600160a01b0316816001600160a01b0316148061247557506001600160a01b0380841660009081526005602090815260408083209385168352929052205460ff165b6124c15760405162461bcd60e51b815260206004820152600e60248201527f494e56414c49445f5349474e45520000000000000000000000000000000000006044820152606401610af9565b50506124cd87876135b9565b50505050505050565b6000806124e285611a08565b6001600160a01b0316336001600160a01b0316146125315760405162461bcd60e51b815260206004820152600c60248201526b2727aa2fa4a22fa7aba722a960a11b6044820152606401610af9565b6000858152600b6020526040808220805482517fbcdb4dad000000000000000000000000000000000000000000000000000000008152925191939283926001600160a01b039092169163bcdb4dad91600480820192610100929091908290030181865afa1580156125a6573d6000803e3d6000fd5b505050506040513d601f19601f820116820180604052508101906125ca9190614fcb565b975097505050505050506125dd88613479565b60038701556002860155604051633de222bb60e21b81526001600160a01b0385811660048301523060248301529297509095506000917f0000000000000000000000000000000000000000000000000000000000000000169063f7888aec90604401602060405180830381865afa15801561265c573d6000803e3d6000fd5b505050506040513d601f19601f8201168201806040525081019061268091906150fe565b604051633de222bb60e21b81526001600160a01b0384811660048301523060248301529192506000917f0000000000000000000000000000000000000000000000000000000000000000169063f7888aec90604401602060405180830381865afa1580156126f2573d6000803e3d6000fd5b505050506040513d601f19601f8201168201806040525081019061271691906150fe565b90508682108061272557508581105b1561281257845460018601546040517f600b5b58000000000000000000000000000000000000000000000000000000008152600160801b8204600290810b6004830152600160981b90920490910b602482015260009182916001600160a01b039091169063600b5b589060440160408051808303816000875af11580156127b0573d6000803e3d6000fd5b505050506040513d601f19601f820116820180604052508101906127d49190615117565b909250905060006127e585846150a1565b905060006127f385846150a1565b9050818b111561280157819a505b808a111561280d578099505b505050505b61281e848a898b613627565b61282a838a888b613627565b5050505050935093915050565b606060018054610a0190614f60565b612851338383613ec4565b5050565b600d546040516331a9108f60e11b8152600481018490526001600160a01b0390911690636352211e90602401602060405180830381865afa15801561289e573d6000803e3d6000fd5b505050506040513d601f19601f820116820180604052508101906128c29190614f9b565b6001600160a01b0316336001600160a01b0316146129115760405162461bcd60e51b815260206004820152600c60248201526b2727aa2fa4a22fa7aba722a960a11b6044820152606401610af9565b6000828152600c6020908152604080832081516101208101835281546001600160a01b0316815260018083015494820194909452600280830154900b9281019290925260038101546060830152600481015460ff90811615156080840152600582015460a0840152600682015460c0840152600782015460e08401526008820154929391926101008501929116908111156129ae576129ae614bdf565b60018111156129bf576129bf614bdf565b9052509050600081610100015160018111156129dd576129dd614bdf565b1415612a2b5760405162461bcd60e51b815260206004820152601460248201527f4c696d6974204f726465723a496e6163746976650000000000000000000000006044820152606401610af9565b60008082600001516001600160a01b031663bcdb4dad6040518163ffffffff1660e01b815260040161010060405180830381865afa158015612a71573d6000803e3d6000fd5b505050506040513d601f19601f82011682018060405250810190612a959190614fcb565b9750975050505050505060008360e001518460c00151612ab5919061508a565b90506000846080015115612b5d576060850151612ad290836152e3565b8551604080880151608089015191516296f72960e41b81526004810185905260029190910b602482015290151560448201529192506001600160a01b03169063096f729090606401600060405180830381600087803b158015612b3457600080fd5b505af1158015612b48573d6000803e3d6000fd5b50505050612b5884338389613627565b612bf3565b818560600151612b6d91906152e3565b8551604080880151608089015191516296f72960e41b81526004810185905260029190910b602482015290151560448201529192506001600160a01b03169063096f729090606401600060405180830381600087803b158015612bcf57600080fd5b505af1158015612be3573d6000803e3d6000fd5b50505050612bf383338389613627565b6000878152600c6020908152604091829020600801805460ff19169055865182518a81529182018490526001600160a01b0316917fed7e630556d3a2b03979d6709e90dd90f55036d6643f7d2df351121da330e30d910160405180910390a250505050505050565b600a546001600160a01b03163314612cb55760405162461bcd60e51b815260206004820152601560248201527f554e415554484f52495a45445f43414c4c4241434b00000000000000000000006044820152606401610af9565b8015612cf257600954612cd49086906001600160a01b03163386613f93565b600954612ced9085906001600160a01b03163385613f93565b612e1d565b600954604051633c6340f360e21b81526001600160a01b0387811660048301529182166024820152336044820152606481018590527f00000000000000000000000000000000000000000000000000000000000000009091169063f18d03cc90608401600060405180830381600087803b158015612d6f57600080fd5b505af1158015612d83573d6000803e3d6000fd5b5050600954604051633c6340f360e21b81526001600160a01b0388811660048301529182166024820152336044820152606481018690527f0000000000000000000000000000000000000000000000000000000000000000909116925063f18d03cc9150608401600060405180830381600087803b158015612e0457600080fd5b505af1158015612e18573d6000803e3d6000fd5b505050505b50506009805460016001600160a01b03199182168117909255600a80549091169091179055505050565b42841015612e975760405162461bcd60e51b815260206004820152601760248201527f5045524d49545f444541444c494e455f455850495245440000000000000000006044820152606401610af9565b6000612ea16111a5565b6001600160a01b0388811660008181526008602090815260409182902080546001810190915582517fdaab21af31ece73a508939fedd476a5ee5129a5ed4bb091f3236ffb45394df628184015280840194909452938b166060840152608083019390935260a08083018a90528151808403909101815260c08301909152805192019190912061190160f01b60e083015260e28201929092526101028101919091526101220160408051601f198184030181528282528051602091820120600080855291840180845281905260ff88169284019290925260608301869052608083018590529092509060019060a0016020604051602081039080840390855afa158015612fb1573d6000803e3d6000fd5b5050604051601f1901519150506001600160a01b03811615801590612fe75750876001600160a01b0316816001600160a01b0316145b8061301757506001600160a01b0380891660009081526005602090815260408083209385168352929052205460ff165b6130635760405162461bcd60e51b815260206004820152601860248201527f494e56414c49445f5045524d49545f5349474e415455524500000000000000006044820152606401610af9565b505061307186866001613ec4565b505050505050565b60608167ffffffffffffffff81111561309457613094614ddd565b6040519080825280602002602001820160405280156130c757816020015b60608152602001906001900390816130b25790505b50905060005b828110156131bf57600080308686858181106130eb576130eb615348565b90506020028101906130fd919061535e565b60405161310b9291906153ac565b600060405180830381855af49150503d8060008114613146576040519150601f19603f3d011682016040523d82523d6000602084013e61314b565b606091505b5091509150816131975760448151101561316457600080fd5b6004810190508080602001905181019061317e91906153bc565b60405162461bcd60e51b8152600401610af99190614820565b808484815181106131aa576131aa615348565b602090810291909101015250506001016130cd565b5092915050565b6131d0338361378a565b6132425760405162461bcd60e51b815260206004820152603160248201527f4552433732313a207472616e736665722063616c6c6572206973206e6f74206f60448201527f776e6572206e6f7220617070726f7665640000000000000000000000000000006064820152608401610af9565b61324e848484846141f6565b50505050565b6000818152600260205260409020546060906001600160a01b03166132e15760405162461bcd60e51b815260206004820152602f60248201527f4552433732314d657461646174613a2055524920717565727920666f72206e6f60448201527f6e6578697374656e7420746f6b656e00000000000000000000000000000000006064820152608401610af9565b60006132f860408051602081019091526000815290565b905060008151116133185760405180602001604052806000815250613343565b806133228461427f565b604051602001613333929190615433565b6040516020818303038152906040525b9392505050565b600a546001600160a01b031633146133a45760405162461bcd60e51b815260206004820152601560248201527f554e415554484f52495a45445f43414c4c4241434b00000000000000000000006044820152606401610af9565b80156133bb576133b683333385613f93565b613451565b600954604051633c6340f360e21b81526001600160a01b0385811660048301529182166024820152336044820152606481018490527f00000000000000000000000000000000000000000000000000000000000000009091169063f18d03cc90608401600060405180830381600087803b15801561343857600080fd5b505af115801561344c573d6000803e3d6000fd5b505050505b50506009805460016001600160a01b03199182168117909255600a8054909116909117905550565b6000818152600b60209081526040808320815160e08101835281546001600160a01b031680825260018301546001600160801b03811695830195909552600160801b8504600290810b838601819052600160981b8704820b60608501819052600160b01b90970463ffffffff1660808501529084015460a084015260039093015460c0830152925163159fd11f60e31b81526004810192909252602482019390935283928392839263acfe88f8906044016040805180830381865afa158015613546573d6000803e3d6000fd5b505050506040513d601f19601f8201168201806040525081019061356a9190615117565b60a0830151919450925061359a90613582908561508a565b82602001516001600160801b0316600160801b6143b1565b94506135af8160c0015183613582919061508a565b9350509193509193565b600081815260046020526040902080546001600160a01b0319166001600160a01b03841690811790915581906135ee82611a08565b6001600160a01b03167f8c5be1e5ebec7d5bd14f71427d1e84f3dd0314c0f7b2291e5b200ac8c7c3b92560405160405180910390a45050565b80156136f4576040517f97da6d300000000000000000000000000000000000000000000000000000000081526001600160a01b038581166004830152306024830152848116604483015260006064830152608482018490527f000000000000000000000000000000000000000000000000000000000000000016906397da6d309060a40160408051808303816000875af11580156136c9573d6000803e3d6000fd5b505050506040513d601f19601f820116820180604052508101906136ed9190615117565b505061324e565b604051633c6340f360e21b81526001600160a01b0385811660048301523060248301528481166044830152606482018490527f0000000000000000000000000000000000000000000000000000000000000000169063f18d03cc90608401600060405180830381600087803b15801561376c57600080fd5b505af1158015613780573d6000803e3d6000fd5b5050505050505050565b6000818152600260205260408120546001600160a01b03166138035760405162461bcd60e51b815260206004820152602c60248201527f4552433732313a206f70657261746f7220717565727920666f72206e6f6e657860448201526b34b9ba32b73a103a37b5b2b760a11b6064820152608401610af9565b600061380e83611a08565b9050806001600160a01b0316846001600160a01b031614806138495750836001600160a01b031661383e84610a84565b6001600160a01b0316145b8061387957506001600160a01b0380821660009081526005602090815260408083209388168352929052205460ff165b949350505050565b826001600160a01b031661389482611a08565b6001600160a01b0316146139105760405162461bcd60e51b815260206004820152602560248201527f4552433732313a207472616e736665722066726f6d20696e636f72726563742060448201527f6f776e65720000000000000000000000000000000000000000000000000000006064820152608401610af9565b6001600160a01b03821661398b5760405162461bcd60e51b8152602060048201526024808201527f4552433732313a207472616e7366657220746f20746865207a65726f2061646460448201527f72657373000000000000000000000000000000000000000000000000000000006064820152608401610af9565b6139966000826135b9565b6001600160a01b03831660009081526003602052604081208054600192906139bf90849061508a565b90915550506001600160a01b03821660009081526003602052604081208054600192906139ed9084906150a1565b909155505060008181526002602052604080822080546001600160a01b0319166001600160a01b0386811691821790925591518493918716917fddf252ad1be2c89b69c2b068fc378daa952ba7f163c4a11628f55a4df523b3ef91a4505050565b60068054613a9f9183916001600160801b0316906000613a6d83615459565b91906101000a8154816001600160801b0302191690836001600160801b031602179055506001600160801b0316614464565b50565b60008060008360020b12613ab9578260020b613ac6565b8260020b613ac690615480565b9050613ad5620d89e7196154b9565b62ffffff16811115613b13576040517ff87dc40c00000000000000000000000000000000000000000000000000000000815260040160405180910390fd5b600060018216613b2757600160801b613b39565b6ffffcb933bd6fad37aa2d162d1a5940015b70ffffffffffffffffffffffffffffffffff1690506002821615613b6d576ffff97272373d413259a46990580e213a0260801c5b6004821615613b8c576ffff2e50f5f656932ef12357cf3c7fdcc0260801c5b6008821615613bab576fffe5caca7e10e4e61c3624eaa0941cd00260801c5b6010821615613bca576fffcb9843d60f6159c9db58835c9266440260801c5b6020821615613be9576fff973b41fa98c081472e6896dfb254c00260801c5b6040821615613c08576fff2ea16466c96a3843ec78b326b528610260801c5b6080821615613c27576ffe5dee046a99a2a811c461f1969c30530260801c5b610100821615613c47576ffcbe86c7900a88aedcffc83b479aa3a40260801c5b610200821615613c67576ff987a7253ac413176f2b074cf7815e540260801c5b610400821615613c87576ff3392b0822b70005940c7a398e4b70f30260801c5b610800821615613ca7576fe7159475a2c29b7443b29c7fa6e889d90260801c5b611000821615613cc7576fd097f3bdfd2022b8845ad8f792aa58250260801c5b612000821615613ce7576fa9f746462d870fdf8a65dc1f90e061e50260801c5b614000821615613d07576f70d869a156d2a1b890bb3df62baf32f70260801c5b618000821615613d27576f31be135f97d08fd981231505542fcfa60260801c5b62010000821615613d48576f09aa508b5b7a84e1c677de54f3e99bc90260801c5b62020000821615613d68576e5d6af8dedb81196699c329225ee6040260801c5b62040000821615613d87576d2216e584f5fa1ea926041bedfe980260801c5b62080000821615613da4576b048a170391f7dc42444e8fa20260801c5b60008460020b1315613dc5578060001981613dc157613dc1615195565b0490505b640100000000810615613dd9576001613ddc565b60005b60ff16602082901c0192505050919050565b60068054600160801b90046001600160801b0316906010613e0e83615459565b91906101000a8154816001600160801b0302191690836001600160801b0316021790555050613a9f816145a6565b600080866001600160a01b031663bcdb4dad6040518163ffffffff1660e01b815260040161010060405180830381865afa158015613e7e573d6000803e3d6000fd5b505050506040513d601f19601f82011682018060405250810190613ea29190614fcb565b97509750505050505050613eb882878786613627565b6124cd81878686613627565b816001600160a01b0316836001600160a01b03161415613f265760405162461bcd60e51b815260206004820152601960248201527f4552433732313a20617070726f766520746f2063616c6c6572000000000000006044820152606401610af9565b6001600160a01b03838116600081815260056020908152604080832094871680845294825291829020805460ff191686151590811790915591519182527f17307eab39ab6107e8899845ad3d59bd9653f200f220920489ca2b5937696c31910160405180910390a3505050565b7f00000000000000000000000000000000000000000000000000000000000000006001600160a01b0316846001600160a01b0316148015613fd45750600047115b1561414e576040517f566231180000000000000000000000000000000000000000000000000000000081526001600160a01b03858116600483015260248201839052600160448301526000917f000000000000000000000000000000000000000000000000000000000000000090911690635662311890606401602060405180830381865afa15801561406b573d6000803e3d6000fd5b505050506040513d601f19601f8201168201806040525081019061408f91906150fe565b905080471061414c5760405162ae511b60e21b81526000600482018190526001600160a01b03868116602484015285811660448401526064830191909152608482018490527f000000000000000000000000000000000000000000000000000000000000000016906302b9446c90839060a401604080518083038185885af115801561411f573d6000803e3d6000fd5b50505050506040513d601f19601f820116820180604052508101906141449190615117565b50505061324e565b505b60405162ae511b60e21b81526001600160a01b0385811660048301528481166024830152838116604483015260006064830152608482018390527f000000000000000000000000000000000000000000000000000000000000000016906302b9446c9060a40160408051808303816000875af11580156141d2573d6000803e3d6000fd5b505050506040513d601f19601f820116820180604052508101906130719190615117565b614201848484613881565b61420d84848484614641565b61324e5760405162461bcd60e51b815260206004820152603260248201527f4552433732313a207472616e7366657220746f206e6f6e20455243373231526560448201527f63656976657220696d706c656d656e74657200000000000000000000000000006064820152608401610af9565b6060816142bf57505060408051808201909152600181527f3000000000000000000000000000000000000000000000000000000000000000602082015290565b8160005b81156142e957806142d3816152f7565b91506142e29050600a836152e3565b91506142c3565b60008167ffffffffffffffff81111561430457614304614ddd565b6040519080825280601f01601f19166020018201604052801561432e576020820181803683370190505b5090505b84156138795761434360018361508a565b9150614350600a866154dc565b61435b9060306150a1565b60f81b81838151811061437057614370615348565b60200101907effffffffffffffffffffffffffffffffffffffffffffffffffffffffffffff1916908160001a9053506143aa600a866152e3565b9450614332565b6000808060001985870985870292508281108382030391505080600014156143eb57600084116143e057600080fd5b508290049050613343565b8084116143f757600080fd5b6000848688096000868103871696879004966002600389028118808a02820302808a02820302808a02820302808a02820302808a02820302808a02909103029181900381900460010186841190950394909402919094039290920491909117919091029150509392505050565b6001600160a01b0382166144ba5760405162461bcd60e51b815260206004820181905260248201527f4552433732313a206d696e7420746f20746865207a65726f20616464726573736044820152606401610af9565b6000818152600260205260409020546001600160a01b03161561451f5760405162461bcd60e51b815260206004820152601c60248201527f4552433732313a20746f6b656e20616c7265616479206d696e746564000000006044820152606401610af9565b6001600160a01b03821660009081526003602052604081208054600192906145489084906150a1565b909155505060008181526002602052604080822080546001600160a01b0319166001600160a01b03861690811790915590518392907fddf252ad1be2c89b69c2b068fc378daa952ba7f163c4a11628f55a4df523b3ef908290a45050565b60006145b182611a08565b90506145be6000836135b9565b6001600160a01b03811660009081526003602052604081208054600192906145e790849061508a565b909155505060008281526002602052604080822080546001600160a01b0319169055518391906001600160a01b038416907fddf252ad1be2c89b69c2b068fc378daa952ba7f163c4a11628f55a4df523b3ef908390a45050565b60006001600160a01b0384163b1561478a57604051630a85bd0160e11b81526001600160a01b0385169063150b7a02906146859033908990889088906004016154f0565b6020604051808303816000875af19250505080156146c0575060408051601f3d908101601f191682019092526146bd9181019061552c565b60015b614770573d8080156146ee576040519150601f19603f3d011682016040523d82523d6000602084013e6146f3565b606091505b5080516147685760405162461bcd60e51b815260206004820152603260248201527f4552433732313a207472616e7366657220746f206e6f6e20455243373231526560448201527f63656976657220696d706c656d656e74657200000000000000000000000000006064820152608401610af9565b805181602001fd5b6001600160e01b031916630a85bd0160e11b149050613879565b506001949350505050565b6001600160e01b031981168114613a9f57600080fd5b6000602082840312156147bd57600080fd5b813561334381614795565b60005b838110156147e35781810151838201526020016147cb565b8381111561324e5750506000910152565b6000815180845261480c8160208601602086016147c8565b601f01601f19169290920160200192915050565b60208152600061334360208301846147f4565b60006020828403121561484557600080fd5b5035919050565b6001600160a01b0381168114613a9f57600080fd5b6000806040838503121561487457600080fd5b823561487f8161484c565b946020939093013593505050565b8015158114613a9f57600080fd5b6000806000606084860312156148b057600080fd5b833592506020840135915060408401356148c98161488d565b809150509250925092565b6000806000606084860312156148e957600080fd5b83356148f48161484c565b925060208401356149048161484c565b929592945050506040919091013590565b8035600281900b811461492757600080fd5b919050565b6001600160801b0381168114613a9f57600080fd5b6000806000806000806000806000806101408b8d03121561496157600080fd5b8a3561496c8161484c565b995061497a60208c01614915565b985061498860408c01614915565b975061499660608c01614915565b96506149a460808c01614915565b955060a08b01356149b48161492c565b945060c08b01356149c48161492c565b935060e08b01356149d48161488d565b809350506101008b013591506101208b013590509295989b9194979a5092959850565b600080600080600060a08688031215614a0f57600080fd5b8535614a1a8161484c565b9450614a2860208701614915565b93506040860135614a388161488d565b9250606086013591506080860135614a4f8161488d565b809150509295509295909350565b60008060008060008060c08789031215614a7657600080fd5b863595506020870135614a888161492c565b94506040870135614a988161484c565b93506060870135614aa88161488d565b9598949750929560808101359460a0909101359350915050565b600060208284031215614ad457600080fd5b81356133438161484c565b803560ff8116811461492757600080fd5b60008060008060008060c08789031215614b0957600080fd5b8635614b148161484c565b95506020870135945060408701359350614b3060608801614adf565b92506080870135915060a087013590509295509295509295565b600080600060608486031215614b5f57600080fd5b833592506020840135614b718161484c565b915060408401356148c98161488d565b60008060408385031215614b9457600080fd5b8235614b9f8161484c565b91506020830135614baf8161488d565b809150509250929050565b60008060408385031215614bcd57600080fd5b823591506020830135614baf8161488d565b634e487b7160e01b600052602160045260246000fd5b6000610120820190506001600160a01b038b1682528960208301528860020b604083015287606083015286151560808301528560a08301528460c08301528360e083015260028310614c5757634e487b7160e01b600052602160045260246000fd5b826101008301529a9950505050505050505050565b600080600080600060a08688031215614c8457600080fd5b8535614c8f8161484c565b94506020860135614c9f8161484c565b935060408601359250606086013591506080860135614a4f8161488d565b60008060008060008060c08789031215614cd657600080fd5b8635614ce18161484c565b95506020870135614cf18161484c565b945060408701359350614b3060608801614adf565b60008060208385031215614d1957600080fd5b823567ffffffffffffffff80821115614d3157600080fd5b818501915085601f830112614d4557600080fd5b813581811115614d5457600080fd5b8660208260051b8501011115614d6957600080fd5b60209290920196919550909350505050565b6000602080830181845280855180835260408601915060408160051b870101925083870160005b82811015614dd057603f19888603018452614dbe8583516147f4565b94509285019290850190600101614da2565b5092979650505050505050565b634e487b7160e01b600052604160045260246000fd5b604051601f8201601f1916810167ffffffffffffffff81118282101715614e1c57614e1c614ddd565b604052919050565b600067ffffffffffffffff821115614e3e57614e3e614ddd565b50601f01601f191660200190565b60008060008060808587031215614e6257600080fd5b8435614e6d8161484c565b93506020850135614e7d8161484c565b925060408501359150606085013567ffffffffffffffff811115614ea057600080fd5b8501601f81018713614eb157600080fd5b8035614ec4614ebf82614e24565b614df3565b818152886020838501011115614ed957600080fd5b8160208401602083013760006020838301015280935050505092959194509250565b600080600060608486031215614f1057600080fd5b8335614f1b8161484c565b92506020840135915060408401356148c98161488d565b60008060408385031215614f4557600080fd5b8235614f508161484c565b91506020830135614baf8161484c565b600181811c90821680614f7457607f821691505b60208210811415614f9557634e487b7160e01b600052602260045260246000fd5b50919050565b600060208284031215614fad57600080fd5b81516133438161484c565b805162ffffff8116811461492757600080fd5b600080600080600080600080610100898b031215614fe857600080fd5b8851614ff38161492c565b975061500160208a01614fb8565b965061500f60408a01614fb8565b9550606089015161501f8161484c565b60808a01519095506150308161484c565b60a08a01519094506150418161484c565b60c08a01519093506150528161484c565b60e08a01519092506150638161484c565b809150509295985092959890939650565b634e487b7160e01b600052601160045260246000fd5b60008282101561509c5761509c615074565b500390565b600082198211156150b4576150b4615074565b500190565b60006001600160801b03838116908316818110156150d9576150d9615074565b039392505050565b6000602082840312156150f357600080fd5b81516133438161488d565b60006020828403121561511057600080fd5b5051919050565b6000806040838503121561512a57600080fd5b505080516020909101519092909150565b60006001600160801b0380831681851680830382111561515d5761515d615074565b01949350505050565b60006001600160a01b038083168185168183048111821515161561518c5761518c615074565b02949350505050565b634e487b7160e01b600052601260045260246000fd5b60006001600160a01b03808416806151c5576151c5615195565b92169190910492915050565b600181815b8085111561520c5781600019048211156151f2576151f2615074565b808516156151ff57918102915b93841c93908002906151d6565b509250929050565b600082615223575060016109ec565b81615230575060006109ec565b816001811461524657600281146152505761526c565b60019150506109ec565b60ff84111561526157615261615074565b50506001821b6109ec565b5060208310610133831016604e8410600b841016171561528f575081810a6109ec565b61529983836151d1565b80600019048211156152ad576152ad615074565b029392505050565b600061334360ff841683615214565b60008160001904831182151516156152de576152de615074565b500290565b6000826152f2576152f2615195565b500490565b600060001982141561530b5761530b615074565b5060010190565b6000806000806080858703121561532857600080fd5b505082516020840151604085015160609095015191969095509092509050565b634e487b7160e01b600052603260045260246000fd5b6000808335601e1984360301811261537557600080fd5b83018035915067ffffffffffffffff82111561539057600080fd5b6020019150368190038213156153a557600080fd5b9250929050565b8183823760009101908152919050565b6000602082840312156153ce57600080fd5b815167ffffffffffffffff8111156153e557600080fd5b8201601f810184136153f657600080fd5b8051615404614ebf82614e24565b81815285602083850101111561541957600080fd5b61542a8260208301602086016147c8565b95945050505050565b600083516154458184602088016147c8565b83519083019061515d8183602088016147c8565b60006001600160801b038083168181141561547657615476615074565b6001019392505050565b60007f80000000000000000000000000000000000000000000000000000000000000008214156154b2576154b2615074565b5060000390565b60008160020b627fffff198114156154d3576154d3615074565b60000392915050565b6000826154eb576154eb615195565b500690565b60006001600160a01b0380871683528086166020840152508360408301526080606083015261552260808301846147f4565b9695505050505050565b60006020828403121561553e57600080fd5b81516133438161479556fea26469706673582212204dcf913c40699b86670e2f29da1e9b7ec8672b5301d7300e452375514c17cace64736f6c634300080a003360806040523480156200001157600080fd5b5060405162001c4538038062001c45833981016040819052620000349162000251565b8151829082906200004d906000906020850190620000de565b50805162000063906001906020840190620000de565b505050620000806200007a6200008860201b60201c565b6200008c565b5050620002f8565b3390565b600680546001600160a01b038381166001600160a01b0319831681179093556040519116919082907f8be0079c531659141344cd1fd0a4f28419497f9722a3daafe3b4186f6b6457e090600090a35050565b828054620000ec90620002bb565b90600052602060002090601f0160209004810192826200011057600085556200015b565b82601f106200012b57805160ff19168380011785556200015b565b828001600101855582156200015b579182015b828111156200015b5782518255916020019190600101906200013e565b50620001699291506200016d565b5090565b5b808211156200016957600081556001016200016e565b634e487b7160e01b600052604160045260246000fd5b600082601f830112620001ac57600080fd5b81516001600160401b0380821115620001c957620001c962000184565b604051601f8301601f19908116603f01168101908282118183101715620001f457620001f462000184565b816040528381526020925086838588010111156200021157600080fd5b600091505b8382101562000235578582018301518183018401529082019062000216565b83821115620002475760008385830101525b9695505050505050565b600080604083850312156200026557600080fd5b82516001600160401b03808211156200027d57600080fd5b6200028b868387016200019a565b93506020850151915080821115620002a257600080fd5b50620002b1858286016200019a565b9150509250929050565b600181811c90821680620002d057607f821691505b60208210811415620002f257634e487b7160e01b600052602260045260246000fd5b50919050565b61193d80620003086000396000f3fe608060405234801561001057600080fd5b506004361061016c5760003560e01c80636b569937116100cd578063a22cb46511610081578063c87b56dd11610066578063c87b56dd146102c7578063e985e9c5146102da578063f2fde38b1461031657600080fd5b8063a22cb465146102a1578063b88d4fde146102b457600080fd5b8063715018a6116100b2578063715018a6146102805780638da5cb5b1461028857806395d89b411461029957600080fd5b80636b5699371461026457806370a082311461026d57600080fd5b80633651f5e41161012457806342842e0e1161010957806342842e0e1461022b57806342966c681461023e5780636352211e1461025157600080fd5b80633651f5e41461020157806340c10f191461021857600080fd5b8063081812fc11610155578063081812fc146101ae578063095ea7b3146101d957806323b872dd146101ee57600080fd5b806301ffc9a71461017157806306fdde0314610199575b600080fd5b61018461017f3660046114f1565b610329565b60405190151581526020015b60405180910390f35b6101a16103c6565b6040516101909190611566565b6101c16101bc366004611579565b610458565b6040516001600160a01b039091168152602001610190565b6101ec6101e73660046115ae565b6104f2565b005b6101ec6101fc3660046115d8565b610624565b61020a60075481565b604051908152602001610190565b6101ec6102263660046115ae565b6106ab565b6101ec6102393660046115d8565b610713565b6101ec61024c366004611579565b61072e565b6101c161025f366004611579565b610794565b61020a60085481565b61020a61027b366004611614565b61081f565b6101ec6108b9565b6006546001600160a01b03166101c1565b6101a161091f565b6101ec6102af36600461162f565b61092e565b6101ec6102c2366004611681565b610939565b6101a16102d5366004611579565b6109c7565b6101846102e836600461175d565b6001600160a01b03918216600090815260056020908152604080832093909416825291909152205460ff1690565b6101ec610324366004611614565b610abd565b60006001600160e01b031982167f80ac58cd00000000000000000000000000000000000000000000000000000000148061038c57506001600160e01b031982167f5b5e139f00000000000000000000000000000000000000000000000000000000145b806103c057507f01ffc9a7000000000000000000000000000000000000000000000000000000006001600160e01b03198316145b92915050565b6060600080546103d590611790565b80601f016020809104026020016040519081016040528092919081815260200182805461040190611790565b801561044e5780601f106104235761010080835404028352916020019161044e565b820191906000526020600020905b81548152906001019060200180831161043157829003601f168201915b5050505050905090565b6000818152600260205260408120546001600160a01b03166104d65760405162461bcd60e51b815260206004820152602c60248201527f4552433732313a20617070726f76656420717565727920666f72206e6f6e657860448201526b34b9ba32b73a103a37b5b2b760a11b60648201526084015b60405180910390fd5b506000908152600460205260409020546001600160a01b031690565b60006104fd82610794565b9050806001600160a01b0316836001600160a01b031614156105875760405162461bcd60e51b815260206004820152602160248201527f4552433732313a20617070726f76616c20746f2063757272656e74206f776e6560448201527f720000000000000000000000000000000000000000000000000000000000000060648201526084016104cd565b336001600160a01b03821614806105a357506105a381336102e8565b6106155760405162461bcd60e51b815260206004820152603860248201527f4552433732313a20617070726f76652063616c6c6572206973206e6f74206f7760448201527f6e6572206e6f7220617070726f76656420666f7220616c6c000000000000000060648201526084016104cd565b61061f8383610b9c565b505050565b61062e3382610c0a565b6106a05760405162461bcd60e51b815260206004820152603160248201527f4552433732313a207472616e736665722063616c6c6572206973206e6f74206f60448201527f776e6572206e6f7220617070726f76656400000000000000000000000000000060648201526084016104cd565b61061f838383610d01565b6006546001600160a01b031633146107055760405162461bcd60e51b815260206004820181905260248201527f4f776e61626c653a2063616c6c6572206973206e6f7420746865206f776e657260448201526064016104cd565b61070f8282610ece565b5050565b61061f83838360405180602001604052806000815250610939565b6006546001600160a01b031633146107885760405162461bcd60e51b815260206004820181905260248201527f4f776e61626c653a2063616c6c6572206973206e6f7420746865206f776e657260448201526064016104cd565b61079181611010565b50565b6000818152600260205260408120546001600160a01b0316806103c05760405162461bcd60e51b815260206004820152602960248201527f4552433732313a206f776e657220717565727920666f72206e6f6e657869737460448201527f656e7420746f6b656e000000000000000000000000000000000000000000000060648201526084016104cd565b60006001600160a01b03821661089d5760405162461bcd60e51b815260206004820152602a60248201527f4552433732313a2062616c616e636520717565727920666f7220746865207a6560448201527f726f20616464726573730000000000000000000000000000000000000000000060648201526084016104cd565b506001600160a01b031660009081526003602052604090205490565b6006546001600160a01b031633146109135760405162461bcd60e51b815260206004820181905260248201527f4f776e61626c653a2063616c6c6572206973206e6f7420746865206f776e657260448201526064016104cd565b61091d60006110ab565b565b6060600180546103d590611790565b61070f3383836110fd565b6109433383610c0a565b6109b55760405162461bcd60e51b815260206004820152603160248201527f4552433732313a207472616e736665722063616c6c6572206973206e6f74206f60448201527f776e6572206e6f7220617070726f76656400000000000000000000000000000060648201526084016104cd565b6109c1848484846111cc565b50505050565b6000818152600260205260409020546060906001600160a01b0316610a545760405162461bcd60e51b815260206004820152602f60248201527f4552433732314d657461646174613a2055524920717565727920666f72206e6f60448201527f6e6578697374656e7420746f6b656e000000000000000000000000000000000060648201526084016104cd565b6000610a6b60408051602081019091526000815290565b90506000815111610a8b5760405180602001604052806000815250610ab6565b80610a9584611255565b604051602001610aa69291906117cb565b6040516020818303038152906040525b9392505050565b6006546001600160a01b03163314610b175760405162461bcd60e51b815260206004820181905260248201527f4f776e61626c653a2063616c6c6572206973206e6f7420746865206f776e657260448201526064016104cd565b6001600160a01b038116610b935760405162461bcd60e51b815260206004820152602660248201527f4f776e61626c653a206e6577206f776e657220697320746865207a65726f206160448201527f646472657373000000000000000000000000000000000000000000000000000060648201526084016104cd565b610791816110ab565b600081815260046020526040902080546001600160a01b0319166001600160a01b0384169081179091558190610bd182610794565b6001600160a01b03167f8c5be1e5ebec7d5bd14f71427d1e84f3dd0314c0f7b2291e5b200ac8c7c3b92560405160405180910390a45050565b6000818152600260205260408120546001600160a01b0316610c835760405162461bcd60e51b815260206004820152602c60248201527f4552433732313a206f70657261746f7220717565727920666f72206e6f6e657860448201526b34b9ba32b73a103a37b5b2b760a11b60648201526084016104cd565b6000610c8e83610794565b9050806001600160a01b0316846001600160a01b03161480610cc95750836001600160a01b0316610cbe84610458565b6001600160a01b0316145b80610cf957506001600160a01b0380821660009081526005602090815260408083209388168352929052205460ff165b949350505050565b826001600160a01b0316610d1482610794565b6001600160a01b031614610d905760405162461bcd60e51b815260206004820152602560248201527f4552433732313a207472616e736665722066726f6d20696e636f72726563742060448201527f6f776e657200000000000000000000000000000000000000000000000000000060648201526084016104cd565b6001600160a01b038216610e0b5760405162461bcd60e51b8152602060048201526024808201527f4552433732313a207472616e7366657220746f20746865207a65726f2061646460448201527f726573730000000000000000000000000000000000000000000000000000000060648201526084016104cd565b610e16600082610b9c565b6001600160a01b0383166000908152600360205260408120805460019290610e3f908490611810565b90915550506001600160a01b0382166000908152600360205260408120805460019290610e6d908490611827565b909155505060008181526002602052604080822080546001600160a01b0319166001600160a01b0386811691821790925591518493918716917fddf252ad1be2c89b69c2b068fc378daa952ba7f163c4a11628f55a4df523b3ef91a4505050565b6001600160a01b038216610f245760405162461bcd60e51b815260206004820181905260248201527f4552433732313a206d696e7420746f20746865207a65726f206164647265737360448201526064016104cd565b6000818152600260205260409020546001600160a01b031615610f895760405162461bcd60e51b815260206004820152601c60248201527f4552433732313a20746f6b656e20616c7265616479206d696e7465640000000060448201526064016104cd565b6001600160a01b0382166000908152600360205260408120805460019290610fb2908490611827565b909155505060008181526002602052604080822080546001600160a01b0319166001600160a01b03861690811790915590518392907fddf252ad1be2c89b69c2b068fc378daa952ba7f163c4a11628f55a4df523b3ef908290a45050565b600061101b82610794565b9050611028600083610b9c565b6001600160a01b0381166000908152600360205260408120805460019290611051908490611810565b909155505060008281526002602052604080822080546001600160a01b0319169055518391906001600160a01b038416907fddf252ad1be2c89b69c2b068fc378daa952ba7f163c4a11628f55a4df523b3ef908390a45050565b600680546001600160a01b038381166001600160a01b0319831681179093556040519116919082907f8be0079c531659141344cd1fd0a4f28419497f9722a3daafe3b4186f6b6457e090600090a35050565b816001600160a01b0316836001600160a01b0316141561115f5760405162461bcd60e51b815260206004820152601960248201527f4552433732313a20617070726f766520746f2063616c6c65720000000000000060448201526064016104cd565b6001600160a01b03838116600081815260056020908152604080832094871680845294825291829020805460ff191686151590811790915591519182527f17307eab39ab6107e8899845ad3d59bd9653f200f220920489ca2b5937696c31910160405180910390a3505050565b6111d7848484610d01565b6111e384848484611387565b6109c15760405162461bcd60e51b815260206004820152603260248201527f4552433732313a207472616e7366657220746f206e6f6e20455243373231526560448201527f63656976657220696d706c656d656e746572000000000000000000000000000060648201526084016104cd565b60608161129557505060408051808201909152600181527f3000000000000000000000000000000000000000000000000000000000000000602082015290565b8160005b81156112bf57806112a98161183f565b91506112b89050600a83611870565b9150611299565b60008167ffffffffffffffff8111156112da576112da61166b565b6040519080825280601f01601f191660200182016040528015611304576020820181803683370190505b5090505b8415610cf957611319600183611810565b9150611326600a86611884565b611331906030611827565b60f81b81838151811061134657611346611898565b60200101907effffffffffffffffffffffffffffffffffffffffffffffffffffffffffffff1916908160001a905350611380600a86611870565b9450611308565b60006001600160a01b0384163b156114d057604051630a85bd0160e11b81526001600160a01b0385169063150b7a02906113cb9033908990889088906004016118ae565b6020604051808303816000875af1925050508015611406575060408051601f3d908101601f19168201909252611403918101906118ea565b60015b6114b6573d808015611434576040519150601f19603f3d011682016040523d82523d6000602084013e611439565b606091505b5080516114ae5760405162461bcd60e51b815260206004820152603260248201527f4552433732313a207472616e7366657220746f206e6f6e20455243373231526560448201527f63656976657220696d706c656d656e746572000000000000000000000000000060648201526084016104cd565b805181602001fd5b6001600160e01b031916630a85bd0160e11b149050610cf9565b506001949350505050565b6001600160e01b03198116811461079157600080fd5b60006020828403121561150357600080fd5b8135610ab6816114db565b60005b83811015611529578181015183820152602001611511565b838111156109c15750506000910152565b6000815180845261155281602086016020860161150e565b601f01601f19169290920160200192915050565b602081526000610ab6602083018461153a565b60006020828403121561158b57600080fd5b5035919050565b80356001600160a01b03811681146115a957600080fd5b919050565b600080604083850312156115c157600080fd5b6115ca83611592565b946020939093013593505050565b6000806000606084860312156115ed57600080fd5b6115f684611592565b925061160460208501611592565b9150604084013590509250925092565b60006020828403121561162657600080fd5b610ab682611592565b6000806040838503121561164257600080fd5b61164b83611592565b91506020830135801515811461166057600080fd5b809150509250929050565b634e487b7160e01b600052604160045260246000fd5b6000806000806080858703121561169757600080fd5b6116a085611592565b93506116ae60208601611592565b925060408501359150606085013567ffffffffffffffff808211156116d257600080fd5b818701915087601f8301126116e657600080fd5b8135818111156116f8576116f861166b565b604051601f8201601f19908116603f011681019083821181831017156117205761172061166b565b816040528281528a602084870101111561173957600080fd5b82602086016020830137600060208483010152809550505050505092959194509250565b6000806040838503121561177057600080fd5b61177983611592565b915061178760208401611592565b90509250929050565b600181811c908216806117a457607f821691505b602082108114156117c557634e487b7160e01b600052602260045260246000fd5b50919050565b600083516117dd81846020880161150e565b8351908301906117f181836020880161150e565b01949350505050565b634e487b7160e01b600052601160045260246000fd5b600082821015611822576118226117fa565b500390565b6000821982111561183a5761183a6117fa565b500190565b6000600019821415611853576118536117fa565b5060010190565b634e487b7160e01b600052601260045260246000fd5b60008261187f5761187f61185a565b500490565b6000826118935761189361185a565b500690565b634e487b7160e01b600052603260045260246000fd5b60006001600160a01b038087168352808616602084015250836040830152608060608301526118e0608083018461153a565b9695505050505050565b6000602082840312156118fc57600080fd5b8151610ab6816114db56fea264697066735822122030655bd51c6067dcc394ca3eaf99ec4fb1d49af06ab825b3cdf8bb02e0003b7c64736f6c634300080a0033",
  "linkReferences": {},
  "deployedLinkReferences": {}
}