{
  "_format": "hh-sol-artifact-1",
  "contractName": "ConcentratedLiquidityPoolManager",
  "sourceName": "contracts/pool/concentrated/ConcentratedLiquidityPoolManager.sol",
  "abi": [
    {
      "inputs": [
        {
          "internalType": "address",
          "name": "_masterDeployer",
          "type": "address"
        },
        {
          "internalType": "address",
          "name": "_wETH",
          "type": "address"
        }
      ],
      "stateMutability": "nonpayable",
      "type": "constructor"
    },
    {
      "inputs": [],
      "name": "TickOutOfBounds",
      "type": "error"
    },
    {
      "anonymous": false,
      "inputs": [
        {
          "indexed": true,
          "internalType": "address",
          "name": "owner",
          "type": "address"
        },
        {
          "indexed": true,
          "internalType": "address",
          "name": "approved",
          "type": "address"
        },
        {
          "indexed": true,
          "internalType": "uint256",
          "name": "tokenId",
          "type": "uint256"
        }
      ],
      "name": "Approval",
      "type": "event"
    },
    {
      "anonymous": false,
      "inputs": [
        {
          "indexed": true,
          "internalType": "address",
          "name": "owner",
          "type": "address"
        },
        {
          "indexed": true,
          "internalType": "address",
          "name": "operator",
          "type": "address"
        },
        {
          "indexed": false,
          "internalType": "bool",
          "name": "approved",
          "type": "bool"
        }
      ],
      "name": "ApprovalForAll",
      "type": "event"
    },
    {
      "anonymous": false,
      "inputs": [
        {
          "indexed": true,
          "internalType": "address",
          "name": "pool",
          "type": "address"
        },
        {
          "indexed": false,
          "internalType": "uint256",
          "name": "id",
          "type": "uint256"
        },
        {
          "indexed": false,
          "internalType": "uint256",
          "name": "amount",
          "type": "uint256"
        }
      ],
      "name": "CancelLimitOrder",
      "type": "event"
    },
    {
      "anonymous": false,
      "inputs": [
        {
          "indexed": true,
          "internalType": "address",
          "name": "pool",
          "type": "address"
        },
        {
          "indexed": false,
          "internalType": "uint256",
          "name": "id",
          "type": "uint256"
        },
        {
          "indexed": false,
          "internalType": "uint256",
          "name": "amount",
          "type": "uint256"
        }
      ],
      "name": "ClaimLimitOrder",
      "type": "event"
    },
    {
      "anonymous": false,
      "inputs": [
        {
          "indexed": true,
          "internalType": "address",
          "name": "pool",
          "type": "address"
        },
        {
          "indexed": true,
          "internalType": "uint256",
          "name": "price",
          "type": "uint256"
        },
        {
          "indexed": false,
          "internalType": "uint256",
          "name": "id",
          "type": "uint256"
        }
      ],
      "name": "CreateLImitOrder",
      "type": "event"
    },
    {
      "anonymous": false,
      "inputs": [
        {
          "indexed": true,
          "internalType": "address",
          "name": "pool",
          "type": "address"
        },
        {
          "indexed": true,
          "internalType": "address",
          "name": "owner",
          "type": "address"
        },
        {
          "indexed": true,
          "internalType": "uint256",
          "name": "positionId",
          "type": "uint256"
        },
        {
          "indexed": false,
          "internalType": "uint128",
          "name": "liquidity",
          "type": "uint128"
        }
      ],
      "name": "DecreaseLiquidity",
      "type": "event"
    },
    {
      "anonymous": false,
      "inputs": [
        {
          "indexed": true,
          "internalType": "address",
          "name": "pool",
          "type": "address"
        },
        {
          "indexed": true,
          "internalType": "address",
          "name": "owner",
          "type": "address"
        },
        {
          "indexed": true,
          "internalType": "uint256",
          "name": "positionId",
          "type": "uint256"
        },
        {
          "indexed": false,
          "internalType": "uint128",
          "name": "liquidity",
          "type": "uint128"
        }
      ],
      "name": "IncreaseLiquidity",
      "type": "event"
    },
    {
      "anonymous": false,
      "inputs": [
        {
          "indexed": true,
          "internalType": "address",
          "name": "from",
          "type": "address"
        },
        {
          "indexed": true,
          "internalType": "address",
          "name": "to",
          "type": "address"
        },
        {
          "indexed": true,
          "internalType": "uint256",
          "name": "tokenId",
          "type": "uint256"
        }
      ],
      "name": "Transfer",
      "type": "event"
    },
    {
      "inputs": [],
      "name": "DOMAIN_SEPARATOR",
      "outputs": [
        {
          "internalType": "bytes32",
          "name": "domainSeperator",
          "type": "bytes32"
        }
      ],
      "stateMutability": "view",
      "type": "function"
    },
    {
      "inputs": [],
      "name": "PERMIT_ALL_TYPEHASH",
      "outputs": [
        {
          "internalType": "bytes32",
          "name": "",
          "type": "bytes32"
        }
      ],
      "stateMutability": "view",
      "type": "function"
    },
    {
      "inputs": [],
      "name": "PERMIT_TYPEHASH",
      "outputs": [
        {
          "internalType": "bytes32",
          "name": "",
          "type": "bytes32"
        }
      ],
      "stateMutability": "view",
      "type": "function"
    },
    {
      "inputs": [
        {
          "internalType": "address",
          "name": "to",
          "type": "address"
        },
        {
          "internalType": "uint256",
          "name": "tokenId",
          "type": "uint256"
        }
      ],
      "name": "approve",
      "outputs": [],
      "stateMutability": "nonpayable",
      "type": "function"
    },
    {
      "inputs": [
        {
          "internalType": "address",
          "name": "owner",
          "type": "address"
        }
      ],
      "name": "balanceOf",
      "outputs": [
        {
          "internalType": "uint256",
          "name": "",
          "type": "uint256"
        }
      ],
      "stateMutability": "view",
      "type": "function"
    },
    {
      "inputs": [
        {
          "internalType": "uint256",
          "name": "tokenId",
          "type": "uint256"
        },
        {
          "internalType": "uint128",
          "name": "amount",
          "type": "uint128"
        },
        {
          "internalType": "address",
          "name": "recipient",
          "type": "address"
        },
        {
          "internalType": "bool",
          "name": "unwrapVault",
          "type": "bool"
        },
        {
          "internalType": "uint256",
          "name": "minimumOut0",
          "type": "uint256"
        },
        {
          "internalType": "uint256",
          "name": "minimumOut1",
          "type": "uint256"
        }
      ],
      "name": "burn",
      "outputs": [
        {
          "internalType": "uint256",
          "name": "token0Amount",
          "type": "uint256"
        },
        {
          "internalType": "uint256",
          "name": "token1Amount",
          "type": "uint256"
        }
      ],
      "stateMutability": "nonpayable",
      "type": "function"
    },
    {
      "inputs": [
        {
          "internalType": "uint256",
          "name": "tokenId",
          "type": "uint256"
        },
        {
          "internalType": "bool",
          "name": "unwrapVault",
          "type": "bool"
        }
      ],
      "name": "cancelLimitOrder",
      "outputs": [],
      "stateMutability": "nonpayable",
      "type": "function"
    },
    {
      "inputs": [
        {
          "internalType": "uint256",
          "name": "tokenId",
          "type": "uint256"
        },
        {
          "internalType": "uint256",
          "name": "amount",
          "type": "uint256"
        },
        {
          "internalType": "bool",
          "name": "unwrapVault",
          "type": "bool"
        }
      ],
      "name": "claimLimitOrder",
      "outputs": [],
      "stateMutability": "nonpayable",
      "type": "function"
    },
    {
      "inputs": [
        {
          "internalType": "uint256",
          "name": "tokenId",
          "type": "uint256"
        },
        {
          "internalType": "address",
          "name": "recipient",
          "type": "address"
        },
        {
          "internalType": "bool",
          "name": "unwrapVault",
          "type": "bool"
        }
      ],
      "name": "collect",
      "outputs": [
        {
          "internalType": "uint256",
          "name": "token0amount",
          "type": "uint256"
        },
        {
          "internalType": "uint256",
          "name": "token1amount",
          "type": "uint256"
        }
      ],
      "stateMutability": "nonpayable",
      "type": "function"
    },
    {
      "inputs": [
        {
          "internalType": "contract IConcentratedLiquidityPool",
          "name": "pool",
          "type": "address"
        },
        {
          "internalType": "int24",
          "name": "tick",
          "type": "int24"
        },
        {
          "internalType": "int24",
          "name": "lowerOld",
          "type": "int24"
        },
        {
          "internalType": "int24",
          "name": "upperOld",
          "type": "int24"
        },
        {
          "internalType": "bool",
          "name": "native",
          "type": "bool"
        },
        {
          "internalType": "uint256",
          "name": "amountIn",
          "type": "uint256"
        },
        {
          "internalType": "bool",
          "name": "zeroForOne",
          "type": "bool"
        }
      ],
      "name": "createLimitOrder",
      "outputs": [
        {
          "internalType": "uint256",
          "name": "",
          "type": "uint256"
        }
      ],
      "stateMutability": "payable",
      "type": "function"
    },
    {
      "inputs": [
        {
          "internalType": "uint256",
          "name": "tokenId",
          "type": "uint256"
        }
      ],
      "name": "getApproved",
      "outputs": [
        {
          "internalType": "address",
          "name": "",
          "type": "address"
        }
      ],
      "stateMutability": "view",
      "type": "function"
    },
    {
      "inputs": [
        {
          "internalType": "uint256",
          "name": "tokenId",
          "type": "uint256"
        }
      ],
      "name": "getClaimableAmount",
      "outputs": [
        {
          "internalType": "uint256",
          "name": "amountOut",
          "type": "uint256"
        }
      ],
      "stateMutability": "view",
      "type": "function"
    },
    {
      "inputs": [
        {
          "internalType": "uint256",
          "name": "owner",
          "type": "uint256"
        }
      ],
      "name": "getLimitOrderTokenBalance",
      "outputs": [
        {
          "internalType": "address",
          "name": "",
          "type": "address"
        }
      ],
      "stateMutability": "view",
      "type": "function"
    },
    {
      "inputs": [
        {
          "internalType": "address",
          "name": "owner",
          "type": "address"
        },
        {
          "internalType": "address",
          "name": "operator",
          "type": "address"
        }
      ],
      "name": "isApprovedForAll",
      "outputs": [
        {
          "internalType": "bool",
          "name": "",
          "type": "bool"
        }
      ],
      "stateMutability": "view",
      "type": "function"
    },
    {
      "inputs": [
        {
          "internalType": "address",
          "name": "token",
          "type": "address"
        },
        {
          "internalType": "uint256",
          "name": "amount",
          "type": "uint256"
        },
        {
          "internalType": "bool",
          "name": "native",
          "type": "bool"
        }
      ],
      "name": "limitOrderCallback",
      "outputs": [],
      "stateMutability": "nonpayable",
      "type": "function"
    },
    {
      "inputs": [],
      "name": "limitOrderId",
      "outputs": [
        {
          "internalType": "uint256",
          "name": "",
          "type": "uint256"
        }
      ],
      "stateMutability": "view",
      "type": "function"
    },
    {
      "inputs": [],
      "name": "limitOrderToken",
      "outputs": [
        {
          "internalType": "contract LimitOrderToken",
          "name": "",
          "type": "address"
        }
      ],
      "stateMutability": "view",
      "type": "function"
    },
    {
      "inputs": [
        {
          "internalType": "uint256",
          "name": "",
          "type": "uint256"
        }
      ],
      "name": "limitOrders",
      "outputs": [
        {
          "internalType": "contract IConcentratedLiquidityPool",
          "name": "pool",
          "type": "address"
        },
        {
          "internalType": "uint256",
          "name": "id",
          "type": "uint256"
        },
        {
          "internalType": "int24",
          "name": "tick",
          "type": "int24"
        },
        {
          "internalType": "uint256",
          "name": "price",
          "type": "uint256"
        },
        {
          "internalType": "bool",
          "name": "zeroForOne",
          "type": "bool"
        },
        {
          "internalType": "uint256",
          "name": "amountIn",
          "type": "uint256"
        },
        {
          "internalType": "uint256",
          "name": "amountOut",
          "type": "uint256"
        },
        {
          "internalType": "uint256",
          "name": "claimedAmount",
          "type": "uint256"
        },
        {
          "internalType": "enum IConcentratedLiquidityPoolManagerStruct.LimitOrderStatus",
          "name": "status",
          "type": "uint8"
        }
      ],
      "stateMutability": "view",
      "type": "function"
    },
    {
      "inputs": [],
      "name": "masterDeployer",
      "outputs": [
        {
          "internalType": "contract IMasterDeployer",
          "name": "",
          "type": "address"
        }
      ],
      "stateMutability": "view",
      "type": "function"
    },
    {
      "inputs": [
        {
          "internalType": "contract IConcentratedLiquidityPool",
          "name": "pool",
          "type": "address"
        },
        {
          "internalType": "int24",
          "name": "lowerOld",
          "type": "int24"
        },
        {
          "internalType": "int24",
          "name": "lower",
          "type": "int24"
        },
        {
          "internalType": "int24",
          "name": "upperOld",
          "type": "int24"
        },
        {
          "internalType": "int24",
          "name": "upper",
          "type": "int24"
        },
        {
          "internalType": "uint128",
          "name": "amount0Desired",
          "type": "uint128"
        },
        {
          "internalType": "uint128",
          "name": "amount1Desired",
          "type": "uint128"
        },
        {
          "internalType": "bool",
          "name": "native",
          "type": "bool"
        },
        {
          "internalType": "uint256",
          "name": "minLiquidity",
          "type": "uint256"
        },
        {
          "internalType": "uint256",
          "name": "positionId",
          "type": "uint256"
        }
      ],
      "name": "mint",
      "outputs": [
        {
          "internalType": "uint256",
          "name": "_positionId",
          "type": "uint256"
        }
      ],
      "stateMutability": "payable",
      "type": "function"
    },
    {
      "inputs": [
        {
          "internalType": "address",
          "name": "token0",
          "type": "address"
        },
        {
          "internalType": "address",
          "name": "token1",
          "type": "address"
        },
        {
          "internalType": "uint256",
          "name": "amount0",
          "type": "uint256"
        },
        {
          "internalType": "uint256",
          "name": "amount1",
          "type": "uint256"
        },
        {
          "internalType": "bool",
          "name": "native",
          "type": "bool"
        }
      ],
      "name": "mintCallback",
      "outputs": [],
      "stateMutability": "nonpayable",
      "type": "function"
    },
    {
      "inputs": [
        {
          "internalType": "bytes[]",
          "name": "data",
          "type": "bytes[]"
        }
      ],
      "name": "multicall",
      "outputs": [
        {
          "internalType": "bytes[]",
          "name": "results",
          "type": "bytes[]"
        }
      ],
      "stateMutability": "payable",
      "type": "function"
    },
    {
      "inputs": [],
      "name": "name",
      "outputs": [
        {
          "internalType": "string",
          "name": "",
          "type": "string"
        }
      ],
      "stateMutability": "view",
      "type": "function"
    },
    {
      "inputs": [],
      "name": "nftCount",
      "outputs": [
        {
          "internalType": "uint128",
          "name": "minted",
          "type": "uint128"
        },
        {
          "internalType": "uint128",
          "name": "burned",
          "type": "uint128"
        }
      ],
      "stateMutability": "view",
      "type": "function"
    },
    {
      "inputs": [
        {
          "internalType": "uint256",
          "name": "",
          "type": "uint256"
        }
      ],
      "name": "nonces",
      "outputs": [
        {
          "internalType": "uint256",
          "name": "",
          "type": "uint256"
        }
      ],
      "stateMutability": "view",
      "type": "function"
    },
    {
      "inputs": [
        {
          "internalType": "address",
          "name": "",
          "type": "address"
        }
      ],
      "name": "noncesForAll",
      "outputs": [
        {
          "internalType": "uint256",
          "name": "",
          "type": "uint256"
        }
      ],
      "stateMutability": "view",
      "type": "function"
    },
    {
      "inputs": [
        {
          "internalType": "uint256",
          "name": "tokenId",
          "type": "uint256"
        }
      ],
      "name": "ownerOf",
      "outputs": [
        {
          "internalType": "address",
          "name": "",
          "type": "address"
        }
      ],
      "stateMutability": "view",
      "type": "function"
    },
    {
      "inputs": [
        {
          "internalType": "address",
          "name": "spender",
          "type": "address"
        },
        {
          "internalType": "uint256",
          "name": "tokenId",
          "type": "uint256"
        },
        {
          "internalType": "uint256",
          "name": "deadline",
          "type": "uint256"
        },
        {
          "internalType": "uint8",
          "name": "v",
          "type": "uint8"
        },
        {
          "internalType": "bytes32",
          "name": "r",
          "type": "bytes32"
        },
        {
          "internalType": "bytes32",
          "name": "s",
          "type": "bytes32"
        }
      ],
      "name": "permit",
      "outputs": [],
      "stateMutability": "nonpayable",
      "type": "function"
    },
    {
      "inputs": [
        {
          "internalType": "address",
          "name": "tokenOwner",
          "type": "address"
        },
        {
          "internalType": "address",
          "name": "operator",
          "type": "address"
        },
        {
          "internalType": "uint256",
          "name": "deadline",
          "type": "uint256"
        },
        {
          "internalType": "uint8",
          "name": "v",
          "type": "uint8"
        },
        {
          "internalType": "bytes32",
          "name": "r",
          "type": "bytes32"
        },
        {
          "internalType": "bytes32",
          "name": "s",
          "type": "bytes32"
        }
      ],
      "name": "permitAll",
      "outputs": [],
      "stateMutability": "nonpayable",
      "type": "function"
    },
    {
      "inputs": [
        {
          "internalType": "uint256",
          "name": "tokenId",
          "type": "uint256"
        }
      ],
      "name": "positionFees",
      "outputs": [
        {
          "internalType": "uint256",
          "name": "token0amount",
          "type": "uint256"
        },
        {
          "internalType": "uint256",
          "name": "token1amount",
          "type": "uint256"
        },
        {
          "internalType": "uint256",
          "name": "feeGrowthInside0",
          "type": "uint256"
        },
        {
          "internalType": "uint256",
          "name": "feeGrowthInside1",
          "type": "uint256"
        }
      ],
      "stateMutability": "view",
      "type": "function"
    },
    {
      "inputs": [
        {
          "internalType": "uint256",
          "name": "",
          "type": "uint256"
        }
      ],
      "name": "positions",
      "outputs": [
        {
          "internalType": "contract IConcentratedLiquidityPool",
          "name": "pool",
          "type": "address"
        },
        {
          "internalType": "uint128",
          "name": "liquidity",
          "type": "uint128"
        },
        {
          "internalType": "int24",
          "name": "lower",
          "type": "int24"
        },
        {
          "internalType": "int24",
          "name": "upper",
          "type": "int24"
        },
        {
          "internalType": "uint32",
          "name": "latestAddition",
          "type": "uint32"
        },
        {
          "internalType": "uint256",
          "name": "feeGrowthInside0",
          "type": "uint256"
        },
        {
          "internalType": "uint256",
          "name": "feeGrowthInside1",
          "type": "uint256"
        }
      ],
      "stateMutability": "view",
      "type": "function"
    },
    {
      "inputs": [
        {
          "internalType": "address",
          "name": "from",
          "type": "address"
        },
        {
          "internalType": "address",
          "name": "to",
          "type": "address"
        },
        {
          "internalType": "uint256",
          "name": "tokenId",
          "type": "uint256"
        }
      ],
      "name": "safeTransferFrom",
      "outputs": [],
      "stateMutability": "nonpayable",
      "type": "function"
    },
    {
      "inputs": [
        {
          "internalType": "address",
          "name": "from",
          "type": "address"
        },
        {
          "internalType": "address",
          "name": "to",
          "type": "address"
        },
        {
          "internalType": "uint256",
          "name": "tokenId",
          "type": "uint256"
        },
        {
          "internalType": "bytes",
          "name": "_data",
          "type": "bytes"
        }
      ],
      "name": "safeTransferFrom",
      "outputs": [],
      "stateMutability": "nonpayable",
      "type": "function"
    },
    {
      "inputs": [
        {
          "internalType": "address",
          "name": "operator",
          "type": "address"
        },
        {
          "internalType": "bool",
          "name": "approved",
          "type": "bool"
        }
      ],
      "name": "setApprovalForAll",
      "outputs": [],
      "stateMutability": "nonpayable",
      "type": "function"
    },
    {
      "inputs": [
        {
          "internalType": "bytes4",
          "name": "interfaceId",
          "type": "bytes4"
        }
      ],
      "name": "supportsInterface",
      "outputs": [
        {
          "internalType": "bool",
          "name": "",
          "type": "bool"
        }
      ],
      "stateMutability": "view",
      "type": "function"
    },
    {
      "inputs": [],
      "name": "symbol",
      "outputs": [
        {
          "internalType": "string",
          "name": "",
          "type": "string"
        }
      ],
      "stateMutability": "view",
      "type": "function"
    },
    {
      "inputs": [
        {
          "internalType": "uint256",
          "name": "tokenId",
          "type": "uint256"
        }
      ],
      "name": "tokenURI",
      "outputs": [
        {
          "internalType": "string",
          "name": "",
          "type": "string"
        }
      ],
      "stateMutability": "view",
      "type": "function"
    },
    {
      "inputs": [],
      "name": "totalSupply",
      "outputs": [
        {
          "internalType": "uint256",
          "name": "",
          "type": "uint256"
        }
      ],
      "stateMutability": "view",
      "type": "function"
    },
    {
      "inputs": [
        {
          "internalType": "address",
          "name": "from",
          "type": "address"
        },
        {
          "internalType": "address",
          "name": "to",
          "type": "address"
        },
        {
          "internalType": "uint256",
          "name": "tokenId",
          "type": "uint256"
        }
      ],
      "name": "transferFrom",
      "outputs": [],
      "stateMutability": "nonpayable",
      "type": "function"
    },
    {
      "inputs": [],
      "name": "vault",
      "outputs": [
        {
          "internalType": "contract IVaultMinimal",
          "name": "",
          "type": "address"
        }
      ],
      "stateMutability": "view",
      "type": "function"
    }
  ],
  "bytecode": "0x6101206040526009805460016001600160a01b03199182168117909255600a805490911690911790553480156200003557600080fd5b50604051620075cc380380620075cc833981016040819052620000589162000580565b604080518082018252600781526604446594e5f4c560cc1b6020808301918252835180850190945260038452620444c560ec1b908401528151919291620000a291600091620004af565b508051620000b8906001906020840190620004af565b50504660a0818152604080518082018252600781526604446594e5f4c560cc1b6020918201528151808301835260018152603160f81b9082015281517f8b73c3c69bb8fe3d512ecc4cf759cc79239f7b179b0ffacaa9a75d522b39400f818301527fc4f21e985ad32e5cafa9dde4cad2f37d81e4025f5a411acbba650a705a19f73e818401527fc89efdaa54c0f20c7adf612882df0950f5a951637e0307cdcb4c672f298b8bc66060820152608081019490945230848401528151808503909301835260c09093019052805191012090506080526001600160a01b0382166101008190526040805163fbfa77cf60e01b815290516000929163fbfa77cf9160048083019260209291908290030181865afa158015620001db573d6000803e3d6000fd5b505050506040513d601f19601f82011682018060405250810190620002019190620005b8565b9050806001600160a01b031663aee4d1b26040518163ffffffff1660e01b8152600401600060405180830381600087803b1580156200023f57600080fd5b505af115801562000254573d6000803e3d6000fd5b5050506001600160a01b0380831660e052831660c0525060405162000279906200053e565b60408082526007908201526611199e5b9313d560ca1b606082015260806020820181905260049082015263111313d560e21b60a082015260c001604051809103906000f080158015620002d0573d6000803e3d6000fd5b50600b80546001600160a01b0319166001600160a01b0392909216919091179055620002fc3062000305565b50505062000675565b60068054620003609183916001600160801b03169060006200032783620005f3565b91906101000a8154816001600160801b0302191690836001600160801b031602179055506001600160801b03166200036360201b60201c565b50565b6001600160a01b038216620003bf5760405162461bcd60e51b815260206004820181905260248201527f4552433732313a206d696e7420746f20746865207a65726f206164647265737360448201526064015b60405180910390fd5b6000818152600260205260409020546001600160a01b031615620004265760405162461bcd60e51b815260206004820152601c60248201527f4552433732313a20746f6b656e20616c7265616479206d696e746564000000006044820152606401620003b6565b6001600160a01b0382166000908152600360205260408120805460019290620004519084906200061d565b909155505060008181526002602052604080822080546001600160a01b0319166001600160a01b03861690811790915590518392907fddf252ad1be2c89b69c2b068fc378daa952ba7f163c4a11628f55a4df523b3ef908290a45050565b828054620004bd9062000638565b90600052602060002090601f016020900481019282620004e157600085556200052c565b82601f10620004fc57805160ff19168380011785556200052c565b828001600101855582156200052c579182015b828111156200052c5782518255916020019190600101906200050f565b506200053a9291506200054c565b5090565b6119ae8062005c1e83390190565b5b808211156200053a57600081556001016200054d565b80516001600160a01b03811681146200057b57600080fd5b919050565b600080604083850312156200059457600080fd5b6200059f8362000563565b9150620005af6020840162000563565b90509250929050565b600060208284031215620005cb57600080fd5b620005d68262000563565b9392505050565b634e487b7160e01b600052601160045260246000fd5b60006001600160801b0382811680821415620006135762000613620005dd565b6001019392505050565b60008219821115620006335762000633620005dd565b500190565b600181811c908216806200064d57607f821691505b602082108114156200066f57634e487b7160e01b600052602260045260246000fd5b50919050565b60805160a05160c05160e051610100516155106200070e6000396000818161082c015281816111c50152611648015260008181610900015281816126d10152818161276701528181612d7c01528181612e02015281816133a201528181613632015281816136d001528181614048015281816140d4015261417601526000613fd40152600061108a0152600061118101526155106000f3fe60806040526004361061023b5760003560e01c80637d8ca2421161012e578063ac9650d8116100ab578063d967f4311161006f578063d967f4311461084e578063e6dd0e561461086e578063e985e9c51461088e578063ed7bba9a146108ae578063fbfa77cf146108ee57600080fd5b8063ac9650d814610786578063b4e13c8d146107a6578063b88d4fde146107da578063c87b56dd146107fa578063cf58879a1461081a57600080fd5b8063a22cb465116100f2578063a22cb46514610677578063a322cbae14610697578063a3e2b495146106b7578063a7c1d44814610746578063aba078471461076657600080fd5b80637d8ca242146105265780638c6ab01314610546578063904dfb8e1461056657806395d89b411461059357806399fbab88146105a857600080fd5b806330adf81f116101bc57806342842e0e1161018057806342842e0e146104715780636352211e146104915780636c4bbbed146104b157806370a08231146104e65780637ac2ff7b1461050657600080fd5b806330adf81f146103e25780633644e515146104165780633749345c1461042b5780633758a5831461043e5780633f0331871461045e57600080fd5b80631112e2f3116102035780631112e2f31461033c578063116f575b1461035c578063141a468c1461038057806318160ddd146103ad57806323b872dd146103c257600080fd5b806301ffc9a71461024057806306fdde0314610275578063081812fc14610297578063095ea7b3146102cf5780630af2c6ca146102f1575b600080fd5b34801561024c57600080fd5b5061026061025b366004614618565b610922565b60405190151581526020015b60405180910390f35b34801561028157600080fd5b5061028a610974565b60405161026c919061468d565b3480156102a357600080fd5b506102b76102b23660046146a0565b610a06565b6040516001600160a01b03909116815260200161026c565b3480156102db57600080fd5b506102ef6102ea3660046146ce565b610aa0565b005b3480156102fd57600080fd5b5060065461031c906001600160801b0380821691600160801b90041682565b604080516001600160801b0393841681529290911660208301520161026c565b34801561034857600080fd5b506102ef610357366004614708565b610bb6565b34801561036857600080fd5b50610372600e5481565b60405190815260200161026c565b34801561038c57600080fd5b5061037261039b3660046146a0565b60076020526000908152604090205481565b3480156103b957600080fd5b50610372611025565b3480156103ce57600080fd5b506102ef6103dd366004614741565b611055565b3480156103ee57600080fd5b506103727f49ecf333e5b8c95c40fdafc95c1ad136e8914a8fb55e9dc8bb01eaa83a2df9ad81565b34801561042257600080fd5b50610372611086565b610372610439366004614799565b6111a3565b34801561044a57600080fd5b506102b76104593660046146a0565b6115b8565b61037261046c366004614835565b611626565b34801561047d57600080fd5b506102ef61048c366004614741565b611c7e565b34801561049d57600080fd5b506102b76104ac3660046146a0565b611c99565b3480156104bd57600080fd5b506104d16104cc3660046148eb565b611d10565b6040805192835260208301919091520161026c565b3480156104f257600080fd5b50610372610501366004614950565b6120a5565b34801561051257600080fd5b506102ef61052136600461497e565b61212c565b34801561053257600080fd5b506103726105413660046146a0565b61236f565b34801561055257600080fd5b506104d16105613660046149d8565b6125ca565b34801561057257600080fd5b50610372610581366004614950565b60086020526000908152604090205481565b34801561059f57600080fd5b5061028a6128da565b3480156105b457600080fd5b506106226105c33660046146a0565b600c602052600090815260409020805460018201546002808401546003909401546001600160a01b03909316936001600160801b03831693600160801b8404830b93600160981b810490930b92600160b01b900463ffffffff16919087565b604080516001600160a01b0390981688526001600160801b039096166020880152600294850b958701959095529190920b606085015263ffffffff909116608084015260a083015260c082015260e00161026c565b34801561068357600080fd5b506102ef610692366004614a0f565b6128e9565b3480156106a357600080fd5b506102ef6106b2366004614a48565b6128f8565b3480156106c357600080fd5b506107316106d23660046146a0565b600d60205260009081526040902080546001820154600280840154600385015460048601546005870154600688015460078901546008909901546001600160a01b039098169896979490950b95929460ff928316949193909290911689565b60405161026c99989796959493929190614a83565b34801561075257600080fd5b506102ef610761366004614afb565b612cd3565b34801561077257600080fd5b506102ef610781366004614b5a565b612e9e565b610799610794366004614ba3565b6130a5565b60405161026c9190614c18565b3480156107b257600080fd5b506103727fdaab21af31ece73a508939fedd476a5ee5129a5ed4bb091f3236ffb45394df6281565b3480156107e657600080fd5b506102ef6107f5366004614ce9565b6131f2565b34801561080657600080fd5b5061028a6108153660046146a0565b61322a565b34801561082657600080fd5b506102b77f000000000000000000000000000000000000000000000000000000000000000081565b34801561085a57600080fd5b506102ef610869366004614d98565b613312565b34801561087a57600080fd5b50600b546102b7906001600160a01b031681565b34801561089a57600080fd5b506102606108a9366004614dcf565b613439565b3480156108ba57600080fd5b506108ce6108c93660046146a0565b613467565b60408051948552602085019390935291830152606082015260800161026c565b3480156108fa57600080fd5b506102b77f000000000000000000000000000000000000000000000000000000000000000081565b60006001600160e01b031982166380ac58cd60e01b148061095357506001600160e01b03198216635b5e139f60e01b145b8061096e57506301ffc9a760e01b6001600160e01b03198316145b92915050565b60606000805461098390614dfd565b80601f01602080910402602001604051908101604052809291908181526020018280546109af90614dfd565b80156109fc5780601f106109d1576101008083540402835291602001916109fc565b820191906000526020600020905b8154815290600101906020018083116109df57829003601f168201915b5050505050905090565b6000818152600260205260408120546001600160a01b0316610a845760405162461bcd60e51b815260206004820152602c60248201527f4552433732313a20617070726f76656420717565727920666f72206e6f6e657860448201526b34b9ba32b73a103a37b5b2b760a11b60648201526084015b60405180910390fd5b506000908152600460205260409020546001600160a01b031690565b6000610aab82611c99565b9050806001600160a01b0316836001600160a01b03161415610b195760405162461bcd60e51b815260206004820152602160248201527f4552433732313a20617070726f76616c20746f2063757272656e74206f776e656044820152603960f91b6064820152608401610a7b565b336001600160a01b0382161480610b355750610b358133613439565b610ba75760405162461bcd60e51b815260206004820152603860248201527f4552433732313a20617070726f76652063616c6c6572206973206e6f74206f7760448201527f6e6572206e6f7220617070726f76656420666f7220616c6c00000000000000006064820152608401610a7b565b610bb183836135a7565b505050565b600b546040516331a9108f60e11b8152600481018590526001600160a01b0390911690636352211e90602401602060405180830381865afa158015610bff573d6000803e3d6000fd5b505050506040513d601f19601f82011682018060405250810190610c239190614e38565b6001600160a01b0316336001600160a01b031614610c535760405162461bcd60e51b8152600401610a7b90614e55565b81610c945760405162461bcd60e51b8152602060048201526011602482015270436c61696d3a416d6f756e74205a65726f60781b6044820152606401610a7b565b6000838152600d6020908152604080832081516101208101835281546001600160a01b0316815260018083015494820194909452600280830154900b9281019290925260038101546060830152600481015460ff90811615156080840152600582015460a0840152600682015460c0840152600782015460e0840152600882015492939192610100850192911690811115610d3157610d31614a6d565b6001811115610d4257610d42614a6d565b905250905060008161010001516001811115610d6057610d60614a6d565b1415610da65760405162461bcd60e51b81526020600482015260156024820152744c696d6974204f726465723a20496e61637469766560581b6044820152606401610a7b565b60008160e001518260c00151610dbc9190614e91565b905083811015610e0e5760405162461bcd60e51b815260206004820152601f60248201527f416d6f756e74204578636565647320436c61696d61626c6520416d6f756e74006044820152606401610a7b565b815160408084015160808501519151630328e80160e01b81526004810188905260029190910b602482015290151560448201526001600160a01b0390911690630328e80190606401600060405180830381600087803b158015610e7057600080fd5b505af1158015610e84573d6000803e3d6000fd5b5050506000868152600d602052604081206007018054879350909190610eab908490614ea8565b90915550506000858152600d6020526040902060068101546007909101541415610f39576000610100830181905250600b54604051630852cd8d60e31b8152600481018790526001600160a01b03909116906342966c6890602401600060405180830381600087803b158015610f2057600080fd5b505af1158015610f34573d6000803e3d6000fd5b505050505b60008083600001516001600160a01b031663bcdb4dad6040518163ffffffff1660e01b815260040161010060405180830381865afa158015610f7f573d6000803e3d6000fd5b505050506040513d601f19601f82011682018060405250810190610fa39190614ed3565b97509750505050505050836080015115610fc857610fc381338888613615565b610fd4565b610fd482338888613615565b835160408051898152602081018990526001600160a01b03909216917ff8edebe176eb893b295dc1433594804d0d29de382ea3b0d7c27666d297af21e191015b60405180910390a250505050505050565b600654600090611047906001600160801b03600160801b820481169116614f7c565b6001600160801b0316905090565b61105f3382613743565b61107b5760405162461bcd60e51b8152600401610a7b90614fa4565b610bb183838361381a565b60007f0000000000000000000000000000000000000000000000000000000000000000461461117e5750604080518082018252600781526604446594e5f4c560cc1b6020918201528151808301835260018152603160f81b9082015281517f8b73c3c69bb8fe3d512ecc4cf759cc79239f7b179b0ffacaa9a75d522b39400f818301527fc4f21e985ad32e5cafa9dde4cad2f37d81e4025f5a411acbba650a705a19f73e818401527fc89efdaa54c0f20c7adf612882df0950f5a951637e0307cdcb4c672f298b8bc660608201524660808201523060a0808301919091528351808303909101815260c0909101909252815191012090565b507f000000000000000000000000000000000000000000000000000000000000000090565b6040516329018f6f60e21b81526001600160a01b0388811660048301526000917f00000000000000000000000000000000000000000000000000000000000000009091169063a4063dbc90602401602060405180830381865afa15801561120e573d6000803e3d6000fd5b505050506040513d601f19601f820116820180604052508101906112329190614ff5565b61126d5760405162461bcd60e51b815260206004820152600c60248201526b1253959053125117d413d3d360a21b6044820152606401610a7b565b826112a85760405162461bcd60e51b815260206004820152600b60248201526a416d6f756e743a5a65726f60a81b6044820152606401610a7b565b600a80546001600160a01b038a166001600160a01b03199182168117909255600980549091163317905560405163046102e160e41b8152600289810b600483015288810b602483015287900b604482015260648101859052851515608482015283151560a4820152600091906346102e109060c401600060405180830381600087803b15801561133757600080fd5b505af115801561134b573d6000803e3d6000fd5b50505050600061135a896139b6565b9050611377816001600160a01b0316620f4240600160601b613ce9565b91506113846002836150f6565b9150600084156113a55761139e868464e8d4a51000613ce9565b90506113b8565b6113b58664e8d4a5100085613ce9565b90505b600e80549060006113c883615105565b9091555050600b54600e546040516340c10f1960e01b815233600482015260248101919091526001600160a01b03909116906340c10f1990604401600060405180830381600087803b15801561141d57600080fd5b505af1158015611431573d6000803e3d6000fd5b505050506040518061012001604052808c6001600160a01b03168152602001600e5481526020018b60020b815260200184815260200186151581526020018781526020018281526020016000815260200160018081111561149457611494614a6d565b9052600e546000908152600d6020908152604091829020835181546001600160a01b0319166001600160a01b03909116178155908301516001808301919091559183015160028201805462ffffff191662ffffff90921691909117905560608301516003820155608083015160048201805460ff1990811692151592909217905560a0840151600583015560c0840151600683015560e084015160078301556101008401516008830180549394919390921690838181111561155857611558614a6d565b0217905550905050828b6001600160a01b03167ffff3bd55d564c53a976551a7bdc67545baf1094e6c71a716de19c9fd1060a885600e5460405161159e91815260200190565b60405180910390a35050600e549998505050505050505050565b600b546040516331a9108f60e11b8152600481018390526000916001600160a01b031690636352211e90602401602060405180830381865afa158015611602573d6000803e3d6000fd5b505050506040513d601f19601f8201168201806040525081019061096e9190614e38565b6040516329018f6f60e21b81526001600160a01b038b811660048301526000917f00000000000000000000000000000000000000000000000000000000000000009091169063a4063dbc90602401602060405180830381865afa158015611691573d6000803e3d6000fd5b505050506040513d601f19601f820116820180604052508101906116b59190614ff5565b6116f05760405162461bcd60e51b815260206004820152600c60248201526b1253959053125117d413d3d360a21b6044820152606401610a7b565b600980546001600160a01b03199081163317909155600a80546001600160a01b038e169216821790556040805160e08101825260028d810b82528c810b602083019081528c820b8385019081528c830b606085019081526001600160801b038d8116608087019081528d821660a088019081528d151560c089019081529851634d7b7ed160e01b81529751870b60048901529451860b60248801529251850b6044870152905190930b60648501525182166084840152511660a48201529051151560c482015260009190634d7b7ed19060e4016020604051808303816000875af11580156117e2573d6000803e3d6000fd5b505050506040513d601f19601f820116820180604052508101906118069190615120565b905083816001600160801b031610156118575760405162461bcd60e51b81526020600482015260136024820152721513d3d7d3125515131157d49150d152559151606a1b6044820152606401610a7b565b60405163159fd11f60e31b815260028b810b600483015289900b602482015260009081906001600160a01b038f169063acfe88f8906044016040805180830381865afa1580156118ab573d6000803e3d6000fd5b505050506040513d601f19601f820116820180604052508101906118cf9190615139565b915091508460001415611a5a57600660000160009054906101000a90046001600160801b03166001600160801b031693506040518060e001604052808f6001600160a01b03168152602001846001600160801b031681526020018d60020b81526020018b60020b81526020014263ffffffff16815260200183815260200182815250600c600086815260200190815260200160002060008201518160000160006101000a8154816001600160a01b0302191690836001600160a01b0316021790555060208201518160010160006101000a8154816001600160801b0302191690836001600160801b0316021790555060408201518160010160106101000a81548162ffffff021916908360020b62ffffff16021790555060608201518160010160136101000a81548162ffffff021916908360020b62ffffff16021790555060808201518160010160166101000a81548163ffffffff021916908363ffffffff16021790555060a0820151816002015560c08201518160030155905050611a5533613d9c565b611bef565b8493506000600c600086815260200190815260200160002090508e6001600160a01b03168160000160009054906101000a90046001600160a01b03166001600160a01b031614611add5760405162461bcd60e51b815260206004820152600e60248201526d0a09e9e98be9a92a6be9a82a886960931b6044820152606401610a7b565b600181015460028e810b600160801b909204900b148015611b0f5750600181015460028c810b600160981b909204900b145b611b4d5760405162461bcd60e51b815260206004820152600f60248201526e0a4829c8e8abe9a92a6be9a82a8869608b1b6044820152606401610a7b565b33611b5787611c99565b6001600160a01b031614611b7d5760405162461bcd60e51b8152600401610a7b90614e55565b6002810183905560038101829055600181018054859190600090611bab9084906001600160801b031661515d565b82546101009290920a6001600160801b0381810219909316919092169190910217905550600101805463ffffffff60b01b1916600160b01b4263ffffffff16021790555b83336001600160a01b03168f6001600160a01b03167fc8dd8ccfbeefd448504efbf8f0f1228f3874a3556303d43aec4cc814237755f486604051611c4291906001600160801b0391909116815260200190565b60405180910390a450506009805460016001600160a01b03199182168117909255600a80549091169091179055509a9950505050505050505050565b610bb1838383604051806020016040528060008152506131f2565b6000818152600260205260408120546001600160a01b03168061096e5760405162461bcd60e51b815260206004820152602960248201527f4552433732313a206f776e657220717565727920666f72206e6f6e657869737460448201526832b73a103a37b5b2b760b91b6064820152608401610a7b565b600080611d1c88611c99565b6001600160a01b0316336001600160a01b031614611d4c5760405162461bcd60e51b8152600401610a7b90614e55565b6000888152600c60209081526040808320815160e08101835281546001600160a01b0316815260018201546001600160801b03811694820194909452600160801b8404600290810b93820193909352600160981b8404830b6060820152600160b01b90930463ffffffff1660808401529081015460a08301526003015460c082015290808080611ddb8d613467565b935093509350935084602001516001600160801b03168c6001600160801b03161015611efb5784516040808701516060880151915163a34123a760e01b8152600291820b600482015291900b60248201526001600160801b038e1660448201526001600160a01b039091169063a34123a7906064016080604051808303816000875af1158015611e6f573d6000803e3d6000fd5b505050506040513d601f19601f82011682018060405250810190611e939190615188565b505060008f8152600c6020526040812060028101869055600381018590556001018054939a509198508e92611ed29084906001600160801b0316614f7c565b92506101000a8154816001600160801b0302191690836001600160801b03160217905550611fde565b602085015185516040808801516060890151915163a34123a760e01b8152600291820b600482015291900b60248201526001600160801b0383166044820152919d506001600160a01b03169063a34123a7906064016080604051808303816000875af1158015611f6f573d6000803e3d6000fd5b505050506040513d601f19601f82011682018060405250810190611f939190615188565b509198509650611fa490508d613df0565b60008d8152600c6020526040812080546001600160a01b03191681556001810180546001600160d01b031916905560028101829055600301555b888710158015611fee5750878610155b6120305760405162461bcd60e51b81526020600482015260136024820152721513d3d7d3125515131157d49150d152559151606a1b6044820152606401610a7b565b84519684019695830195612047908c89898e613e3e565b84516040516001600160801b038e1681528e9133916001600160a01b03909116907fa246c3c6c374294b514c67820df22c91e7d4946b79d7e9fbcdc2a9ea99036ce09060200160405180910390a45050505050965096945050505050565b60006001600160a01b0382166121105760405162461bcd60e51b815260206004820152602a60248201527f4552433732313a2062616c616e636520717565727920666f7220746865207a65604482015269726f206164647265737360b01b6064820152608401610a7b565b506001600160a01b031660009081526003602052604090205490565b428410156121765760405162461bcd60e51b815260206004820152601760248201527614115493525517d11150511312539157d1561412549151604a1b6044820152606401610a7b565b600061218186611c99565b9050600061218d611086565b60008881526007602090815260409182902080546001810190915582517f49ecf333e5b8c95c40fdafc95c1ad136e8914a8fb55e9dc8bb01eaa83a2df9ad818401526001600160a01b038d1681850152606081018c9052608081019190915260a08082018b90528351808303909101815260c082019093528251929091019190912061190160f01b60e083015260e28201929092526101028101919091526101220160408051601f198184030181528282528051602091820120600080855291840180845281905260ff89169284019290925260608301879052608083018690529092509060019060a0016020604051602081039080840390855afa15801561229a573d6000803e3d6000fd5b5050604051601f1901519150506001600160a01b0381166122f85760405162461bcd60e51b8152602060048201526018602482015277494e56414c49445f5045524d49545f5349474e415455524560401b6044820152606401610a7b565b826001600160a01b0316816001600160a01b0316148061231d575061231d8382613439565b61235a5760405162461bcd60e51b815260206004820152600e60248201526d24a72b20a624a22fa9a4a3a722a960911b6044820152606401610a7b565b505061236687876135a7565b50505050505050565b6000818152600d6020908152604080832081516101208101835281546001600160a01b0316815260018083015494820194909452600280830154900b9281019290925260038101546060830152600481015460ff90811615156080840152600582015460a0840152600682015460c0840152600782015460e084015260088201548594610100850192919091169081111561240c5761240c614a6d565b600181111561241d5761241d614a6d565b90525090506000816101000151600181111561243b5761243b614a6d565b14156124815760405162461bcd60e51b81526020600482015260156024820152744c696d6974204f726465723a20496e61637469766560581b6044820152606401610a7b565b60008160e001518260c001516124979190614e91565b82516080840151919250600091156125265760408481015190516305034c7960e41b815260029190910b60048201526001600160a01b03821690635034c79090602401608060405180830381865afa1580156124f7573d6000803e3d6000fd5b505050506040513d601f19601f8201168201806040525081019061251b91906151be565b60600151915061259f565b60408481015190516305034c7960e41b815260029190910b60048201526001600160a01b03821690635034c79090602401608060405180830381865afa158015612574573d6000803e3d6000fd5b505050506040513d601f19601f8201168201806040525081019061259891906151be565b6040015191505b82156125c1578282106125b4578294506125c1565b6125be8284614e91565b94505b50505050919050565b6000806125d685611c99565b6001600160a01b0316336001600160a01b0316146126065760405162461bcd60e51b8152600401610a7b90614e55565b6000858152600c60205260408082208054825163bcdb4dad60e01b8152925191939283926001600160a01b039092169163bcdb4dad91600480820192610100929091908290030181865afa158015612662573d6000803e3d6000fd5b505050506040513d601f19601f820116820180604052508101906126869190614ed3565b9750975050505050505061269988613467565b60038701556002860155604051633de222bb60e21b81526001600160a01b0385811660048301523060248301529297509095506000917f0000000000000000000000000000000000000000000000000000000000000000169063f7888aec90604401602060405180830381865afa158015612718573d6000803e3d6000fd5b505050506040513d601f19601f8201168201806040525081019061273c9190615120565b604051633de222bb60e21b81526001600160a01b0384811660048301523060248301529192506000917f0000000000000000000000000000000000000000000000000000000000000000169063f7888aec90604401602060405180830381865afa1580156127ae573d6000803e3d6000fd5b505050506040513d601f19601f820116820180604052508101906127d29190615120565b9050868210806127e157508581105b156128b55784546001860154604051630c016b6b60e31b8152600160801b8204600290810b6004830152600160981b90920490910b602482015260009182916001600160a01b039091169063600b5b589060440160408051808303816000875af1158015612853573d6000803e3d6000fd5b505050506040513d601f19601f820116820180604052508101906128779190615139565b909250905060006128888584614ea8565b905060006128968584614ea8565b9050818b11156128a457819a505b808a11156128b0578099505b505050505b6128c1848a898b613615565b6128cd838a888b613615565b5050505050935093915050565b60606001805461098390614dfd565b6128f4338383613ec6565b5050565b600b546040516331a9108f60e11b8152600481018490526001600160a01b0390911690636352211e90602401602060405180830381865afa158015612941573d6000803e3d6000fd5b505050506040513d601f19601f820116820180604052508101906129659190614e38565b6001600160a01b0316336001600160a01b0316146129955760405162461bcd60e51b8152600401610a7b90614e55565b6000828152600d6020908152604080832081516101208101835281546001600160a01b0316815260018083015494820194909452600280830154900b9281019290925260038101546060830152600481015460ff90811615156080840152600582015460a0840152600682015460c0840152600782015460e0840152600882015492939192610100850192911690811115612a3257612a32614a6d565b6001811115612a4357612a43614a6d565b905250905060008161010001516001811115612a6157612a61614a6d565b1415612aa65760405162461bcd60e51b81526020600482015260146024820152734c696d6974204f726465723a496e61637469766560601b6044820152606401610a7b565b60008082600001516001600160a01b031663bcdb4dad6040518163ffffffff1660e01b815260040161010060405180830381865afa158015612aec573d6000803e3d6000fd5b505050506040513d601f19601f82011682018060405250810190612b109190614ed3565b9750975050505050505060008360e001518460c00151612b309190614e91565b90506000846080015115612bdd57612b528264e8d4a510008760600151613f95565b8551604080880151608089015191516296f72960e41b81526004810185905260029190910b602482015290151560448201529192506001600160a01b03169063096f729090606401600060405180830381600087803b158015612bb457600080fd5b505af1158015612bc8573d6000803e3d6000fd5b50505050612bd884338389613615565b612c77565b612bf185606001518364e8d4a51000613f95565b8551604080880151608089015191516296f72960e41b81526004810185905260029190910b602482015290151560448201529192506001600160a01b03169063096f729090606401600060405180830381600087803b158015612c5357600080fd5b505af1158015612c67573d6000803e3d6000fd5b50505050612c7783338389613615565b6000878152600d6020908152604091829020600801805460ff19169055865182518a81529182018490526001600160a01b0316917fed7e630556d3a2b03979d6709e90dd90f55036d6643f7d2df351121da330e30d9101611014565b600a546001600160a01b03163314612d255760405162461bcd60e51b8152602060048201526015602482015274554e415554484f52495a45445f43414c4c4241434b60581b6044820152606401610a7b565b8015612d6257600954612d449086906001600160a01b03163386613fd2565b600954612d5d9085906001600160a01b03163385613fd2565b612e74565b600954604051633c6340f360e21b81526001600160a01b037f000000000000000000000000000000000000000000000000000000000000000081169263f18d03cc92612db8928a92169033908990600401615224565b600060405180830381600087803b158015612dd257600080fd5b505af1158015612de6573d6000803e3d6000fd5b5050600954604051633c6340f360e21b81526001600160a01b037f00000000000000000000000000000000000000000000000000000000000000008116945063f18d03cc9350612e4192899291169033908890600401615224565b600060405180830381600087803b158015612e5b57600080fd5b505af1158015612e6f573d6000803e3d6000fd5b505050505b50506009805460016001600160a01b03199182168117909255600a80549091169091179055505050565b42841015612ee85760405162461bcd60e51b815260206004820152601760248201527614115493525517d11150511312539157d1561412549151604a1b6044820152606401610a7b565b6000612ef2611086565b6001600160a01b0388811660008181526008602090815260409182902080546001810190915582517fdaab21af31ece73a508939fedd476a5ee5129a5ed4bb091f3236ffb45394df628184015280840194909452938b166060840152608083019390935260a08083018a90528151808403909101815260c08301909152805192019190912061190160f01b60e083015260e28201929092526101028101919091526101220160408051601f198184030181528282528051602091820120600080855291840180845281905260ff88169284019290925260608301869052608083018590529092509060019060a0016020604051602081039080840390855afa158015613002573d6000803e3d6000fd5b5050604051601f1901519150506001600160a01b038116158015906130385750876001600160a01b0316816001600160a01b0316145b8061304857506130488882613439565b61308f5760405162461bcd60e51b8152602060048201526018602482015277494e56414c49445f5045524d49545f5349474e415455524560401b6044820152606401610a7b565b505061309d86866001613ec6565b505050505050565b60608167ffffffffffffffff8111156130c0576130c0614c7a565b6040519080825280602002602001820160405280156130f357816020015b60608152602001906001900390816130de5790505b50905060005b828110156131eb57600080308686858181106131175761311761524e565b90506020028101906131299190615264565b6040516131379291906152b2565b600060405180830381855af49150503d8060008114613172576040519150601f19603f3d011682016040523d82523d6000602084013e613177565b606091505b5091509150816131c35760448151101561319057600080fd5b600481019050808060200190518101906131aa91906152c2565b60405162461bcd60e51b8152600401610a7b919061468d565b808484815181106131d6576131d661524e565b602090810291909101015250506001016130f9565b5092915050565b6131fc3383613743565b6132185760405162461bcd60e51b8152600401610a7b90614fa4565b613224848484846141f6565b50505050565b6000818152600260205260409020546060906001600160a01b03166132a95760405162461bcd60e51b815260206004820152602f60248201527f4552433732314d657461646174613a2055524920717565727920666f72206e6f60448201526e3732bc34b9ba32b73a103a37b5b2b760891b6064820152608401610a7b565b60006132c060408051602081019091526000815290565b905060008151116132e0576040518060200160405280600081525061330b565b806132ea84614229565b6040516020016132fb929190615339565b6040516020818303038152906040525b9392505050565b600a546001600160a01b031633146133645760405162461bcd60e51b8152602060048201526015602482015274554e415554484f52495a45445f43414c4c4241434b60581b6044820152606401610a7b565b8015613388576009546133839084906001600160a01b03163385613fd2565b613411565b600954604051633c6340f360e21b81526001600160a01b037f000000000000000000000000000000000000000000000000000000000000000081169263f18d03cc926133de928892169033908890600401615224565b600060405180830381600087803b1580156133f857600080fd5b505af115801561340c573d6000803e3d6000fd5b505050505b50506009805460016001600160a01b03199182168117909255600a8054909116909117905550565b6001600160a01b03918216600090815260056020908152604080832093909416825291909152205460ff1690565b6000818152600c60209081526040808320815160e08101835281546001600160a01b031680825260018301546001600160801b03811695830195909552600160801b8504600290810b838601819052600160981b8704820b60608501819052600160b01b90970463ffffffff1660808501529084015460a084015260039093015460c0830152925163159fd11f60e31b81526004810192909252602482019390935283928392839263acfe88f8906044016040805180830381865afa158015613534573d6000803e3d6000fd5b505050506040513d601f19601f820116820180604052508101906135589190615139565b60a08301519194509250613588906135709085614e91565b82602001516001600160801b0316600160801b613ce9565b945061359d8160c00151836135709190614e91565b9350509193509193565b600081815260046020526040902080546001600160a01b0319166001600160a01b03841690811790915581906135dc82611c99565b6001600160a01b03167f8c5be1e5ebec7d5bd14f71427d1e84f3dd0314c0f7b2291e5b200ac8c7c3b92560405160405180910390a45050565b80156136b95760405163097da6d360e41b81526001600160a01b037f000000000000000000000000000000000000000000000000000000000000000016906397da6d309061367090879030908890600090899060040161535f565b60408051808303816000875af115801561368e573d6000803e3d6000fd5b505050506040513d601f19601f820116820180604052508101906136b29190615139565b5050613224565b604051633c6340f360e21b81526001600160a01b037f0000000000000000000000000000000000000000000000000000000000000000169063f18d03cc9061370b908790309088908890600401615224565b600060405180830381600087803b15801561372557600080fd5b505af1158015613739573d6000803e3d6000fd5b5050505050505050565b6000818152600260205260408120546001600160a01b03166137bc5760405162461bcd60e51b815260206004820152602c60248201527f4552433732313a206f70657261746f7220717565727920666f72206e6f6e657860448201526b34b9ba32b73a103a37b5b2b760a11b6064820152608401610a7b565b60006137c783611c99565b9050806001600160a01b0316846001600160a01b031614806138025750836001600160a01b03166137f784610a06565b6001600160a01b0316145b8061381257506138128185613439565b949350505050565b826001600160a01b031661382d82611c99565b6001600160a01b0316146138915760405162461bcd60e51b815260206004820152602560248201527f4552433732313a207472616e736665722066726f6d20696e636f72726563742060448201526437bbb732b960d91b6064820152608401610a7b565b6001600160a01b0382166138f35760405162461bcd60e51b8152602060048201526024808201527f4552433732313a207472616e7366657220746f20746865207a65726f206164646044820152637265737360e01b6064820152608401610a7b565b6138fe6000826135a7565b6001600160a01b0383166000908152600360205260408120805460019290613927908490614e91565b90915550506001600160a01b0382166000908152600360205260408120805460019290613955908490614ea8565b909155505060008181526002602052604080822080546001600160a01b0319166001600160a01b0386811691821790925591518493918716917fddf252ad1be2c89b69c2b068fc378daa952ba7f163c4a11628f55a4df523b3ef91a4505050565b60008060008360020b126139cd578260020b6139da565b8260020b6139da90615393565b90506139e9620d89e7196153b0565b62ffffff16811115613a0e57604051633e1f710360e21b815260040160405180910390fd5b600060018216613a2257600160801b613a34565b6ffffcb933bd6fad37aa2d162d1a5940015b70ffffffffffffffffffffffffffffffffff1690506002821615613a68576ffff97272373d413259a46990580e213a0260801c5b6004821615613a87576ffff2e50f5f656932ef12357cf3c7fdcc0260801c5b6008821615613aa6576fffe5caca7e10e4e61c3624eaa0941cd00260801c5b6010821615613ac5576fffcb9843d60f6159c9db58835c9266440260801c5b6020821615613ae4576fff973b41fa98c081472e6896dfb254c00260801c5b6040821615613b03576fff2ea16466c96a3843ec78b326b528610260801c5b6080821615613b22576ffe5dee046a99a2a811c461f1969c30530260801c5b610100821615613b42576ffcbe86c7900a88aedcffc83b479aa3a40260801c5b610200821615613b62576ff987a7253ac413176f2b074cf7815e540260801c5b610400821615613b82576ff3392b0822b70005940c7a398e4b70f30260801c5b610800821615613ba2576fe7159475a2c29b7443b29c7fa6e889d90260801c5b611000821615613bc2576fd097f3bdfd2022b8845ad8f792aa58250260801c5b612000821615613be2576fa9f746462d870fdf8a65dc1f90e061e50260801c5b614000821615613c02576f70d869a156d2a1b890bb3df62baf32f70260801c5b618000821615613c22576f31be135f97d08fd981231505542fcfa60260801c5b62010000821615613c43576f09aa508b5b7a84e1c677de54f3e99bc90260801c5b62020000821615613c63576e5d6af8dedb81196699c329225ee6040260801c5b62040000821615613c82576d2216e584f5fa1ea926041bedfe980260801c5b62080000821615613c9f576b048a170391f7dc42444e8fa20260801c5b60008460020b1315613cc0578060001981613cbc57613cbc6153d3565b0490505b640100000000810615613cd4576001613cd7565b60005b60ff16602082901c0192505050919050565b600080806000198587098587029250828110838203039150508060001415613d235760008411613d1857600080fd5b50829004905061330b565b808411613d2f57600080fd5b6000848688096000868103871696879004966002600389028118808a02820302808a02820302808a02820302808a02820302808a02820302808a02909103029181900381900460010186841190950394909402919094039290920491909117919091029150509392505050565b60068054613ded9183916001600160801b0316906000613dbb836153e9565b91906101000a8154816001600160801b0302191690836001600160801b031602179055506001600160801b0316614327565b50565b60068054600160801b90046001600160801b0316906010613e10836153e9565b91906101000a8154816001600160801b0302191690836001600160801b0316021790555050613ded81614469565b600080866001600160a01b031663bcdb4dad6040518163ffffffff1660e01b815260040161010060405180830381865afa158015613e80573d6000803e3d6000fd5b505050506040513d601f19601f82011682018060405250810190613ea49190614ed3565b97509750505050505050613eba82878786613615565b61236681878686613615565b816001600160a01b0316836001600160a01b03161415613f285760405162461bcd60e51b815260206004820152601960248201527f4552433732313a20617070726f766520746f2063616c6c6572000000000000006044820152606401610a7b565b6001600160a01b03838116600081815260056020908152604080832094871680845294825291829020805460ff191686151590811790915591519182527f17307eab39ab6107e8899845ad3d59bd9653f200f220920489ca2b5937696c31910160405180910390a3505050565b6000613fa2848484613ce9565b90508180613fb257613fb26153d3565b8385091561330b576000198110613fc857600080fd5b6001019392505050565b7f00000000000000000000000000000000000000000000000000000000000000006001600160a01b0316846001600160a01b03161480156140135750600047115b1561416057604051630acc462360e31b81526001600160a01b03858116600483015260248201839052600160448301526000917f000000000000000000000000000000000000000000000000000000000000000090911690635662311890606401602060405180830381865afa158015614091573d6000803e3d6000fd5b505050506040513d601f19601f820116820180604052508101906140b59190615120565b905080471061415e5760405162ae511b60e21b81526001600160a01b037f000000000000000000000000000000000000000000000000000000000000000016906302b9446c908390614114906000908990899083908a9060040161535f565b604080518083038185885af1158015614131573d6000803e3d6000fd5b50505050506040513d601f19601f820116820180604052508101906141569190615139565b505050613224565b505b60405162ae511b60e21b81526001600160a01b037f000000000000000000000000000000000000000000000000000000000000000016906302b9446c906141b490879087908790600090889060040161535f565b60408051808303816000875af11580156141d2573d6000803e3d6000fd5b505050506040513d601f19601f8201168201806040525081019061309d9190615139565b61420184848461381a565b61420d84848484614504565b6132245760405162461bcd60e51b8152600401610a7b90615406565b60608161424d5750506040805180820190915260018152600360fc1b602082015290565b8160005b8115614277578061426181615105565b91506142709050600a83615458565b9150614251565b60008167ffffffffffffffff81111561429257614292614c7a565b6040519080825280601f01601f1916602001820160405280156142bc576020820181803683370190505b5090505b8415613812576142d1600183614e91565b91506142de600a8661546c565b6142e9906030614ea8565b60f81b8183815181106142fe576142fe61524e565b60200101906001600160f81b031916908160001a905350614320600a86615458565b94506142c0565b6001600160a01b03821661437d5760405162461bcd60e51b815260206004820181905260248201527f4552433732313a206d696e7420746f20746865207a65726f20616464726573736044820152606401610a7b565b6000818152600260205260409020546001600160a01b0316156143e25760405162461bcd60e51b815260206004820152601c60248201527f4552433732313a20746f6b656e20616c7265616479206d696e746564000000006044820152606401610a7b565b6001600160a01b038216600090815260036020526040812080546001929061440b908490614ea8565b909155505060008181526002602052604080822080546001600160a01b0319166001600160a01b03861690811790915590518392907fddf252ad1be2c89b69c2b068fc378daa952ba7f163c4a11628f55a4df523b3ef908290a45050565b600061447482611c99565b90506144816000836135a7565b6001600160a01b03811660009081526003602052604081208054600192906144aa908490614e91565b909155505060008281526002602052604080822080546001600160a01b0319169055518391906001600160a01b038416907fddf252ad1be2c89b69c2b068fc378daa952ba7f163c4a11628f55a4df523b3ef908390a45050565b60006001600160a01b0384163b156145f757604051630a85bd0160e11b81526001600160a01b0385169063150b7a0290614548903390899088908890600401615480565b6020604051808303816000875af1925050508015614583575060408051601f3d908101601f19168201909252614580918101906154bd565b60015b6145dd573d8080156145b1576040519150601f19603f3d011682016040523d82523d6000602084013e6145b6565b606091505b5080516145d55760405162461bcd60e51b8152600401610a7b90615406565b805181602001fd5b6001600160e01b031916630a85bd0160e11b149050613812565b506001949350505050565b6001600160e01b031981168114613ded57600080fd5b60006020828403121561462a57600080fd5b813561330b81614602565b60005b83811015614650578181015183820152602001614638565b838111156132245750506000910152565b60008151808452614679816020860160208601614635565b601f01601f19169290920160200192915050565b60208152600061330b6020830184614661565b6000602082840312156146b257600080fd5b5035919050565b6001600160a01b0381168114613ded57600080fd5b600080604083850312156146e157600080fd5b82356146ec816146b9565b946020939093013593505050565b8015158114613ded57600080fd5b60008060006060848603121561471d57600080fd5b83359250602084013591506040840135614736816146fa565b809150509250925092565b60008060006060848603121561475657600080fd5b8335614761816146b9565b92506020840135614771816146b9565b929592945050506040919091013590565b8035600281900b811461479457600080fd5b919050565b600080600080600080600060e0888a0312156147b457600080fd5b87356147bf816146b9565b96506147cd60208901614782565b95506147db60408901614782565b94506147e960608901614782565b935060808801356147f9816146fa565b925060a0880135915060c0880135614810816146fa565b8091505092959891949750929550565b6001600160801b0381168114613ded57600080fd5b6000806000806000806000806000806101408b8d03121561485557600080fd5b8a35614860816146b9565b995061486e60208c01614782565b985061487c60408c01614782565b975061488a60608c01614782565b965061489860808c01614782565b955060a08b01356148a881614820565b945060c08b01356148b881614820565b935060e08b01356148c8816146fa565b809350506101008b013591506101208b013590509295989b9194979a5092959850565b60008060008060008060c0878903121561490457600080fd5b86359550602087013561491681614820565b94506040870135614926816146b9565b93506060870135614936816146fa565b9598949750929560808101359460a0909101359350915050565b60006020828403121561496257600080fd5b813561330b816146b9565b803560ff8116811461479457600080fd5b60008060008060008060c0878903121561499757600080fd5b86356149a2816146b9565b955060208701359450604087013593506149be6060880161496d565b92506080870135915060a087013590509295509295509295565b6000806000606084860312156149ed57600080fd5b8335925060208401356149ff816146b9565b91506040840135614736816146fa565b60008060408385031215614a2257600080fd5b8235614a2d816146b9565b91506020830135614a3d816146fa565b809150509250929050565b60008060408385031215614a5b57600080fd5b823591506020830135614a3d816146fa565b634e487b7160e01b600052602160045260246000fd5b6001600160a01b038a16815260208101899052600288810b604083015260608201889052861515608083015260a0820186905260c0820185905260e082018490526101208201908310614ae657634e487b7160e01b600052602160045260246000fd5b826101008301529a9950505050505050505050565b600080600080600060a08688031215614b1357600080fd5b8535614b1e816146b9565b94506020860135614b2e816146b9565b935060408601359250606086013591506080860135614b4c816146fa565b809150509295509295909350565b60008060008060008060c08789031215614b7357600080fd5b8635614b7e816146b9565b95506020870135614b8e816146b9565b9450604087013593506149be6060880161496d565b60008060208385031215614bb657600080fd5b823567ffffffffffffffff80821115614bce57600080fd5b818501915085601f830112614be257600080fd5b813581811115614bf157600080fd5b8660208260051b8501011115614c0657600080fd5b60209290920196919550909350505050565b6000602080830181845280855180835260408601915060408160051b870101925083870160005b82811015614c6d57603f19888603018452614c5b858351614661565b94509285019290850190600101614c3f565b5092979650505050505050565b634e487b7160e01b600052604160045260246000fd5b604051601f8201601f1916810167ffffffffffffffff81118282101715614cb957614cb9614c7a565b604052919050565b600067ffffffffffffffff821115614cdb57614cdb614c7a565b50601f01601f191660200190565b60008060008060808587031215614cff57600080fd5b8435614d0a816146b9565b93506020850135614d1a816146b9565b925060408501359150606085013567ffffffffffffffff811115614d3d57600080fd5b8501601f81018713614d4e57600080fd5b8035614d61614d5c82614cc1565b614c90565b818152886020838501011115614d7657600080fd5b8160208401602083013760006020838301015280935050505092959194509250565b600080600060608486031215614dad57600080fd5b8335614db8816146b9565b9250602084013591506040840135614736816146fa565b60008060408385031215614de257600080fd5b8235614ded816146b9565b91506020830135614a3d816146b9565b600181811c90821680614e1157607f821691505b60208210811415614e3257634e487b7160e01b600052602260045260246000fd5b50919050565b600060208284031215614e4a57600080fd5b815161330b816146b9565b6020808252600c908201526b2727aa2fa4a22fa7aba722a960a11b604082015260600190565b634e487b7160e01b600052601160045260246000fd5b600082821015614ea357614ea3614e7b565b500390565b60008219821115614ebb57614ebb614e7b565b500190565b805162ffffff8116811461479457600080fd5b600080600080600080600080610100898b031215614ef057600080fd5b8851614efb81614820565b9750614f0960208a01614ec0565b9650614f1760408a01614ec0565b95506060890151614f27816146b9565b60808a0151909550614f38816146b9565b60a08a0151909450614f49816146b9565b60c08a0151909350614f5a816146b9565b60e08a0151909250614f6b816146b9565b809150509295985092959890939650565b60006001600160801b0383811690831681811015614f9c57614f9c614e7b565b039392505050565b60208082526031908201527f4552433732313a207472616e736665722063616c6c6572206973206e6f74206f6040820152701ddb995c881b9bdc88185c1c1c9bdd9959607a1b606082015260800190565b60006020828403121561500757600080fd5b815161330b816146fa565b600181815b8085111561504d57816000190482111561503357615033614e7b565b8085161561504057918102915b93841c9390800290615017565b509250929050565b6000826150645750600161096e565b816150715750600061096e565b81600181146150875760028114615091576150ad565b600191505061096e565b60ff8411156150a2576150a2614e7b565b50506001821b61096e565b5060208310610133831016604e8410600b84101617156150d0575081810a61096e565b6150da8383615012565b80600019048211156150ee576150ee614e7b565b029392505050565b600061330b60ff841683615055565b600060001982141561511957615119614e7b565b5060010190565b60006020828403121561513257600080fd5b5051919050565b6000806040838503121561514c57600080fd5b505080516020909101519092909150565b60006001600160801b0380831681851680830382111561517f5761517f614e7b565b01949350505050565b6000806000806080858703121561519e57600080fd5b505082516020840151604085015160609095015191969095509092509050565b6000608082840312156151d057600080fd5b6040516080810181811067ffffffffffffffff821117156151f3576151f3614c7a565b8060405250825181526020830151602082015260408301516040820152606083015160608201528091505092915050565b6001600160a01b039485168152928416602084015292166040820152606081019190915260800190565b634e487b7160e01b600052603260045260246000fd5b6000808335601e1984360301811261527b57600080fd5b83018035915067ffffffffffffffff82111561529657600080fd5b6020019150368190038213156152ab57600080fd5b9250929050565b8183823760009101908152919050565b6000602082840312156152d457600080fd5b815167ffffffffffffffff8111156152eb57600080fd5b8201601f810184136152fc57600080fd5b805161530a614d5c82614cc1565b81815285602083850101111561531f57600080fd5b615330826020830160208601614635565b95945050505050565b6000835161534b818460208801614635565b83519083019061517f818360208801614635565b6001600160a01b03958616815293851660208501529190931660408301526060820192909252608081019190915260a00190565b6000600160ff1b8214156153a9576153a9614e7b565b5060000390565b60008160020b627fffff198114156153ca576153ca614e7b565b60000392915050565b634e487b7160e01b600052601260045260246000fd5b60006001600160801b0380831681811415613fc857613fc8614e7b565b60208082526032908201527f4552433732313a207472616e7366657220746f206e6f6e20455243373231526560408201527131b2b4bb32b91034b6b83632b6b2b73a32b960711b606082015260800190565b600082615467576154676153d3565b500490565b60008261547b5761547b6153d3565b500690565b6001600160a01b03858116825284166020820152604081018390526080606082018190526000906154b390830184614661565b9695505050505050565b6000602082840312156154cf57600080fd5b815161330b8161460256fea2646970667358221220dd64f8c13a4db32f9ad3661189d52b9d0c4964c56f3f96adbf75bdac035478a764736f6c634300080a003360806040523480156200001157600080fd5b50604051620019ae380380620019ae833981016040819052620000349162000251565b8151829082906200004d906000906020850190620000de565b50805162000063906001906020840190620000de565b505050620000806200007a6200008860201b60201c565b6200008c565b5050620002f8565b3390565b600680546001600160a01b038381166001600160a01b0319831681179093556040519116919082907f8be0079c531659141344cd1fd0a4f28419497f9722a3daafe3b4186f6b6457e090600090a35050565b828054620000ec90620002bb565b90600052602060002090601f0160209004810192826200011057600085556200015b565b82601f106200012b57805160ff19168380011785556200015b565b828001600101855582156200015b579182015b828111156200015b5782518255916020019190600101906200013e565b50620001699291506200016d565b5090565b5b808211156200016957600081556001016200016e565b634e487b7160e01b600052604160045260246000fd5b600082601f830112620001ac57600080fd5b81516001600160401b0380821115620001c957620001c962000184565b604051601f8301601f19908116603f01168101908282118183101715620001f457620001f462000184565b816040528381526020925086838588010111156200021157600080fd5b600091505b8382101562000235578582018301518183018401529082019062000216565b83821115620002475760008385830101525b9695505050505050565b600080604083850312156200026557600080fd5b82516001600160401b03808211156200027d57600080fd5b6200028b868387016200019a565b93506020850151915080821115620002a257600080fd5b50620002b1858286016200019a565b9150509250929050565b600181811c90821680620002d057607f821691505b60208210811415620002f257634e487b7160e01b600052602260045260246000fd5b50919050565b6116a680620003086000396000f3fe608060405234801561001057600080fd5b506004361061012c5760003560e01c80636b569937116100ad578063a22cb46511610071578063a22cb46514610261578063b88d4fde14610274578063c87b56dd14610287578063e985e9c51461029a578063f2fde38b146102d657600080fd5b80636b5699371461022457806370a082311461022d578063715018a6146102405780638da5cb5b1461024857806395d89b411461025957600080fd5b80633651f5e4116100f45780633651f5e4146101c157806340c10f19146101d857806342842e0e146101eb57806342966c68146101fe5780636352211e1461021157600080fd5b806301ffc9a71461013157806306fdde0314610159578063081812fc1461016e578063095ea7b31461019957806323b872dd146101ae575b600080fd5b61014461013f366004611181565b6102e9565b60405190151581526020015b60405180910390f35b61016161033b565b60405161015091906111f6565b61018161017c366004611209565b6103cd565b6040516001600160a01b039091168152602001610150565b6101ac6101a736600461123e565b610467565b005b6101ac6101bc366004611268565b61057d565b6101ca60075481565b604051908152602001610150565b6101ac6101e636600461123e565b6105ae565b6101ac6101f9366004611268565b6105e6565b6101ac61020c366004611209565b610601565b61018161021f366004611209565b610637565b6101ca60085481565b6101ca61023b3660046112a4565b6106ae565b6101ac610735565b6006546001600160a01b0316610181565b61016161076b565b6101ac61026f3660046112bf565b61077a565b6101ac610282366004611311565b610785565b610161610295366004611209565b6107bd565b6101446102a83660046113ed565b6001600160a01b03918216600090815260056020908152604080832093909416825291909152205460ff1690565b6101ac6102e43660046112a4565b6108a5565b60006001600160e01b031982166380ac58cd60e01b148061031a57506001600160e01b03198216635b5e139f60e01b145b8061033557506301ffc9a760e01b6001600160e01b03198316145b92915050565b60606000805461034a90611420565b80601f016020809104026020016040519081016040528092919081815260200182805461037690611420565b80156103c35780601f10610398576101008083540402835291602001916103c3565b820191906000526020600020905b8154815290600101906020018083116103a657829003601f168201915b5050505050905090565b6000818152600260205260408120546001600160a01b031661044b5760405162461bcd60e51b815260206004820152602c60248201527f4552433732313a20617070726f76656420717565727920666f72206e6f6e657860448201526b34b9ba32b73a103a37b5b2b760a11b60648201526084015b60405180910390fd5b506000908152600460205260409020546001600160a01b031690565b600061047282610637565b9050806001600160a01b0316836001600160a01b031614156104e05760405162461bcd60e51b815260206004820152602160248201527f4552433732313a20617070726f76616c20746f2063757272656e74206f776e656044820152603960f91b6064820152608401610442565b336001600160a01b03821614806104fc57506104fc81336102a8565b61056e5760405162461bcd60e51b815260206004820152603860248201527f4552433732313a20617070726f76652063616c6c6572206973206e6f74206f7760448201527f6e6572206e6f7220617070726f76656420666f7220616c6c00000000000000006064820152608401610442565b610578838361093d565b505050565b61058733826109ab565b6105a35760405162461bcd60e51b81526004016104429061145b565b610578838383610aa2565b6006546001600160a01b031633146105d85760405162461bcd60e51b8152600401610442906114ac565b6105e28282610c3e565b5050565b61057883838360405180602001604052806000815250610785565b6006546001600160a01b0316331461062b5760405162461bcd60e51b8152600401610442906114ac565b61063481610d80565b50565b6000818152600260205260408120546001600160a01b0316806103355760405162461bcd60e51b815260206004820152602960248201527f4552433732313a206f776e657220717565727920666f72206e6f6e657869737460448201526832b73a103a37b5b2b760b91b6064820152608401610442565b60006001600160a01b0382166107195760405162461bcd60e51b815260206004820152602a60248201527f4552433732313a2062616c616e636520717565727920666f7220746865207a65604482015269726f206164647265737360b01b6064820152608401610442565b506001600160a01b031660009081526003602052604090205490565b6006546001600160a01b0316331461075f5760405162461bcd60e51b8152600401610442906114ac565b6107696000610e1b565b565b60606001805461034a90611420565b6105e2338383610e6d565b61078f33836109ab565b6107ab5760405162461bcd60e51b81526004016104429061145b565b6107b784848484610f3c565b50505050565b6000818152600260205260409020546060906001600160a01b031661083c5760405162461bcd60e51b815260206004820152602f60248201527f4552433732314d657461646174613a2055524920717565727920666f72206e6f60448201526e3732bc34b9ba32b73a103a37b5b2b760891b6064820152608401610442565b600061085360408051602081019091526000815290565b90506000815111610873576040518060200160405280600081525061089e565b8061087d84610f6f565b60405160200161088e9291906114e1565b6040516020818303038152906040525b9392505050565b6006546001600160a01b031633146108cf5760405162461bcd60e51b8152600401610442906114ac565b6001600160a01b0381166109345760405162461bcd60e51b815260206004820152602660248201527f4f776e61626c653a206e6577206f776e657220697320746865207a65726f206160448201526564647265737360d01b6064820152608401610442565b61063481610e1b565b600081815260046020526040902080546001600160a01b0319166001600160a01b038416908117909155819061097282610637565b6001600160a01b03167f8c5be1e5ebec7d5bd14f71427d1e84f3dd0314c0f7b2291e5b200ac8c7c3b92560405160405180910390a45050565b6000818152600260205260408120546001600160a01b0316610a245760405162461bcd60e51b815260206004820152602c60248201527f4552433732313a206f70657261746f7220717565727920666f72206e6f6e657860448201526b34b9ba32b73a103a37b5b2b760a11b6064820152608401610442565b6000610a2f83610637565b9050806001600160a01b0316846001600160a01b03161480610a6a5750836001600160a01b0316610a5f846103cd565b6001600160a01b0316145b80610a9a57506001600160a01b0380821660009081526005602090815260408083209388168352929052205460ff165b949350505050565b826001600160a01b0316610ab582610637565b6001600160a01b031614610b195760405162461bcd60e51b815260206004820152602560248201527f4552433732313a207472616e736665722066726f6d20696e636f72726563742060448201526437bbb732b960d91b6064820152608401610442565b6001600160a01b038216610b7b5760405162461bcd60e51b8152602060048201526024808201527f4552433732313a207472616e7366657220746f20746865207a65726f206164646044820152637265737360e01b6064820152608401610442565b610b8660008261093d565b6001600160a01b0383166000908152600360205260408120805460019290610baf908490611526565b90915550506001600160a01b0382166000908152600360205260408120805460019290610bdd90849061153d565b909155505060008181526002602052604080822080546001600160a01b0319166001600160a01b0386811691821790925591518493918716917fddf252ad1be2c89b69c2b068fc378daa952ba7f163c4a11628f55a4df523b3ef91a4505050565b6001600160a01b038216610c945760405162461bcd60e51b815260206004820181905260248201527f4552433732313a206d696e7420746f20746865207a65726f20616464726573736044820152606401610442565b6000818152600260205260409020546001600160a01b031615610cf95760405162461bcd60e51b815260206004820152601c60248201527f4552433732313a20746f6b656e20616c7265616479206d696e746564000000006044820152606401610442565b6001600160a01b0382166000908152600360205260408120805460019290610d2290849061153d565b909155505060008181526002602052604080822080546001600160a01b0319166001600160a01b03861690811790915590518392907fddf252ad1be2c89b69c2b068fc378daa952ba7f163c4a11628f55a4df523b3ef908290a45050565b6000610d8b82610637565b9050610d9860008361093d565b6001600160a01b0381166000908152600360205260408120805460019290610dc1908490611526565b909155505060008281526002602052604080822080546001600160a01b0319169055518391906001600160a01b038416907fddf252ad1be2c89b69c2b068fc378daa952ba7f163c4a11628f55a4df523b3ef908390a45050565b600680546001600160a01b038381166001600160a01b0319831681179093556040519116919082907f8be0079c531659141344cd1fd0a4f28419497f9722a3daafe3b4186f6b6457e090600090a35050565b816001600160a01b0316836001600160a01b03161415610ecf5760405162461bcd60e51b815260206004820152601960248201527f4552433732313a20617070726f766520746f2063616c6c6572000000000000006044820152606401610442565b6001600160a01b03838116600081815260056020908152604080832094871680845294825291829020805460ff191686151590811790915591519182527f17307eab39ab6107e8899845ad3d59bd9653f200f220920489ca2b5937696c31910160405180910390a3505050565b610f47848484610aa2565b610f538484848461106d565b6107b75760405162461bcd60e51b815260040161044290611555565b606081610f935750506040805180820190915260018152600360fc1b602082015290565b8160005b8115610fbd5780610fa7816115a7565b9150610fb69050600a836115d8565b9150610f97565b60008167ffffffffffffffff811115610fd857610fd86112fb565b6040519080825280601f01601f191660200182016040528015611002576020820181803683370190505b5090505b8415610a9a57611017600183611526565b9150611024600a866115ec565b61102f90603061153d565b60f81b81838151811061104457611044611600565b60200101906001600160f81b031916908160001a905350611066600a866115d8565b9450611006565b60006001600160a01b0384163b1561116057604051630a85bd0160e11b81526001600160a01b0385169063150b7a02906110b1903390899088908890600401611616565b6020604051808303816000875af19250505080156110ec575060408051601f3d908101601f191682019092526110e991810190611653565b60015b611146573d80801561111a576040519150601f19603f3d011682016040523d82523d6000602084013e61111f565b606091505b50805161113e5760405162461bcd60e51b815260040161044290611555565b805181602001fd5b6001600160e01b031916630a85bd0160e11b149050610a9a565b506001949350505050565b6001600160e01b03198116811461063457600080fd5b60006020828403121561119357600080fd5b813561089e8161116b565b60005b838110156111b95781810151838201526020016111a1565b838111156107b75750506000910152565b600081518084526111e281602086016020860161119e565b601f01601f19169290920160200192915050565b60208152600061089e60208301846111ca565b60006020828403121561121b57600080fd5b5035919050565b80356001600160a01b038116811461123957600080fd5b919050565b6000806040838503121561125157600080fd5b61125a83611222565b946020939093013593505050565b60008060006060848603121561127d57600080fd5b61128684611222565b925061129460208501611222565b9150604084013590509250925092565b6000602082840312156112b657600080fd5b61089e82611222565b600080604083850312156112d257600080fd5b6112db83611222565b9150602083013580151581146112f057600080fd5b809150509250929050565b634e487b7160e01b600052604160045260246000fd5b6000806000806080858703121561132757600080fd5b61133085611222565b935061133e60208601611222565b925060408501359150606085013567ffffffffffffffff8082111561136257600080fd5b818701915087601f83011261137657600080fd5b813581811115611388576113886112fb565b604051601f8201601f19908116603f011681019083821181831017156113b0576113b06112fb565b816040528281528a60208487010111156113c957600080fd5b82602086016020830137600060208483010152809550505050505092959194509250565b6000806040838503121561140057600080fd5b61140983611222565b915061141760208401611222565b90509250929050565b600181811c9082168061143457607f821691505b6020821081141561145557634e487b7160e01b600052602260045260246000fd5b50919050565b60208082526031908201527f4552433732313a207472616e736665722063616c6c6572206973206e6f74206f6040820152701ddb995c881b9bdc88185c1c1c9bdd9959607a1b606082015260800190565b6020808252818101527f4f776e61626c653a2063616c6c6572206973206e6f7420746865206f776e6572604082015260600190565b600083516114f381846020880161119e565b83519083019061150781836020880161119e565b01949350505050565b634e487b7160e01b600052601160045260246000fd5b60008282101561153857611538611510565b500390565b6000821982111561155057611550611510565b500190565b60208082526032908201527f4552433732313a207472616e7366657220746f206e6f6e20455243373231526560408201527131b2b4bb32b91034b6b83632b6b2b73a32b960711b606082015260800190565b60006000198214156115bb576115bb611510565b5060010190565b634e487b7160e01b600052601260045260246000fd5b6000826115e7576115e76115c2565b500490565b6000826115fb576115fb6115c2565b500690565b634e487b7160e01b600052603260045260246000fd5b6001600160a01b0385811682528416602082015260408101839052608060608201819052600090611649908301846111ca565b9695505050505050565b60006020828403121561166557600080fd5b815161089e8161116b56fea26469706673582212209886feb9d71671083967bad44b6ca65ef131717de2aafab8d9702e58d47fb94364736f6c634300080a0033",
  "linkReferences": {},
  "deployedLinkReferences": {}
}