{
  "_format": "hh-sol-artifact-1",
  "contractName": "RebasingMock",
  "sourceName": "contracts/mocks/RebasingMock.sol",
  "abi": [
    {
      "inputs": [],
      "name": "reset",
      "outputs": [],
      "stateMutability": "nonpayable",
      "type": "function"
    },
    {
      "inputs": [
        {
          "internalType": "uint256",
          "name": "elastic",
          "type": "uint256"
        },
        {
          "internalType": "uint256",
          "name": "base",
          "type": "uint256"
        }
      ],
      "name": "set",
      "outputs": [],
      "stateMutability": "nonpayable",
      "type": "function"
    },
    {
      "inputs": [
        {
          "internalType": "uint256",
          "name": "elastic",
          "type": "uint256"
        }
      ],
      "name": "toBase",
      "outputs": [
        {
          "internalType": "uint256",
          "name": "base",
          "type": "uint256"
        }
      ],
      "stateMutability": "view",
      "type": "function"
    },
    {
      "inputs": [
        {
          "internalType": "uint256",
          "name": "base",
          "type": "uint256"
        }
      ],
      "name": "toElastic",
      "outputs": [
        {
          "internalType": "uint256",
          "name": "elastic",
          "type": "uint256"
        }
      ],
      "stateMutability": "view",
      "type": "function"
    },
    {
      "inputs": [],
      "name": "total",
      "outputs": [
        {
          "internalType": "uint128",
          "name": "elastic",
          "type": "uint128"
        },
        {
          "internalType": "uint128",
          "name": "base",
          "type": "uint128"
        }
      ],
      "stateMutability": "view",
      "type": "function"
    }
  ],
  "bytecode": "0x608060405234801561001057600080fd5b5061031b806100206000396000f3fe608060405234801561001057600080fd5b50600436106100575760003560e01c80631ab06ee51461005c5780632ddbd13a1461007157806395f552be146100b4578063c072e811146100d5578063d826f88f146100e8575b600080fd5b61006f61006a36600461025b565b6100f1565b005b60005461008f906001600160801b0380821691600160801b90041682565b604080516001600160801b039384168152929091166020830152015b60405180910390f35b6100c76100c236600461027d565b61014d565b6040519081526020016100ab565b6100c76100e336600461027d565b610187565b61006f60008055565b6100fa826101bb565b600080546fffffffffffffffffffffffffffffffff19166001600160801b039290921691909117905561012c816101bb565b600080546001600160801b03928316600160801b0292169190911790555050565b60408051808201909152600080546001600160801b038082168452600160801b9091041660208301529061018190836101d6565b92915050565b60408051808201909152600080546001600160801b038082168452600160801b909104166020830152906101819083610224565b806001600160801b03811681146101d157600080fd5b919050565b600082602001516001600160801b0316600014156101f5575080610181565b602083015183516001600160801b0391821691610213911684610296565b61021d91906102c3565b9392505050565b81516000906001600160801b031661023d575080610181565b825160208401516001600160801b0391821691610213911684610296565b6000806040838503121561026e57600080fd5b50508035926020909101359150565b60006020828403121561028f57600080fd5b5035919050565b60008160001904831182151516156102be57634e487b7160e01b600052601160045260246000fd5b500290565b6000826102e057634e487b7160e01b600052601260045260246000fd5b50049056fea26469706673582212203952c96a328815b6f232d4d0a79cc7520027a15a1231753ae3270781ed212d1e64736f6c634300080a0033",
  "linkReferences": {},
  "deployedLinkReferences": {}
}