{
  "_format": "hh-sol-artifact-1",
  "contractName": "RebasingMock",
  "sourceName": "contracts/mocks/RebasingMock.sol",
  "abi": [
    {
      "inputs": [],
      "name": "reset",
      "outputs": [],
      "stateMutability": "nonpayable",
      "type": "function"
    },
    {
      "inputs": [
        {
          "internalType": "uint256",
          "name": "elastic",
          "type": "uint256"
        },
        {
          "internalType": "uint256",
          "name": "base",
          "type": "uint256"
        }
      ],
      "name": "set",
      "outputs": [],
      "stateMutability": "nonpayable",
      "type": "function"
    },
    {
      "inputs": [
        {
          "internalType": "uint256",
          "name": "elastic",
          "type": "uint256"
        }
      ],
      "name": "toBase",
      "outputs": [
        {
          "internalType": "uint256",
          "name": "base",
          "type": "uint256"
        }
      ],
      "stateMutability": "view",
      "type": "function"
    },
    {
      "inputs": [
        {
          "internalType": "uint256",
          "name": "base",
          "type": "uint256"
        }
      ],
      "name": "toElastic",
      "outputs": [
        {
          "internalType": "uint256",
          "name": "elastic",
          "type": "uint256"
        }
      ],
      "stateMutability": "view",
      "type": "function"
    },
    {
      "inputs": [],
      "name": "total",
      "outputs": [
        {
          "internalType": "uint128",
          "name": "elastic",
          "type": "uint128"
        },
        {
          "internalType": "uint128",
          "name": "base",
          "type": "uint128"
        }
      ],
      "stateMutability": "view",
      "type": "function"
    }
  ],
  "bytecode": "0x608060405234801561001057600080fd5b5061032b806100206000396000f3fe608060405234801561001057600080fd5b50600436106100675760003560e01c806395f552be1161005057806395f552be146100c4578063c072e811146100e5578063d826f88f146100f857600080fd5b80631ab06ee51461006c5780632ddbd13a14610081575b600080fd5b61007f61007a36600461026b565b610101565b005b60005461009f906001600160801b0380821691600160801b90041682565b604080516001600160801b039384168152929091166020830152015b60405180910390f35b6100d76100d236600461028d565b61015d565b6040519081526020016100bb565b6100d76100f336600461028d565b610197565b61007f60008055565b61010a826101cb565b600080546fffffffffffffffffffffffffffffffff19166001600160801b039290921691909117905561013c816101cb565b600080546001600160801b03928316600160801b0292169190911790555050565b60408051808201909152600080546001600160801b038082168452600160801b9091041660208301529061019190836101e6565b92915050565b60408051808201909152600080546001600160801b038082168452600160801b909104166020830152906101919083610234565b806001600160801b03811681146101e157600080fd5b919050565b600082602001516001600160801b031660001415610205575080610191565b602083015183516001600160801b03918216916102239116846102a6565b61022d91906102d3565b9392505050565b81516000906001600160801b031661024d575080610191565b825160208401516001600160801b03918216916102239116846102a6565b6000806040838503121561027e57600080fd5b50508035926020909101359150565b60006020828403121561029f57600080fd5b5035919050565b60008160001904831182151516156102ce57634e487b7160e01b600052601160045260246000fd5b500290565b6000826102f057634e487b7160e01b600052601260045260246000fd5b50049056fea264697066735822122080efce302d1ddcd37dbe3c5d490d34eb0dacf895706bb638c660a35038af97a764736f6c634300080a0033",
  "linkReferences": {},
  "deployedLinkReferences": {}
}