{
  "_format": "hh-sol-artifact-1",
  "contractName": "RouterMock",
  "sourceName": "contracts/mocks/RouterMock.sol",
  "abi": [
    {
      "inputs": [
        {
          "internalType": "contract IVaultMinimal",
          "name": "vault",
          "type": "address"
        },
        {
          "internalType": "contract IMasterDeployer",
          "name": "masterDeployer",
          "type": "address"
        },
        {
          "internalType": "address",
          "name": "wETH",
          "type": "address"
        }
      ],
      "stateMutability": "nonpayable",
      "type": "constructor"
    },
    {
      "inputs": [],
      "name": "IncorrectTokenWithdrawn",
      "type": "error"
    },
    {
      "inputs": [],
      "name": "InsufficientWETH",
      "type": "error"
    },
    {
      "inputs": [],
      "name": "InvalidPool",
      "type": "error"
    },
    {
      "inputs": [],
      "name": "NotEnoughLiquidityMinted",
      "type": "error"
    },
    {
      "inputs": [],
      "name": "NotWethSender",
      "type": "error"
    },
    {
      "inputs": [],
      "name": "TooLittleReceived",
      "type": "error"
    },
    {
      "inputs": [
        {
          "components": [
            {
              "internalType": "address",
              "name": "token",
              "type": "address"
            },
            {
              "internalType": "bool",
              "name": "native",
              "type": "bool"
            },
            {
              "internalType": "uint256",
              "name": "amount",
              "type": "uint256"
            }
          ],
          "internalType": "struct IDfynRouter.TokenInput[]",
          "name": "tokenInput",
          "type": "tuple[]"
        },
        {
          "internalType": "address",
          "name": "pool",
          "type": "address"
        },
        {
          "internalType": "uint256",
          "name": "minLiquidity",
          "type": "uint256"
        },
        {
          "internalType": "bytes",
          "name": "data",
          "type": "bytes"
        }
      ],
      "name": "addLiquidity",
      "outputs": [
        {
          "internalType": "uint256",
          "name": "liquidity",
          "type": "uint256"
        }
      ],
      "stateMutability": "payable",
      "type": "function"
    },
    {
      "inputs": [
        {
          "internalType": "uint8",
          "name": "v",
          "type": "uint8"
        },
        {
          "internalType": "bytes32",
          "name": "r",
          "type": "bytes32"
        },
        {
          "internalType": "bytes32",
          "name": "s",
          "type": "bytes32"
        }
      ],
      "name": "approveMasterContract",
      "outputs": [],
      "stateMutability": "payable",
      "type": "function"
    },
    {
      "inputs": [
        {
          "internalType": "address",
          "name": "pool",
          "type": "address"
        },
        {
          "internalType": "uint256",
          "name": "liquidity",
          "type": "uint256"
        },
        {
          "internalType": "bytes",
          "name": "data",
          "type": "bytes"
        },
        {
          "components": [
            {
              "internalType": "address",
              "name": "token",
              "type": "address"
            },
            {
              "internalType": "uint256",
              "name": "amount",
              "type": "uint256"
            }
          ],
          "internalType": "struct IPool.TokenAmount[]",
          "name": "minWithdrawals",
          "type": "tuple[]"
        }
      ],
      "name": "burnLiquidity",
      "outputs": [],
      "stateMutability": "nonpayable",
      "type": "function"
    },
    {
      "inputs": [
        {
          "internalType": "address",
          "name": "pool",
          "type": "address"
        },
        {
          "internalType": "uint256",
          "name": "liquidity",
          "type": "uint256"
        },
        {
          "internalType": "bytes",
          "name": "data",
          "type": "bytes"
        },
        {
          "internalType": "uint256",
          "name": "minWithdrawal",
          "type": "uint256"
        }
      ],
      "name": "burnLiquiditySingle",
      "outputs": [],
      "stateMutability": "nonpayable",
      "type": "function"
    },
    {
      "inputs": [
        {
          "components": [
            {
              "components": [
                {
                  "internalType": "address",
                  "name": "tokenIn",
                  "type": "address"
                },
                {
                  "internalType": "address",
                  "name": "pool",
                  "type": "address"
                },
                {
                  "internalType": "bool",
                  "name": "native",
                  "type": "bool"
                },
                {
                  "internalType": "uint256",
                  "name": "amount",
                  "type": "uint256"
                },
                {
                  "internalType": "bytes",
                  "name": "data",
                  "type": "bytes"
                }
              ],
              "internalType": "struct IDfynRouter.InitialPath[]",
              "name": "initialPath",
              "type": "tuple[]"
            },
            {
              "components": [
                {
                  "internalType": "address",
                  "name": "tokenIn",
                  "type": "address"
                },
                {
                  "internalType": "address",
                  "name": "pool",
                  "type": "address"
                },
                {
                  "internalType": "uint64",
                  "name": "balancePercentage",
                  "type": "uint64"
                },
                {
                  "internalType": "bytes",
                  "name": "data",
                  "type": "bytes"
                }
              ],
              "internalType": "struct IDfynRouter.PercentagePath[]",
              "name": "percentagePath",
              "type": "tuple[]"
            },
            {
              "components": [
                {
                  "internalType": "address",
                  "name": "token",
                  "type": "address"
                },
                {
                  "internalType": "address",
                  "name": "to",
                  "type": "address"
                },
                {
                  "internalType": "bool",
                  "name": "unwrapVault",
                  "type": "bool"
                },
                {
                  "internalType": "uint256",
                  "name": "minAmount",
                  "type": "uint256"
                }
              ],
              "internalType": "struct IDfynRouter.Output[]",
              "name": "output",
              "type": "tuple[]"
            }
          ],
          "internalType": "struct IDfynRouter.ComplexPathParams",
          "name": "params",
          "type": "tuple"
        }
      ],
      "name": "complexPath",
      "outputs": [],
      "stateMutability": "payable",
      "type": "function"
    },
    {
      "inputs": [
        {
          "internalType": "address",
          "name": "factory",
          "type": "address"
        },
        {
          "internalType": "bytes",
          "name": "deployData",
          "type": "bytes"
        }
      ],
      "name": "deployPool",
      "outputs": [
        {
          "internalType": "address",
          "name": "",
          "type": "address"
        }
      ],
      "stateMutability": "payable",
      "type": "function"
    },
    {
      "inputs": [
        {
          "components": [
            {
              "internalType": "address",
              "name": "tokenIn",
              "type": "address"
            },
            {
              "internalType": "uint256",
              "name": "amountIn",
              "type": "uint256"
            },
            {
              "internalType": "uint256",
              "name": "amountOutMinimum",
              "type": "uint256"
            },
            {
              "components": [
                {
                  "internalType": "address",
                  "name": "pool",
                  "type": "address"
                },
                {
                  "internalType": "bytes",
                  "name": "data",
                  "type": "bytes"
                }
              ],
              "internalType": "struct IDfynRouter.Path[]",
              "name": "path",
              "type": "tuple[]"
            }
          ],
          "internalType": "struct IDfynRouter.ExactInputParams",
          "name": "params",
          "type": "tuple"
        }
      ],
      "name": "exactInput",
      "outputs": [
        {
          "internalType": "uint256",
          "name": "amountOut",
          "type": "uint256"
        }
      ],
      "stateMutability": "payable",
      "type": "function"
    },
    {
      "inputs": [
        {
          "components": [
            {
              "internalType": "uint256",
              "name": "amountIn",
              "type": "uint256"
            },
            {
              "internalType": "uint256",
              "name": "amountOutMinimum",
              "type": "uint256"
            },
            {
              "internalType": "address",
              "name": "pool",
              "type": "address"
            },
            {
              "internalType": "address",
              "name": "tokenIn",
              "type": "address"
            },
            {
              "internalType": "bytes",
              "name": "data",
              "type": "bytes"
            }
          ],
          "internalType": "struct IDfynRouter.ExactInputSingleParams",
          "name": "params",
          "type": "tuple"
        }
      ],
      "name": "exactInputSingle",
      "outputs": [
        {
          "internalType": "uint256",
          "name": "amountOut",
          "type": "uint256"
        }
      ],
      "stateMutability": "payable",
      "type": "function"
    },
    {
      "inputs": [
        {
          "components": [
            {
              "internalType": "uint256",
              "name": "amountIn",
              "type": "uint256"
            },
            {
              "internalType": "uint256",
              "name": "amountOutMinimum",
              "type": "uint256"
            },
            {
              "internalType": "address",
              "name": "pool",
              "type": "address"
            },
            {
              "internalType": "address",
              "name": "tokenIn",
              "type": "address"
            },
            {
              "internalType": "bytes",
              "name": "data",
              "type": "bytes"
            }
          ],
          "internalType": "struct IDfynRouter.ExactInputSingleParams",
          "name": "params",
          "type": "tuple"
        }
      ],
      "name": "exactInputSingleWithNativeToken",
      "outputs": [
        {
          "internalType": "uint256",
          "name": "amountOut",
          "type": "uint256"
        }
      ],
      "stateMutability": "payable",
      "type": "function"
    },
    {
      "inputs": [
        {
          "components": [
            {
              "internalType": "address",
              "name": "tokenIn",
              "type": "address"
            },
            {
              "internalType": "uint256",
              "name": "amountIn",
              "type": "uint256"
            },
            {
              "internalType": "uint256",
              "name": "amountOutMinimum",
              "type": "uint256"
            },
            {
              "components": [
                {
                  "internalType": "address",
                  "name": "pool",
                  "type": "address"
                },
                {
                  "internalType": "bytes",
                  "name": "data",
                  "type": "bytes"
                }
              ],
              "internalType": "struct IDfynRouter.Path[]",
              "name": "path",
              "type": "tuple[]"
            }
          ],
          "internalType": "struct IDfynRouter.ExactInputParams",
          "name": "params",
          "type": "tuple"
        }
      ],
      "name": "exactInputWithNativeToken",
      "outputs": [
        {
          "internalType": "uint256",
          "name": "amountOut",
          "type": "uint256"
        }
      ],
      "stateMutability": "payable",
      "type": "function"
    },
    {
      "inputs": [],
      "name": "masterDeployer",
      "outputs": [
        {
          "internalType": "contract IMasterDeployer",
          "name": "",
          "type": "address"
        }
      ],
      "stateMutability": "view",
      "type": "function"
    },
    {
      "inputs": [
        {
          "internalType": "bytes[]",
          "name": "data",
          "type": "bytes[]"
        }
      ],
      "name": "multicall",
      "outputs": [
        {
          "internalType": "bytes[]",
          "name": "results",
          "type": "bytes[]"
        }
      ],
      "stateMutability": "payable",
      "type": "function"
    },
    {
      "inputs": [
        {
          "internalType": "address",
          "name": "token",
          "type": "address"
        },
        {
          "internalType": "uint256",
          "name": "value",
          "type": "uint256"
        },
        {
          "internalType": "uint256",
          "name": "deadline",
          "type": "uint256"
        },
        {
          "internalType": "uint8",
          "name": "v",
          "type": "uint8"
        },
        {
          "internalType": "bytes32",
          "name": "r",
          "type": "bytes32"
        },
        {
          "internalType": "bytes32",
          "name": "s",
          "type": "bytes32"
        }
      ],
      "name": "selfPermit",
      "outputs": [],
      "stateMutability": "payable",
      "type": "function"
    },
    {
      "inputs": [
        {
          "internalType": "address",
          "name": "token",
          "type": "address"
        },
        {
          "internalType": "uint256",
          "name": "nonce",
          "type": "uint256"
        },
        {
          "internalType": "uint256",
          "name": "expiry",
          "type": "uint256"
        },
        {
          "internalType": "uint8",
          "name": "v",
          "type": "uint8"
        },
        {
          "internalType": "bytes32",
          "name": "r",
          "type": "bytes32"
        },
        {
          "internalType": "bytes32",
          "name": "s",
          "type": "bytes32"
        }
      ],
      "name": "selfPermitAllowed",
      "outputs": [],
      "stateMutability": "payable",
      "type": "function"
    },
    {
      "inputs": [
        {
          "internalType": "address",
          "name": "token",
          "type": "address"
        },
        {
          "internalType": "uint256",
          "name": "nonce",
          "type": "uint256"
        },
        {
          "internalType": "uint256",
          "name": "expiry",
          "type": "uint256"
        },
        {
          "internalType": "uint8",
          "name": "v",
          "type": "uint8"
        },
        {
          "internalType": "bytes32",
          "name": "r",
          "type": "bytes32"
        },
        {
          "internalType": "bytes32",
          "name": "s",
          "type": "bytes32"
        }
      ],
      "name": "selfPermitAllowedIfNecessary",
      "outputs": [],
      "stateMutability": "payable",
      "type": "function"
    },
    {
      "inputs": [
        {
          "internalType": "address",
          "name": "token",
          "type": "address"
        },
        {
          "internalType": "uint256",
          "name": "value",
          "type": "uint256"
        },
        {
          "internalType": "uint256",
          "name": "deadline",
          "type": "uint256"
        },
        {
          "internalType": "uint8",
          "name": "v",
          "type": "uint8"
        },
        {
          "internalType": "bytes32",
          "name": "r",
          "type": "bytes32"
        },
        {
          "internalType": "bytes32",
          "name": "s",
          "type": "bytes32"
        }
      ],
      "name": "selfPermitIfNecessary",
      "outputs": [],
      "stateMutability": "payable",
      "type": "function"
    },
    {
      "inputs": [
        {
          "internalType": "address",
          "name": "token",
          "type": "address"
        },
        {
          "internalType": "uint256",
          "name": "amount",
          "type": "uint256"
        },
        {
          "internalType": "address",
          "name": "recipient",
          "type": "address"
        },
        {
          "internalType": "bool",
          "name": "onVault",
          "type": "bool"
        }
      ],
      "name": "sweep",
      "outputs": [],
      "stateMutability": "payable",
      "type": "function"
    },
    {
      "inputs": [
        {
          "internalType": "uint256",
          "name": "amountMinimum",
          "type": "uint256"
        },
        {
          "internalType": "address",
          "name": "recipient",
          "type": "address"
        }
      ],
      "name": "unwrapWETH",
      "outputs": [],
      "stateMutability": "payable",
      "type": "function"
    },
    {
      "inputs": [],
      "name": "vault",
      "outputs": [
        {
          "internalType": "contract IVaultMinimal",
          "name": "",
          "type": "address"
        }
      ],
      "stateMutability": "view",
      "type": "function"
    },
    {
      "stateMutability": "payable",
      "type": "receive"
    }
  ],
  "bytecode": "0x60e06040523480156200001157600080fd5b5060405162003131380380620031318339810160408190526200003491620000cc565b6001600160a01b03808416608081905281841660a05290821660c0526040805163577268d960e11b8152905185928592859263aee4d1b29160048082019260009290919082900301818387803b1580156200008e57600080fd5b505af1158015620000a3573d6000803e3d6000fd5b5050505050505050505062000120565b6001600160a01b0381168114620000c957600080fd5b50565b600080600060608486031215620000e257600080fd5b8351620000ef81620000b3565b60208501519093506200010281620000b3565b60408501519092506200011581620000b3565b809150509250925092565b60805160a05160c051612f71620001c06000396000818161012801528181611d9d0152611e4f0152600081816102ee0152818161079b015261202f0152600081816103480152818161054b0152818161082b01528181610aa601528181610c4b015281816112c60152818161153901528181611682015281816118ca01528181611a1d01528181611b4301528181611c4e0152611f2d0152612f716000f3fe6080604052600436106101185760003560e01c80639fa74491116100a0578063c2e3140a11610064578063c2e3140a146102c9578063cf58879a146102dc578063e16d9ce514610310578063f3995c6714610323578063fbfa77cf1461033657600080fd5b80639fa744911461025d578063a4a78f0c14610270578063ac9650d814610283578063b96c5c0e146102a3578063bc108693146102b657600080fd5b80632c0d9a01116100e75780632c0d9a01146101f15780632cfcb94f14610204578063403335a8146102175780634659a4941461022a578063783312d91461023d57600080fd5b80630b0d1b1e1461016d5780630f93d439146101935780631aa349a8146101a6578063250558dc146101c657600080fd5b3661016857336001600160a01b037f000000000000000000000000000000000000000000000000000000000000000016146101665760405163e7218bb360e01b815260040160405180910390fd5b005b600080fd5b61018061017b36600461237b565b61036a565b6040519081526020015b60405180910390f35b6101806101a13660046123bc565b61053f565b3480156101b257600080fd5b506101666101c136600461245e565b6106c4565b6101d96101d43660046124c1565b610781565b6040516001600160a01b03909116815260200161018a565b6101806101ff36600461237b565b61081f565b610180610212366004612515565b610a0d565b6101666102253660046125e0565b610c12565b610166610238366004612613565b610cb4565b34801561024957600080fd5b5061016661025836600461266d565b610d49565b61018061026b3660046123bc565b610f00565b61016661027e366004612613565b610fde565b610296610291366004612727565b611064565b60405161018a91906127f3565b6101666102b1366004612855565b6111b0565b6101666102c436600461289d565b611c31565b6101666102d7366004612613565b611d01565b3480156102e857600080fd5b506101d97f000000000000000000000000000000000000000000000000000000000000000081565b61016661031e3660046128f0565b611d85565b610166610331366004612613565b611ecc565b34801561034257600080fd5b506101d97f000000000000000000000000000000000000000000000000000000000000000081565b60006103c461037c6020840184612920565b610389606085018561293d565b600081811061039a5761039a612986565b90506020028101906103ac919061299c565b6103ba906020810190612920565b8460200135611f23565b60005b6103d4606084018461293d565b9050811015610514576104226103ed606085018561293d565b838181106103fd576103fd612986565b905060200281019061040f919061299c565b61041d906020810190612920565b611ff0565b61042f606084018461293d565b8281811061043f5761043f612986565b9050602002810190610451919061299c565b61045f906020810190612920565b6001600160a01b031663627dd56a61047a606086018661293d565b8481811061048a5761048a612986565b905060200281019061049c919061299c565b6104aa9060208101906129bc565b6040518363ffffffff1660e01b81526004016104c7929190612a2b565b6020604051808303816000875af11580156104e6573d6000803e3d6000fd5b505050506040513d601f19601f8201168201806040525081019061050a9190612a3f565b91506001016103c7565b50816040013581101561053a5760405163c9f52c7160e01b815260040160405180910390fd5b919050565b60006001600160a01b037f00000000000000000000000000000000000000000000000000000000000000001663f18d03cc6105806080850160608601612920565b336105916060870160408801612920565b6040516001600160e01b031960e086901b1681526105b793929190883590600401612a58565b600060405180830381600087803b1580156105d157600080fd5b505af11580156105e5573d6000803e3d6000fd5b506105fa925050506060830160408401612920565b6001600160a01b031663627dd56a61061560808501856129bc565b6040518363ffffffff1660e01b8152600401610632929190612a2b565b6020604051808303816000875af1158015610651573d6000803e3d6000fd5b505050506040513d601f19601f820116820180604052508101906106759190612a3f565b9050816020013581101561053a5760405162461bcd60e51b8152602060048201526011602482015270151bdbd31a5d1d1b19549958d95a5d9959607a1b60448201526064015b60405180910390fd5b6106cd85611ff0565b6106e26001600160a01b0386163387876120dd565b60405163af8c09bf60e01b81526000906001600160a01b0387169063af8c09bf906107139087908790600401612a2b565b6020604051808303816000875af1158015610732573d6000803e3d6000fd5b505050506040513d601f19601f820116820180604052508101906107569190612a3f565b9050818110156107795760405163c9f52c7160e01b815260040160405180910390fd5b505050505050565b604051630941563760e21b81526000906001600160a01b037f0000000000000000000000000000000000000000000000000000000000000000169063250558dc906107d490879087908790600401612a82565b6020604051808303816000875af11580156107f3573d6000803e3d6000fd5b505050506040513d601f19601f820116820180604052508101906108179190612ab0565b949350505050565b60006001600160a01b037f00000000000000000000000000000000000000000000000000000000000000001663f18d03cc61085d6020850185612920565b3361086b606087018761293d565b600081811061087c5761087c612986565b905060200281019061088e919061299c565b61089c906020810190612920565b86602001356040518563ffffffff1660e01b81526004016108c09493929190612a58565b600060405180830381600087803b1580156108da57600080fd5b505af11580156108ee573d6000803e3d6000fd5b5050505060005b610902606084018461293d565b90508110156105145761091b6103ed606085018561293d565b610928606084018461293d565b8281811061093857610938612986565b905060200281019061094a919061299c565b610958906020810190612920565b6001600160a01b031663627dd56a610973606086018661293d565b8481811061098357610983612986565b9050602002810190610995919061299c565b6109a39060208101906129bc565b6040518363ffffffff1660e01b81526004016109c0929190612a2b565b6020604051808303816000875af11580156109df573d6000803e3d6000fd5b505050506040513d601f19601f82011682018060405250810190610a039190612a3f565b91506001016108f5565b6000610a1885611ff0565b60005b86811015610b7357878782818110610a3557610a35612986565b9050606002016020016020810190610a4d9190612acd565b15610aa457610a9f888883818110610a6757610a67612986565b610a7d9260206060909202019081019150612920565b878a8a85818110610a9057610a90612986565b90506060020160400135611f23565b610b6b565b7f00000000000000000000000000000000000000000000000000000000000000006001600160a01b031663f18d03cc898984818110610ae557610ae5612986565b610afb9260206060909202019081019150612920565b33898c8c87818110610b0f57610b0f612986565b905060600201604001356040518563ffffffff1660e01b8152600401610b389493929190612a58565b600060405180830381600087803b158015610b5257600080fd5b505af1158015610b66573d6000803e3d6000fd5b505050505b600101610a1b565b50604051637ba0e2e760e01b81526001600160a01b03861690637ba0e2e790610ba29086908690600401612a2b565b6020604051808303816000875af1158015610bc1573d6000803e3d6000fd5b505050506040513d601f19601f82011682018060405250810190610be59190612a3f565b905083811015610c085760405163124ca15f60e11b815260040160405180910390fd5b9695505050505050565b60405163c0a47c9360e01b81523360048201523060248201526001604482015260ff841660648201526084810183905260a481018290527f00000000000000000000000000000000000000000000000000000000000000006001600160a01b03169063c0a47c939060c401600060405180830381600087803b158015610c9757600080fd5b505af1158015610cab573d6000803e3d6000fd5b50505050505050565b6040516323f2ebc360e21b815233600482015230602482015260448101869052606481018590526001608482015260ff841660a482015260c4810183905260e481018290526001600160a01b03871690638fcbaf0c90610104015b600060405180830381600087803b158015610d2957600080fd5b505af1158015610d3d573d6000803e3d6000fd5b50505050505050505050565b610d5286611ff0565b610d676001600160a01b0387163388886120dd565b604051632a07b6c760e01b81526000906001600160a01b03881690632a07b6c790610d989088908890600401612a2b565b6000604051808303816000875af1158015610db7573d6000803e3d6000fd5b505050506040513d6000823e601f3d908101601f19168201604052610ddf9190810190612b58565b905060005b82811015610ef65760005b8251811015610ec457848483818110610e0a57610e0a612986565b610e209260206040909202019081019150612920565b6001600160a01b0316838281518110610e3b57610e3b612986565b6020026020010151600001516001600160a01b03161415610eb457848483818110610e6857610e68612986565b90506040020160200135838281518110610e8457610e84612986565b6020026020010151602001511015610eaf5760405163c9f52c7160e01b815260040160405180910390fd5b610ec4565b610ebd81612c43565b9050610def565b82518110610ee5576040516342db0ccb60e11b815260040160405180910390fd5b50610eef81612c43565b9050610de4565b5050505050505050565b6000610f2c610f156080840160608501612920565b610f256060850160408601612920565b8435611f23565b610f3c6060830160408401612920565b6001600160a01b031663627dd56a610f5760808501856129bc565b6040518363ffffffff1660e01b8152600401610f74929190612a2b565b6020604051808303816000875af1158015610f93573d6000803e3d6000fd5b505050506040513d601f19601f82011682018060405250810190610fb79190612a3f565b9050816020013581101561053a5760405163c9f52c7160e01b815260040160405180910390fd5b604051636eb1769f60e11b8152336004820152306024820152600019906001600160a01b0388169063dd62ed3e90604401602060405180830381865afa15801561102c573d6000803e3d6000fd5b505050506040513d601f19601f820116820180604052508101906110509190612a3f565b101561077957610779868686868686610cb4565b6060816001600160401b0381111561107e5761107e612aea565b6040519080825280602002602001820160405280156110b157816020015b606081526020019060019003908161109c5790505b50905060005b828110156111a957600080308686858181106110d5576110d5612986565b90506020028101906110e791906129bc565b6040516110f5929190612c5e565b600060405180830381855af49150503d8060008114611130576040519150601f19603f3d011682016040523d82523d6000602084013e611135565b606091505b5091509150816111815760448151101561114e57600080fd5b600481019050808060200190518101906111689190612c6e565b60405162461bcd60e51b81526004016106bb9190612d01565b8084848151811061119457611194612986565b602090810291909101015250506001016110b7565b5092915050565b60005b6111bd828061293d565b9050811015611513576111d0828061293d565b828181106111e0576111e0612986565b90506020028101906111f29190612d14565b611203906060810190604001612acd565b156112bc576112b7611215838061293d565b8381811061122557611225612986565b90506020028101906112379190612d14565b611245906020810190612920565b61124f848061293d565b8481811061125f5761125f612986565b90506020028101906112719190612d14565b611282906040810190602001612920565b61128c858061293d565b8581811061129c5761129c612986565b90506020028101906112ae9190612d14565b60600135611f23565b6113e5565b6001600160a01b037f00000000000000000000000000000000000000000000000000000000000000001663f18d03cc6112f5848061293d565b8481811061130557611305612986565b90506020028101906113179190612d14565b611325906020810190612920565b33611330868061293d565b8681811061134057611340612986565b90506020028101906113529190612d14565b611363906040810190602001612920565b61136d878061293d565b8781811061137d5761137d612986565b905060200281019061138f9190612d14565b606001356040518563ffffffff1660e01b81526004016113b29493929190612a58565b600060405180830381600087803b1580156113cc57600080fd5b505af11580156113e0573d6000803e3d6000fd5b505050505b6114256113f2838061293d565b8381811061140257611402612986565b90506020028101906114149190612d14565b61041d906040810190602001612920565b61142f828061293d565b8281811061143f5761143f612986565b90506020028101906114519190612d14565b611462906040810190602001612920565b6001600160a01b031663627dd56a61147a848061293d565b8481811061148a5761148a612986565b905060200281019061149c9190612d14565b6114aa9060808101906129bc565b6040518363ffffffff1660e01b81526004016114c7929190612a2b565b6020604051808303816000875af11580156114e6573d6000803e3d6000fd5b505050506040513d601f19601f8201168201806040525081019061150a9190612a3f565b506001016111b3565b5060005b611524602083018361293d565b90508110156118a45760006001600160a01b037f00000000000000000000000000000000000000000000000000000000000000001663f7888aec61156b602086018661293d565b8581811061157b5761157b612986565b905060200281019061158d9190612d2a565b61159b906020810190612920565b6040516001600160e01b031960e084901b1681526001600160a01b039091166004820152306024820152604401602060405180830381865afa1580156115e5573d6000803e3d6000fd5b505050506040513d601f19601f820116820180604052508101906116099190612a3f565b905060006116196008600a612e26565b611626602086018661293d565b8581811061163657611636612986565b90506020028101906116489190612d2a565b611659906060810190604001612e35565b61166c906001600160401b031684612e5e565b6116769190612e7d565b90506001600160a01b037f00000000000000000000000000000000000000000000000000000000000000001663f18d03cc6116b4602087018761293d565b868181106116c4576116c4612986565b90506020028101906116d69190612d2a565b6116e4906020810190612920565b306116f2602089018961293d565b8881811061170257611702612986565b90506020028101906117149190612d2a565b611725906040810190602001612920565b856040518563ffffffff1660e01b81526004016117459493929190612a58565b600060405180830381600087803b15801561175f57600080fd5b505af1158015611773573d6000803e3d6000fd5b506117ab9250611789915050602086018661293d565b8581811061179957611799612986565b90506020028101906114149190612d2a565b6117b8602085018561293d565b848181106117c8576117c8612986565b90506020028101906117da9190612d2a565b6117eb906040810190602001612920565b6001600160a01b031663627dd56a611806602087018761293d565b8681811061181657611816612986565b90506020028101906118289190612d2a565b6118369060608101906129bc565b6040518363ffffffff1660e01b8152600401611853929190612a2b565b6020604051808303816000875af1158015611872573d6000803e3d6000fd5b505050506040513d601f19601f820116820180604052508101906118969190612a3f565b508260010192505050611517565b5060005b6118b56040830183612e9f565b9050811015611c2d5760006001600160a01b037f00000000000000000000000000000000000000000000000000000000000000001663f7888aec6118fc6040860186612e9f565b8581811061190c5761190c612986565b6119229260206080909202019081019150612920565b6040516001600160e01b031960e084901b1681526001600160a01b039091166004820152306024820152604401602060405180830381865afa15801561196c573d6000803e3d6000fd5b505050506040513d601f19601f820116820180604052508101906119909190612a3f565b905061199f6040840184612e9f565b838181106119af576119af612986565b905060800201606001358110156119d95760405163c9f52c7160e01b815260040160405180910390fd5b6119e66040840184612e9f565b838181106119f6576119f6612986565b9050608002016040016020810190611a0e9190612acd565b15611b39576001600160a01b037f0000000000000000000000000000000000000000000000000000000000000000166397da6d30611a4f6040860186612e9f565b85818110611a5f57611a5f612986565b611a759260206080909202019081019150612920565b30611a836040880188612e9f565b87818110611a9357611a93612986565b9050608002016020016020810190611aab9190612920565b60405160e085901b6001600160e01b03191681526001600160a01b03938416600482015291831660248301529091166044820152600060648201526084810184905260a40160408051808303816000875af1158015611b0e573d6000803e3d6000fd5b505050506040513d601f19601f82011682018060405250810190611b329190612ee8565b5050611c24565b6001600160a01b037f00000000000000000000000000000000000000000000000000000000000000001663f18d03cc611b756040860186612e9f565b85818110611b8557611b85612986565b611b9b9260206080909202019081019150612920565b30611ba96040880188612e9f565b87818110611bb957611bb9612986565b9050608002016020016020810190611bd19190612920565b856040518563ffffffff1660e01b8152600401611bf19493929190612a58565b600060405180830381600087803b158015611c0b57600080fd5b505af1158015611c1f573d6000803e3d6000fd5b505050505b506001016118a8565b5050565b8015611cc057604051633c6340f360e21b81526001600160a01b037f0000000000000000000000000000000000000000000000000000000000000000169063f18d03cc90611c89908790309087908990600401612a58565b600060405180830381600087803b158015611ca357600080fd5b505af1158015611cb7573d6000803e3d6000fd5b50505050611cfb565b6001600160a01b03841615611ce857611ce36001600160a01b03851683856121df565b611cfb565b611cfb6001600160a01b038316476122d8565b50505050565b604051636eb1769f60e11b815233600482015230602482015285906001600160a01b0388169063dd62ed3e90604401602060405180830381865afa158015611d4d573d6000803e3d6000fd5b505050506040513d601f19601f82011682018060405250810190611d719190612a3f565b101561077957610779868686868686611ecc565b6040516370a0823160e01b81523060048201526000907f00000000000000000000000000000000000000000000000000000000000000006001600160a01b0316906370a0823190602401602060405180830381865afa158015611dec573d6000803e3d6000fd5b505050506040513d601f19601f82011682018060405250810190611e109190612a3f565b905082811015611e3357604051636f2750f560e01b815260040160405180910390fd5b8015611ec757604051632e1a7d4d60e01b8152600481018290527f00000000000000000000000000000000000000000000000000000000000000006001600160a01b031690632e1a7d4d90602401600060405180830381600087803b158015611e9b57600080fd5b505af1158015611eaf573d6000803e3d6000fd5b50611ec7925050506001600160a01b038316826122d8565b505050565b60405163d505accf60e01b8152336004820152306024820152604481018690526064810185905260ff8416608482015260a4810183905260c481018290526001600160a01b0387169063d505accf9060e401610d0f565b6001600160a01b037f00000000000000000000000000000000000000000000000000000000000000008116906302b9446c90851615611f63576000611f65565b825b6040516001600160e01b031960e084901b1681526001600160a01b03808816600483015233602483015286166044820152606481018590526000608482015260a401604080518083038185885af1158015611fc4573d6000803e3d6000fd5b50505050506040513d601f19601f82011682018060405250810190611fe99190612ee8565b5050505050565b6001600160a01b03811660009081526020819052604090205460ff166120da576040516329018f6f60e21b81526001600160a01b0382811660048301527f0000000000000000000000000000000000000000000000000000000000000000169063a4063dbc90602401602060405180830381865afa158015612076573d6000803e3d6000fd5b505050506040513d601f19601f8201168201806040525081019061209a9190612f0c565b6120b65760405162820f3560e61b815260040160405180910390fd5b6001600160a01b0381166000908152602081905260409020805460ff191660011790555b50565b604080516001600160a01b0385811660248301528481166044830152606480830185905283518084039091018152608490920183526020820180516001600160e01b03166323b872dd60e01b17905291516000928392908816916121419190612f29565b6000604051808303816000865af19150503d806000811461217e576040519150601f19603f3d011682016040523d82523d6000602084013e612183565b606091505b50915091508180156121ad5750805115806121ad5750808060200190518101906121ad9190612f0c565b6107795760405162461bcd60e51b815260206004820152600360248201526229aa2360e91b60448201526064016106bb565b604080516001600160a01b038481166024830152604480830185905283518084039091018152606490920183526020820180516001600160e01b031663a9059cbb60e01b179052915160009283929087169161223b9190612f29565b6000604051808303816000865af19150503d8060008114612278576040519150601f19603f3d011682016040523d82523d6000602084013e61227d565b606091505b50915091508180156122a75750805115806122a75750808060200190518101906122a79190612f0c565b611fe95760405162461bcd60e51b815260206004820152600260248201526114d560f21b60448201526064016106bb565b604080516000808252602082019092526001600160a01b0384169083906040516123029190612f29565b60006040518083038185875af1925050503d806000811461233f576040519150601f19603f3d011682016040523d82523d6000602084013e612344565b606091505b5050905080611ec75760405162461bcd60e51b815260206004820152600360248201526253544560e81b60448201526064016106bb565b60006020828403121561238d57600080fd5b81356001600160401b038111156123a357600080fd5b8201608081850312156123b557600080fd5b9392505050565b6000602082840312156123ce57600080fd5b81356001600160401b038111156123e457600080fd5b820160a081850312156123b557600080fd5b6001600160a01b03811681146120da57600080fd5b803561053a816123f6565b60008083601f84011261242857600080fd5b5081356001600160401b0381111561243f57600080fd5b60208301915083602082850101111561245757600080fd5b9250929050565b60008060008060006080868803121561247657600080fd5b8535612481816123f6565b94506020860135935060408601356001600160401b038111156124a357600080fd5b6124af88828901612416565b96999598509660600135949350505050565b6000806000604084860312156124d657600080fd5b83356124e1816123f6565b925060208401356001600160401b038111156124fc57600080fd5b61250886828701612416565b9497909650939450505050565b6000806000806000806080878903121561252e57600080fd5b86356001600160401b038082111561254557600080fd5b818901915089601f83011261255957600080fd5b81358181111561256857600080fd5b8a602060608302850101111561257d57600080fd5b6020830198508097505061259360208a0161240b565b95506040890135945060608901359150808211156125b057600080fd5b506125bd89828a01612416565b979a9699509497509295939492505050565b803560ff8116811461053a57600080fd5b6000806000606084860312156125f557600080fd5b6125fe846125cf565b95602085013595506040909401359392505050565b60008060008060008060c0878903121561262c57600080fd5b8635612637816123f6565b95506020870135945060408701359350612653606088016125cf565b92506080870135915060a087013590509295509295509295565b6000806000806000806080878903121561268657600080fd5b8635612691816123f6565b95506020870135945060408701356001600160401b03808211156126b457600080fd5b6126c08a838b01612416565b909650945060608901359150808211156126d957600080fd5b818901915089601f8301126126ed57600080fd5b8135818111156126fc57600080fd5b8a60208260061b850101111561271157600080fd5b6020830194508093505050509295509295509295565b6000806020838503121561273a57600080fd5b82356001600160401b038082111561275157600080fd5b818501915085601f83011261276557600080fd5b81358181111561277457600080fd5b8660208260051b850101111561278957600080fd5b60209290920196919550909350505050565b60005b838110156127b657818101518382015260200161279e565b83811115611cfb5750506000910152565b600081518084526127df81602086016020860161279b565b601f01601f19169290920160200192915050565b6000602080830181845280855180835260408601915060408160051b870101925083870160005b8281101561284857603f198886030184526128368583516127c7565b9450928501929085019060010161281a565b5092979650505050505050565b60006020828403121561286757600080fd5b81356001600160401b0381111561287d57600080fd5b8201606081850312156123b557600080fd5b80151581146120da57600080fd5b600080600080608085870312156128b357600080fd5b84356128be816123f6565b93506020850135925060408501356128d5816123f6565b915060608501356128e58161288f565b939692955090935050565b6000806040838503121561290357600080fd5b823591506020830135612915816123f6565b809150509250929050565b60006020828403121561293257600080fd5b81356123b5816123f6565b6000808335601e1984360301811261295457600080fd5b8301803591506001600160401b0382111561296e57600080fd5b6020019150600581901b360382131561245757600080fd5b634e487b7160e01b600052603260045260246000fd5b60008235603e198336030181126129b257600080fd5b9190910192915050565b6000808335601e198436030181126129d357600080fd5b8301803591506001600160401b038211156129ed57600080fd5b60200191503681900382131561245757600080fd5b81835281816020850137506000828201602090810191909152601f909101601f19169091010190565b602081526000610817602083018486612a02565b600060208284031215612a5157600080fd5b5051919050565b6001600160a01b039485168152928416602084015292166040820152606081019190915260800190565b6001600160a01b0384168152604060208201819052600090612aa79083018486612a02565b95945050505050565b600060208284031215612ac257600080fd5b81516123b5816123f6565b600060208284031215612adf57600080fd5b81356123b58161288f565b634e487b7160e01b600052604160045260246000fd5b604080519081016001600160401b0381118282101715612b2257612b22612aea565b60405290565b604051601f8201601f191681016001600160401b0381118282101715612b5057612b50612aea565b604052919050565b60006020808385031215612b6b57600080fd5b82516001600160401b0380821115612b8257600080fd5b818501915085601f830112612b9657600080fd5b815181811115612ba857612ba8612aea565b612bb6848260051b01612b28565b818152848101925060069190911b830184019087821115612bd657600080fd5b928401925b81841015612c225760408489031215612bf45760008081fd5b612bfc612b00565b8451612c07816123f6565b81528486015186820152835260409093019291840191612bdb565b979650505050505050565b634e487b7160e01b600052601160045260246000fd5b6000600019821415612c5757612c57612c2d565b5060010190565b8183823760009101908152919050565b600060208284031215612c8057600080fd5b81516001600160401b0380821115612c9757600080fd5b818401915084601f830112612cab57600080fd5b815181811115612cbd57612cbd612aea565b612cd0601f8201601f1916602001612b28565b9150808252856020828501011115612ce757600080fd5b612cf881602084016020860161279b565b50949350505050565b6020815260006123b560208301846127c7565b60008235609e198336030181126129b257600080fd5b60008235607e198336030181126129b257600080fd5b600181815b80851115612d7b578160001904821115612d6157612d61612c2d565b80851615612d6e57918102915b93841c9390800290612d45565b509250929050565b600082612d9257506001612e20565b81612d9f57506000612e20565b8160018114612db55760028114612dbf57612ddb565b6001915050612e20565b60ff841115612dd057612dd0612c2d565b50506001821b612e20565b5060208310610133831016604e8410600b8410161715612dfe575081810a612e20565b612e088383612d40565b8060001904821115612e1c57612e1c612c2d565b0290505b92915050565b60006123b560ff841683612d83565b600060208284031215612e4757600080fd5b81356001600160401b03811681146123b557600080fd5b6000816000190483118215151615612e7857612e78612c2d565b500290565b600082612e9a57634e487b7160e01b600052601260045260246000fd5b500490565b6000808335601e19843603018112612eb657600080fd5b8301803591506001600160401b03821115612ed057600080fd5b6020019150600781901b360382131561245757600080fd5b60008060408385031215612efb57600080fd5b505080516020909101519092909150565b600060208284031215612f1e57600080fd5b81516123b58161288f565b600082516129b281846020870161279b56fea2646970667358221220d86440a7a17947b6ef2e5c6ae41bb9c8777ccdbb049859643eb2da957b63da9e64736f6c634300080a0033",
  "linkReferences": {},
  "deployedLinkReferences": {}
}