{
  "_format": "hh-sol-artifact-1",
  "contractName": "BoringFactory",
  "sourceName": "@boringcrypto/boring-solidity/contracts/BoringFactory.sol",
  "abi": [
    {
      "anonymous": false,
      "inputs": [
        {
          "indexed": true,
          "internalType": "address",
          "name": "masterContract",
          "type": "address"
        },
        {
          "indexed": false,
          "internalType": "bytes",
          "name": "data",
          "type": "bytes"
        },
        {
          "indexed": true,
          "internalType": "address",
          "name": "cloneAddress",
          "type": "address"
        }
      ],
      "name": "LogDeploy",
      "type": "event"
    },
    {
      "inputs": [
        {
          "internalType": "address",
          "name": "",
          "type": "address"
        },
        {
          "internalType": "uint256",
          "name": "",
          "type": "uint256"
        }
      ],
      "name": "clonesOf",
      "outputs": [
        {
          "internalType": "address",
          "name": "",
          "type": "address"
        }
      ],
      "stateMutability": "view",
      "type": "function"
    },
    {
      "inputs": [
        {
          "internalType": "address",
          "name": "masterContract",
          "type": "address"
        }
      ],
      "name": "clonesOfCount",
      "outputs": [
        {
          "internalType": "uint256",
          "name": "cloneCount",
          "type": "uint256"
        }
      ],
      "stateMutability": "view",
      "type": "function"
    },
    {
      "inputs": [
        {
          "internalType": "address",
          "name": "masterContract",
          "type": "address"
        },
        {
          "internalType": "bytes",
          "name": "data",
          "type": "bytes"
        },
        {
          "internalType": "bool",
          "name": "useCreate2",
          "type": "bool"
        }
      ],
      "name": "deploy",
      "outputs": [
        {
          "internalType": "address",
          "name": "cloneAddress",
          "type": "address"
        }
      ],
      "stateMutability": "payable",
      "type": "function"
    },
    {
      "inputs": [
        {
          "internalType": "address",
          "name": "",
          "type": "address"
        }
      ],
      "name": "masterContractOf",
      "outputs": [
        {
          "internalType": "address",
          "name": "",
          "type": "address"
        }
      ],
      "stateMutability": "view",
      "type": "function"
    }
  ],
  "bytecode": "0x608060405234801561001057600080fd5b50610548806100206000396000f3fe60806040526004361061003f5760003560e01c80631f54245b146100445780638fd4365414610074578063bafe4f1414610094578063fba96be8146100ca575b600080fd5b6100576100523660046103ec565b61010e565b6040516001600160a01b0390911681526020015b60405180910390f35b34801561008057600080fd5b5061005761008f366004610487565b610398565b3480156100a057600080fd5b506100576100af3660046104b1565b6000602081905290815260409020546001600160a01b031681565b3480156100d657600080fd5b506101006100e53660046104b1565b6001600160a01b031660009081526001602052604090205490565b60405190815260200161006b565b60006001600160a01b038516610184576040517f08c379a000000000000000000000000000000000000000000000000000000000815260206004820181905260248201527f426f72696e67466163746f72793a204e6f206d6173746572436f6e7472616374604482015260640160405180910390fd5b606085901b821561020d57600085856040516101a19291906104d3565b604051809103902090506040517f3d602d80600a3d3981f3363d3d373d3d3d363d7300000000000000000000000081528260148201527f5af43d82803e903d91602b57fd5bf300000000000000000000000000000000006028820152816037826000f593505050610269565b6040517f3d602d80600a3d3981f3363d3d373d3d3d363d7300000000000000000000000081528160148201527f5af43d82803e903d91602b57fd5bf3000000000000000000000000000000000060288201526037816000f09250505b6001600160a01b038083166000818152602081815260408083208054958c167fffffffffffffffffffffffff000000000000000000000000000000000000000096871681179091558352600180835281842080549182018155845291909220018054909316821790925590517f4ddf47d4000000000000000000000000000000000000000000000000000000008152634ddf47d490349061031090899089906004016104e3565b6000604051808303818588803b15801561032957600080fd5b505af115801561033d573d6000803e3d6000fd5b5050505050816001600160a01b0316866001600160a01b03167fd62166f3c2149208e51788b1401cc356bf5da1fc6c7886a32e18570f57d88b3b87876040516103879291906104e3565b60405180910390a350949350505050565b600160205281600052604060002081815481106103b457600080fd5b6000918252602090912001546001600160a01b03169150829050565b80356001600160a01b03811681146103e757600080fd5b919050565b6000806000806060858703121561040257600080fd5b61040b856103d0565b9350602085013567ffffffffffffffff8082111561042857600080fd5b818701915087601f83011261043c57600080fd5b81358181111561044b57600080fd5b88602082850101111561045d57600080fd5b6020830195508094505050506040850135801515811461047c57600080fd5b939692955090935050565b6000806040838503121561049a57600080fd5b6104a3836103d0565b946020939093013593505050565b6000602082840312156104c357600080fd5b6104cc826103d0565b9392505050565b8183823760009101908152919050565b60208152816020820152818360408301376000818301604090810191909152601f909201601f1916010191905056fea2646970667358221220449810e28260bdd99a71f3e0cd2938e8c7ffff577842bc89cb8695b856d7c9fd64736f6c634300080a0033",
  "linkReferences": {},
  "deployedLinkReferences": {}
}