{
  "_format": "hh-sol-artifact-1",
  "contractName": "PoolFactoryMock",
  "sourceName": "contracts/mocks/PoolFactoryMock.sol",
  "abi": [
    {
      "inputs": [
        {
          "internalType": "address",
          "name": "_masterDeployer",
          "type": "address"
        }
      ],
      "stateMutability": "nonpayable",
      "type": "constructor"
    },
    {
      "inputs": [],
      "name": "InvalidTokenOrder",
      "type": "error"
    },
    {
      "inputs": [],
      "name": "UnauthorisedDeployer",
      "type": "error"
    },
    {
      "inputs": [],
      "name": "ZeroAddress",
      "type": "error"
    },
    {
      "inputs": [
        {
          "internalType": "bytes32",
          "name": "",
          "type": "bytes32"
        }
      ],
      "name": "configAddress",
      "outputs": [
        {
          "internalType": "address",
          "name": "",
          "type": "address"
        }
      ],
      "stateMutability": "view",
      "type": "function"
    },
    {
      "inputs": [
        {
          "internalType": "bytes",
          "name": "_deployData",
          "type": "bytes"
        }
      ],
      "name": "deployPool",
      "outputs": [
        {
          "internalType": "address",
          "name": "pool",
          "type": "address"
        }
      ],
      "stateMutability": "nonpayable",
      "type": "function"
    },
    {
      "inputs": [
        {
          "internalType": "address",
          "name": "token0",
          "type": "address"
        },
        {
          "internalType": "address",
          "name": "token1",
          "type": "address"
        },
        {
          "internalType": "uint256",
          "name": "startIndex",
          "type": "uint256"
        },
        {
          "internalType": "uint256",
          "name": "count",
          "type": "uint256"
        }
      ],
      "name": "getPools",
      "outputs": [
        {
          "internalType": "address[]",
          "name": "pairPools",
          "type": "address[]"
        }
      ],
      "stateMutability": "view",
      "type": "function"
    },
    {
      "inputs": [],
      "name": "masterDeployer",
      "outputs": [
        {
          "internalType": "address",
          "name": "",
          "type": "address"
        }
      ],
      "stateMutability": "view",
      "type": "function"
    },
    {
      "inputs": [
        {
          "internalType": "address",
          "name": "",
          "type": "address"
        },
        {
          "internalType": "address",
          "name": "",
          "type": "address"
        },
        {
          "internalType": "uint256",
          "name": "",
          "type": "uint256"
        }
      ],
      "name": "pools",
      "outputs": [
        {
          "internalType": "address",
          "name": "",
          "type": "address"
        }
      ],
      "stateMutability": "view",
      "type": "function"
    },
    {
      "inputs": [
        {
          "internalType": "address",
          "name": "token0",
          "type": "address"
        },
        {
          "internalType": "address",
          "name": "token1",
          "type": "address"
        }
      ],
      "name": "poolsCount",
      "outputs": [
        {
          "internalType": "uint256",
          "name": "count",
          "type": "uint256"
        }
      ],
      "stateMutability": "view",
      "type": "function"
    }
  ],
  "bytecode": "0x60a060405234801561001057600080fd5b50604051610d1f380380610d1f83398101604081905261002f91610069565b806001600160a01b0381166100575760405163d92e233d60e01b815260040160405180910390fd5b6001600160a01b031660805250610099565b60006020828403121561007b57600080fd5b81516001600160a01b038116811461009257600080fd5b9392505050565b608051610c5d6100c260003960008181610114015281816101b101526104250152610c5d6000f3fe608060405234801561001057600080fd5b50600436106100625760003560e01c8063169c4cef1461006757806327c3cae1146100975780635bc93d6c146100aa57806371a25812146100ef578063cf58879a1461010f578063f6ab6d9914610136575b600080fd5b61007a6100753660046106b5565b61015f565b6040516001600160a01b0390911681526020015b60405180910390f35b61007a6100a536600461070c565b6101a4565b6100e16100b83660046107bd565b6001600160a01b0391821660009081526020818152604080832093909416825291909152205490565b60405190815260200161008e565b6101026100fd3660046107f6565b610328565b60405161008e919061083c565b61007a7f000000000000000000000000000000000000000000000000000000000000000081565b61007a610144366004610889565b6001602052600090815260409020546001600160a01b031681565b6000602052826000526040600020602052816000526040600020818154811061018757600080fd5b6000918252602090912001546001600160a01b0316925083915050565b6000336001600160a01b037f000000000000000000000000000000000000000000000000000000000000000016146101ef576040516303781a5360e01b815260040160405180910390fd5b6000808380602001905181019061020691906108a2565b91509150806001600160a01b0316826001600160a01b0316111561022657905b604080516001600160a01b03848116602083015283168183015281518082038301815260026060830181815260c08401855291975060009391929091608090910190803683370190505090508281600081518110610286576102866108d1565b60200260200101906001600160a01b031690816001600160a01b03168152505081816001815181106102ba576102ba6108d1565b6001600160a01b03909216602092830291909101820152855190860120604051819087906102e790610690565b6102f191906108e7565b8190604051809103906000f5905080158015610311573d6000803e3d6000fd5b50945061031f85838361041a565b50505050919050565b60608167ffffffffffffffff811115610343576103436106f6565b60405190808252806020026020018201604052801561036c578160200160208202803683370190505b50905060005b82811015610411576001600160a01b038087166000908152602081815260408083209389168352929052206103a78286610952565b815481106103b7576103b76108d1565b9060005260206000200160009054906101000a90046001600160a01b03168282815181106103e7576103e76108d1565b6001600160a01b0390921660209283029190910190910152806104098161096a565b915050610372565b50949350505050565b336001600160a01b037f00000000000000000000000000000000000000000000000000000000000000001614610463576040516303781a5360e01b815260040160405180910390fd5b600081815260016020526040812080546001600160a01b0319166001600160a01b0386161790555b600183516104999190610985565b81101561068a57826104ac826001610952565b815181106104bc576104bc6108d1565b60200260200101516001600160a01b03168382815181106104df576104df6108d1565b60200260200101516001600160a01b03161061050e57604051633f06bf8160e01b815260040160405180910390fd5b600061051b826001610952565b90505b83518110156106795760008085848151811061053c5761053c6108d1565b60200260200101516001600160a01b03166001600160a01b031681526020019081526020016000206000858381518110610578576105786108d1565b6020908102919091018101516001600160a01b0390811683528282019390935260409091016000908120805460018101825590825291812090910180546001600160a01b03191692881692909217909155845181908690849081106105df576105df6108d1565b60200260200101516001600160a01b03166001600160a01b03168152602001908152602001600020600085848151811061061b5761061b6108d1565b6020908102919091018101516001600160a01b039081168352828201939093526040909101600090812080546001810182559082529190200180546001600160a01b0319169187169190911790556106728161096a565b905061051e565b506106838161096a565b905061048b565b50505050565b61028b8061099d83390190565b6001600160a01b03811681146106b257600080fd5b50565b6000806000606084860312156106ca57600080fd5b83356106d58161069d565b925060208401356106e58161069d565b929592945050506040919091013590565b634e487b7160e01b600052604160045260246000fd5b60006020828403121561071e57600080fd5b813567ffffffffffffffff8082111561073657600080fd5b818401915084601f83011261074a57600080fd5b81358181111561075c5761075c6106f6565b604051601f8201601f19908116603f01168101908382118183101715610784576107846106f6565b8160405282815287602084870101111561079d57600080fd5b826020860160208301376000928101602001929092525095945050505050565b600080604083850312156107d057600080fd5b82356107db8161069d565b915060208301356107eb8161069d565b809150509250929050565b6000806000806080858703121561080c57600080fd5b84356108178161069d565b935060208501356108278161069d565b93969395505050506040820135916060013590565b6020808252825182820181905260009190848201906040850190845b8181101561087d5783516001600160a01b031683529284019291840191600101610858565b50909695505050505050565b60006020828403121561089b57600080fd5b5035919050565b600080604083850312156108b557600080fd5b82516108c08161069d565b60208401519092506107eb8161069d565b634e487b7160e01b600052603260045260246000fd5b600060208083528351808285015260005b81811015610914578581018301518582016040015282016108f8565b81811115610926576000604083870101525b50601f01601f1916929092016040019392505050565b634e487b7160e01b600052601160045260246000fd5b600082198211156109655761096561093c565b500190565b600060001982141561097e5761097e61093c565b5060010190565b6000828210156109975761099761093c565b50039056fe60c060405234801561001057600080fd5b5060405161028b38038061028b83398101604081905261002f91610077565b600080828060200190518101906100469190610162565b6001600160a01b039182166080521660a05250610195915050565b634e487b7160e01b600052604160045260246000fd5b6000602080838503121561008a57600080fd5b82516001600160401b03808211156100a157600080fd5b818501915085601f8301126100b557600080fd5b8151818111156100c7576100c7610061565b604051601f8201601f19908116603f011681019083821181831017156100ef576100ef610061565b81604052828152888684870101111561010757600080fd5b600093505b82841015610129578484018601518185018701529285019261010c565b8284111561013a5760008684830101525b98975050505050505050565b80516001600160a01b038116811461015d57600080fd5b919050565b6000806040838503121561017557600080fd5b61017e83610146565b915061018c60208401610146565b90509250929050565b60805160a05160d56101b66000396000607d01526000603b015260d56000f3fe6080604052348015600f57600080fd5b506004361060325760003560e01c80630dfe1681146037578063d21220a7146079575b600080fd5b605d7f000000000000000000000000000000000000000000000000000000000000000081565b6040516001600160a01b03909116815260200160405180910390f35b605d7f00000000000000000000000000000000000000000000000000000000000000008156fea2646970667358221220e8cd3d11770f496b7480e804c3e3cb7929d1103bdf41d238452310757c7babf364736f6c634300080a0033a2646970667358221220014d2cebaa9f6654c3cb2d1608276e76ac1798d7993bd87b1b14a78961ff117064736f6c634300080a0033",
  "linkReferences": {},
  "deployedLinkReferences": {}
}