{
  "_format": "hh-sol-artifact-1",
  "contractName": "PoolFactoryMock",
  "sourceName": "contracts/mocks/PoolFactoryMock.sol",
  "abi": [
    {
      "inputs": [
        {
          "internalType": "address",
          "name": "_masterDeployer",
          "type": "address"
        }
      ],
      "stateMutability": "nonpayable",
      "type": "constructor"
    },
    {
      "inputs": [],
      "name": "InvalidTokenOrder",
      "type": "error"
    },
    {
      "inputs": [],
      "name": "UnauthorisedDeployer",
      "type": "error"
    },
    {
      "inputs": [],
      "name": "ZeroAddress",
      "type": "error"
    },
    {
      "inputs": [
        {
          "internalType": "bytes32",
          "name": "",
          "type": "bytes32"
        }
      ],
      "name": "configAddress",
      "outputs": [
        {
          "internalType": "address",
          "name": "",
          "type": "address"
        }
      ],
      "stateMutability": "view",
      "type": "function"
    },
    {
      "inputs": [
        {
          "internalType": "bytes",
          "name": "_deployData",
          "type": "bytes"
        }
      ],
      "name": "deployPool",
      "outputs": [
        {
          "internalType": "address",
          "name": "pool",
          "type": "address"
        }
      ],
      "stateMutability": "nonpayable",
      "type": "function"
    },
    {
      "inputs": [
        {
          "internalType": "address",
          "name": "token0",
          "type": "address"
        },
        {
          "internalType": "address",
          "name": "token1",
          "type": "address"
        },
        {
          "internalType": "uint256",
          "name": "startIndex",
          "type": "uint256"
        },
        {
          "internalType": "uint256",
          "name": "count",
          "type": "uint256"
        }
      ],
      "name": "getPools",
      "outputs": [
        {
          "internalType": "address[]",
          "name": "pairPools",
          "type": "address[]"
        }
      ],
      "stateMutability": "view",
      "type": "function"
    },
    {
      "inputs": [],
      "name": "masterDeployer",
      "outputs": [
        {
          "internalType": "address",
          "name": "",
          "type": "address"
        }
      ],
      "stateMutability": "view",
      "type": "function"
    },
    {
      "inputs": [
        {
          "internalType": "address",
          "name": "",
          "type": "address"
        },
        {
          "internalType": "address",
          "name": "",
          "type": "address"
        },
        {
          "internalType": "uint256",
          "name": "",
          "type": "uint256"
        }
      ],
      "name": "pools",
      "outputs": [
        {
          "internalType": "address",
          "name": "",
          "type": "address"
        }
      ],
      "stateMutability": "view",
      "type": "function"
    },
    {
      "inputs": [
        {
          "internalType": "address",
          "name": "token0",
          "type": "address"
        },
        {
          "internalType": "address",
          "name": "token1",
          "type": "address"
        }
      ],
      "name": "poolsCount",
      "outputs": [
        {
          "internalType": "uint256",
          "name": "count",
          "type": "uint256"
        }
      ],
      "stateMutability": "view",
      "type": "function"
    }
  ],
  "bytecode": "0x60a060405234801561001057600080fd5b50604051610d3d380380610d3d83398101604081905261002f91610069565b806001600160a01b0381166100575760405163d92e233d60e01b815260040160405180910390fd5b6001600160a01b031660805250610099565b60006020828403121561007b57600080fd5b81516001600160a01b038116811461009257600080fd5b9392505050565b608051610c7b6100c260003960008181610124015281816101c101526104350152610c7b6000f3fe608060405234801561001057600080fd5b50600436106100725760003560e01c806371a258121161005057806371a25812146100ff578063cf58879a1461011f578063f6ab6d991461014657600080fd5b8063169c4cef1461007757806327c3cae1146100a75780635bc93d6c146100ba575b600080fd5b61008a6100853660046106dd565b61016f565b6040516001600160a01b0390911681526020015b60405180910390f35b61008a6100b5366004610734565b6101b4565b6100f16100c83660046107e5565b6001600160a01b0391821660009081526020818152604080832093909416825291909152205490565b60405190815260200161009e565b61011261010d36600461081e565b610338565b60405161009e9190610864565b61008a7f000000000000000000000000000000000000000000000000000000000000000081565b61008a6101543660046108b1565b6001602052600090815260409020546001600160a01b031681565b6000602052826000526040600020602052816000526040600020818154811061019757600080fd5b6000918252602090912001546001600160a01b0316925083915050565b6000336001600160a01b037f000000000000000000000000000000000000000000000000000000000000000016146101ff576040516303781a5360e01b815260040160405180910390fd5b6000808380602001905181019061021691906108ca565b91509150806001600160a01b0316826001600160a01b0316111561023657905b604080516001600160a01b03848116602083015283168183015281518082038301815260026060830181815260c08401855291975060009391929091608090910190803683370190505090508281600081518110610296576102966108f9565b60200260200101906001600160a01b031690816001600160a01b03168152505081816001815181106102ca576102ca6108f9565b6001600160a01b03909216602092830291909101820152855190860120604051819087906102f7906106b8565b610301919061090f565b8190604051809103906000f5905080158015610321573d6000803e3d6000fd5b50945061032f85838361042a565b50505050919050565b60608167ffffffffffffffff8111156103535761035361071e565b60405190808252806020026020018201604052801561037c578160200160208202803683370190505b50905060005b82811015610421576001600160a01b038087166000908152602081815260408083209389168352929052206103b7828661097a565b815481106103c7576103c76108f9565b9060005260206000200160009054906101000a90046001600160a01b03168282815181106103f7576103f76108f9565b6001600160a01b03909216602092830291909101909101528061041981610992565b915050610382565b50949350505050565b336001600160a01b037f00000000000000000000000000000000000000000000000000000000000000001614610473576040516303781a5360e01b815260040160405180910390fd5b6000818152600160205260408120805473ffffffffffffffffffffffffffffffffffffffff19166001600160a01b0386161790555b60018351038110156106b2578281600101815181106104c9576104c96108f9565b60200260200101516001600160a01b03168382815181106104ec576104ec6108f9565b60200260200101516001600160a01b031610610534576040517f3f06bf8100000000000000000000000000000000000000000000000000000000815260040160405180910390fd5b600181015b83518110156106a957600080858481518110610557576105576108f9565b60200260200101516001600160a01b03166001600160a01b031681526020019081526020016000206000858381518110610593576105936108f9565b6020908102919091018101516001600160a01b03908116835282820193909352604090910160009081208054600181018255908252918120909101805473ffffffffffffffffffffffffffffffffffffffff19169288169290921790915584518190869084908110610607576106076108f9565b60200260200101516001600160a01b03166001600160a01b031681526020019081526020016000206000858481518110610643576106436108f9565b6020908102919091018101516001600160a01b039081168352828201939093526040909101600090812080546001808201835591835292909120909101805473ffffffffffffffffffffffffffffffffffffffff19169288169290921790915501610539565b506001016104a8565b50505050565b610298806109ae83390190565b6001600160a01b03811681146106da57600080fd5b50565b6000806000606084860312156106f257600080fd5b83356106fd816106c5565b9250602084013561070d816106c5565b929592945050506040919091013590565b634e487b7160e01b600052604160045260246000fd5b60006020828403121561074657600080fd5b813567ffffffffffffffff8082111561075e57600080fd5b818401915084601f83011261077257600080fd5b8135818111156107845761078461071e565b604051601f8201601f19908116603f011681019083821181831017156107ac576107ac61071e565b816040528281528760208487010111156107c557600080fd5b826020860160208301376000928101602001929092525095945050505050565b600080604083850312156107f857600080fd5b8235610803816106c5565b91506020830135610813816106c5565b809150509250929050565b6000806000806080858703121561083457600080fd5b843561083f816106c5565b9350602085013561084f816106c5565b93969395505050506040820135916060013590565b6020808252825182820181905260009190848201906040850190845b818110156108a55783516001600160a01b031683529284019291840191600101610880565b50909695505050505050565b6000602082840312156108c357600080fd5b5035919050565b600080604083850312156108dd57600080fd5b82516108e8816106c5565b6020840151909250610813816106c5565b634e487b7160e01b600052603260045260246000fd5b600060208083528351808285015260005b8181101561093c57858101830151858201604001528201610920565b8181111561094e576000604083870101525b50601f01601f1916929092016040019392505050565b634e487b7160e01b600052601160045260246000fd5b6000821982111561098d5761098d610964565b500190565b60006000198214156109a6576109a6610964565b506001019056fe60c060405234801561001057600080fd5b5060405161029838038061029883398101604081905261002f91610077565b600080828060200190518101906100469190610162565b6001600160a01b039182166080521660a05250610195915050565b634e487b7160e01b600052604160045260246000fd5b6000602080838503121561008a57600080fd5b82516001600160401b03808211156100a157600080fd5b818501915085601f8301126100b557600080fd5b8151818111156100c7576100c7610061565b604051601f8201601f19908116603f011681019083821181831017156100ef576100ef610061565b81604052828152888684870101111561010757600080fd5b600093505b82841015610129578484018601518185018701529285019261010c565b8284111561013a5760008684830101525b98975050505050505050565b80516001600160a01b038116811461015d57600080fd5b919050565b6000806040838503121561017557600080fd5b61017e83610146565b915061018c60208401610146565b90509250929050565b60805160a05160e26101b66000396000608a01526000603b015260e26000f3fe6080604052348015600f57600080fd5b506004361060325760003560e01c80630dfe1681146037578063d21220a7146086575b600080fd5b605d7f000000000000000000000000000000000000000000000000000000000000000081565b60405173ffffffffffffffffffffffffffffffffffffffff909116815260200160405180910390f35b605d7f00000000000000000000000000000000000000000000000000000000000000008156fea264697066735822122046296a847e84303aaa19604d9fb7f7b87ebc8ce7a3e6b91f98ea325b7413fe2364736f6c634300080a0033a264697066735822122029e83da34ec6321f18c480aeae0f0379057fbdec413fa9d2f6789dd55e18f25e64736f6c634300080a0033",
  "linkReferences": {},
  "deployedLinkReferences": {}
}