{
  "_format": "hh-sol-artifact-1",
  "contractName": "DfynMathMock",
  "sourceName": "contracts/mocks/TridentMathMock.sol",
  "abi": [
    {
      "inputs": [
        {
          "internalType": "uint256",
          "name": "x",
          "type": "uint256"
        }
      ],
      "name": "sqrt",
      "outputs": [
        {
          "internalType": "uint256",
          "name": "",
          "type": "uint256"
        }
      ],
      "stateMutability": "pure",
      "type": "function"
    }
  ],
  "bytecode": "0x608060405234801561001057600080fd5b5061018e806100206000396000f3fe608060405234801561001057600080fd5b506004361061002b5760003560e01c8063677342ce14610030575b600080fd5b61004361003e36600461013f565b610055565b60405190815260200160405180910390f35b600061006082610066565b92915050565b600181600160801b811061007f5760409190911b9060801c5b68010000000000000000811061009a5760209190911b9060401c5b64010000000081106100b15760109190911b9060201c5b6201000081106100c65760089190911b9060101c5b61010081106100da5760049190911b9060081c5b601081106100ed5760029190911b9060041c5b600881106100fc578160011b91505b5080820401600190811c80830401811c80830401811c80830401811c80830401811c80830401811c80830401901c80820481811015610139578091505b50919050565b60006020828403121561015157600080fd5b503591905056fea2646970667358221220c4e837fe30d9b83ebc61f65a92b065cc1ed85bf527124806ddd25effae2bd2dd64736f6c634300080a0033",
  "linkReferences": {},
  "deployedLinkReferences": {}
}