{
  "_format": "hh-sol-artifact-1",
  "contractName": "TridentMathMock",
  "sourceName": "contracts/mocks/TridentMathMock.sol",
  "abi": [
    {
      "inputs": [
        {
          "internalType": "uint256",
          "name": "x",
          "type": "uint256"
        }
      ],
      "name": "sqrt",
      "outputs": [
        {
          "internalType": "uint256",
          "name": "",
          "type": "uint256"
        }
      ],
      "stateMutability": "pure",
      "type": "function"
    }
  ],
  "bytecode": "0x608060405234801561001057600080fd5b5061019b806100206000396000f3fe608060405234801561001057600080fd5b506004361061002b5760003560e01c8063677342ce14610030575b600080fd5b61004361003e36600461014c565b610055565b60405190815260200160405180910390f35b600061006082610066565b92915050565b600181700100000000000000000000000000000000811061008c5760409190911b9060801c5b6801000000000000000081106100a75760209190911b9060401c5b64010000000081106100be5760109190911b9060201c5b6201000081106100d35760089190911b9060101c5b61010081106100e75760049190911b9060081c5b601081106100fa5760029190911b9060041c5b60088110610109578160011b91505b5080820401600190811c80830401811c80830401811c80830401811c80830401811c80830401811c80830401901c80820481811015610146578091505b50919050565b60006020828403121561015e57600080fd5b503591905056fea264697066735822122018473d8b20d0edc1320f2307cc999face3bfaa6425baf7812a0202afc31afab064736f6c634300080a0033",
  "linkReferences": {},
  "deployedLinkReferences": {}
}