{
  "_format": "hh-sol-artifact-1",
  "contractName": "ERC20Noncompliant",
  "sourceName": "contracts/mocks/ERC20Noncompliant.sol",
  "abi": [
    {
      "inputs": [
        {
          "internalType": "address",
          "name": "",
          "type": "address"
        },
        {
          "internalType": "uint256",
          "name": "",
          "type": "uint256"
        }
      ],
      "name": "approve",
      "outputs": [],
      "stateMutability": "view",
      "type": "function"
    },
    {
      "inputs": [
        {
          "internalType": "bool",
          "name": "shouldRevert_",
          "type": "bool"
        }
      ],
      "name": "setup",
      "outputs": [],
      "stateMutability": "nonpayable",
      "type": "function"
    },
    {
      "inputs": [],
      "name": "shouldRevert",
      "outputs": [
        {
          "internalType": "bool",
          "name": "",
          "type": "bool"
        }
      ],
      "stateMutability": "view",
      "type": "function"
    },
    {
      "inputs": [
        {
          "internalType": "address",
          "name": "",
          "type": "address"
        },
        {
          "internalType": "uint256",
          "name": "",
          "type": "uint256"
        }
      ],
      "name": "transfer",
      "outputs": [],
      "stateMutability": "view",
      "type": "function"
    },
    {
      "inputs": [
        {
          "internalType": "address",
          "name": "",
          "type": "address"
        },
        {
          "internalType": "address",
          "name": "",
          "type": "address"
        },
        {
          "internalType": "uint256",
          "name": "",
          "type": "uint256"
        }
      ],
      "name": "transferFrom",
      "outputs": [],
      "stateMutability": "view",
      "type": "function"
    }
  ],
  "bytecode": "0x608060405234801561001057600080fd5b506101ed806100206000396000f3fe608060405234801561001057600080fd5b50600436106100675760003560e01c8063a9059cbb11610050578063a9059cbb1461006c578063d3072d8214610094578063e2c169ec146100b557600080fd5b8063095ea7b31461006c57806323b872dd14610081575b600080fd5b61007f61007a366004610128565b6100d6565b005b61007f61008f366004610152565b6100ea565b6000546100a19060ff1681565b604051901515815260200160405180910390f35b61007f6100c336600461018e565b6000805460ff1916911515919091179055565b60005460ff16156100e657600080fd5b5050565b60005460ff16156100fa57600080fd5b505050565b803573ffffffffffffffffffffffffffffffffffffffff8116811461012357600080fd5b919050565b6000806040838503121561013b57600080fd5b610144836100ff565b946020939093013593505050565b60008060006060848603121561016757600080fd5b610170846100ff565b925061017e602085016100ff565b9150604084013590509250925092565b6000602082840312156101a057600080fd5b813580151581146101b057600080fd5b939250505056fea26469706673582212202dce6d6f13bc971df16f487f41029f999a1bf87acc79495961193763ee88a34264736f6c634300080a0033",
  "linkReferences": {},
  "deployedLinkReferences": {}
}