{
  "_format": "hh-sol-artifact-1",
  "contractName": "ERC20Noncompliant",
  "sourceName": "contracts/mocks/ERC20Noncompliant.sol",
  "abi": [
    {
      "inputs": [
        {
          "internalType": "address",
          "name": "",
          "type": "address"
        },
        {
          "internalType": "uint256",
          "name": "",
          "type": "uint256"
        }
      ],
      "name": "approve",
      "outputs": [],
      "stateMutability": "view",
      "type": "function"
    },
    {
      "inputs": [
        {
          "internalType": "bool",
          "name": "shouldRevert_",
          "type": "bool"
        }
      ],
      "name": "setup",
      "outputs": [],
      "stateMutability": "nonpayable",
      "type": "function"
    },
    {
      "inputs": [],
      "name": "shouldRevert",
      "outputs": [
        {
          "internalType": "bool",
          "name": "",
          "type": "bool"
        }
      ],
      "stateMutability": "view",
      "type": "function"
    },
    {
      "inputs": [
        {
          "internalType": "address",
          "name": "",
          "type": "address"
        },
        {
          "internalType": "uint256",
          "name": "",
          "type": "uint256"
        }
      ],
      "name": "transfer",
      "outputs": [],
      "stateMutability": "view",
      "type": "function"
    },
    {
      "inputs": [
        {
          "internalType": "address",
          "name": "",
          "type": "address"
        },
        {
          "internalType": "address",
          "name": "",
          "type": "address"
        },
        {
          "internalType": "uint256",
          "name": "",
          "type": "uint256"
        }
      ],
      "name": "transferFrom",
      "outputs": [],
      "stateMutability": "view",
      "type": "function"
    }
  ],
  "bytecode": "0x608060405234801561001057600080fd5b506101d0806100206000396000f3fe608060405234801561001057600080fd5b50600436106100575760003560e01c8063095ea7b31461005c57806323b872dd14610071578063a9059cbb1461005c578063d3072d8214610084578063e2c169ec146100a5575b600080fd5b61006f61006a36600461010b565b6100c6565b005b61006f61007f366004610135565b6100da565b6000546100919060ff1681565b604051901515815260200160405180910390f35b61006f6100b3366004610171565b6000805460ff1916911515919091179055565b60005460ff16156100d657600080fd5b5050565b60005460ff16156100ea57600080fd5b505050565b80356001600160a01b038116811461010657600080fd5b919050565b6000806040838503121561011e57600080fd5b610127836100ef565b946020939093013593505050565b60008060006060848603121561014a57600080fd5b610153846100ef565b9250610161602085016100ef565b9150604084013590509250925092565b60006020828403121561018357600080fd5b8135801515811461019357600080fd5b939250505056fea264697066735822122094bd58a5fac332a83b5f0c1c6b38a059707b14c9c789ddea6674625c0a86f3bf64736f6c634300080a0033",
  "linkReferences": {},
  "deployedLinkReferences": {}
}