{
  "_format": "hh-sol-artifact-1",
  "contractName": "DyDxMath",
  "sourceName": "contracts/libraries/DyDxMath.sol",
  "abi": [
    {
      "inputs": [
        {
          "internalType": "uint256",
          "name": "priceLower",
          "type": "uint256"
        },
        {
          "internalType": "uint256",
          "name": "priceUpper",
          "type": "uint256"
        },
        {
          "internalType": "uint256",
          "name": "currentPrice",
          "type": "uint256"
        },
        {
          "internalType": "uint256",
          "name": "dy",
          "type": "uint256"
        },
        {
          "internalType": "uint256",
          "name": "dx",
          "type": "uint256"
        }
      ],
      "name": "getLiquidityForAmounts",
      "outputs": [
        {
          "internalType": "uint256",
          "name": "liquidity",
          "type": "uint256"
        }
      ],
      "stateMutability": "pure",
      "type": "function"
    }
  ],
  "bytecode": "0x61021861003a600b82828239805160001a60731461002d57634e487b7160e01b600052600060045260246000fd5b30600052607381538281f3fe73000000000000000000000000000000000000000030146080604052600436106100355760003560e01c8063aec6cbfe1461003a575b600080fd5b61004d6100483660046101a7565b61005f565b60405190815260200160405180910390f35b60008385116100805761007983600160601b8888036100f3565b90506100ea565b8584116100a2576100798261009a8888600160601b6100f3565b8888036100f3565b60006100bf836100b78888600160601b6100f3565b8789036100f3565b905060006100d485600160601b8a89036100f3565b90508082106100e357806100e5565b815b925050505b95945050505050565b60008080600019858709858702925082811083820303915050806000141561012d576000841161012257600080fd5b5082900490506101a0565b80841161013957600080fd5b6000848688096000868103871696879004966002600389028118808a02820302808a02820302808a02820302808a02820302808a02820302808a02909103029181900381900460010186841190950394909402919094039290920491909117919091029150505b9392505050565b600080600080600060a086880312156101bf57600080fd5b50508335956020850135955060408501359460608101359450608001359250905056fea2646970667358221220d8b93948e60d1285eed5abd68928cb15001639172fdb1eb83ff7598e7569f59364736f6c634300080a0033",
  "linkReferences": {},
  "deployedLinkReferences": {}
}