{
  "_format": "hh-sol-artifact-1",
  "contractName": "Ticks",
  "sourceName": "contracts/libraries/Ticks.sol",
  "abi": [
    {
      "inputs": [],
      "name": "PriceOutOfBounds",
      "type": "error"
    },
    {
      "inputs": [],
      "name": "TickOutOfBounds",
      "type": "error"
    },
    {
      "inputs": [
        {
          "internalType": "uint24",
          "name": "_tickSpacing",
          "type": "uint24"
        }
      ],
      "name": "getMaxLiquidity",
      "outputs": [
        {
          "internalType": "uint128",
          "name": "",
          "type": "uint128"
        }
      ],
      "stateMutability": "pure",
      "type": "function"
    }
  ],
  "bytecode": "0x611c5061003a600b82828239805160001a60731461002d57634e487b7160e01b600052600060045260246000fd5b30600052607381538281f3fe73000000000000000000000000000000000000000030146080604052600436106100565760003560e01c80635281eb831461005b578063755749761461009a578063a8d70f65146100d7578063dc47a5c2146100f7575b600080fd5b81801561006757600080fd5b5061007b61007636600461175e565b610122565b6040805160029390930b83526020830191909152015b60405180910390f35b8180156100a657600080fd5b506100ba6100b536600461187d565b610ae6565b604080519384526020840192909252151590820152606001610091565b8180156100e357600080fd5b5061007b6100f23660046118e7565b610d94565b61010a61010536600461194d565b611054565b6040516001600160801b039091168152602001610091565b6000808460020b8760020b1261017f5760405162461bcd60e51b815260206004820152600b60248201527f57524f4e475f4f5244455200000000000000000000000000000000000000000060448201526064015b60405180910390fd5b600287900b620d89e71913156101d75760405162461bcd60e51b815260206004820152600b60248201527f4c4f5745525f52414e47450000000000000000000000000000000000000000006044820152606401610176565b6101e4620d89e71961198f565b60020b8560020b13156102395760405162461bcd60e51b815260206004820152600b60248201527f55505045525f52414e47450000000000000000000000000000000000000000006044820152606401610176565b600287900b600090815260208d90526040902054600160301b90046001600160801b0316801515806102725750600288900b620d89e719145b156102ce5761028185826119b2565b600289900b600090815260208f90526040902080546001600160801b0392909216600160301b0275ffffffffffffffffffffffffffffffff0000000000001990921691909117905561064e565b600289810b600090815260208f9052604090208054909163010000008204900b90600160301b90046001600160801b0316151580610313575060028b900b620d89e719145b801561032457508960020b8b60020b125b801561033557508060020b8a60020b125b6103815760405162461bcd60e51b815260206004820152600b60248201527f4c4f5745525f4f524445520000000000000000000000000000000000000000006044820152606401610176565b856000015160020b8a60020b136104b5576040518060c001604052808c60020b81526020018260020b8152602001886001600160801b031681526020018f81526020018e81526020018d6001600160a01b03168152508f60008c60020b60020b815260200190815260200160002060008201518160000160006101000a81548162ffffff021916908360020b62ffffff16021790555060208201518160000160036101000a81548162ffffff021916908360020b62ffffff16021790555060408201518160000160066101000a8154816001600160801b0302191690836001600160801b03160217905550606082015181600101556080820151816002015560a08201518160030160006101000a8154816001600160a01b0302191690836001600160a01b031602179055509050506105d7565b6040518060c001604052808c60020b81526020018260020b8152602001886001600160801b03168152602001600081526020016000815260200160006001600160a01b03168152508f60008c60020b60020b815260200190815260200160002060008201518160000160006101000a81548162ffffff021916908360020b62ffffff16021790555060208201518160000160036101000a81548162ffffff021916908360020b62ffffff16021790555060408201518160000160066101000a8154816001600160801b0302191690836001600160801b03160217905550606082015181600101556080820151816002015560a08201518160030160006101000a8154816001600160a01b0302191690836001600160a01b031602179055509050505b898260000160036101000a81548162ffffff021916908360020b62ffffff160217905550898f60008360020b60020b815260200190815260200160002060000160006101000a81548162ffffff021916908360020b62ffffff160217905550856040018051809190610648906119dd565b90525050505b50600285900b600090815260208d90526040902054600160301b90046001600160801b0316801515806106925750610689620d89e71961198f565b60020b8660020b145b156106ee576106a185826119b2565b600287900b600090815260208f90526040902080546001600160801b0392909216600160301b0275ffffffffffffffffffffffffffffffff00000000000019909216919091179055610a5c565b600287810b600090815260208f9052604090208054909163010000008204900b90600160301b90046001600160801b03161580159061073257508760020b8160020b135b801561074357508760020b8960020b125b61078f5760405162461bcd60e51b815260206004820152600b60248201527f55505045525f4f524445520000000000000000000000000000000000000000006044820152606401610176565b856000015160020b8860020b136108c3576040518060c001604052808a60020b81526020018260020b8152602001886001600160801b031681526020018f81526020018e81526020018d6001600160a01b03168152508f60008a60020b60020b815260200190815260200160002060008201518160000160006101000a81548162ffffff021916908360020b62ffffff16021790555060208201518160000160036101000a81548162ffffff021916908360020b62ffffff16021790555060408201518160000160066101000a8154816001600160801b0302191690836001600160801b03160217905550606082015181600101556080820151816002015560a08201518160030160006101000a8154816001600160a01b0302191690836001600160a01b031602179055509050506109e5565b6040518060c001604052808a60020b81526020018260020b8152602001886001600160801b03168152602001600081526020016000815260200160006001600160a01b03168152508f60008a60020b60020b815260200190815260200160002060008201518160000160006101000a81548162ffffff021916908360020b62ffffff16021790555060208201518160000160036101000a81548162ffffff021916908360020b62ffffff16021790555060408201518160000160066101000a8154816001600160801b0302191690836001600160801b03160217905550606082015181600101556080820151816002015560a08201518160030160006101000a8154816001600160a01b0302191690836001600160a01b031602179055509050505b878260000160036101000a81548162ffffff021916908360020b62ffffff160217905550878f60008360020b60020b815260200190815260200160002060000160006101000a81548162ffffff021916908360020b62ffffff160217905550856040018051809190610a56906119dd565b90525050505b6000610a6b8560200151611094565b90508660020b856000015160020b128015610a8c57508060020b8760020b13155b15610a9d57600287900b8552610ac9565b8860020b856000015160020b128015610abc57508060020b8960020b13155b15610ac957600289900b85525b50508251604084015190925090509a509a98505050505050505050565b60008080806c01000000000000000000000000610b068b620f42406119f8565b610b109190611a2d565b9050610b1d600282611b25565b90506000808815610c655764e8d4a51000610b38848c6119f8565b610b429190611a2d565b60028c900b600090815260208f9052604090206001015490925090508015610c6057818110610bdb5760028b900b600090815260208e9052604081206001018054849290610b91908490611b34565b909155505060028b810b600090815260208f90526040812090910180548c9290610bbc908490611b4b565b90915550610bcc90508289611b4b565b97506000995060009650610d80565b82610beb8264e8d4a510006119f8565b610bf59190611a2d565b610bff908b611b34565b995060008d60008d60020b60020b815260200190815260200160002060010181905550898d60008d60020b60020b81526020019081526020016000206002016000828254610c4d9190611b4b565b90915550610c5d90508189611b4b565b97505b610d80565b82610c758b64e8d4a510006119f8565b610c7f9190611a2d565b60028c900b600090815260208f9052604090205490925090508015610d8057818110610cf35760028b900b600090815260208e9052604081208054849290610cc8908490611b34565b909155505060028b900b600090815260208e90526040812060030180548c9290610bbc908490611b4b565b64e8d4a51000610d0384836119f8565b610d0d9190611a2d565b610d17908b611b34565b60028c900b600090815260208f90526040812055995064e8d4a51000610d3d84836119f8565b610d479190611a2d565b60028c900b600090815260208f9052604081206003018054909190610d6d908490611b4b565b90915550610d7d90508189611b4b565b97505b50979b959a50939850939650505050505050565b600285900b60008181526020889052604081209091829190620d89e71914801590610dd2575080546001600160801b03878116600160301b90920416145b15610ead578054600281810b600090815260208c9052604080822063010000009485900480850b845291909220825465ffffff000000191662ffffff9283169095029490941782558454845462ffffff1916911617835591908a810b9088900b1415610e4057825460020b96505b60028a810b600090815260208d905260408120805475ffffffffffffffffffffffffffffffffffffffffffff191681556001810182905591820155600301805473ffffffffffffffffffffffffffffffffffffffff1916905585610ea381611b63565b9650505050610ee7565b80546001600160801b03600160301b80830482168990039091160275ffffffffffffffffffffffffffffffff000000000000199091161781555b50600286900b6000908152602089905260409020610f08620d89e71961198f565b60020b8760020b14158015610f30575080546001600160801b03878116600160301b90920416145b1561100b578054600281810b600090815260208c9052604080822063010000009485900480850b845291909220825465ffffff000000191662ffffff9283169095029490941782558454845462ffffff19169116178355919089810b9088900b1415610f9e57825460020b96505b600289810b600090815260208d905260408120805475ffffffffffffffffffffffffffffffffffffffffffff191681556001810182905591820155600301805473ffffffffffffffffffffffffffffffffffffffff191690558561100181611b63565b9650505050611045565b80546001600160801b03600160301b80830482168990039091160275ffffffffffffffffffffffffffffffff000000000000199091161781555b50929791965090945050505050565b6000611061826002611b7a565b61106e620d89e71961198f565b6110789190611ba5565b61108e9062ffffff166001600160801b03611bc7565b92915050565b60006401000276a36001600160a01b03831610806110cf575073fffd8963efd1fc6a506488495d951d5263988d266001600160a01b03831610155b15611106576040517f6e4ba61d00000000000000000000000000000000000000000000000000000000815260040160405180910390fd5b77ffffffffffffffffffffffffffffffffffffffff00000000602083901b166001600160801b03811160071b81811c67ffffffffffffffff811160061b90811c63ffffffff811160051b90811c61ffff811160041b90811c60ff8111600390811b91821c600f811160021b90811c918211600190811b92831c979088119617909417909217179091171717608081106111a757607f810383901c91506111b1565b80607f0383901b91505b908002607f81811c60ff83811c9190911c800280831c81831c1c800280841c81841c1c800280851c81851c1c800280861c81861c1c800280871c81871c1c800280881c81881c1c800280891c81891c1c8002808a1c818a1c1c8002808b1c818b1c1c8002808c1c818c1c1c8002808d1c818d1c1c8002808e1c9c81901c9c909c1c80029c8d901c9e9d607f198f0160401b60c09190911c678000000000000000161760c19b909b1c674000000000000000169a909a1760c29990991c672000000000000000169890981760c39790971c671000000000000000169690961760c49590951c670800000000000000169490941760c59390931c670400000000000000169290921760c69190911c670200000000000000161760c79190911c670100000000000000161760c89190911c6680000000000000161760c99190911c6640000000000000161760ca9190911c6620000000000000161760cb9190911c6610000000000000161760cc9190911c6608000000000000161760cd9190911c66040000000000001617693627a301d71055774c8581026f028f6481ab7f045a5af012a19d003aa9198101608090811d906fdb2df09e81959a81455e260799a0632f8301901d600281810b9083900b146113b157886001600160a01b0316611396826113c0565b6001600160a01b031611156113ab57816113b3565b806113b3565b815b9998505050505050505050565b60008060008360020b126113d7578260020b6113e4565b8260020b6113e490611be1565b90506113f3620d89e71961198f565b62ffffff16811115611431576040517ff87dc40c00000000000000000000000000000000000000000000000000000000815260040160405180910390fd5b60006001821661145257700100000000000000000000000000000000611464565b6ffffcb933bd6fad37aa2d162d1a5940015b70ffffffffffffffffffffffffffffffffff1690506002821615611498576ffff97272373d413259a46990580e213a0260801c5b60048216156114b7576ffff2e50f5f656932ef12357cf3c7fdcc0260801c5b60088216156114d6576fffe5caca7e10e4e61c3624eaa0941cd00260801c5b60108216156114f5576fffcb9843d60f6159c9db58835c9266440260801c5b6020821615611514576fff973b41fa98c081472e6896dfb254c00260801c5b6040821615611533576fff2ea16466c96a3843ec78b326b528610260801c5b6080821615611552576ffe5dee046a99a2a811c461f1969c30530260801c5b610100821615611572576ffcbe86c7900a88aedcffc83b479aa3a40260801c5b610200821615611592576ff987a7253ac413176f2b074cf7815e540260801c5b6104008216156115b2576ff3392b0822b70005940c7a398e4b70f30260801c5b6108008216156115d2576fe7159475a2c29b7443b29c7fa6e889d90260801c5b6110008216156115f2576fd097f3bdfd2022b8845ad8f792aa58250260801c5b612000821615611612576fa9f746462d870fdf8a65dc1f90e061e50260801c5b614000821615611632576f70d869a156d2a1b890bb3df62baf32f70260801c5b618000821615611652576f31be135f97d08fd981231505542fcfa60260801c5b62010000821615611673576f09aa508b5b7a84e1c677de54f3e99bc90260801c5b62020000821615611693576e5d6af8dedb81196699c329225ee6040260801c5b620400008216156116b2576d2216e584f5fa1ea926041bedfe980260801c5b620800008216156116cf576b048a170391f7dc42444e8fa20260801c5b60008460020b13156116f05780600019816116ec576116ec611a17565b0490505b640100000000810615611704576001611707565b60005b60ff16602082901c0192505050919050565b80356001600160a01b038116811461173057600080fd5b919050565b8035600281900b811461173057600080fd5b80356001600160801b038116811461173057600080fd5b6000806000806000806000806000808a8c0361018081121561177f57600080fd5b8b359a5060208c0135995060408c0135985061179d60608d01611719565b97506117ab60808d01611735565b96506117b960a08d01611735565b95506117c760c08d01611735565b94506117d560e08d01611735565b93506117e46101008d01611747565b9250606061011f19820112156117f957600080fd5b506040516060810181811067ffffffffffffffff8211171561182b57634e487b7160e01b600052604160045260246000fd5b60405261183b6101208d01611735565b815261184a6101408d01611719565b60208201526101608c01356040820152809150509295989b9194979a5092959850565b8035801515811461173057600080fd5b600080600080600080600060e0888a03121561189857600080fd5b87359650602088013595506118af60408901611735565b9450606088013593506118c46080890161186d565b925060a088013591506118d960c0890161186d565b905092959891949750929550565b60008060008060008060c0878903121561190057600080fd5b8635955061191060208801611735565b945061191e60408801611735565b935061192c60608801611747565b925061193a60808801611735565b915060a087013590509295509295509295565b60006020828403121561195f57600080fd5b813562ffffff8116811461197257600080fd5b9392505050565b634e487b7160e01b600052601160045260246000fd5b60008160020b627fffff198114156119a9576119a9611979565b60000392915050565b60006001600160801b038083168185168083038211156119d4576119d4611979565b01949350505050565b60006000198214156119f1576119f1611979565b5060010190565b6000816000190483118215151615611a1257611a12611979565b500290565b634e487b7160e01b600052601260045260246000fd5b600082611a3c57611a3c611a17565b500490565b600181815b80851115611a7c578160001904821115611a6257611a62611979565b80851615611a6f57918102915b93841c9390800290611a46565b509250929050565b600082611a935750600161108e565b81611aa05750600061108e565b8160018114611ab65760028114611ac057611adc565b600191505061108e565b60ff841115611ad157611ad1611979565b50506001821b61108e565b5060208310610133831016604e8410600b8410161715611aff575081810a61108e565b611b098383611a41565b8060001904821115611b1d57611b1d611979565b029392505050565b600061197260ff841683611a84565b600082821015611b4657611b46611979565b500390565b60008219821115611b5e57611b5e611979565b500190565b600081611b7257611b72611979565b506000190190565b600062ffffff80831681851681830481118215151615611b9c57611b9c611979565b02949350505050565b600062ffffff80841680611bbb57611bbb611a17565b92169190910492915050565b60006001600160801b0380841680611bbb57611bbb611a17565b60007f8000000000000000000000000000000000000000000000000000000000000000821415611c1357611c13611979565b506000039056fea264697066735822122024338643775f805d6a9af2492a27d172cf8eabbd9073d82d16b4e63204a6e76764736f6c634300080a0033",
  "linkReferences": {},
  "deployedLinkReferences": {}
}