{
  "_format": "hh-sol-artifact-1",
  "contractName": "Ticks",
  "sourceName": "contracts/libraries/Ticks.sol",
  "abi": [
    {
      "inputs": [],
      "name": "PriceOutOfBounds",
      "type": "error"
    },
    {
      "inputs": [],
      "name": "TickOutOfBounds",
      "type": "error"
    },
    {
      "inputs": [
        {
          "internalType": "uint24",
          "name": "_tickSpacing",
          "type": "uint24"
        }
      ],
      "name": "getMaxLiquidity",
      "outputs": [
        {
          "internalType": "uint128",
          "name": "",
          "type": "uint128"
        }
      ],
      "stateMutability": "pure",
      "type": "function"
    }
  ],
  "bytecode": "0x61279461003a600b82828239805160001a60731461002d57634e487b7160e01b600052600060045260246000fd5b30600052607381538281f3fe73000000000000000000000000000000000000000030146080604052600436106100875760003560e01c8063989a70d711610065578063989a70d71461010b578063c99f135514610143578063cece0f5014610185578063dc47a5c2146101a557600080fd5b806305462a231461008c5780631595e5d2146100cb578063359cbcb4146100eb575b600080fd5b81801561009857600080fd5b506100ac6100a73660046120e6565b6101d0565b6040805160029390930b83526020830191909152015b60405180910390f35b8180156100d757600080fd5b506100ac6100e6366004612208565b6104bb565b8180156100f757600080fd5b506100ac610106366004612306565b610ea3565b81801561011757600080fd5b5061012b61012636600461235b565b611066565b6040805192835260029190910b6020830152016100c2565b81801561014f57600080fd5b5061016361015e36600461241d565b61151c565b60408051948552602085019390935291830152151560608201526080016100c2565b81801561019157600080fd5b506100ac6101a0366004612306565b611927565b6101b86101b33660046124b4565b61198b565b6040516001600160801b0390911681526020016100c2565b600285900b60008181526020899052604081209091829190620d89e7191480159061020e575080546001600160801b03878116600160301b90920416145b801561022b5750600288900b600090815260208a90526040902054155b801561024b5750600288900b600090815260208a90526040902060010154155b1561030a578054600281810b600090815260208d9052604080822063010000009485900480850b845291909220825465ffffff000000191662ffffff9283169095029490941782558454845462ffffff1916911617835591908a810b9088900b14156102b957825460020b96505b60028a810b600090815260208e90526040812080546001600160b01b0319168155600181018290559182015560030180546001600160a01b031916905585610300816124ef565b9650505050610338565b80546001600160801b03600160301b808304821689900390911602600160301b600160b01b03199091161781555b50600286900b600090815260208a905260409020610359620d89e719612506565b60020b8760020b14158015610381575080546001600160801b03878116600160301b90920416145b801561039e5750600287900b600090815260208a90526040902054155b80156103be5750600287900b600090815260208a90526040902060010154155b1561047d578054600281810b600090815260208d9052604080822063010000009485900480850b845291909220825465ffffff000000191662ffffff9283169095029490941782558454845462ffffff19169116178355919089810b9088900b141561042c57825460020b96505b600289810b600090815260208e90526040812080546001600160b01b0319168155600181018290559182015560030180546001600160a01b031916905585610473816124ef565b96505050506104ab565b80546001600160801b03600160301b808304821689900390911602600160301b600160b01b03199091161781555b5092989197509095505050505050565b6000808360020b8660020b126105065760405162461bcd60e51b815260206004820152600b60248201526a2ba927a723afa7a92222a960a91b60448201526064015b60405180910390fd5b600286900b620d89e719131561054c5760405162461bcd60e51b815260206004820152600b60248201526a4c4f5745525f52414e474560a81b60448201526064016104fd565b610559620d89e719612506565b60020b8460020b131561059c5760405162461bcd60e51b815260206004820152600b60248201526a55505045525f52414e474560a81b60448201526064016104fd565b600286900b600090815260208d90526040902054600160301b90046001600160801b0316801515806105d55750600287900b620d89e719145b806105f25750600287900b600090815260208d9052604090205415155b806106125750600287900b600090815260208d9052604090206001015415155b156106645783516106239082612529565b600288900b600090815260208f90526040902080546001600160801b0392909216600160301b02600160301b600160b01b03199092169190911790556109da565b600288810b600090815260208f9052604090208054909163010000008204900b90600160301b90046001600160801b03161515806106a9575060028a900b620d89e719145b80156106ba57508860020b8a60020b125b80156106cb57508060020b8960020b125b6107055760405162461bcd60e51b815260206004820152600b60248201526a2627aba2a92fa7a92222a960a91b60448201526064016104fd565b856020015160020b8960020b1361083d576040518060c001604052808b60020b81526020018260020b815260200187600001516001600160801b031681526020018e81526020018d81526020018c6001600160a01b03168152508f60008b60020b60020b815260200190815260200160002060008201518160000160006101000a81548162ffffff021916908360020b62ffffff16021790555060208201518160000160036101000a81548162ffffff021916908360020b62ffffff16021790555060408201518160000160066101000a8154816001600160801b0302191690836001600160801b03160217905550606082015181600101556080820151816002015560a08201518160030160006101000a8154816001600160a01b0302191690836001600160a01b03160217905550905050610963565b6040518060c001604052808b60020b81526020018260020b815260200187600001516001600160801b03168152602001600081526020016000815260200160006001600160a01b03168152508f60008b60020b60020b815260200190815260200160002060008201518160000160006101000a81548162ffffff021916908360020b62ffffff16021790555060208201518160000160036101000a81548162ffffff021916908360020b62ffffff16021790555060408201518160000160066101000a8154816001600160801b0302191690836001600160801b03160217905550606082015181600101556080820151816002015560a08201518160030160006101000a8154816001600160a01b0302191690836001600160a01b031602179055509050505b888260000160036101000a81548162ffffff021916908360020b62ffffff160217905550888f60008360020b60020b815260200190815260200160002060000160006101000a81548162ffffff021916908360020b62ffffff1602179055508560600180518091906109d490612554565b90525050505b50600284900b600090815260208d90526040902054600160301b90046001600160801b031680151580610a1e5750610a15620d89e719612506565b60020b8560020b145b80610a3b5750600285900b600090815260208d9052604090205415155b80610a5b5750600285900b600090815260208d9052604090206001015415155b15610aad578351610a6c9082612529565b600286900b600090815260208f90526040902080546001600160801b0392909216600160301b02600160301b600160b01b0319909216919091179055610e11565b600286810b600090815260208f9052604090208054909163010000008204900b90600160301b90046001600160801b031615801590610af157508660020b8160020b135b8015610b0257508660020b8860020b125b610b3c5760405162461bcd60e51b815260206004820152600b60248201526a2aa82822a92fa7a92222a960a91b60448201526064016104fd565b856020015160020b8760020b13610c74576040518060c001604052808960020b81526020018260020b815260200187600001516001600160801b031681526020018e81526020018d81526020018c6001600160a01b03168152508f60008960020b60020b815260200190815260200160002060008201518160000160006101000a81548162ffffff021916908360020b62ffffff16021790555060208201518160000160036101000a81548162ffffff021916908360020b62ffffff16021790555060408201518160000160066101000a8154816001600160801b0302191690836001600160801b03160217905550606082015181600101556080820151816002015560a08201518160030160006101000a8154816001600160a01b0302191690836001600160a01b03160217905550905050610d9a565b6040518060c001604052808960020b81526020018260020b815260200187600001516001600160801b03168152602001600081526020016000815260200160006001600160a01b03168152508f60008960020b60020b815260200190815260200160002060008201518160000160006101000a81548162ffffff021916908360020b62ffffff16021790555060208201518160000160036101000a81548162ffffff021916908360020b62ffffff16021790555060408201518160000160066101000a8154816001600160801b0302191690836001600160801b03160217905550606082015181600101556080820151816002015560a08201518160030160006101000a8154816001600160a01b0302191690836001600160a01b031602179055509050505b868260000160036101000a81548162ffffff021916908360020b62ffffff160217905550868f60008360020b60020b815260200190815260200160002060000160006101000a81548162ffffff021916908360020b62ffffff160217905550856060018051809190610e0b90612554565b90525050505b6000610e2085604001516119cb565b90508560020b856020015160020b128015610e4157508060020b8660020b13155b15610e5557600286900b6020860152610e84565b8760020b856020015160020b128015610e7457508060020b8860020b13155b15610e8457600288900b60208601525b846020015185606001519350935050509a509a98505050505050505050565b600285900b600090815260208890526040812081908615610eef57600288900b600090815260208a9052604081206003018054889290610ee490849061256f565b90915550610f1b9050565b600288810b600090815260208b9052604081209091018054889290610f1590849061256f565b90915550505b600288900b620d89e71914801590610f455750610f3b620d89e719612506565b60020b8860020b14155b8015610f6057508054600160301b90046001600160801b0316155b8015610f7d5750600288900b600090815260208a90526040902054155b8015610f9d5750600288900b600090815260208a90526040902060010154155b156104ab578054600281810b600090815260208d9052604080822063010000009485900480850b845291909220825465ffffff000000191662ffffff9283169095029490941782558454845462ffffff1916911617835591908a810b9088900b141561100b57825460020b96505b60028a810b600090815260208e90526040812080546001600160b01b0319168155600181018290559182015560030180546001600160a01b031916905585611052816124ef565b979d979c50969a5050505050505050505050565b8051600290810b600090815260208581526040808320548551850b84529186905280832054855190940b835282206001015491928392600160301b9092046001600160801b031691821515806110bb57508115155b806110c557508015155b806110e557506110d8620d89e719612506565b60020b866000015160020b145b806110f75750855160020b620d89e719145b1561116457856060015115611139576080860151865160020b6000908152602089905260408120805490919061112e908490612586565b909155506115039050565b6080860151865160020b6000908152602089905260408120600101805490919061112e908490612586565b602086810151600290810b6000908152918a90526040808320818a015190920b83529091208154600160301b90046001600160801b03161515806111b25750602088015160020b620d89e719145b80156111cb5750876000015160020b886020015160020b125b80156111e85750815488516301000000909104600290810b91900b125b6112225760405162461bcd60e51b815260206004820152600b60248201526a2627aba2a92fa7a92222a960a91b60448201526064016104fd565b8054600160301b90046001600160801b03161515806112565750611249620d89e719612506565b60020b886040015160020b145b8015611273575087518154600291820b630100000090910490910b135b801561128c5750876000015160020b886040015160020b135b6112c65760405162461bcd60e51b815260206004820152600b60248201526a2aa82822a92fa7a92222a960a91b60448201526064016104fd565b8760600151156112ee576080880151885160020b600090815260208b9052604090205561130b565b6080880151885160020b600090815260208b905260409020600101555b6040518060c00160405280896020015160020b8152602001896040015160020b815260200160006001600160801b03168152602001600081526020016000815260200160006001600160a01b03168152508a60008a6000015160020b60020b815260200190815260200160002060008201518160000160006101000a81548162ffffff021916908360020b62ffffff16021790555060208201518160000160036101000a81548162ffffff021916908360020b62ffffff16021790555060408201518160000160066101000a8154816001600160801b0302191690836001600160801b03160217905550606082015181600101556080820151816002015560a08201518160030160006101000a8154816001600160a01b0302191690836001600160a01b0316021790555090505087600001518260000160036101000a81548162ffffff021916908360020b62ffffff16021790555087600001518a60008a6040015160020b60020b815260200190815260200160002060000160006101000a81548162ffffff021916908360020b62ffffff16021790555060006114b38960a001516119cb565b9050886000015160020b8960c0015160020b1280156114dc57508060020b896000015160020b13155b156114ec57885160020b60c08a01525b60e089018051906114fc82612554565b9052505050505b8560e001518660c0015194509450505050935093915050565b600080600080600061153a8660000151620f4240600160601b611cd1565b9050611547600282612682565b905060008087606001511561175c5761156a88604001518464e8d4a51000611cd1565b6020808a015160020b6000908152908b9052604090206001015490925090508015611757578181106116415760208089015160020b6000908152908a90526040812060010180548492906115bf90849061256f565b9250508190555087604001518960008a6020015160020b60020b815260200190815260200160002060020160008282546115f99190612586565b90915550506040880151608089018051611614908390612586565b90525060a08801805183919061162b908390612586565b90525060006040890181905260c0890152611901565b826116518264e8d4a51000612691565b61165b91906126c6565b8860400151116116995760405162461bcd60e51b8152602060048201526009602482015268131bddc81a5b9c1d5d60ba1b60448201526064016104fd565b6116a98164e8d4a5100085611cd1565b886040018181516116ba919061256f565b90525060208089015160020b6000908152908a905260408120600101556116e78164e8d4a5100085611cd1565b8960008a6020015160020b60020b815260200190815260200160002060020160008282546117159190612586565b9091555061172b90508164e8d4a5100085611cd1565b8860800181815161173c9190612586565b90525060a088018051829190611753908390612586565b9052505b611901565b611770886040015164e8d4a5100085611cd1565b6020808a015160020b6000908152908b9052604090205490925090508015611901578181106117f35760208089015160020b6000908152908a90526040812080548492906117bf90849061256f565b90915550506040808901516020808b015160020b6000908152908c90529182206003018054919290916115f9908490612586565b64e8d4a510006118038483612691565b61180d91906126c6565b88604001511161184b5760405162461bcd60e51b8152602060048201526009602482015268496e707574206c6f7760b81b60448201526064016104fd565b61185b818464e8d4a51000611cd1565b8860400181815161186c919061256f565b90525060208089015160020b6000908152908a90526040812055611896818464e8d4a51000611cd1565b6020808a015160020b6000908152908b90526040812060030180549091906118bf908490612586565b909155506118d59050818464e8d4a51000611cd1565b886080018181516118e69190612586565b90525060a0880180518291906118fd908390612586565b9052505b5050506040850151608086015160a087015160c090970151919890975090945092505050565b600285900b60009081526020889052604081208190861561196557600288900b600090815260208a9052604081208054889290610ee490849061256f565b600288900b600090815260208a9052604081206001018054889290610f1590849061256f565b60006119988260026126da565b6119a5620d89e719612506565b6119af9190612705565b6119c59062ffffff166001600160801b03612727565b92915050565b60006401000276a36001600160a01b0383161080611a06575073fffd8963efd1fc6a506488495d951d5263988d266001600160a01b03831610155b15611a2457604051636e4ba61d60e01b815260040160405180910390fd5b640100000000600160c01b03602083901b166001600160801b03811160071b81811c67ffffffffffffffff811160061b90811c63ffffffff811160051b90811c61ffff811160041b90811c60ff8111600390811b91821c600f811160021b90811c918211600190811b92831c97908811961790941790921717909117171760808110611ab857607f810383901c9150611ac2565b80607f0383901b91505b908002607f81811c60ff83811c9190911c800280831c81831c1c800280841c81841c1c800280851c81851c1c800280861c81861c1c800280871c81871c1c800280881c81881c1c800280891c81891c1c8002808a1c818a1c1c8002808b1c818b1c1c8002808c1c818c1c1c8002808d1c818d1c1c8002808e1c9c81901c9c909c1c80029c8d901c9e9d607f198f0160401b60c09190911c678000000000000000161760c19b909b1c674000000000000000169a909a1760c29990991c672000000000000000169890981760c39790971c671000000000000000169690961760c49590951c670800000000000000169490941760c59390931c670400000000000000169290921760c69190911c670200000000000000161760c79190911c670100000000000000161760c89190911c6680000000000000161760c99190911c6640000000000000161760ca9190911c6620000000000000161760cb9190911c6610000000000000161760cc9190911c6608000000000000161760cd9190911c66040000000000001617693627a301d71055774c8581026f028f6481ab7f045a5af012a19d003aa9198101608090811d906fdb2df09e81959a81455e260799a0632f8301901d600281810b9083900b14611cc257886001600160a01b0316611ca782611d85565b6001600160a01b03161115611cbc5781611cc4565b80611cc4565b815b9998505050505050505050565b600080806000198587098587029250828110838203039150508060001415611d0b5760008411611d0057600080fd5b508290049050611d7e565b808411611d1757600080fd5b6000848688096000868103871696879004966002600389028118808a02820302808a02820302808a02820302808a02820302808a02820302808a02909103029181900381900460010186841190950394909402919094039290920491909117919091029150505b9392505050565b60008060008360020b12611d9c578260020b611da9565b8260020b611da990612741565b9050611db8620d89e719612506565b62ffffff16811115611ddd57604051633e1f710360e21b815260040160405180910390fd5b600060018216611df157600160801b611e03565b6ffffcb933bd6fad37aa2d162d1a5940015b70ffffffffffffffffffffffffffffffffff1690506002821615611e37576ffff97272373d413259a46990580e213a0260801c5b6004821615611e56576ffff2e50f5f656932ef12357cf3c7fdcc0260801c5b6008821615611e75576fffe5caca7e10e4e61c3624eaa0941cd00260801c5b6010821615611e94576fffcb9843d60f6159c9db58835c9266440260801c5b6020821615611eb3576fff973b41fa98c081472e6896dfb254c00260801c5b6040821615611ed2576fff2ea16466c96a3843ec78b326b528610260801c5b6080821615611ef1576ffe5dee046a99a2a811c461f1969c30530260801c5b610100821615611f11576ffcbe86c7900a88aedcffc83b479aa3a40260801c5b610200821615611f31576ff987a7253ac413176f2b074cf7815e540260801c5b610400821615611f51576ff3392b0822b70005940c7a398e4b70f30260801c5b610800821615611f71576fe7159475a2c29b7443b29c7fa6e889d90260801c5b611000821615611f91576fd097f3bdfd2022b8845ad8f792aa58250260801c5b612000821615611fb1576fa9f746462d870fdf8a65dc1f90e061e50260801c5b614000821615611fd1576f70d869a156d2a1b890bb3df62baf32f70260801c5b618000821615611ff1576f31be135f97d08fd981231505542fcfa60260801c5b62010000821615612012576f09aa508b5b7a84e1c677de54f3e99bc90260801c5b62020000821615612032576e5d6af8dedb81196699c329225ee6040260801c5b62040000821615612051576d2216e584f5fa1ea926041bedfe980260801c5b6208000082161561206e576b048a170391f7dc42444e8fa20260801c5b60008460020b131561208f57806000198161208b5761208b6126b0565b0490505b6401000000008106156120a35760016120a6565b60005b60ff16602082901c0192505050919050565b8035600281900b81146120ca57600080fd5b919050565b80356001600160801b03811681146120ca57600080fd5b600080600080600080600060e0888a03121561210157600080fd5b8735965060208801359550612118604089016120b8565b9450612126606089016120b8565b9350612134608089016120cf565b925061214260a089016120b8565b915060c0880135905092959891949750929550565b80356001600160a01b03811681146120ca57600080fd5b6040516080810167ffffffffffffffff8111828210171561219f57634e487b7160e01b600052604160045260246000fd5b60405290565b604051610100810167ffffffffffffffff8111828210171561219f57634e487b7160e01b600052604160045260246000fd5b60405160e0810167ffffffffffffffff8111828210171561219f57634e487b7160e01b600052604160045260246000fd5b6000806000806000806000806000808a8c036101a081121561222957600080fd5b8b359a5060208c0135995060408c0135985060608c0135975061224e60808d01612157565b965061225c60a08d016120b8565b955061226a60c08d016120b8565b945061227860e08d016120b8565b93506122876101008d016120b8565b9250608061011f198201121561229c57600080fd5b506122a561216e565b6122b26101208d016120cf565b81526122c16101408d016120b8565b60208201526122d36101608d01612157565b60408201526101808c01356060820152809150509295989b9194979a5092959850565b803580151581146120ca57600080fd5b600080600080600080600060e0888a03121561232157600080fd5b8735965060208801359550612338604089016120b8565b9450612346606089016122f6565b93506080880135925061214260a089016120b8565b600080600083850361014081121561237257600080fd5b843593506020850135925061010080603f198301121561239157600080fd5b6123996121a5565b91506123a7604087016120b8565b82526123b5606087016120b8565b60208301526123c6608087016120b8565b60408301526123d760a087016122f6565b606083015260c086013560808301526123f260e08701612157565b60a08301526124028187016120b8565b60c083015250610120949094013560e0850152509093909250565b60008082840361010081121561243257600080fd5b8335925060e0601f198201121561244857600080fd5b506124516121d7565b60208401358152612464604085016120b8565b60208201526060840135604082015261247f608085016122f6565b606082015260a0840135608082015260c084013560a08201526124a460e085016122f6565b60c0820152809150509250929050565b6000602082840312156124c657600080fd5b813562ffffff81168114611d7e57600080fd5b634e487b7160e01b600052601160045260246000fd5b6000816124fe576124fe6124d9565b506000190190565b60008160020b627fffff19811415612520576125206124d9565b60000392915050565b60006001600160801b0380831681851680830382111561254b5761254b6124d9565b01949350505050565b6000600019821415612568576125686124d9565b5060010190565b600082821015612581576125816124d9565b500390565b60008219821115612599576125996124d9565b500190565b600181815b808511156125d95781600019048211156125bf576125bf6124d9565b808516156125cc57918102915b93841c93908002906125a3565b509250929050565b6000826125f0575060016119c5565b816125fd575060006119c5565b8160018114612613576002811461261d57612639565b60019150506119c5565b60ff84111561262e5761262e6124d9565b50506001821b6119c5565b5060208310610133831016604e8410600b841016171561265c575081810a6119c5565b612666838361259e565b806000190482111561267a5761267a6124d9565b029392505050565b6000611d7e60ff8416836125e1565b60008160001904831182151516156126ab576126ab6124d9565b500290565b634e487b7160e01b600052601260045260246000fd5b6000826126d5576126d56126b0565b500490565b600062ffffff808316818516818304811182151516156126fc576126fc6124d9565b02949350505050565b600062ffffff8084168061271b5761271b6126b0565b92169190910492915050565b60006001600160801b038084168061271b5761271b6126b0565b6000600160ff1b821415612757576127576124d9565b506000039056fea26469706673582212208b85c8970ac2e9a33dac9793f080dd4c7f3f627be5143424370ec4c2f2d7a85964736f6c634300080a0033",
  "linkReferences": {},
  "deployedLinkReferences": {}
}