{
  "_format": "hh-sol-artifact-1",
  "contractName": "DfynMath",
  "sourceName": "contracts/libraries/DfynMath.sol",
  "abi": [
    {
      "inputs": [
        {
          "internalType": "uint160",
          "name": "_tickZeroPrice",
          "type": "uint160"
        },
        {
          "internalType": "uint160",
          "name": "_sqrtPrice",
          "type": "uint160"
        }
      ],
      "name": "priceFromSqrtprice",
      "outputs": [
        {
          "internalType": "uint160",
          "name": "price",
          "type": "uint160"
        }
      ],
      "stateMutability": "view",
      "type": "function"
    },
    {
      "inputs": [
        {
          "internalType": "uint160",
          "name": "_tickZeroPrice",
          "type": "uint160"
        },
        {
          "internalType": "uint160",
          "name": "price",
          "type": "uint160"
        }
      ],
      "name": "sqrtPriceFromPrice",
      "outputs": [
        {
          "internalType": "uint160",
          "name": "sqrtRatioX96",
          "type": "uint160"
        }
      ],
      "stateMutability": "view",
      "type": "function"
    }
  ],
  "bytecode": "0x61023661003a600b82828239805160001a60731461002d57634e487b7160e01b600052600060045260246000fd5b30600052607381538281f3fe73000000000000000000000000000000000000000030146080604052600436106100405760003560e01c80639f85c4b814610045578063ebe0ebd214610074575b600080fd5b6100586100533660046100fb565b610087565b6040516001600160a01b03909116815260200160405180910390f35b6100586100823660046100fb565b61009a565b60006100938284610144565b9392505050565b6000826100aa83620f4240610144565b6100b49190610189565b90506100c083836101af565b6001600160a01b0316156100d9576100936001826101d5565b92915050565b80356001600160a01b03811681146100f657600080fd5b919050565b6000806040838503121561010e57600080fd5b610117836100df565b9150610125602084016100df565b90509250929050565b634e487b7160e01b600052601160045260246000fd5b60006001600160a01b038281168482168115158284048211161561016a5761016a61012e565b02949350505050565b634e487b7160e01b600052601260045260246000fd5b60006001600160a01b03838116806101a3576101a3610173565b92169190910492915050565b60006001600160a01b03838116806101c9576101c9610173565b92169190910692915050565b60006001600160a01b038281168482168083038211156101f7576101f761012e565b0194935050505056fea264697066735822122004375a9598ecacbfc685223250383b76ffa2451f1f58f1c615ebb9a13550f6d464736f6c634300080a0033",
  "linkReferences": {},
  "deployedLinkReferences": {}
}