{
  "_format": "hh-sol-artifact-1",
  "contractName": "BoringBatchable",
  "sourceName": "@boringcrypto/boring-solidity/contracts/BoringBatchable.sol",
  "abi": [
    {
      "inputs": [
        {
          "internalType": "bytes[]",
          "name": "calls",
          "type": "bytes[]"
        },
        {
          "internalType": "bool",
          "name": "revertOnFail",
          "type": "bool"
        }
      ],
      "name": "batch",
      "outputs": [],
      "stateMutability": "payable",
      "type": "function"
    },
    {
      "inputs": [
        {
          "internalType": "contract IERC20",
          "name": "token",
          "type": "address"
        },
        {
          "internalType": "address",
          "name": "from",
          "type": "address"
        },
        {
          "internalType": "address",
          "name": "to",
          "type": "address"
        },
        {
          "internalType": "uint256",
          "name": "amount",
          "type": "uint256"
        },
        {
          "internalType": "uint256",
          "name": "deadline",
          "type": "uint256"
        },
        {
          "internalType": "uint8",
          "name": "v",
          "type": "uint8"
        },
        {
          "internalType": "bytes32",
          "name": "r",
          "type": "bytes32"
        },
        {
          "internalType": "bytes32",
          "name": "s",
          "type": "bytes32"
        }
      ],
      "name": "permitToken",
      "outputs": [],
      "stateMutability": "nonpayable",
      "type": "function"
    }
  ],
  "bytecode": "0x608060405234801561001057600080fd5b506105a4806100206000396000f3fe6080604052600436106100295760003560e01c80637c516e941461002e578063d2423b5114610050575b600080fd5b34801561003a57600080fd5b5061004e61004936600461029b565b610063565b005b61004e61005e366004610324565b61011b565b6040517fd505accf00000000000000000000000000000000000000000000000000000000815273ffffffffffffffffffffffffffffffffffffffff88811660048301528781166024830152604482018790526064820186905260ff8516608483015260a4820184905260c4820183905289169063d505accf9060e401600060405180830381600087803b1580156100f957600080fd5b505af115801561010d573d6000803e3d6000fd5b505050505050505050505050565b60005b8281101561020b576000803086868581811061013c5761013c6103af565b905060200281019061014e91906103c5565b60405161015c929190610413565b600060405180830381855af49150503d8060008114610197576040519150601f19603f3d011682016040523d82523d6000602084013e61019c565b606091505b5091509150811580156101ac5750835b156101f6576101ba81610211565b6040517f08c379a00000000000000000000000000000000000000000000000000000000081526004016101ed919061044f565b60405180910390fd5b5050808061020390610482565b91505061011e565b50505050565b606060448251101561025657505060408051808201909152601d81527f5472616e73616374696f6e2072657665727465642073696c656e746c79000000602082015290565b6004820191508180602001905181019061027091906104c1565b92915050565b73ffffffffffffffffffffffffffffffffffffffff8116811461029857600080fd5b50565b600080600080600080600080610100898b0312156102b857600080fd5b88356102c381610276565b975060208901356102d381610276565b965060408901356102e381610276565b9550606089013594506080890135935060a089013560ff8116811461030757600080fd5b979a969950949793969295929450505060c08201359160e0013590565b60008060006040848603121561033957600080fd5b833567ffffffffffffffff8082111561035157600080fd5b818601915086601f83011261036557600080fd5b81358181111561037457600080fd5b8760208260051b850101111561038957600080fd5b6020928301955093505084013580151581146103a457600080fd5b809150509250925092565b634e487b7160e01b600052603260045260246000fd5b6000808335601e198436030181126103dc57600080fd5b83018035915067ffffffffffffffff8211156103f757600080fd5b60200191503681900382131561040c57600080fd5b9250929050565b8183823760009101908152919050565b60005b8381101561043e578181015183820152602001610426565b8381111561020b5750506000910152565b602081526000825180602084015261046e816040850160208701610423565b601f01601f19169190910160400192915050565b60006000198214156104a457634e487b7160e01b600052601160045260246000fd5b5060010190565b634e487b7160e01b600052604160045260246000fd5b6000602082840312156104d357600080fd5b815167ffffffffffffffff808211156104eb57600080fd5b818401915084601f8301126104ff57600080fd5b815181811115610511576105116104ab565b604051601f8201601f19908116603f01168101908382118183101715610539576105396104ab565b8160405282815287602084870101111561055257600080fd5b610563836020830160208801610423565b97965050505050505056fea264697066735822122003c01bb1ca6a60c681f3601b1eeddf7a5c8aa68a171fd472c8cea60474d3b05664736f6c634300080a0033",
  "linkReferences": {},
  "deployedLinkReferences": {}
}