{
  "_format": "hh-sol-artifact-1",
  "contractName": "ConcentratedLiquidityPool",
  "sourceName": "contracts/pool/concentrated/ConcentratedLiquidityPool.sol",
  "abi": [
    {
      "inputs": [
        {
          "internalType": "bytes",
          "name": "_deployData",
          "type": "bytes"
        },
        {
          "internalType": "contract IMasterDeployer",
          "name": "_masterDeployer",
          "type": "address"
        }
      ],
      "stateMutability": "nonpayable",
      "type": "constructor"
    },
    {
      "inputs": [],
      "name": "InvalidLimitOrderFee",
      "type": "error"
    },
    {
      "inputs": [],
      "name": "InvalidSwapFee",
      "type": "error"
    },
    {
      "inputs": [],
      "name": "InvalidTick",
      "type": "error"
    },
    {
      "inputs": [],
      "name": "InvalidToken",
      "type": "error"
    },
    {
      "inputs": [],
      "name": "LiquidityOverflow",
      "type": "error"
    },
    {
      "inputs": [],
      "name": "Locked",
      "type": "error"
    },
    {
      "inputs": [],
      "name": "LowerEven",
      "type": "error"
    },
    {
      "inputs": [],
      "name": "MaxTickLiquidity",
      "type": "error"
    },
    {
      "inputs": [],
      "name": "OnlyOwner",
      "type": "error"
    },
    {
      "inputs": [],
      "name": "Overflow",
      "type": "error"
    },
    {
      "inputs": [],
      "name": "PriceOutOfBounds",
      "type": "error"
    },
    {
      "inputs": [],
      "name": "TickOutOfBounds",
      "type": "error"
    },
    {
      "inputs": [],
      "name": "Token0Missing",
      "type": "error"
    },
    {
      "inputs": [],
      "name": "Token1Missing",
      "type": "error"
    },
    {
      "inputs": [],
      "name": "UpperOdd",
      "type": "error"
    },
    {
      "inputs": [],
      "name": "ZeroAddress",
      "type": "error"
    },
    {
      "anonymous": false,
      "inputs": [
        {
          "indexed": true,
          "internalType": "address",
          "name": "owner",
          "type": "address"
        },
        {
          "indexed": false,
          "internalType": "uint256",
          "name": "amount0",
          "type": "uint256"
        },
        {
          "indexed": false,
          "internalType": "uint256",
          "name": "amount1",
          "type": "uint256"
        }
      ],
      "name": "Burn",
      "type": "event"
    },
    {
      "anonymous": false,
      "inputs": [
        {
          "indexed": true,
          "internalType": "address",
          "name": "sender",
          "type": "address"
        },
        {
          "indexed": false,
          "internalType": "uint256",
          "name": "amount0",
          "type": "uint256"
        },
        {
          "indexed": false,
          "internalType": "uint256",
          "name": "amount1",
          "type": "uint256"
        }
      ],
      "name": "Collect",
      "type": "event"
    },
    {
      "anonymous": false,
      "inputs": [
        {
          "indexed": false,
          "internalType": "uint256",
          "name": "newLimitOrderFee",
          "type": "uint256"
        }
      ],
      "name": "LimitOrderFeeUpdated",
      "type": "event"
    },
    {
      "anonymous": false,
      "inputs": [
        {
          "indexed": true,
          "internalType": "address",
          "name": "owner",
          "type": "address"
        },
        {
          "indexed": false,
          "internalType": "uint256",
          "name": "amount0",
          "type": "uint256"
        },
        {
          "indexed": false,
          "internalType": "uint256",
          "name": "amount1",
          "type": "uint256"
        }
      ],
      "name": "Mint",
      "type": "event"
    },
    {
      "anonymous": false,
      "inputs": [
        {
          "indexed": true,
          "internalType": "address",
          "name": "recipient",
          "type": "address"
        },
        {
          "indexed": true,
          "internalType": "address",
          "name": "tokenIn",
          "type": "address"
        },
        {
          "indexed": true,
          "internalType": "address",
          "name": "tokenOut",
          "type": "address"
        },
        {
          "indexed": false,
          "internalType": "uint256",
          "name": "amountIn",
          "type": "uint256"
        },
        {
          "indexed": false,
          "internalType": "uint256",
          "name": "amountOut",
          "type": "uint256"
        }
      ],
      "name": "Swap",
      "type": "event"
    },
    {
      "anonymous": false,
      "inputs": [
        {
          "indexed": false,
          "internalType": "uint256",
          "name": "newSwapFee",
          "type": "uint256"
        }
      ],
      "name": "SwapFeeUpdated",
      "type": "event"
    },
    {
      "inputs": [
        {
          "internalType": "address",
          "name": "token",
          "type": "address"
        }
      ],
      "name": "_balance",
      "outputs": [
        {
          "internalType": "uint256",
          "name": "balance",
          "type": "uint256"
        }
      ],
      "stateMutability": "view",
      "type": "function"
    },
    {
      "inputs": [
        {
          "internalType": "int24",
          "name": "lower",
          "type": "int24"
        },
        {
          "internalType": "int24",
          "name": "upper",
          "type": "int24"
        },
        {
          "internalType": "uint128",
          "name": "amount",
          "type": "uint128"
        }
      ],
      "name": "burn",
      "outputs": [
        {
          "internalType": "uint256",
          "name": "token0Amount",
          "type": "uint256"
        },
        {
          "internalType": "uint256",
          "name": "token1Amount",
          "type": "uint256"
        },
        {
          "internalType": "uint256",
          "name": "token0Fees",
          "type": "uint256"
        },
        {
          "internalType": "uint256",
          "name": "token1Fees",
          "type": "uint256"
        }
      ],
      "stateMutability": "nonpayable",
      "type": "function"
    },
    {
      "inputs": [
        {
          "internalType": "uint256",
          "name": "amount",
          "type": "uint256"
        },
        {
          "internalType": "int24",
          "name": "tick",
          "type": "int24"
        },
        {
          "internalType": "bool",
          "name": "zeroForOne",
          "type": "bool"
        }
      ],
      "name": "cancelLimitOrder",
      "outputs": [],
      "stateMutability": "nonpayable",
      "type": "function"
    },
    {
      "inputs": [
        {
          "internalType": "uint256",
          "name": "amountToClaim",
          "type": "uint256"
        },
        {
          "internalType": "int24",
          "name": "tick",
          "type": "int24"
        },
        {
          "internalType": "bool",
          "name": "zeroForOne",
          "type": "bool"
        }
      ],
      "name": "claimLimitOrder",
      "outputs": [],
      "stateMutability": "nonpayable",
      "type": "function"
    },
    {
      "inputs": [
        {
          "internalType": "int24",
          "name": "lower",
          "type": "int24"
        },
        {
          "internalType": "int24",
          "name": "upper",
          "type": "int24"
        }
      ],
      "name": "collect",
      "outputs": [
        {
          "internalType": "uint256",
          "name": "amount0fees",
          "type": "uint256"
        },
        {
          "internalType": "uint256",
          "name": "amount1fees",
          "type": "uint256"
        }
      ],
      "stateMutability": "nonpayable",
      "type": "function"
    },
    {
      "inputs": [],
      "name": "collectLimitOrderFee",
      "outputs": [
        {
          "internalType": "uint256",
          "name": "amount0",
          "type": "uint256"
        },
        {
          "internalType": "uint256",
          "name": "amount1",
          "type": "uint256"
        }
      ],
      "stateMutability": "nonpayable",
      "type": "function"
    },
    {
      "inputs": [],
      "name": "collectProtocolFee",
      "outputs": [
        {
          "internalType": "uint128",
          "name": "amount0",
          "type": "uint128"
        },
        {
          "internalType": "uint128",
          "name": "amount1",
          "type": "uint128"
        }
      ],
      "stateMutability": "nonpayable",
      "type": "function"
    },
    {
      "inputs": [
        {
          "internalType": "int24",
          "name": "tick",
          "type": "int24"
        },
        {
          "internalType": "int24",
          "name": "lowerOld",
          "type": "int24"
        },
        {
          "internalType": "int24",
          "name": "upperOld",
          "type": "int24"
        },
        {
          "internalType": "uint256",
          "name": "amountIn",
          "type": "uint256"
        },
        {
          "internalType": "bool",
          "name": "native",
          "type": "bool"
        },
        {
          "internalType": "bool",
          "name": "zeroForOne",
          "type": "bool"
        }
      ],
      "name": "createLimitOrder",
      "outputs": [],
      "stateMutability": "nonpayable",
      "type": "function"
    },
    {
      "inputs": [],
      "name": "dfynFee",
      "outputs": [
        {
          "internalType": "uint256",
          "name": "",
          "type": "uint256"
        }
      ],
      "stateMutability": "view",
      "type": "function"
    },
    {
      "inputs": [],
      "name": "dfynFeeTo",
      "outputs": [
        {
          "internalType": "address",
          "name": "",
          "type": "address"
        }
      ],
      "stateMutability": "view",
      "type": "function"
    },
    {
      "inputs": [],
      "name": "feeGrowthGlobal0",
      "outputs": [
        {
          "internalType": "uint256",
          "name": "",
          "type": "uint256"
        }
      ],
      "stateMutability": "view",
      "type": "function"
    },
    {
      "inputs": [],
      "name": "feeGrowthGlobal1",
      "outputs": [
        {
          "internalType": "uint256",
          "name": "",
          "type": "uint256"
        }
      ],
      "stateMutability": "view",
      "type": "function"
    },
    {
      "inputs": [],
      "name": "lastObservation",
      "outputs": [
        {
          "internalType": "uint32",
          "name": "",
          "type": "uint32"
        }
      ],
      "stateMutability": "view",
      "type": "function"
    },
    {
      "inputs": [],
      "name": "limitOrderFee",
      "outputs": [
        {
          "internalType": "uint256",
          "name": "",
          "type": "uint256"
        }
      ],
      "stateMutability": "view",
      "type": "function"
    },
    {
      "inputs": [],
      "name": "limitOrderReserve0",
      "outputs": [
        {
          "internalType": "uint256",
          "name": "",
          "type": "uint256"
        }
      ],
      "stateMutability": "view",
      "type": "function"
    },
    {
      "inputs": [],
      "name": "limitOrderReserve1",
      "outputs": [
        {
          "internalType": "uint256",
          "name": "",
          "type": "uint256"
        }
      ],
      "stateMutability": "view",
      "type": "function"
    },
    {
      "inputs": [
        {
          "internalType": "int24",
          "name": "",
          "type": "int24"
        }
      ],
      "name": "limitOrderTicks",
      "outputs": [
        {
          "internalType": "uint256",
          "name": "token0Liquidity",
          "type": "uint256"
        },
        {
          "internalType": "uint256",
          "name": "token1Liquidity",
          "type": "uint256"
        },
        {
          "internalType": "uint256",
          "name": "token0Claimable",
          "type": "uint256"
        },
        {
          "internalType": "uint256",
          "name": "token1Claimable",
          "type": "uint256"
        }
      ],
      "stateMutability": "view",
      "type": "function"
    },
    {
      "inputs": [],
      "name": "liquidity",
      "outputs": [
        {
          "internalType": "uint128",
          "name": "",
          "type": "uint128"
        }
      ],
      "stateMutability": "view",
      "type": "function"
    },
    {
      "inputs": [],
      "name": "masterDeployer",
      "outputs": [
        {
          "internalType": "contract IMasterDeployer",
          "name": "",
          "type": "address"
        }
      ],
      "stateMutability": "view",
      "type": "function"
    },
    {
      "inputs": [
        {
          "components": [
            {
              "internalType": "int24",
              "name": "lowerOld",
              "type": "int24"
            },
            {
              "internalType": "int24",
              "name": "lower",
              "type": "int24"
            },
            {
              "internalType": "int24",
              "name": "upperOld",
              "type": "int24"
            },
            {
              "internalType": "int24",
              "name": "upper",
              "type": "int24"
            },
            {
              "internalType": "uint128",
              "name": "amount0Desired",
              "type": "uint128"
            },
            {
              "internalType": "uint128",
              "name": "amount1Desired",
              "type": "uint128"
            },
            {
              "internalType": "bool",
              "name": "native",
              "type": "bool"
            }
          ],
          "internalType": "struct IConcentratedLiquidityPoolStruct.MintParams",
          "name": "mintParams",
          "type": "tuple"
        }
      ],
      "name": "mint",
      "outputs": [
        {
          "internalType": "uint256",
          "name": "liquidityMinted",
          "type": "uint256"
        }
      ],
      "stateMutability": "nonpayable",
      "type": "function"
    },
    {
      "inputs": [],
      "name": "nearestTick",
      "outputs": [
        {
          "internalType": "int24",
          "name": "",
          "type": "int24"
        }
      ],
      "stateMutability": "view",
      "type": "function"
    },
    {
      "inputs": [],
      "name": "owner",
      "outputs": [
        {
          "internalType": "address",
          "name": "",
          "type": "address"
        }
      ],
      "stateMutability": "view",
      "type": "function"
    },
    {
      "inputs": [
        {
          "internalType": "address",
          "name": "",
          "type": "address"
        },
        {
          "internalType": "int24",
          "name": "",
          "type": "int24"
        },
        {
          "internalType": "int24",
          "name": "",
          "type": "int24"
        }
      ],
      "name": "positions",
      "outputs": [
        {
          "internalType": "uint128",
          "name": "liquidity",
          "type": "uint128"
        },
        {
          "internalType": "uint256",
          "name": "feeGrowthInside0Last",
          "type": "uint256"
        },
        {
          "internalType": "uint256",
          "name": "feeGrowthInside1Last",
          "type": "uint256"
        }
      ],
      "stateMutability": "view",
      "type": "function"
    },
    {
      "inputs": [],
      "name": "price",
      "outputs": [
        {
          "internalType": "uint160",
          "name": "",
          "type": "uint160"
        }
      ],
      "stateMutability": "view",
      "type": "function"
    },
    {
      "inputs": [
        {
          "internalType": "int24",
          "name": "lowerTick",
          "type": "int24"
        },
        {
          "internalType": "int24",
          "name": "upperTick",
          "type": "int24"
        }
      ],
      "name": "rangeFeeGrowth",
      "outputs": [
        {
          "internalType": "uint256",
          "name": "feeGrowthInside0",
          "type": "uint256"
        },
        {
          "internalType": "uint256",
          "name": "feeGrowthInside1",
          "type": "uint256"
        }
      ],
      "stateMutability": "view",
      "type": "function"
    },
    {
      "inputs": [],
      "name": "reserve0",
      "outputs": [
        {
          "internalType": "uint128",
          "name": "",
          "type": "uint128"
        }
      ],
      "stateMutability": "view",
      "type": "function"
    },
    {
      "inputs": [],
      "name": "reserve1",
      "outputs": [
        {
          "internalType": "uint128",
          "name": "",
          "type": "uint128"
        }
      ],
      "stateMutability": "view",
      "type": "function"
    },
    {
      "inputs": [],
      "name": "secondsGrowthGlobal",
      "outputs": [
        {
          "internalType": "uint160",
          "name": "",
          "type": "uint160"
        }
      ],
      "stateMutability": "view",
      "type": "function"
    },
    {
      "inputs": [
        {
          "internalType": "uint160",
          "name": "_price",
          "type": "uint160"
        }
      ],
      "name": "setPrice",
      "outputs": [],
      "stateMutability": "nonpayable",
      "type": "function"
    },
    {
      "inputs": [
        {
          "internalType": "bytes",
          "name": "data",
          "type": "bytes"
        }
      ],
      "name": "swap",
      "outputs": [
        {
          "internalType": "uint256",
          "name": "amountOut",
          "type": "uint256"
        }
      ],
      "stateMutability": "nonpayable",
      "type": "function"
    },
    {
      "inputs": [],
      "name": "swapFee",
      "outputs": [
        {
          "internalType": "uint24",
          "name": "",
          "type": "uint24"
        }
      ],
      "stateMutability": "view",
      "type": "function"
    },
    {
      "inputs": [],
      "name": "tickCount",
      "outputs": [
        {
          "internalType": "uint256",
          "name": "",
          "type": "uint256"
        }
      ],
      "stateMutability": "view",
      "type": "function"
    },
    {
      "inputs": [],
      "name": "tickSpacing",
      "outputs": [
        {
          "internalType": "uint24",
          "name": "",
          "type": "uint24"
        }
      ],
      "stateMutability": "view",
      "type": "function"
    },
    {
      "inputs": [
        {
          "internalType": "int24",
          "name": "",
          "type": "int24"
        }
      ],
      "name": "ticks",
      "outputs": [
        {
          "internalType": "int24",
          "name": "previousTick",
          "type": "int24"
        },
        {
          "internalType": "int24",
          "name": "nextTick",
          "type": "int24"
        },
        {
          "internalType": "uint128",
          "name": "liquidity",
          "type": "uint128"
        },
        {
          "internalType": "uint256",
          "name": "feeGrowthOutside0",
          "type": "uint256"
        },
        {
          "internalType": "uint256",
          "name": "feeGrowthOutside1",
          "type": "uint256"
        },
        {
          "internalType": "uint160",
          "name": "secondsGrowthOutside",
          "type": "uint160"
        }
      ],
      "stateMutability": "view",
      "type": "function"
    },
    {
      "inputs": [],
      "name": "token0",
      "outputs": [
        {
          "internalType": "address",
          "name": "",
          "type": "address"
        }
      ],
      "stateMutability": "view",
      "type": "function"
    },
    {
      "inputs": [],
      "name": "token0LimitOrderFee",
      "outputs": [
        {
          "internalType": "uint256",
          "name": "",
          "type": "uint256"
        }
      ],
      "stateMutability": "view",
      "type": "function"
    },
    {
      "inputs": [],
      "name": "token0ProtocolFee",
      "outputs": [
        {
          "internalType": "uint128",
          "name": "",
          "type": "uint128"
        }
      ],
      "stateMutability": "view",
      "type": "function"
    },
    {
      "inputs": [],
      "name": "token1",
      "outputs": [
        {
          "internalType": "address",
          "name": "",
          "type": "address"
        }
      ],
      "stateMutability": "view",
      "type": "function"
    },
    {
      "inputs": [],
      "name": "token1LimitOrderFee",
      "outputs": [
        {
          "internalType": "uint256",
          "name": "",
          "type": "uint256"
        }
      ],
      "stateMutability": "view",
      "type": "function"
    },
    {
      "inputs": [],
      "name": "token1ProtocolFee",
      "outputs": [
        {
          "internalType": "uint128",
          "name": "",
          "type": "uint128"
        }
      ],
      "stateMutability": "view",
      "type": "function"
    },
    {
      "inputs": [],
      "name": "updateBarFee",
      "outputs": [],
      "stateMutability": "nonpayable",
      "type": "function"
    },
    {
      "inputs": [
        {
          "internalType": "uint24",
          "name": "_limitOrderFee",
          "type": "uint24"
        }
      ],
      "name": "updateLimitOrderFee",
      "outputs": [],
      "stateMutability": "nonpayable",
      "type": "function"
    },
    {
      "inputs": [
        {
          "internalType": "uint24",
          "name": "_swapFee",
          "type": "uint24"
        }
      ],
      "name": "updateSwapFee",
      "outputs": [],
      "stateMutability": "nonpayable",
      "type": "function"
    },
    {
      "inputs": [],
      "name": "vault",
      "outputs": [
        {
          "internalType": "contract IVaultMinimal",
          "name": "",
          "type": "address"
        }
      ],
      "stateMutability": "view",
      "type": "function"
    }
  ],
  "bytecode": "0x6101806040523480156200001257600080fd5b5060405162005130380380620051308339810160408190526200003591620006a1565b60008060008085806020019051810190620000519190620007a6565b929650909450925090506001600160a01b038416620000835760405163d92e233d60e01b815260040160405180910390fd5b6001600160a01b038416301415620000ae5760405163c1ab6dc160e01b815260040160405180910390fd5b6001600160a01b038316301415620000d95760405163c1ab6dc160e01b815260040160405180910390fd5b620186a062ffffff83161115620001035760405163da7459b760e01b815260040160405180910390fd5b6001600160a01b0384811661012052838116610140526000805462ffffff191662ffffff8581169190911790915582166080526040805163fbfa77cf60e01b815290519187169163fbfa77cf916004808201926020929091908290030181865afa15801562000176573d6000803e3d6000fd5b505050506040513d601f19601f820116820180604052508101906200019c919062000808565b6001600160a01b031660e0816001600160a01b031681525050846001600160a01b0316630bf9d29e6040518163ffffffff1660e01b8152600401602060405180830381865afa158015620001f4573d6000803e3d6000fd5b505050506040513d601f19601f820116820180604052508101906200021a919062000808565b6001600160a01b031660c0816001600160a01b031681525050846001600160a01b031663432cb5d56040518163ffffffff1660e01b8152600401602060405180830381865afa15801562000272573d6000803e3d6000fd5b505050506040513d601f19601f820116820180604052508101906200029891906200082f565b600481905550846001600160a01b03166327ca10096040518163ffffffff1660e01b8152600401602060405180830381865afa158015620002dd573d6000803e3d6000fd5b505050506040513d601f19601f820116820180604052508101906200030391906200082f565b6005556001600160a01b03851661010052604051636e23d2e160e11b815262ffffff8216600482015273__$dc25dd3a5fe6a540f35c01c335c2ccfd23$__9063dc47a5c290602401602060405180830381865af415801562000369573d6000803e3d6000fd5b505050506040513d601f19601f820116820180604052508101906200038f919062000849565b6001600160801b031660a0526040805160c08101909152620d89e7198082526020820190620003be9062000874565b60020b815260006020808301829052604080840183905260608085018490526080948501849052620d89e71993849052600f835285517fd603589fa181286bc67c2a3a72eeaac613903d68739e94e4bfb1c110f97718f0805488860151898601516001600160801b0316660100000000000002600160301b600160b01b031962ffffff92831663010000000265ffffffffffff19909416929095169190911791909117929092169190911790558501517fd603589fa181286bc67c2a3a72eeaac613903d68739e94e4bfb1c110f97718f155928401517fd603589fa181286bc67c2a3a72eeaac613903d68739e94e4bfb1c110f97718f25560a0909301517fd603589fa181286bc67c2a3a72eeaac613903d68739e94e4bfb1c110f97718f380546001600160a01b03929092166001600160a01b0319909216919091179055815160c081019092528082529091820190620005199062000874565b60020b815260200160006001600160801b03168152602001600081526020016000815260200160006001600160a01b0316815250600f6000620d89e719620005619062000874565b600290810b8252602080830193909352604091820160002084518154948601519386015162ffffff91821665ffffffffffff19909616959095176301000000919094160292909217600160301b600160b01b03191666010000000000006001600160801b0390941693909302929092178155606083015160018083019190915560808401518284015560a090930151600390910180546001600160a01b0319166001600160a01b03909216919091179055600c805462ffffff60a01b1916621e4ec360a31b179055600d829055815463ffffffff60a01b1916600160a01b4263ffffffff1602179091553361016052600e5550620008a6945050505050565b634e487b7160e01b600052604160045260246000fd5b6001600160a01b03811681146200068c57600080fd5b50565b80516200069c8162000676565b919050565b60008060408385031215620006b557600080fd5b82516001600160401b0380821115620006cd57600080fd5b818501915085601f830112620006e257600080fd5b815181811115620006f757620006f762000660565b604051601f8201601f19908116603f0116810190838211818310171562000722576200072262000660565b816040528281526020935088848487010111156200073f57600080fd5b600091505b8282101562000763578482018401518183018501529083019062000744565b82821115620007755760008484830101525b9550620007879150508582016200068f565b925050509250929050565b805162ffffff811681146200069c57600080fd5b60008060008060808587031215620007bd57600080fd5b8451620007ca8162000676565b6020860151909450620007dd8162000676565b9250620007ed6040860162000792565b9150620007fd6060860162000792565b905092959194509250565b6000602082840312156200081b57600080fd5b8151620008288162000676565b9392505050565b6000602082840312156200084257600080fd5b5051919050565b6000602082840312156200085c57600080fd5b81516001600160801b03811681146200082857600080fd5b60008160020b627fffff198114156200089d57634e487b7160e01b600052601160045260246000fd5b60000392915050565b60805160a05160c05160e051610100516101205161014051610160516146e262000a4e600039600081816104e701528181610a78015261269e01526000818161069a015281816108fb01528181610f0701528181611184015281816113f60152818161157f015281816117ee01528181611d8601528181611daf01528181611eaa0152818161245101528181612642015281816133b10152613b760152600081816102fd01528181610a4701528181610dbf0152818161112e015281816113ce015281816114d40152818161181401528181611dd901528181611e5701528181611e80015281816123e3015281816125580152818161330d0152613a910152600081816106430152611f330152600081816107ab015281816127680152818161282a0152818161315c015281816131e6015281816132e001526133820152600081816102b9015281816124050152818161247301528181612583015261266d015260006130be01526000818161067301528181611b4401528181611c4a0152818161289801528181612a9e01528181612aeb01528181612b400152612b8d01526146e26000f3fe608060405234801561001057600080fd5b50600436106102745760003560e01c806392bc321911610151578063ccc9bb16116100c3578063d3aceae211610087578063d3aceae2146106bc578063d90bda4e146106cf578063f30dba93146106e2578063f6ad587d1461078a578063f94ba7d61461079d578063fbfa77cf146107a657600080fd5b8063ccc9bb161461062b578063cf58879a1461063e578063cf78756b14610665578063d0c93a7c1461066e578063d21220a71461069557600080fd5b8063aaca1b4d11610115578063aaca1b4d14610567578063acfe88f8146105d6578063b19b6a77146105e9578063b9ffc934146105f2578063beb72648146105fb578063caa4b46a1461060357600080fd5b806392bc3219146105095780639da1209614610511578063a00e8f291461051a578063a035b1fe14610541578063a34123a71461055457600080fd5b806347dfe5eb116101ea5780635a76f25e116101ae5780635a76f25e14610447578063600b5b5814610461578063627dd56a1461048957806365f6e1cb1461049c5780638a7b8cf2146104b65780638da5cb5b146104e257600080fd5b806347dfe5eb146103aa5780634d7b7ed1146103b35780635034c790146103c657806354cf2aeb1461041b5780635851de091461043e57600080fd5b80631a6865021161023c5780631a6865021461031f57806327ca1009146103515780632a14935c14610368578063432cb5d51461037b578063443cb4bc1461038457806346102e101461039757600080fd5b80630328e8011461027957806308ba9b651461028e578063096f7290146102a15780630bf9d29e146102b45780630dfe1681146102f8575b600080fd5b61028c610287366004613f69565b6107cd565b005b61028c61029c366004613fab565b610a6d565b61028c6102af366004613f69565b610b2c565b6102db7f000000000000000000000000000000000000000000000000000000000000000081565b6040516001600160a01b0390911681526020015b60405180910390f35b6102db7f000000000000000000000000000000000000000000000000000000000000000081565b60005461033990630100000090046001600160801b031681565b6040516001600160801b0390911681526020016102ef565b61035a60055481565b6040519081526020016102ef565b600854610339906001600160801b031681565b61035a60045481565b600954610339906001600160801b031681565b61028c6103a5366004613fd0565b610c6b565b61035a60075481565b61035a6103c1366004614076565b610fa1565b6103fb6103d436600461412e565b60106020526000908152604090208054600182015460028301546003909301549192909184565b6040805194855260208501939093529183015260608201526080016102ef565b60005461042a9062ffffff1681565b60405162ffffff90911681526020016102ef565b61035a600b5481565b60095461033990600160801b90046001600160801b031681565b61047461046f36600461414b565b61162b565b604080519283526020830191909152016102ef565b61035a610497366004614184565b611747565b60085461033990600160801b90046001600160801b031681565b6001546104cd90600160a01b900463ffffffff1681565b60405163ffffffff90911681526020016102ef565b6102db7f000000000000000000000000000000000000000000000000000000000000000081565b61028c611f31565b61035a60025481565b600c5461052e90600160a01b900460020b81565b60405160029190910b81526020016102ef565b600c546102db906001600160a01b031681565b6103fb610562366004614235565b611fb8565b6105b1610575366004614291565b60116020908152600093845260408085208252928452828420905282529020805460018201546002909201546001600160801b03909116919083565b604080516001600160801b0390941684526020840192909252908201526060016102ef565b6104746105e436600461414b565b612291565b61035a600a5481565b61035a600e5481565b610474612391565b61060b6124a2565b604080516001600160801b039384168152929091166020830152016102ef565b61028c610639366004613fab565b612693565b6102db7f000000000000000000000000000000000000000000000000000000000000000081565b61035a60035481565b61042a7f000000000000000000000000000000000000000000000000000000000000000081565b6102db7f000000000000000000000000000000000000000000000000000000000000000081565b61035a6106ca3660046142d1565b612740565b61028c6106dd3660046142d1565b6127db565b61073f6106f036600461412e565b600f6020526000908152604090208054600182015460028084015460039094015483820b946301000000850490920b93600160301b90046001600160801b03169291906001600160a01b031686565b60408051600297880b81529590960b60208601526001600160801b0390931694840194909452606083015260808201929092526001600160a01b0390911660a082015260c0016102ef565b6001546102db906001600160a01b031681565b61035a60065481565b6102db7f000000000000000000000000000000000000000000000000000000000000000081565b801561092657600282900b6000908152601060205260409020600301548311156108235760405162461bcd60e51b8152602060048201526002602482015261229960f11b60448201526064015b60405180910390fd5b600c54600e54604051630d672f2d60e21b815273__$dc25dd3a5fe6a540f35c01c335c2ccfd23$__9263359cbcb49261087692600f92601092899289928c92600160a01b90910460020b916004016142ee565b6040805180830381865af4158015610892573d6000803e3d6000fd5b505050506040513d601f19601f820116820180604052508101906108b69190614322565b600e55600c805462ffffff909216600160a01b0262ffffff60a01b19909216919091179055600b80548491906000906108f0908490614366565b9091555061092190507f00000000000000000000000000000000000000000000000000000000000000003385612813565b505050565b600282810b6000908152601060205260409020015483111561096f5760405162461bcd60e51b8152602060048201526002602482015261229960f11b604482015260640161081a565b600c54600e54604051630d672f2d60e21b815273__$dc25dd3a5fe6a540f35c01c335c2ccfd23$__9263359cbcb4926109c292600f92601092899289928c92600160a01b90910460020b916004016142ee565b6040805180830381865af41580156109de573d6000803e3d6000fd5b505050506040513d601f19601f82011682018060405250810190610a029190614322565b600e55600c805462ffffff909216600160a01b0262ffffff60a01b19909216919091179055600a8054849190600090610a3c908490614366565b9091555061092190507f00000000000000000000000000000000000000000000000000000000000000003385612813565b336001600160a01b037f00000000000000000000000000000000000000000000000000000000000000001614610ab657604051635fc483c560e01b815260040160405180910390fd5b620186a062ffffff82161115610adf5760405163da7459b760e01b815260040160405180910390fd5b6000805462ffffff191662ffffff83169081179091556040519081527f382455f3b749abde7721258dcfa10a22f30d4a28c69151a002dcbd8d1462e4f2906020015b60405180910390a150565b8015610bcd57600282900b600090815260106020526040902054831115610b7a5760405162461bcd60e51b8152602060048201526002602482015261453360f01b604482015260640161081a565b600c54600e54604051630cece0f560e41b815273__$dc25dd3a5fe6a540f35c01c335c2ccfd23$__9263cece0f50926109c292600f92601092899289928c92600160a01b90910460020b916004016142ee565b600282900b600090815260106020526040902060010154831115610c185760405162461bcd60e51b8152602060048201526002602482015261453360f01b604482015260640161081a565b600c54600e54604051630cece0f560e41b815273__$dc25dd3a5fe6a540f35c01c335c2ccfd23$__9263cece0f509261087692600f92601092899289928c92600160a01b90910460020b916004016142ee565b60008311610ca05760405162461bcd60e51b8152602060048201526002602482015261453160f01b604482015260640161081a565b610cab868686612893565b6040805161010081018252600288810b825287810b602083015286810b9282019290925282158015606083015260808201869052600c546001600160a01b03811660a0840152600160a01b900490920b60c0820152600e5460e082015290610e555760405163989a70d760e01b815273__$dc25dd3a5fe6a540f35c01c335c2ccfd23$__9063989a70d790610d4a90600f90601090869060040161437d565b6040805180830381865af4158015610d66573d6000803e3d6000fd5b505050506040513d601f19601f82011682018060405250810190610d8a919061440f565b600c805462ffffff92909216600160a01b0262ffffff60a01b19909216919091179055600e5560405163d967f43160e01b81527f00000000000000000000000000000000000000000000000000000000000000006001600160a01b03166004820152602481018590528315156044820152339063d967f43190606401600060405180830381600087803b158015610e2057600080fd5b505af1158015610e34573d6000803e3d6000fd5b5050505083600a6000828254610e4a9190614434565b90915550610f989050565b60405163989a70d760e01b815273__$dc25dd3a5fe6a540f35c01c335c2ccfd23$__9063989a70d790610e9290600f90601090869060040161437d565b6040805180830381865af4158015610eae573d6000803e3d6000fd5b505050506040513d601f19601f82011682018060405250810190610ed2919061440f565b600c805462ffffff92909216600160a01b0262ffffff60a01b19909216919091179055600e5560405163d967f43160e01b81527f00000000000000000000000000000000000000000000000000000000000000006001600160a01b03166004820152602481018590528315156044820152339063d967f43190606401600060405180830381600087803b158015610f6857600080fd5b505af1158015610f7c573d6000803e3d6000fd5b5050505083600b6000828254610f929190614434565b90915550505b50505050505050565b6000600d5460021415610fc7576040516303cb96db60e21b815260040160405180910390fd5b6002600d5560208201516060830151610fe09190612a99565b6000610fef8360200151612be0565b6001600160a01b0316905060006110098460600151612be0565b600c5460a0860151608087015160405163576365ff60e11b8152600481018790526001600160a01b039485166024820181905294909316604484018190526001600160801b0392831660648501529116608483015291925073__$357eccfa53a4e88c122661903e0e603301$__9063aec6cbfe9060a401602060405180830381865af415801561109d573d6000803e3d6000fd5b505050506040513d601f19601f820116820180604052508101906110c1919061444c565b935060016001607f1b038411156110eb57604051631a93c68960e11b815260040160405180910390fd5b60005461110790630100000090046001600160801b0316612f13565b60008061111e338860200151896060015189612f98565b90925090508115611179576111567f00000000000000000000000000000000000000000000000000000000000000008333600061311b565b600980546001600160801b03808216859003166001600160801b03199091161790555b80156111ce576111ac7f00000000000000000000000000000000000000000000000000000000000000008233600061311b565b600980546001600160801b03600160801b808304821685900382160291161790555b8285111580156111dd57508383105b1561121157600080546001600160801b03630100000080830482168a01909116026301000000600160981b03199091161790555b5050604080516080810182526001600160801b0386168152600c54600160a01b9004600290810b6020808401919091526001600160a01b0380861684860152600e5460608086019190915292546003546001548c51948d01518d890151968e01519851630acaf2e960e11b8152979873__$dc25dd3a5fe6a540f35c01c335c2ccfd23$__98631595e5d29861133c98600f9860109897961694909390928d90600401998a526020808b01999099526040808b01989098526060808b01979097526001600160a01b0395861660808b0152600294850b60a08b015292840b60c08a015290830b60e0890152820b61010088015280516001600160801b031661012088015294850151900b6101408601529183015190911661016084015201516101808201526101a00190565b6040805180830381865af4158015611358573d6000803e3d6000fd5b505050506040513d601f19601f8201168201806040525081019061137c9190614322565b600e55600c805462ffffff909216600160a01b0262ffffff60a01b199092169190911790556000806113b28686868a600161325a565b60c08a01516040516314f83a8960e31b81526001600160a01b037f0000000000000000000000000000000000000000000000000000000000000000811660048301527f00000000000000000000000000000000000000000000000000000000000000001660248201526001600160801b0380851660448301528316606482015290151560848201529193509150339063a7c1d4489060a401600060405180830381600087803b15801561146457600080fd5b505af1158015611478573d6000803e3d6000fd5b50505050816001600160801b031660001461152357600980548391906000906114ab9084906001600160801b0316614465565b92506101000a8154816001600160801b0302191690836001600160801b031602179055506114f87f0000000000000000000000000000000000000000000000000000000000000000612740565b6009546001600160801b031611156115235760405163420231d560e11b815260040160405180910390fd5b6001600160801b038116156115d55780600960108282829054906101000a90046001600160801b03166115569190614465565b92506101000a8154816001600160801b0302191690836001600160801b031602179055506115a37f0000000000000000000000000000000000000000000000000000000000000000612740565b600954600160801b90046001600160801b031611156115d557604051637218102160e11b815260040160405180910390fd5b604080516001600160801b0380851682528316602082015233917f4c209b5fc8ad50758f13e2e1088ba56a560dff690a1c6fef26394f4c03821c4f910160405180910390a250506001600d555092949350505050565b600080600d5460021415611652576040516303cb96db60e21b815260040160405180910390fd5b6002600d556116643385856000612f98565b6009805492945090925083916000906116879084906001600160801b0316614490565b92506101000a8154816001600160801b0302191690836001600160801b0316021790555080600960108282829054906101000a90046001600160801b03166116cf9190614490565b92506101000a8154816001600160801b0302191690836001600160801b031602179055506116fe3383836132c9565b604080518381526020810183905233917f4a1c185b7b5da020829d63d69222d8602aa53a6b7800a73ee6e3e15a625d863d910160405180910390a26001600d5590939092509050565b6000600d546002141561176d576040516303cb96db60e21b815260040160405180910390fd5b6002600d8190555060008060008480602001905181019061178e91906144b8565b9250925092506000836117a357600b546117a7565b600a545b846117c457600954600160801b90046001600160801b03166117d1565b6009546001600160801b03165b6001600160801b03166117e49190614434565b61183885611812577f0000000000000000000000000000000000000000000000000000000000000000612740565b7f0000000000000000000000000000000000000000000000000000000000000000612740565b6118429190614366565b905061188b6040518060e0016040528060008152602001600060020b81526020016000815260200160001515815260200160008152602001600081526020016000151581525090565b6000604051806101a00160405280600081526020016000815260200160008152602001876118bb576002546118bf565b6003545b8152602001876118d1576003546118d5565b6002545b8152600c546001600160a01b03166020820152600054630100000090046001600160801b03166040820152606081018590526080018761193b57600c54600160a01b9004600290810b6000908152600f602052604090205463010000009004900b611949565b600c54600160a01b900460020b5b60020b815260200160008152602001600081526020018761196c57600b54611970565b600a545b8152602001600081525090506119898160c00151612f13565b60e081015115611c85576119a08160e001516133df565b60006119b0826101000151612be0565b6001600160a01b03169050600080620d89e71960020b84610100015160020b141580156119f457506119e5620d89e7196144fa565b60020b84610100015160020b14155b611a255760405162461bcd60e51b8152602060048201526002602482015261114d60f21b604482015260640161081a565b611a31848a8584613424565b8760a0018860e001828152508295508381525083955050505050611a7c8260008054906101000a900462ffffff166004548760c0015188602001518f8a604001518b6060015161361e565b60608801526040870152602086019190915299508015611b0b576040518060e0016040528084815260200185610100015160020b81526020018560e0015181526020018a15158152602001856101400151815260200185610120015181526020018215158152509450611aee856136b6565b61012088019190915261014087019190915260e086019190915290505b8015611c7d57611b68600f856101000151600160009054906101000a90046001600160a01b03168760c00151886060015189608001518f7f0000000000000000000000000000000000000000000000000000000000000000613827565b60020b61010086015260c08501819052611c7d57611b8a846101000151612be0565b6001600160a01b031660a08501528015611c17576040518060e001604052808560a00151815260200185610100015160020b81526020018560e0015181526020018a15158152602001856101400151815260200185610120015181526020018215158152509450611bfa856136b6565b61012088019190915261014087019190915260e086019190915290505b611c6e600f856101000151600160009054906101000a90046001600160a01b03168760c00151886060015189608001518f7f0000000000000000000000000000000000000000000000000000000000000000613827565b60020b61010086015260c08501525b505050611989565b60a0810151600c80546001600160a01b0319166001600160a01b03909216919091179055600086611cd157610100820151600290810b6000908152600f6020526040902054900b611cd8565b8161010001515b600c54909150600282810b600160a01b909204900b14611d3f57600c805462ffffff60a01b1916600160a01b62ffffff84160217905560c0820151600080546301000000600160981b03191663010000006001600160801b03909316929092029190911790555b611d5687858a856101400151866101200151613a84565b611d698783606001518460400151613c59565b610120820151611d799089614434565b97508615611e5257611dad7f000000000000000000000000000000000000000000000000000000000000000089888861311b565b7f00000000000000000000000000000000000000000000000000000000000000006001600160a01b03167f00000000000000000000000000000000000000000000000000000000000000006001600160a01b0316876001600160a01b03167fcd3829a3813dc3cdd188fd3d01dcf3268c16be2fdd2dd21d0665418816e46062878c604051611e45929190918252602082015260400190565b60405180910390a4611f1f565b611e7e7f000000000000000000000000000000000000000000000000000000000000000089888861311b565b7f00000000000000000000000000000000000000000000000000000000000000006001600160a01b03167f00000000000000000000000000000000000000000000000000000000000000006001600160a01b0316876001600160a01b03167fcd3829a3813dc3cdd188fd3d01dcf3268c16be2fdd2dd21d0665418816e46062878c604051611f16929190918252602082015260400190565b60405180910390a45b50506001600d55509395945050505050565b7f00000000000000000000000000000000000000000000000000000000000000006001600160a01b031663432cb5d56040518163ffffffff1660e01b8152600401602060405180830381865afa158015611f8f573d6000803e3d6000fd5b505050506040513d601f19601f82011682018060405250810190611fb3919061444c565b600455565b600080600080600d5460021415611fe2576040516303cb96db60e21b815260040160405180910390fd5b6002600d556000611ff288612be0565b90506000611fff88612be0565b600c546000549192506001600160a01b03169061202b90630100000090046001600160801b0316612f13565b806001600160a01b0316836001600160a01b03161115801561205e5750816001600160a01b0316816001600160a01b0316105b1561209357600080546001600160801b03630100000080830482168c9003909116026301000000600160981b03199091161790555b6120c5836001600160a01b0316836001600160a01b0316836001600160a01b03168b6001600160801b0316600061325a565b6001600160801b0391821698508116965060016001607f1b03908916111561210057604051631a93c68960e11b815260040160405180910390fd5b612114338b8b61210f8c61451d565b612f98565b60098054898301600160801b8c86016001600160801b0380851682900381166001600160801b031990951685178390048116849003169091029092179092559297509095506121643383836132c9565b600c54600e546040516305462a2360e01b8152600f60048201526010602482015260028f810b60448301528e810b60648301526001600160801b038e166084830152600160a01b90930490920b60a483015260c482015273__$dc25dd3a5fe6a540f35c01c335c2ccfd23$__906305462a239060e4016040805180830381865af41580156121f6573d6000803e3d6000fd5b505050506040513d601f19601f8201168201806040525081019061221a9190614322565b600e55600c805462ffffff92909216600160a01b0262ffffff60a01b19909216919091179055604080518381526020810183905233917f49995e5dd6158cf69ad3e9777c46755a1a826a446c6416992167462dad033b2a910160405180910390a250505050506001600d8190555093509350935093565b600c54600283810b6000818152600f602052604080822086850b8352908220845460035493968796600160a01b909104900b9492939192909190869081908190819089126122ec578760010154935087600201549250612310565b60018801546122fb9087614366565b935087600201548561230d9190614366565b92505b8b60020b8960020b121561232f57505060018501546002860154612353565b600187015461233e9087614366565b91508660020154856123509190614366565b90505b8161235e8588614366565b6123689190614366565b9a50806123758487614366565b61237f9190614366565b99505050505050505050509250929050565b600080600d54600214156123b8576040516303cb96db60e21b815260040160405180910390fd5b6002600d556006546001101561242b5760016006546123d79190614366565b6001600655915061242b7f0000000000000000000000000000000000000000000000000000000000000000837f0000000000000000000000000000000000000000000000000000000000000000600061311b565b600160075411156124995760016007546124459190614366565b600160075590506124997f0000000000000000000000000000000000000000000000000000000000000000827f0000000000000000000000000000000000000000000000000000000000000000600061311b565b6001600d559091565b600080600d54600214156124c9576040516303cb96db60e21b815260040160405180910390fd5b6002600d5560085460016001600160801b0390911611156125a9576008546124fc906001906001600160801b0316614490565b600880546001600160801b031916600117905560098054919350839160009061252f9084906001600160801b0316614490565b92506101000a8154816001600160801b0302191690836001600160801b031602179055506125a97f0000000000000000000000000000000000000000000000000000000000000000836001600160801b03167f0000000000000000000000000000000000000000000000000000000000000000600061311b565b6008546001600160801b9091046001600160801b03161115612499576008546125e490600190600160801b90046001600160801b0316614490565b60088054600160801b6001600160801b0391821681179092556009805493945084939092601092612619928692900416614490565b92506101000a8154816001600160801b0302191690836001600160801b031602179055506124997f0000000000000000000000000000000000000000000000000000000000000000826001600160801b03167f0000000000000000000000000000000000000000000000000000000000000000600061311b565b336001600160a01b037f000000000000000000000000000000000000000000000000000000000000000016146126dc57604051635fc483c560e01b815260040160405180910390fd5b620186a062ffffff821611156127055760405163106660bb60e01b815260040160405180910390fd5b62ffffff811660058190556040519081527fa5f3ff54111cbdcbdb93a4e36e876aafb31fd489212274e2235561c1f77510dc90602001610b21565b604051633de222bb60e21b81526001600160a01b0382811660048301523060248301526000917f00000000000000000000000000000000000000000000000000000000000000009091169063f7888aec90604401602060405180830381865afa1580156127b1573d6000803e3d6000fd5b505050506040513d601f19601f820116820180604052508101906127d5919061444c565b92915050565b600c546001600160a01b0316612810576127f481613cd5565b600c80546001600160a01b0319166001600160a01b0383161790555b50565b604051633c6340f360e21b81526001600160a01b037f0000000000000000000000000000000000000000000000000000000000000000169063f18d03cc9061286590869030908790879060040161453b565b600060405180830381600087803b15801561287f57600080fd5b505af1158015610f98573d6000803e3d6000fd5b6128bd7f00000000000000000000000000000000000000000000000000000000000000008461457b565b60020b156128de576040516333a3bdff60e21b815260040160405180910390fd5b600282900b620d89e71914806129165750600282900b6000908152600f6020526040902054600160301b90046001600160801b031615155b806129335750600282900b60009081526010602052604090205415155b806129535750600282900b60009081526010602052604090206001015415155b6129845760405162461bcd60e51b8152602060048201526002602482015261453560f01b604482015260640161081a565b612991620d89e7196144fa565b60020b8160020b14806129c65750600281900b6000908152600f6020526040902054600160301b90046001600160801b031615155b806129e35750600281900b60009081526010602052604090205415155b80612a035750600281900b60009081526010602052604090206001015415155b612a345760405162461bcd60e51b8152602060048201526002602482015261229b60f11b604482015260640161081a565b8060020b8260020b128015612a4e57508160020b8360020b135b8015612a5f57508060020b8360020b125b6109215760405162461bcd60e51b815260206004820152600b60248201526a2bb937b7339027b93232b960a91b604482015260640161081a565b612ac37f00000000000000000000000000000000000000000000000000000000000000008361457b565b60020b15612ae4576040516333a3bdff60e21b815260040160405180910390fd5b6002612b107f00000000000000000000000000000000000000000000000000000000000000008461459d565b612b1a919061457b565b60020b15612b3b57604051637ef8a10160e11b815260040160405180910390fd5b612b657f00000000000000000000000000000000000000000000000000000000000000008261457b565b60020b15612b86576040516333a3bdff60e21b815260040160405180910390fd5b6002612bb27f00000000000000000000000000000000000000000000000000000000000000008361459d565b612bbc919061457b565b60020b612bdc5760405163a9778c6360e01b815260040160405180910390fd5b5050565b60008060008360020b12612bf7578260020b612c04565b8260020b612c04906145d7565b9050612c13620d89e7196144fa565b62ffffff16811115612c3857604051633e1f710360e21b815260040160405180910390fd5b600060018216612c4c57600160801b612c5e565b6ffffcb933bd6fad37aa2d162d1a5940015b70ffffffffffffffffffffffffffffffffff1690506002821615612c92576ffff97272373d413259a46990580e213a0260801c5b6004821615612cb1576ffff2e50f5f656932ef12357cf3c7fdcc0260801c5b6008821615612cd0576fffe5caca7e10e4e61c3624eaa0941cd00260801c5b6010821615612cef576fffcb9843d60f6159c9db58835c9266440260801c5b6020821615612d0e576fff973b41fa98c081472e6896dfb254c00260801c5b6040821615612d2d576fff2ea16466c96a3843ec78b326b528610260801c5b6080821615612d4c576ffe5dee046a99a2a811c461f1969c30530260801c5b610100821615612d6c576ffcbe86c7900a88aedcffc83b479aa3a40260801c5b610200821615612d8c576ff987a7253ac413176f2b074cf7815e540260801c5b610400821615612dac576ff3392b0822b70005940c7a398e4b70f30260801c5b610800821615612dcc576fe7159475a2c29b7443b29c7fa6e889d90260801c5b611000821615612dec576fd097f3bdfd2022b8845ad8f792aa58250260801c5b612000821615612e0c576fa9f746462d870fdf8a65dc1f90e061e50260801c5b614000821615612e2c576f70d869a156d2a1b890bb3df62baf32f70260801c5b618000821615612e4c576f31be135f97d08fd981231505542fcfa60260801c5b62010000821615612e6d576f09aa508b5b7a84e1c677de54f3e99bc90260801c5b62020000821615612e8d576e5d6af8dedb81196699c329225ee6040260801c5b62040000821615612eac576d2216e584f5fa1ea926041bedfe980260801c5b62080000821615612ec9576b048a170391f7dc42444e8fa20260801c5b60008460020b1315612eea578060001981612ee657612ee6614565565b0490505b640100000000810615612efe576001612f01565b60005b60ff16602082901c0192505050919050565b600154600160a01b900463ffffffff16428181039114801590612f365750600082115b15612bdc576001805463ffffffff60a01b1916600160a01b4263ffffffff160217905581608082901b81612f6c57612f6c614565565b600180546001600160a01b03198116939092046001600160a01b03928316019091169190911790555050565b6001600160a01b0384166000908152601160209081526040808320600287810b85529083528184209086900b8452909152812081908180612fd98888612291565b91509150613005836001015483612ff09190614366565b84546001600160801b0316600160801b613d2c565b945061301a836002015482612ff09190614366565b9350600086600f0b1215613071576130318661451d565b8354849060009061304c9084906001600160801b0316614490565b92506101000a8154816001600160801b0302191690836001600160801b031602179055505b600086600f0b13156131025782548690849060009061309a9084906001600160801b0316614465565b82546101009290920a6001600160801b0381810219909316918316021790915584547f000000000000000000000000000000000000000000000000000000000000000082169116111590506131025760405163581a12d760e11b815260040160405180910390fd5b6001830191909155600290910155909590945092505050565b80156131cf5760405163097da6d360e41b81526001600160a01b038581166004830152306024830152838116604483015260006064830152608482018590527f000000000000000000000000000000000000000000000000000000000000000016906397da6d309060a40160408051808303816000875af11580156131a4573d6000803e3d6000fd5b505050506040513d601f19601f820116820180604052508101906131c891906145f4565b5050613254565b604051633c6340f360e21b81526001600160a01b037f0000000000000000000000000000000000000000000000000000000000000000169063f18d03cc9061322190879030908790899060040161453b565b600060405180830381600087803b15801561323b57600080fd5b505af115801561324f573d6000803e3d6000fd5b505050505b50505050565b60008084861161327f5761327861327385898987613de0565b613e1c565b90506132bf565b86851161329c5761329561327385898987613e37565b91506132bf565b6132ab61327385878987613e37565b91506132bc61327385898887613de0565b90505b9550959350505050565b604051633c6340f360e21b81526001600160a01b037f0000000000000000000000000000000000000000000000000000000000000000169063f18d03cc9061333b907f00000000000000000000000000000000000000000000000000000000000000009030908890889060040161453b565b600060405180830381600087803b15801561335557600080fd5b505af1158015613369573d6000803e3d6000fd5b5050604051633c6340f360e21b81526001600160a01b037f000000000000000000000000000000000000000000000000000000000000000016925063f18d03cc9150612865907f00000000000000000000000000000000000000000000000000000000000000009030908890879060040161453b565b612810816040516024016133f591815260200190565b60408051601f198184030181529190526020810180516001600160e01b031663f5b1bba960e01b179052613e88565b600080600080600087156135515760006134498a60c00151898c60a001516000613e37565b9050808a60e001511161351157600060608b60c00151901b90506000613491828d60a001518e60e001518f60a001516134829190614618565b61348c9086614434565b613ea9565b9050808a111580156134a657508b60a0015181105b6134e4576134d8828d60e001518e60a00151856134c39190614637565b6134cd9190614434565b808204910615150190565b6001600160a01b031690505b6134f98c60c00151828e60a001516000613de0565b60a08d0191909152600060e08d0152925061354b9050565b6135268a60c00151898c60a001516000613de0565b60a08b0189905260e08b018051600199509193508291613547908390614366565b9052505b50613606565b60006135688a60c001518b60a001518a6000613de0565b9050808a60e00151116135ca57600061358e8b60e00151600160601b8d60c00151613d2c565b8b60a0015161359d9190614434565b90506135b48b60c001518c60a00151836000613e37565b60a08c0191909152600060e08c01529150613604565b6135df8a60c001518b60a001518a6000613e37565b60a08b0189905260e08b018051600199509193508291613600908390614366565b9052505b505b60a089015160e0909901519099959750955050505050565b60008060008060006136398d8d62ffffff16620f4240613ea9565b9050613645818a614434565b9850613651818e614366565b61365b9089614434565b9750600061366c828d612710613ea9565b90506136788189614434565b97506136848183614366565b915061369582600160801b8d613d2c565b61369f9088614434565b999e989d50969b5097995095975050505050505050565b6000806000806000808660600151156136eb5760208088015160020b6000908152601090915260409020600101549150613706565b60208088015160020b60009081526010909152604090205491505b8115613801576040805163c99f135560e01b81526010600482015288516024820152602089015160020b6044820152908801516064820152606088015115156084820152608088015160a482015260a088015160c482015260c0880151151560e482015273__$dc25dd3a5fe6a540f35c01c335c2ccfd23$__9063c99f13559061010401608060405180830381865af41580156137a7573d6000803e3d6000fd5b505050506040513d601f19601f820116820180604052508101906137cb919061464b565b809650819750829850839950505050506137f2876060015185600554600654600754613ee6565b6007556006559450905061381e565b866040015195508660a001519350866080015194508660c0015192505b50509193509193565b600287900b6000908152602089905260408120600301548190613853906001600160a01b03168961468c565b60028a900b600090815260208c90526040902060030180546001600160a01b0319166001600160a01b039290921691909117905583156139805760028360020b8a60020b816138a4576138a4614565565b0560020b816138b5576138b5614565565b0760020b6138ea57600289900b600090815260208b90526040902054600160301b90046001600160801b031690960395613914565b600289900b600090815260208b90526040902054600160301b90046001600160801b031696909601955b600289900b600090815260208b905260409020600101546139359086614366565b60028a810b600090815260208d9052604090206001810192909255015461395c9087614366565b6002998a0b600090815260208c905260409020808b01919091555490980b97613a76565b60028360020b8a60020b8161399757613997614565565b0560020b816139a8576139a8614565565b0760020b6139de57600289900b600090815260208b90526040902054600160301b90046001600160801b03169690960195613a07565b600289900b600090815260208b90526040902054600160301b90046001600160801b0316909603955b600289810b600090815260208c9052604090200154613a269086614366565b60028a810b600090815260208d9052604090209081019190915560010154613a4e9087614366565b6002998a0b600090815260208c9052604090206001810191909155546301000000900490980b975b509498969750505050505050565b8415613b6f576000613ab57f0000000000000000000000000000000000000000000000000000000000000000612740565b90506000613ac38487614490565b600954613ad991906001600160801b0316614465565b905081816001600160801b03161115613b055760405163420231d560e11b815260040160405180910390fd5b60098054600160801b6001600160801b038085166001600160801b0319909316831782900481168990031602179055600a8054859190600090613b49908490614434565b9250508190555082600b6000828254613b629190614366565b90915550613c5292505050565b6000613b9a7f0000000000000000000000000000000000000000000000000000000000000000612740565b90506000613ba88487614490565b600954613bc59190600160801b90046001600160801b0316614465565b905081816001600160801b03161115613bf157604051637218102160e11b815260040160405180910390fd5b600980546001600160801b03808416600160801b0280821692821692909217889003166001600160801b031991909116179055600a8054849190600090613c39908490614366565b9250508190555083600b6000828254610f929190614434565b5050505050565b8215613cb257600382905560088054829190601090613c89908490600160801b90046001600160801b0316614465565b92506101000a8154816001600160801b0302191690836001600160801b03160217905550505050565b600282905560088054829190600090613c899084906001600160801b0316614465565b6401000276a36001600160a01b0382161080613d0e575073fffd8963efd1fc6a506488495d951d5263988d266001600160a01b03821610155b1561281057604051636e4ba61d60e01b815260040160405180910390fd5b600080806000198587098587029250828110838203039150508060001415613d665760008411613d5b57600080fd5b508290049050613dd9565b808411613d7257600080fd5b6000848688096000868103871696879004966002600389028118808a02820302808a02820302808a02820302808a02820302808a02820302808a02909103029181900381900460010186841190950394909402919094039290920491909117919091029150505b9392505050565b60008115613e0057613df985858503600160601b613ea9565b9050613e14565b613e1185858503600160601b613d2c565b90505b949350505050565b806001600160801b0381168114613e3257600080fd5b919050565b60008115613e5f57613df9613e53606087901b86860386613ea9565b85808204910615150190565b83613e71606087901b86860386613d2c565b81613e7e57613e7e614565565b0495945050505050565b80516a636f6e736f6c652e6c6f67602083016000808483855afa5050505050565b6000613eb6848484613d2c565b90508180613ec657613ec6614565565b83850915613dd9576000198110613edc57600080fd5b6001019392505050565b6000806000806000613efc8989620f4240613ea9565b90506000613f0a828b614366565b90508a15613f2357613f1c8288614434565b9650613f30565b613f2d8289614434565b97505b909a90995095975093955050505050565b8060020b811461281057600080fd5b801515811461281057600080fd5b8035613e3281613f50565b600080600060608486031215613f7e57600080fd5b833592506020840135613f9081613f41565b91506040840135613fa081613f50565b809150509250925092565b600060208284031215613fbd57600080fd5b813562ffffff81168114613dd957600080fd5b60008060008060008060c08789031215613fe957600080fd5b8635613ff481613f41565b9550602087013561400481613f41565b9450604087013561401481613f41565b935060608701359250608087013561402b81613f50565b915060a087013561403b81613f50565b809150509295509295509295565b634e487b7160e01b600052604160045260246000fd5b80356001600160801b0381168114613e3257600080fd5b600060e0828403121561408857600080fd5b60405160e0810181811067ffffffffffffffff821117156140ab576140ab614049565b60405282356140b981613f41565b815260208301356140c981613f41565b602082015260408301356140dc81613f41565b604082015260608301356140ef81613f41565b60608201526141006080840161405f565b608082015261411160a0840161405f565b60a082015261412260c08401613f5e565b60c08201529392505050565b60006020828403121561414057600080fd5b8135613dd981613f41565b6000806040838503121561415e57600080fd5b823561416981613f41565b9150602083013561417981613f41565b809150509250929050565b60006020828403121561419657600080fd5b813567ffffffffffffffff808211156141ae57600080fd5b818401915084601f8301126141c257600080fd5b8135818111156141d4576141d4614049565b604051601f8201601f19908116603f011681019083821181831017156141fc576141fc614049565b8160405282815287602084870101111561421557600080fd5b826020860160208301376000928101602001929092525095945050505050565b60008060006060848603121561424a57600080fd5b833561425581613f41565b9250602084013561426581613f41565b91506142736040850161405f565b90509250925092565b6001600160a01b038116811461281057600080fd5b6000806000606084860312156142a657600080fd5b83356142b18161427c565b925060208401356142c181613f41565b91506040840135613fa081613f41565b6000602082840312156142e357600080fd5b8135613dd98161427c565b9687526020870195909552600293840b604087015291151560608601526080850152900b60a083015260c082015260e00190565b6000806040838503121561433557600080fd5b825161434081613f41565b6020939093015192949293505050565b634e487b7160e01b600052601160045260246000fd5b60008282101561437857614378614350565b500390565b600061014082019050848252836020830152825160020b6040830152602083015160020b6060830152604083015160020b608083015260608301516143c660a084018215159052565b50608083015160c083015260a08301516001600160a01b03811660e08401525060c08301516143fb61010084018260020b9052565b5060e0830151610120830152949350505050565b6000806040838503121561442257600080fd5b82519150602083015161417981613f41565b6000821982111561444757614447614350565b500190565b60006020828403121561445e57600080fd5b5051919050565b60006001600160801b0380831681851680830382111561448757614487614350565b01949350505050565b60006001600160801b03838116908316818110156144b0576144b0614350565b039392505050565b6000806000606084860312156144cd57600080fd5b83516144d881613f50565b60208501519093506144e98161427c565b6040850151909250613fa081613f50565b60008160020b627fffff1981141561451457614514614350565b60000392915050565b600081600f0b60016001607f1b031981141561451457614514614350565b6001600160a01b039485168152928416602084015292166040820152606081019190915260800190565b634e487b7160e01b600052601260045260246000fd5b60008260020b8061458e5761458e614565565b808360020b0791505092915050565b60008160020b8360020b806145b4576145b4614565565b627fffff198214600019821416156145ce576145ce614350565b90059392505050565b6000600160ff1b8214156145ed576145ed614350565b5060000390565b6000806040838503121561460757600080fd5b505080516020909101519092909150565b600081600019048311821515161561463257614632614350565b500290565b60008261464657614646614565565b500490565b6000806000806080858703121561466157600080fd5b845193506020850151925060408501519150606085015161468181613f50565b939692955090935050565b60006001600160a01b03838116908316818110156144b0576144b061435056fea2646970667358221220aca0365dc1707c6d8415416111f93160aa7b3b67246753db6c57e5e764fce53564736f6c634300080a0033",
  "linkReferences": {
    "contracts/libraries/DyDxMath.sol": {
      "DyDxMath": [
        {
          "length": 20,
          "start": 6833
        }
      ]
    },
    "contracts/libraries/Ticks.sol": {
      "Ticks": [
        {
          "length": 20,
          "start": 814
        },
        {
          "length": 20,
          "start": 4742
        },
        {
          "length": 20,
          "start": 5074
        },
        {
          "length": 20,
          "start": 5597
        },
        {
          "length": 20,
          "start": 5755
        },
        {
          "length": 20,
          "start": 5994
        },
        {
          "length": 20,
          "start": 6322
        },
        {
          "length": 20,
          "start": 7376
        },
        {
          "length": 20,
          "start": 11275
        },
        {
          "length": 20,
          "start": 16826
        }
      ]
    }
  },
  "deployedLinkReferences": {
    "contracts/libraries/DyDxMath.sol": {
      "DyDxMath": [
        {
          "length": 20,
          "start": 4195
        }
      ]
    },
    "contracts/libraries/Ticks.sol": {
      "Ticks": [
        {
          "length": 20,
          "start": 2104
        },
        {
          "length": 20,
          "start": 2436
        },
        {
          "length": 20,
          "start": 2959
        },
        {
          "length": 20,
          "start": 3117
        },
        {
          "length": 20,
          "start": 3356
        },
        {
          "length": 20,
          "start": 3684
        },
        {
          "length": 20,
          "start": 4738
        },
        {
          "length": 20,
          "start": 8637
        },
        {
          "length": 20,
          "start": 14188
        }
      ]
    }
  }
}