{
  "_format": "hh-sol-artifact-1",
  "contractName": "ConcentratedLiquidityPool",
  "sourceName": "contracts/pool/concentrated/ConcentratedLiquidityPool.sol",
  "abi": [
    {
      "inputs": [
        {
          "internalType": "bytes",
          "name": "_deployData",
          "type": "bytes"
        },
        {
          "internalType": "contract IMasterDeployer",
          "name": "_masterDeployer",
          "type": "address"
        }
      ],
      "stateMutability": "nonpayable",
      "type": "constructor"
    },
    {
      "inputs": [],
      "name": "InvalidSwapFee",
      "type": "error"
    },
    {
      "inputs": [],
      "name": "InvalidTick",
      "type": "error"
    },
    {
      "inputs": [],
      "name": "InvalidToken",
      "type": "error"
    },
    {
      "inputs": [],
      "name": "LiquidityOverflow",
      "type": "error"
    },
    {
      "inputs": [],
      "name": "Locked",
      "type": "error"
    },
    {
      "inputs": [],
      "name": "LowerEven",
      "type": "error"
    },
    {
      "inputs": [],
      "name": "MaxTickLiquidity",
      "type": "error"
    },
    {
      "inputs": [],
      "name": "OnlyOwner",
      "type": "error"
    },
    {
      "inputs": [],
      "name": "Overflow",
      "type": "error"
    },
    {
      "inputs": [],
      "name": "PriceOutOfBounds",
      "type": "error"
    },
    {
      "inputs": [],
      "name": "TickOutOfBounds",
      "type": "error"
    },
    {
      "inputs": [],
      "name": "Token0Missing",
      "type": "error"
    },
    {
      "inputs": [],
      "name": "Token1Missing",
      "type": "error"
    },
    {
      "inputs": [],
      "name": "UpperOdd",
      "type": "error"
    },
    {
      "inputs": [],
      "name": "ZeroAddress",
      "type": "error"
    },
    {
      "anonymous": false,
      "inputs": [
        {
          "indexed": true,
          "internalType": "address",
          "name": "owner",
          "type": "address"
        },
        {
          "indexed": false,
          "internalType": "uint256",
          "name": "amount0",
          "type": "uint256"
        },
        {
          "indexed": false,
          "internalType": "uint256",
          "name": "amount1",
          "type": "uint256"
        }
      ],
      "name": "Burn",
      "type": "event"
    },
    {
      "anonymous": false,
      "inputs": [
        {
          "indexed": true,
          "internalType": "address",
          "name": "sender",
          "type": "address"
        },
        {
          "indexed": false,
          "internalType": "uint256",
          "name": "amount0",
          "type": "uint256"
        },
        {
          "indexed": false,
          "internalType": "uint256",
          "name": "amount1",
          "type": "uint256"
        }
      ],
      "name": "Collect",
      "type": "event"
    },
    {
      "anonymous": false,
      "inputs": [
        {
          "indexed": true,
          "internalType": "address",
          "name": "owner",
          "type": "address"
        },
        {
          "indexed": false,
          "internalType": "uint256",
          "name": "amount0",
          "type": "uint256"
        },
        {
          "indexed": false,
          "internalType": "uint256",
          "name": "amount1",
          "type": "uint256"
        }
      ],
      "name": "Mint",
      "type": "event"
    },
    {
      "anonymous": false,
      "inputs": [
        {
          "indexed": true,
          "internalType": "address",
          "name": "recipient",
          "type": "address"
        },
        {
          "indexed": true,
          "internalType": "address",
          "name": "tokenIn",
          "type": "address"
        },
        {
          "indexed": true,
          "internalType": "address",
          "name": "tokenOut",
          "type": "address"
        },
        {
          "indexed": false,
          "internalType": "uint256",
          "name": "amountIn",
          "type": "uint256"
        },
        {
          "indexed": false,
          "internalType": "uint256",
          "name": "amountOut",
          "type": "uint256"
        }
      ],
      "name": "Swap",
      "type": "event"
    },
    {
      "anonymous": false,
      "inputs": [
        {
          "indexed": false,
          "internalType": "uint256",
          "name": "newSwapFee",
          "type": "uint256"
        }
      ],
      "name": "SwapFeeUpdated",
      "type": "event"
    },
    {
      "inputs": [],
      "name": "barFee",
      "outputs": [
        {
          "internalType": "uint256",
          "name": "",
          "type": "uint256"
        }
      ],
      "stateMutability": "view",
      "type": "function"
    },
    {
      "inputs": [
        {
          "internalType": "int24",
          "name": "lower",
          "type": "int24"
        },
        {
          "internalType": "int24",
          "name": "upper",
          "type": "int24"
        },
        {
          "internalType": "uint128",
          "name": "amount",
          "type": "uint128"
        }
      ],
      "name": "burn",
      "outputs": [
        {
          "internalType": "uint256",
          "name": "token0Amount",
          "type": "uint256"
        },
        {
          "internalType": "uint256",
          "name": "token1Amount",
          "type": "uint256"
        },
        {
          "internalType": "uint256",
          "name": "token0Fees",
          "type": "uint256"
        },
        {
          "internalType": "uint256",
          "name": "token1Fees",
          "type": "uint256"
        }
      ],
      "stateMutability": "nonpayable",
      "type": "function"
    },
    {
      "inputs": [
        {
          "internalType": "uint256",
          "name": "amount",
          "type": "uint256"
        },
        {
          "internalType": "int24",
          "name": "tick",
          "type": "int24"
        },
        {
          "internalType": "bool",
          "name": "zeroForOne",
          "type": "bool"
        }
      ],
      "name": "cancelLimitOrder",
      "outputs": [],
      "stateMutability": "nonpayable",
      "type": "function"
    },
    {
      "inputs": [
        {
          "internalType": "uint256",
          "name": "amount",
          "type": "uint256"
        },
        {
          "internalType": "int24",
          "name": "tick",
          "type": "int24"
        },
        {
          "internalType": "bool",
          "name": "zeroForOne",
          "type": "bool"
        }
      ],
      "name": "claimLimitOrder",
      "outputs": [],
      "stateMutability": "nonpayable",
      "type": "function"
    },
    {
      "inputs": [
        {
          "internalType": "int24",
          "name": "lower",
          "type": "int24"
        },
        {
          "internalType": "int24",
          "name": "upper",
          "type": "int24"
        }
      ],
      "name": "collect",
      "outputs": [
        {
          "internalType": "uint256",
          "name": "amount0fees",
          "type": "uint256"
        },
        {
          "internalType": "uint256",
          "name": "amount1fees",
          "type": "uint256"
        }
      ],
      "stateMutability": "nonpayable",
      "type": "function"
    },
    {
      "inputs": [],
      "name": "collectProtocolFee",
      "outputs": [
        {
          "internalType": "uint128",
          "name": "amount0",
          "type": "uint128"
        },
        {
          "internalType": "uint128",
          "name": "amount1",
          "type": "uint128"
        }
      ],
      "stateMutability": "nonpayable",
      "type": "function"
    },
    {
      "inputs": [
        {
          "internalType": "int24",
          "name": "tick",
          "type": "int24"
        },
        {
          "internalType": "uint256",
          "name": "amountIn",
          "type": "uint256"
        },
        {
          "internalType": "bool",
          "name": "native",
          "type": "bool"
        },
        {
          "internalType": "bool",
          "name": "zeroForOne",
          "type": "bool"
        }
      ],
      "name": "createLimitOrder",
      "outputs": [],
      "stateMutability": "nonpayable",
      "type": "function"
    },
    {
      "inputs": [],
      "name": "feeGrowthGlobal0",
      "outputs": [
        {
          "internalType": "uint256",
          "name": "",
          "type": "uint256"
        }
      ],
      "stateMutability": "view",
      "type": "function"
    },
    {
      "inputs": [],
      "name": "feeGrowthGlobal1",
      "outputs": [
        {
          "internalType": "uint256",
          "name": "",
          "type": "uint256"
        }
      ],
      "stateMutability": "view",
      "type": "function"
    },
    {
      "inputs": [],
      "name": "getAssets",
      "outputs": [
        {
          "internalType": "address[]",
          "name": "assets",
          "type": "address[]"
        }
      ],
      "stateMutability": "view",
      "type": "function"
    },
    {
      "inputs": [],
      "name": "getImmutables",
      "outputs": [
        {
          "internalType": "uint128",
          "name": "_MAX_TICK_LIQUIDITY",
          "type": "uint128"
        },
        {
          "internalType": "uint24",
          "name": "_tickSpacing",
          "type": "uint24"
        },
        {
          "internalType": "uint24",
          "name": "_swapFee",
          "type": "uint24"
        },
        {
          "internalType": "address",
          "name": "_barFeeTo",
          "type": "address"
        },
        {
          "internalType": "contract IVaultMinimal",
          "name": "_vault",
          "type": "address"
        },
        {
          "internalType": "contract IMasterDeployer",
          "name": "_masterDeployer",
          "type": "address"
        },
        {
          "internalType": "address",
          "name": "_token0",
          "type": "address"
        },
        {
          "internalType": "address",
          "name": "_token1",
          "type": "address"
        }
      ],
      "stateMutability": "view",
      "type": "function"
    },
    {
      "inputs": [],
      "name": "getPriceAndNearestTicks",
      "outputs": [
        {
          "internalType": "uint160",
          "name": "_price",
          "type": "uint160"
        },
        {
          "internalType": "int24",
          "name": "_nearestTick",
          "type": "int24"
        }
      ],
      "stateMutability": "view",
      "type": "function"
    },
    {
      "inputs": [],
      "name": "getReserves",
      "outputs": [
        {
          "internalType": "uint128",
          "name": "_reserve0",
          "type": "uint128"
        },
        {
          "internalType": "uint128",
          "name": "_reserve1",
          "type": "uint128"
        }
      ],
      "stateMutability": "view",
      "type": "function"
    },
    {
      "inputs": [],
      "name": "getSecondsGrowthAndLastObservation",
      "outputs": [
        {
          "internalType": "uint160",
          "name": "_secondsGrowthGlobal",
          "type": "uint160"
        },
        {
          "internalType": "uint32",
          "name": "_lastObservation",
          "type": "uint32"
        }
      ],
      "stateMutability": "view",
      "type": "function"
    },
    {
      "inputs": [],
      "name": "getTokenProtocolFees",
      "outputs": [
        {
          "internalType": "uint128",
          "name": "_token0ProtocolFee",
          "type": "uint128"
        },
        {
          "internalType": "uint128",
          "name": "_token1ProtocolFee",
          "type": "uint128"
        }
      ],
      "stateMutability": "view",
      "type": "function"
    },
    {
      "inputs": [
        {
          "internalType": "int24",
          "name": "",
          "type": "int24"
        }
      ],
      "name": "limitOrderTicks",
      "outputs": [
        {
          "internalType": "uint256",
          "name": "token0Liquidity",
          "type": "uint256"
        },
        {
          "internalType": "uint256",
          "name": "token1Liquidity",
          "type": "uint256"
        },
        {
          "internalType": "uint256",
          "name": "token0Claimable",
          "type": "uint256"
        },
        {
          "internalType": "uint256",
          "name": "token1Claimable",
          "type": "uint256"
        }
      ],
      "stateMutability": "view",
      "type": "function"
    },
    {
      "inputs": [],
      "name": "liquidity",
      "outputs": [
        {
          "internalType": "uint128",
          "name": "",
          "type": "uint128"
        }
      ],
      "stateMutability": "view",
      "type": "function"
    },
    {
      "inputs": [
        {
          "components": [
            {
              "internalType": "int24",
              "name": "lowerOld",
              "type": "int24"
            },
            {
              "internalType": "int24",
              "name": "lower",
              "type": "int24"
            },
            {
              "internalType": "int24",
              "name": "upperOld",
              "type": "int24"
            },
            {
              "internalType": "int24",
              "name": "upper",
              "type": "int24"
            },
            {
              "internalType": "uint128",
              "name": "amount0Desired",
              "type": "uint128"
            },
            {
              "internalType": "uint128",
              "name": "amount1Desired",
              "type": "uint128"
            },
            {
              "internalType": "bool",
              "name": "native",
              "type": "bool"
            }
          ],
          "internalType": "struct IConcentratedLiquidityPoolStruct.MintParams",
          "name": "mintParams",
          "type": "tuple"
        }
      ],
      "name": "mint",
      "outputs": [
        {
          "internalType": "uint256",
          "name": "liquidityMinted",
          "type": "uint256"
        }
      ],
      "stateMutability": "nonpayable",
      "type": "function"
    },
    {
      "inputs": [],
      "name": "nearestTick",
      "outputs": [
        {
          "internalType": "int24",
          "name": "",
          "type": "int24"
        }
      ],
      "stateMutability": "view",
      "type": "function"
    },
    {
      "inputs": [],
      "name": "owner",
      "outputs": [
        {
          "internalType": "address",
          "name": "",
          "type": "address"
        }
      ],
      "stateMutability": "view",
      "type": "function"
    },
    {
      "inputs": [
        {
          "internalType": "address",
          "name": "",
          "type": "address"
        },
        {
          "internalType": "int24",
          "name": "",
          "type": "int24"
        },
        {
          "internalType": "int24",
          "name": "",
          "type": "int24"
        }
      ],
      "name": "positions",
      "outputs": [
        {
          "internalType": "uint128",
          "name": "liquidity",
          "type": "uint128"
        },
        {
          "internalType": "uint256",
          "name": "feeGrowthInside0Last",
          "type": "uint256"
        },
        {
          "internalType": "uint256",
          "name": "feeGrowthInside1Last",
          "type": "uint256"
        }
      ],
      "stateMutability": "view",
      "type": "function"
    },
    {
      "inputs": [
        {
          "internalType": "int24",
          "name": "lowerTick",
          "type": "int24"
        },
        {
          "internalType": "int24",
          "name": "upperTick",
          "type": "int24"
        }
      ],
      "name": "rangeFeeGrowth",
      "outputs": [
        {
          "internalType": "uint256",
          "name": "feeGrowthInside0",
          "type": "uint256"
        },
        {
          "internalType": "uint256",
          "name": "feeGrowthInside1",
          "type": "uint256"
        }
      ],
      "stateMutability": "view",
      "type": "function"
    },
    {
      "inputs": [
        {
          "internalType": "uint160",
          "name": "_price",
          "type": "uint160"
        }
      ],
      "name": "setPrice",
      "outputs": [],
      "stateMutability": "nonpayable",
      "type": "function"
    },
    {
      "inputs": [
        {
          "internalType": "bytes",
          "name": "data",
          "type": "bytes"
        }
      ],
      "name": "swap",
      "outputs": [
        {
          "internalType": "uint256",
          "name": "amountOut",
          "type": "uint256"
        }
      ],
      "stateMutability": "nonpayable",
      "type": "function"
    },
    {
      "inputs": [],
      "name": "tickCount",
      "outputs": [
        {
          "internalType": "uint256",
          "name": "",
          "type": "uint256"
        }
      ],
      "stateMutability": "view",
      "type": "function"
    },
    {
      "inputs": [
        {
          "internalType": "int24",
          "name": "",
          "type": "int24"
        }
      ],
      "name": "ticks",
      "outputs": [
        {
          "internalType": "int24",
          "name": "previousTick",
          "type": "int24"
        },
        {
          "internalType": "int24",
          "name": "nextTick",
          "type": "int24"
        },
        {
          "internalType": "uint128",
          "name": "liquidity",
          "type": "uint128"
        },
        {
          "internalType": "uint256",
          "name": "feeGrowthOutside0",
          "type": "uint256"
        },
        {
          "internalType": "uint256",
          "name": "feeGrowthOutside1",
          "type": "uint256"
        },
        {
          "internalType": "uint160",
          "name": "secondsGrowthOutside",
          "type": "uint160"
        }
      ],
      "stateMutability": "view",
      "type": "function"
    },
    {
      "inputs": [],
      "name": "updateBarFee",
      "outputs": [],
      "stateMutability": "nonpayable",
      "type": "function"
    },
    {
      "inputs": [
        {
          "internalType": "uint24",
          "name": "_swapFee",
          "type": "uint24"
        }
      ],
      "name": "updateSwapFee",
      "outputs": [],
      "stateMutability": "nonpayable",
      "type": "function"
    }
  ],
  "bytecode": "0x6101806040523480156200001257600080fd5b50604051620047bf380380620047bf83398101604081905262000035916200063a565b600080600080858060200190518101906200005191906200073f565b929650909450925090506001600160a01b038416620000835760405163d92e233d60e01b815260040160405180910390fd5b6001600160a01b038416301415620000ae5760405163c1ab6dc160e01b815260040160405180910390fd5b6001600160a01b038316301415620000d95760405163c1ab6dc160e01b815260040160405180910390fd5b620186a062ffffff83161115620001035760405163da7459b760e01b815260040160405180910390fd5b6001600160a01b0384811661012052838116610140526000805462ffffff191662ffffff8581169190911790915582166080526040805163fbfa77cf60e01b815290519187169163fbfa77cf916004808201926020929091908290030181865afa15801562000176573d6000803e3d6000fd5b505050506040513d601f19601f820116820180604052508101906200019c9190620007a1565b6001600160a01b031660e0816001600160a01b031681525050846001600160a01b0316630c0a0cd26040518163ffffffff1660e01b8152600401602060405180830381865afa158015620001f4573d6000803e3d6000fd5b505050506040513d601f19601f820116820180604052508101906200021a9190620007a1565b6001600160a01b031660c0816001600160a01b031681525050846001600160a01b031663c14ad8026040518163ffffffff1660e01b8152600401602060405180830381865afa15801562000272573d6000803e3d6000fd5b505050506040513d601f19601f82011682018060405250810190620002989190620007c8565b60049081556001600160a01b03861661010052604051636e23d2e160e11b815262ffffff83169181019190915273__$dc25dd3a5fe6a540f35c01c335c2ccfd23$__9063dc47a5c290602401602060405180830381865af415801562000302573d6000803e3d6000fd5b505050506040513d601f19601f82011682018060405250810190620003289190620007e2565b6001600160801b031660a0526040805160c08101909152620d89e719808252602082019062000357906200080d565b60020b815260006020808301829052604080840183905260608085018490526080948501849052620d89e71993849052600a835285517f350e0213652c9ffb9a8825df68042bb49465137ab5fec9eaee8c8dfd9e727549805488860151898601516001600160801b0316660100000000000002600160301b600160b01b031962ffffff92831663010000000265ffffffffffff19909416929095169190911791909117929092169190911790558501517f350e0213652c9ffb9a8825df68042bb49465137ab5fec9eaee8c8dfd9e72754a55928401517f350e0213652c9ffb9a8825df68042bb49465137ab5fec9eaee8c8dfd9e72754b5560a0909301517f350e0213652c9ffb9a8825df68042bb49465137ab5fec9eaee8c8dfd9e72754c80546001600160a01b03929092166001600160a01b0319909216919091179055815160c081019092528082529091820190620004b2906200080d565b60020b815260200160006001600160801b03168152602001600081526020016000815260200160006001600160a01b0316815250600a6000620d89e719620004fa906200080d565b600290810b8252602080830193909352604091820160002084518154948601519386015162ffffff91821665ffffffffffff19909616959095176301000000919094160292909217600160301b600160b01b03191666010000000000006001600160801b0390941693909302929092178155606083015160018083019190915560808401518284015560a090930151600390910180546001600160a01b0319166001600160a01b039092169190911790556007805462ffffff60a01b1916621e4ec360a31b1790556008829055815463ffffffff60a01b1916600160a01b4263ffffffff1602179091553361016052600955506200083f945050505050565b634e487b7160e01b600052604160045260246000fd5b6001600160a01b03811681146200062557600080fd5b50565b805162000635816200060f565b919050565b600080604083850312156200064e57600080fd5b82516001600160401b03808211156200066657600080fd5b818501915085601f8301126200067b57600080fd5b815181811115620006905762000690620005f9565b604051601f8201601f19908116603f01168101908382118183101715620006bb57620006bb620005f9565b81604052828152602093508884848701011115620006d857600080fd5b600091505b82821015620006fc5784820184015181830185015290830190620006dd565b828211156200070e5760008484830101525b95506200072091505085820162000628565b925050509250929050565b805162ffffff811681146200063557600080fd5b600080600080608085870312156200075657600080fd5b845162000763816200060f565b602086015190945062000776816200060f565b925062000786604086016200072b565b915062000796606086016200072b565b905092959194509250565b600060208284031215620007b457600080fd5b8151620007c1816200060f565b9392505050565b600060208284031215620007db57600080fd5b5051919050565b600060208284031215620007f557600080fd5b81516001600160801b0381168114620007c157600080fd5b60008160020b627fffff198114156200083657634e487b7160e01b600052601160045260246000fd5b60000392915050565b60805160a05160c05160e05161010051610120516101405161016051613ded620009d2600039600081816103a601526107f00152600081816105c60152818161074201528181610c0001528181610ebb01528181611044015281816112130152818161145e01528181611b4d01528181611b7601528181611c7101528181611d6d015281816123f801528181612f83015261355301526000818161059e015281816107bf01528181610ba101528181610e9301528181610f990152818161115d0152818161148401528181611ba001528181611c1e01528181611c4701528181611d190152818161230e01528181612ed5015261349c0152600081816105760152611dc401526000818161054e015281816124cb01528181612c9201528181612d3901528181612e4b01528181612f120152612fc00152600081816105260152818161233901526124230152600081816104c70152612bc20152600081816104ef015281816118d001528181611a19015281816125320152818161257f015281816125ed015261263a0152613ded6000f3fe608060405234801561001057600080fd5b50600436106101c45760003560e01c806392bc3219116100f9578063bcdb4dad11610097578063cf78756b11610071578063cf78756b14610605578063d90bda4e1461060e578063f30dba9314610621578063fb5d80b3146106cc57600080fd5b8063bcdb4dad146104b6578063c14ad802146105f4578063caa4b46a146105fd57600080fd5b8063a34123a7116100d3578063a34123a714610418578063aaca1b4d1461042b578063acfe88f81461049a578063b9ffc934146104ad57600080fd5b806392bc3219146103e05780639da12096146103e8578063a00e8f29146103f157600080fd5b80635ce5539b1161016657806367e4ac2c1161014057806367e4ac2c146103375780636d59d8021461034c5780638c347f9b146103785780638da5cb5b146103a157600080fd5b80635ce5539b146102e9578063600b5b58146102fc578063627dd56a1461032457600080fd5b8063096f7290116101a2578063096f72901461022e5780631a686502146102415780634d7b7ed1146102735780635034c7901461029457600080fd5b80630328e801146101c957806308ba9b65146101de5780630902f1ac146101f1575b600080fd5b6101dc6101d736600461373a565b6106e8565b005b6101dc6101ec36600461377c565b6107e5565b6006546001600160801b0380821691600160801b9004165b604080516001600160801b039384168152929091166020830152015b60405180910390f35b6101dc61023c36600461373a565b6108d5565b60005461025b90630100000090046001600160801b031681565b6040516001600160801b039091168152602001610225565b6102866102813660046137ce565b6109f2565b604051908152602001610225565b6102c96102a2366004613886565b600b6020526000908152604090208054600182015460028301546003909301549192909184565b604080519485526020850193909352918301526060820152608001610225565b6101dc6102f73660046138a3565b6110f0565b61030f61030a3660046138f6565b6112b6565b60408051928352602083019190915201610225565b61028661033236600461392f565b6113d2565b61033f611cf7565b60405161022591906139e0565b600154604080516001600160a01b0383168152600160a01b90920463ffffffff16602083015201610225565b600754604080516001600160a01b0383168152600160a01b90920460020b602083015201610225565b6103c87f000000000000000000000000000000000000000000000000000000000000000081565b6040516001600160a01b039091168152602001610225565b6101dc611dc2565b61028660025481565b60075461040590600160a01b900460020b81565b60405160029190910b8152602001610225565b6102c9610426366004613a2d565b611e49565b610475610439366004613a89565b600c6020908152600093845260408085208252928452828420905282529020805460018201546002909201546001600160801b03909116919083565b604080516001600160801b039094168452602084019290925290820152606001610225565b61030f6104a83660046138f6565b61214f565b61028660095481565b600054604080516001600160801b037f000000000000000000000000000000000000000000000000000000000000000016815262ffffff7f000000000000000000000000000000000000000000000000000000000000000081166020830152909216908201526001600160a01b037f0000000000000000000000000000000000000000000000000000000000000000811660608301527f0000000000000000000000000000000000000000000000000000000000000000811660808301527f0000000000000000000000000000000000000000000000000000000000000000811660a08301527f0000000000000000000000000000000000000000000000000000000000000000811660c08301527f00000000000000000000000000000000000000000000000000000000000000001660e082015261010001610225565b61028660045481565b61020961224f565b61028660035481565b6101dc61061c366004613ac9565b612452565b61068161062f366004613886565b600a6020526000908152604090208054600182015460028084015460039094015483820b946301000000850490920b93660100000000000090046001600160801b03169291906001600160a01b031686565b60408051600297880b81529590960b60208601526001600160801b0390931694840194909452606083015260808201929092526001600160a01b0390911660a082015260c001610225565b6005546001600160801b0380821691600160801b900416610209565b801561076d57600282900b6000908152600b602052604090206003015483111561071157600080fd5b600282900b6000908152600b602052604081206003018054859290610737908490613afc565b9091555061076890507f00000000000000000000000000000000000000000000000000000000000000003385612497565b505050565b600282810b6000908152600b60205260409020015483111561078e57600080fd5b600282810b6000908152600b6020526040812090910180548592906107b4908490613afc565b9091555061076890507f00000000000000000000000000000000000000000000000000000000000000003385612497565b336001600160a01b037f00000000000000000000000000000000000000000000000000000000000000001614610847576040517f5fc483c500000000000000000000000000000000000000000000000000000000815260040160405180910390fd5b620186a062ffffff82161115610889576040517fda7459b700000000000000000000000000000000000000000000000000000000815260040160405180910390fd5b6000805462ffffff191662ffffff83169081179091556040519081527f382455f3b749abde7721258dcfa10a22f30d4a28c69151a002dcbd8d1462e4f29060200160405180910390a150565b801561096657600282900b6000908152600b60205260409020548311156109435760405162461bcd60e51b815260206004820152600f60248201527f46756e64204c697175696461746564000000000000000000000000000000000060448201526064015b60405180910390fd5b600282900b6000908152600b6020526040812080548592906107b4908490613afc565b600282900b6000908152600b60205260409020600101548311156109cc5760405162461bcd60e51b815260206004820152600f60248201527f46756e64204c6971756964617465640000000000000000000000000000000000604482015260640161093a565b600282900b6000908152600b602052604081206001018054859290610737908490613afc565b600060085460021415610a18576040516303cb96db60e21b815260040160405180910390fd5b600260085560208201516060830151610a31919061252d565b6000610a4083602001516126a6565b6001600160a01b031690506000610a5a84606001516126a6565b60075460a086015160808701516040517faec6cbfe000000000000000000000000000000000000000000000000000000008152600481018790526001600160a01b039485166024820181905294909316604484018190526001600160801b0392831660648501529116608483015291925073__$357eccfa53a4e88c122661903e0e603301$__9063aec6cbfe9060a401602060405180830381865af4158015610b07573d6000803e3d6000fd5b505050506040513d601f19601f82011682018060405250810190610b2b9190613b13565b93506f7fffffffffffffffffffffffffffffff841115610b5e57604051631a93c68960e11b815260040160405180910390fd5b600054610b7a90630100000090046001600160801b03166129f2565b600080610b91338860200151896060015189612a9c565b90925090508115610bf557610bc97f000000000000000000000000000000000000000000000000000000000000000083336000612c38565b600680546001600160801b03808216859003166fffffffffffffffffffffffffffffffff199091161790555b8015610c4a57610c287f000000000000000000000000000000000000000000000000000000000000000082336000612c38565b600680546001600160801b03600160801b808304821685900382160291161790555b828511158015610c5957508383105b15610c9657600080546001600160801b03630100000080830482168a019091160272ffffffffffffffffffffffffffffffff000000199091161790555b50506040805160608101825260008082526020820181905291810191909152600760149054906101000a900460020b816000019060020b908160020b815250508181602001906001600160a01b031690816001600160a01b03168152505060095481604001818152505073__$dc25dd3a5fe6a540f35c01c335c2ccfd23$__635281eb83600a600254600354600160009054906101000a90046001600160a01b03168b600001518c602001518d604001518e606001518e8b6040518b63ffffffff1660e01b8152600401610de89a99989796959493929190998a526020808b01999099526040808b01989098526001600160a01b0396871660608b0152600295860b60808b015293850b60a08a015291840b60c0890152830b60e08801526001600160801b0316610100870152805190910b610120860152928301511661014084015201516101608201526101800190565b6040805180830381865af4158015610e04573d6000803e3d6000fd5b505050506040513d601f19601f82011682018060405250810190610e289190613b2c565b6009556007805462ffffff909216600160a01b0262ffffff60a01b19909216919091179055600080610e5e8686868a6001612d9b565b60c08a01516040517fa7c1d4480000000000000000000000000000000000000000000000000000000081526001600160a01b037f0000000000000000000000000000000000000000000000000000000000000000811660048301527f00000000000000000000000000000000000000000000000000000000000000001660248201526001600160801b0380851660448301528316606482015290151560848201529193509150339063a7c1d4489060a401600060405180830381600087803b158015610f2957600080fd5b505af1158015610f3d573d6000803e3d6000fd5b50505050816001600160801b0316600014610fe85760068054839190600090610f709084906001600160801b0316613b5a565b92506101000a8154816001600160801b0302191690836001600160801b03160217905550610fbd7f0000000000000000000000000000000000000000000000000000000000000000612e0a565b6006546001600160801b03161115610fe85760405163420231d560e11b815260040160405180910390fd5b6001600160801b0381161561109a5780600660108282829054906101000a90046001600160801b031661101b9190613b5a565b92506101000a8154816001600160801b0302191690836001600160801b031602179055506110687f0000000000000000000000000000000000000000000000000000000000000000612e0a565b600654600160801b90046001600160801b0316111561109a57604051637218102160e11b815260040160405180910390fd5b604080516001600160801b0380851682528316602082015233917f4c209b5fc8ad50758f13e2e1088ba56a560dff690a1c6fef26394f4c03821c4f910160405180910390a2505060016008555092949350505050565b600083116111405760405162461bcd60e51b815260206004820152601360248201527f416d6f756e742063616e74206265207a65726f00000000000000000000000000604482015260640161093a565b80156111fc5760405163d967f43160e01b81526001600160a01b037f0000000000000000000000000000000000000000000000000000000000000000166004820152602481018490528215156044820152339063d967f43190606401600060405180830381600087803b1580156111b657600080fd5b505af11580156111ca573d6000803e3d6000fd5b50505050600284900b6000908152600b6020526040812080548592906111f1908490613b85565b909155506112b09050565b60405163d967f43160e01b81526001600160a01b037f0000000000000000000000000000000000000000000000000000000000000000166004820152602481018490528215156044820152339063d967f43190606401600060405180830381600087803b15801561126c57600080fd5b505af1158015611280573d6000803e3d6000fd5b50505050600284900b6000908152600b6020526040812060010180548592906112aa908490613b85565b90915550505b50505050565b600080600854600214156112dd576040516303cb96db60e21b815260040160405180910390fd5b60026008556112ef3385856000612a9c565b6006805492945090925083916000906113129084906001600160801b0316613b9d565b92506101000a8154816001600160801b0302191690836001600160801b0316021790555080600660108282829054906101000a90046001600160801b031661135a9190613b9d565b92506101000a8154816001600160801b0302191690836001600160801b03160217905550611389338383612ebe565b604080518381526020810183905233917f4a1c185b7b5da020829d63d69222d8602aa53a6b7800a73ee6e3e15a625d863d910160405180910390a2600160085590939092509050565b6000600854600214156113f8576040516303cb96db60e21b815260040160405180910390fd5b60026008819055506000806000848060200190518101906114199190613bc5565b92509250925060008361143e57600654600160801b90046001600160801b031661144b565b6006546001600160801b03165b6001600160801b03166114a885611482577f0000000000000000000000000000000000000000000000000000000000000000612e0a565b7f0000000000000000000000000000000000000000000000000000000000000000612e0a565b6114b29190613afc565b90506000604051806101200160405280600081526020016000815260200160008152602001866114e4576002546114e8565b6003545b8152602001866114fa576003546114fe565b6002545b81526007546001600160a01b03166020820152600054630100000090046001600160801b03166040820152606081018490526080018661156457600754600160a01b9004600290810b6000908152600a602052604090205463010000009004900b611572565b600754600160a01b900460020b5b60020b81525090506115878160c001516129f2565b60e081015115611a545760006115a18261010001516126a6565b6001600160a01b0316905060008087156116d45760006115cc8560c00151858760a001516000612ff1565b9050808560e001511161169457600060608660c00151901b90506000611614828860a001518960e001518a60a001516116059190613c07565b61160f9086613b85565b61304b565b905080861115801561162957508660a0015181105b6116675761165b828860e001518960a00151856116469190613c3c565b6116509190613b85565b808204910615150190565b6001600160a01b031690505b61167c8760c00151828960a001516000613089565b60a0880191909152600060e088015293506116ce9050565b6116a98560c00151858760a001516000613089565b60a0860185905260e0860180519194506001935082916116ca908390613afc565b9052505b50611792565b60006116eb8560c001518660a00151866000613089565b9050808560e001511161175657600061171a8660e001516c010000000000000000000000008860c001516130ce565b8660a001516117299190613b85565b90506117408660c001518760a00151836000612ff1565b60a0870191909152600060e08701529250611790565b61176b8560c001518660a00151866000612ff1565b60a0860185905260e08601805191945060019350829161178c908390613afc565b9052505b505b6117c38260008054906101000a900462ffffff166004548760c0015188602001518e8a604001518b60600151613181565b606088015260408701526020860191909152985080156118975761010084015160e0850151604051633aaba4bb60e11b8152600b60048201526024810186905260029290920b60448301526064820152881515608482015260a481018a905281151560c482015273__$dc25dd3a5fe6a540f35c01c335c2ccfd23$__9063755749769060e401606060405180830381865af4158015611866573d6000803e3d6000fd5b505050506040513d601f19601f8201168201806040525081019061188a9190613c50565b60e0870192909252995090505b8015611a4c576118f4600a856101000151600160009054906101000a90046001600160a01b03168760c00151886060015189608001518e7f0000000000000000000000000000000000000000000000000000000000000000613219565b60020b61010086015260c08501819052611a4c576119168461010001516126a6565b6001600160a01b031660a0850181905261010085015160e0860151604051633aaba4bb60e11b8152600b6004820152602481019390935260029190910b60448301526064820152881515608482015260a481018a905281151560c482015273__$dc25dd3a5fe6a540f35c01c335c2ccfd23$__9063755749769060e401606060405180830381865af41580156119b0573d6000803e3d6000fd5b505050506040513d601f19601f820116820180604052508101906119d49190613c50565b60e0870192909252995090508015611a4c57611a3d600a856101000151600160009054906101000a90046001600160a01b03168760c00151886060015189608001518e7f0000000000000000000000000000000000000000000000000000000000000000613219565b60020b61010086015260c08501525b505050611587565b60a08101516007805473ffffffffffffffffffffffffffffffffffffffff19166001600160a01b03909216919091179055600085611aad57610100820151600290810b6000908152600a6020526040902054900b611ab4565b8161010001515b600754909150600282810b600160a01b909204900b14611b24576007805462ffffff60a01b1916600160a01b62ffffff84160217905560c08201516000805472ffffffffffffffffffffffffffffffff000000191663010000006001600160801b03909316929092029190911790555b611b2f86848961348f565b611b42868360600151846040015161360b565b8515611c1957611b747f0000000000000000000000000000000000000000000000000000000000000000888787612c38565b7f00000000000000000000000000000000000000000000000000000000000000006001600160a01b03167f00000000000000000000000000000000000000000000000000000000000000006001600160a01b0316866001600160a01b03167fcd3829a3813dc3cdd188fd3d01dcf3268c16be2fdd2dd21d0665418816e46062868b604051611c0c929190918252602082015260400190565b60405180910390a4611ce6565b611c457f0000000000000000000000000000000000000000000000000000000000000000888787612c38565b7f00000000000000000000000000000000000000000000000000000000000000006001600160a01b03167f00000000000000000000000000000000000000000000000000000000000000006001600160a01b0316866001600160a01b03167fcd3829a3813dc3cdd188fd3d01dcf3268c16be2fdd2dd21d0665418816e46062868b604051611cdd929190918252602082015260400190565b60405180910390a45b505060016008555092949350505050565b60408051600280825260608083018452926020830190803683370190505090507f000000000000000000000000000000000000000000000000000000000000000081600081518110611d4b57611d4b613c7e565b60200260200101906001600160a01b031690816001600160a01b0316815250507f000000000000000000000000000000000000000000000000000000000000000081600181518110611d9f57611d9f613c7e565b60200260200101906001600160a01b031690816001600160a01b03168152505090565b7f00000000000000000000000000000000000000000000000000000000000000006001600160a01b031663c14ad8026040518163ffffffff1660e01b8152600401602060405180830381865afa158015611e20573d6000803e3d6000fd5b505050506040513d601f19601f82011682018060405250810190611e449190613b13565b600455565b60008060008060085460021415611e73576040516303cb96db60e21b815260040160405180910390fd5b60026008556000611e83886126a6565b90506000611e90886126a6565b6007546000549192506001600160a01b031690611ebc90630100000090046001600160801b03166129f2565b806001600160a01b0316836001600160a01b031611158015611eef5750816001600160a01b0316816001600160a01b0316105b15611f2d57600080546001600160801b03630100000080830482168c90039091160272ffffffffffffffffffffffffffffffff000000199091161790555b611f5f836001600160a01b0316836001600160a01b0316836001600160a01b03168b6001600160801b03166000612d9b565b6001600160801b039182169850811696506f7fffffffffffffffffffffffffffffff9089161115611fa357604051631a93c68960e11b815260040160405180910390fd5b611fb7338b8b611fb28c613c94565b612a9c565b60068054898301600160801b8c86016001600160801b0380851682900381166fffffffffffffffffffffffffffffffff199095168517839004811684900316909102909217909255929750909550612010338383612ebe565b6007546009546040517fa8d70f65000000000000000000000000000000000000000000000000000000008152600a600482015260028f810b60248301528e810b60448301526001600160801b038e166064830152600160a01b90930490920b608483015260a482015273__$dc25dd3a5fe6a540f35c01c335c2ccfd23$__9063a8d70f659060c4016040805180830381865af41580156120b4573d6000803e3d6000fd5b505050506040513d601f19601f820116820180604052508101906120d89190613b2c565b6009556007805462ffffff92909216600160a01b0262ffffff60a01b19909216919091179055604080518381526020810183905233917f49995e5dd6158cf69ad3e9777c46755a1a826a446c6416992167462dad033b2a910160405180910390a25050505050600160088190555093509350935093565b600754600283810b6000818152600a602052604080822086850b8352908220845460035493968796600160a01b909104900b9492939192909190869081908190819089126121aa5787600101549350876002015492506121ce565b60018801546121b99087613afc565b93508760020154856121cb9190613afc565b92505b8b60020b8960020b12156121ed57505060018501546002860154612211565b60018701546121fc9087613afc565b915086600201548561220e9190613afc565b90505b8161221c8588613afc565b6122269190613afc565b9a50806122338487613afc565b61223d9190613afc565b99505050505050505050509250929050565b60008060085460021415612276576040516303cb96db60e21b815260040160405180910390fd5b600260085560055460016001600160801b03909116111561235f576005546122a9906001906001600160801b0316613b9d565b600580546fffffffffffffffffffffffffffffffff191660011790556006805491935083916000906122e59084906001600160801b0316613b9d565b92506101000a8154816001600160801b0302191690836001600160801b0316021790555061235f7f0000000000000000000000000000000000000000000000000000000000000000836001600160801b03167f00000000000000000000000000000000000000000000000000000000000000006000612c38565b6005546001600160801b9091046001600160801b031611156124495760055461239a90600190600160801b90046001600160801b0316613b9d565b60058054600160801b6001600160801b03918216811790925560068054939450849390926010926123cf928692900416613b9d565b92506101000a8154816001600160801b0302191690836001600160801b031602179055506124497f0000000000000000000000000000000000000000000000000000000000000000826001600160801b03167f00000000000000000000000000000000000000000000000000000000000000006000612c38565b60016008559091565b6007546001600160a01b03166124945761246b81613687565b6007805473ffffffffffffffffffffffffffffffffffffffff19166001600160a01b0383161790555b50565b604051633c6340f360e21b81526001600160a01b0384811660048301523060248301528381166044830152606482018390527f0000000000000000000000000000000000000000000000000000000000000000169063f18d03cc906084015b600060405180830381600087803b15801561251057600080fd5b505af1158015612524573d6000803e3d6000fd5b50505050505050565b6125577f000000000000000000000000000000000000000000000000000000000000000083613cc4565b60020b15612578576040516333a3bdff60e21b815260040160405180910390fd5b60026125a47f000000000000000000000000000000000000000000000000000000000000000084613ce6565b6125ae9190613cc4565b60020b156125e8576040517ffdf1420200000000000000000000000000000000000000000000000000000000815260040160405180910390fd5b6126127f000000000000000000000000000000000000000000000000000000000000000082613cc4565b60020b15612633576040516333a3bdff60e21b815260040160405180910390fd5b600261265f7f000000000000000000000000000000000000000000000000000000000000000083613ce6565b6126699190613cc4565b60020b6126a2576040517fa9778c6300000000000000000000000000000000000000000000000000000000815260040160405180910390fd5b5050565b60008060008360020b126126bd578260020b6126ca565b8260020b6126ca90613d20565b90506126d9620d89e719613d59565b62ffffff16811115612717576040517ff87dc40c00000000000000000000000000000000000000000000000000000000815260040160405180910390fd5b60006001821661272b57600160801b61273d565b6ffffcb933bd6fad37aa2d162d1a5940015b70ffffffffffffffffffffffffffffffffff1690506002821615612771576ffff97272373d413259a46990580e213a0260801c5b6004821615612790576ffff2e50f5f656932ef12357cf3c7fdcc0260801c5b60088216156127af576fffe5caca7e10e4e61c3624eaa0941cd00260801c5b60108216156127ce576fffcb9843d60f6159c9db58835c9266440260801c5b60208216156127ed576fff973b41fa98c081472e6896dfb254c00260801c5b604082161561280c576fff2ea16466c96a3843ec78b326b528610260801c5b608082161561282b576ffe5dee046a99a2a811c461f1969c30530260801c5b61010082161561284b576ffcbe86c7900a88aedcffc83b479aa3a40260801c5b61020082161561286b576ff987a7253ac413176f2b074cf7815e540260801c5b61040082161561288b576ff3392b0822b70005940c7a398e4b70f30260801c5b6108008216156128ab576fe7159475a2c29b7443b29c7fa6e889d90260801c5b6110008216156128cb576fd097f3bdfd2022b8845ad8f792aa58250260801c5b6120008216156128eb576fa9f746462d870fdf8a65dc1f90e061e50260801c5b61400082161561290b576f70d869a156d2a1b890bb3df62baf32f70260801c5b61800082161561292b576f31be135f97d08fd981231505542fcfa60260801c5b6201000082161561294c576f09aa508b5b7a84e1c677de54f3e99bc90260801c5b6202000082161561296c576e5d6af8dedb81196699c329225ee6040260801c5b6204000082161561298b576d2216e584f5fa1ea926041bedfe980260801c5b620800008216156129a8576b048a170391f7dc42444e8fa20260801c5b60008460020b13156129c95780600019816129c5576129c5613c26565b0490505b6401000000008106156129dd5760016129e0565b60005b60ff16602082901c0192505050919050565b600154600160a01b900463ffffffff16428181039114801590612a155750600082115b156126a257600180547fffffffffffffffff00000000ffffffffffffffffffffffffffffffffffffffff16600160a01b4263ffffffff160217905581608082901b81612a6357612a63613c26565b6001805473ffffffffffffffffffffffffffffffffffffffff198116939092046001600160a01b03928316019091169190911790555050565b6001600160a01b0384166000908152600c60209081526040808320600287810b85529083528184209086900b8452909152812081908180612add888861214f565b91509150612b09836001015483612af49190613afc565b84546001600160801b0316600160801b6130ce565b9450612b1e836002015482612af49190613afc565b9350600086600f0b1215612b7557612b3586613c94565b83548490600090612b509084906001600160801b0316613b9d565b92506101000a8154816001600160801b0302191690836001600160801b031602179055505b600086600f0b1315612c1f57825486908490600090612b9e9084906001600160801b0316613b5a565b82546101009290920a6001600160801b0381810219909316918316021790915584547f00000000000000000000000000000000000000000000000000000000000000008216911611159050612c1f576040517fb03425ae00000000000000000000000000000000000000000000000000000000815260040160405180910390fd5b6001830191909155600290910155909590945092505050565b8015612d05576040517f97da6d300000000000000000000000000000000000000000000000000000000081526001600160a01b038581166004830152306024830152838116604483015260006064830152608482018590527f000000000000000000000000000000000000000000000000000000000000000016906397da6d309060a40160408051808303816000875af1158015612cda573d6000803e3d6000fd5b505050506040513d601f19601f82011682018060405250810190612cfe9190613d73565b50506112b0565b604051633c6340f360e21b81526001600160a01b0385811660048301523060248301528381166044830152606482018590527f0000000000000000000000000000000000000000000000000000000000000000169063f18d03cc90608401600060405180830381600087803b158015612d7d57600080fd5b505af1158015612d91573d6000803e3d6000fd5b5050505050505050565b600080848611612dc057612db9612db485898987613089565b6136f7565b9050612e00565b868511612ddd57612dd6612db485898987612ff1565b9150612e00565b612dec612db485878987612ff1565b9150612dfd612db485898887613089565b90505b9550959350505050565b6040517ff7888aec0000000000000000000000000000000000000000000000000000000081526001600160a01b0382811660048301523060248301526000917f00000000000000000000000000000000000000000000000000000000000000009091169063f7888aec90604401602060405180830381865afa158015612e94573d6000803e3d6000fd5b505050506040513d601f19601f82011682018060405250810190612eb89190613b13565b92915050565b604051633c6340f360e21b81526001600160a01b037f0000000000000000000000000000000000000000000000000000000000000000811660048301523060248301528481166044830152606482018490527f0000000000000000000000000000000000000000000000000000000000000000169063f18d03cc90608401600060405180830381600087803b158015612f5657600080fd5b505af1158015612f6a573d6000803e3d6000fd5b5050604051633c6340f360e21b81526001600160a01b037f0000000000000000000000000000000000000000000000000000000000000000811660048301523060248301528681166044830152606482018590527f000000000000000000000000000000000000000000000000000000000000000016925063f18d03cc91506084016124f6565b600081156130205761301961300d606087901b8686038661304b565b85808204910615150190565b9050613043565b83613032606087901b868603866130ce565b8161303f5761303f613c26565b0490505b949350505050565b60006130588484846130ce565b9050818061306857613068613c26565b8385091561308257600019811061307e57600080fd5b6001015b9392505050565b600081156130ab57613019858585036c0100000000000000000000000061304b565b6130c5858585036c010000000000000000000000006130ce565b95945050505050565b60008080600019858709858702925082811083820303915050806000141561310857600084116130fd57600080fd5b508290049050613082565b80841161311457600080fd5b6000848688096000868103871696879004966002600389028118808a02820302808a02820302808a02820302808a02820302808a02820302808a02909103029181900381900460010186841190950394909402919094039290920491909117919091029150509392505050565b600080600080600061319c8d8d62ffffff16620f424061304b565b90506131a8818a613b85565b98506131b4818e613afc565b6131be9089613b85565b975060006131cf828d61271061304b565b90506131db8189613b85565b97506131e78183613afc565b91506131f882600160801b8d6130ce565b6132029088613b85565b999e989d50969b5097995095975050505050505050565b600287900b6000908152602089905260408120600301548190613245906001600160a01b031689613d97565b60028a900b600090815260208c905260409020600301805473ffffffffffffffffffffffffffffffffffffffff19166001600160a01b039290921691909117905583156133855760028360020b8a60020b816132a3576132a3613c26565b0560020b816132b4576132b4613c26565b0760020b6132ec57600289900b600090815260208b90526040902054660100000000000090046001600160801b031690960395613319565b600289900b600090815260208b90526040902054660100000000000090046001600160801b031696909601955b600289900b600090815260208b9052604090206001015461333a9086613afc565b60028a810b600090815260208d905260409020600181019290925501546133619087613afc565b6002998a0b600090815260208c905260409020808b01919091555490980b97613481565b60028360020b8a60020b8161339c5761339c613c26565b0560020b816133ad576133ad613c26565b0760020b6133e657600289900b600090815260208b90526040902054660100000000000090046001600160801b03169690960195613412565b600289900b600090815260208b90526040902054660100000000000090046001600160801b0316909603955b600289810b600090815260208c90526040902001546134319086613afc565b60028a810b600090815260208d90526040902090810191909155600101546134599087613afc565b6002998a0b600090815260208c9052604090206001810191909155546301000000900490980b975b509498969750505050505050565b821561354c5760006134c07f0000000000000000000000000000000000000000000000000000000000000000612e0a565b6006549091506000906134dd9085906001600160801b0316613b5a565b905081816001600160801b031611156135095760405163420231d560e11b815260040160405180910390fd5b60068054600160801b6fffffffffffffffffffffffffffffffff199091166001600160801b03938416908117829004841686900390931602909117905550505050565b60006135777f0000000000000000000000000000000000000000000000000000000000000000612e0a565b60065490915060009061359b908590600160801b90046001600160801b0316613b5a565b905081816001600160801b031611156135c757604051637218102160e11b815260040160405180910390fd5b600680546fffffffffffffffffffffffffffffffff19600160801b6001600160801b0394851602908116918416908416179490940390911692909217909155505050565b82156136645760038290556005805482919060109061363b908490600160801b90046001600160801b0316613b5a565b92506101000a8154816001600160801b0302191690836001600160801b03160217905550505050565b60028290556005805482919060009061363b9084906001600160801b0316613b5a565b6401000276a36001600160a01b03821610806136c0575073fffd8963efd1fc6a506488495d951d5263988d266001600160a01b03821610155b15612494576040517f6e4ba61d00000000000000000000000000000000000000000000000000000000815260040160405180910390fd5b806001600160801b038116811461370d57600080fd5b919050565b8060020b811461249457600080fd5b801515811461249457600080fd5b803561370d81613721565b60008060006060848603121561374f57600080fd5b83359250602084013561376181613712565b9150604084013561377181613721565b809150509250925092565b60006020828403121561378e57600080fd5b813562ffffff8116811461308257600080fd5b634e487b7160e01b600052604160045260246000fd5b80356001600160801b038116811461370d57600080fd5b600060e082840312156137e057600080fd5b60405160e0810181811067ffffffffffffffff82111715613803576138036137a1565b604052823561381181613712565b8152602083013561382181613712565b6020820152604083013561383481613712565b6040820152606083013561384781613712565b6060820152613858608084016137b7565b608082015261386960a084016137b7565b60a082015261387a60c0840161372f565b60c08201529392505050565b60006020828403121561389857600080fd5b813561308281613712565b600080600080608085870312156138b957600080fd5b84356138c481613712565b93506020850135925060408501356138db81613721565b915060608501356138eb81613721565b939692955090935050565b6000806040838503121561390957600080fd5b823561391481613712565b9150602083013561392481613712565b809150509250929050565b60006020828403121561394157600080fd5b813567ffffffffffffffff8082111561395957600080fd5b818401915084601f83011261396d57600080fd5b81358181111561397f5761397f6137a1565b604051601f8201601f19908116603f011681019083821181831017156139a7576139a76137a1565b816040528281528760208487010111156139c057600080fd5b826020860160208301376000928101602001929092525095945050505050565b6020808252825182820181905260009190848201906040850190845b81811015613a215783516001600160a01b0316835292840192918401916001016139fc565b50909695505050505050565b600080600060608486031215613a4257600080fd5b8335613a4d81613712565b92506020840135613a5d81613712565b9150613a6b604085016137b7565b90509250925092565b6001600160a01b038116811461249457600080fd5b600080600060608486031215613a9e57600080fd5b8335613aa981613a74565b92506020840135613ab981613712565b9150604084013561377181613712565b600060208284031215613adb57600080fd5b813561308281613a74565b634e487b7160e01b600052601160045260246000fd5b600082821015613b0e57613b0e613ae6565b500390565b600060208284031215613b2557600080fd5b5051919050565b60008060408385031215613b3f57600080fd5b8251613b4a81613712565b6020939093015192949293505050565b60006001600160801b03808316818516808303821115613b7c57613b7c613ae6565b01949350505050565b60008219821115613b9857613b98613ae6565b500190565b60006001600160801b0383811690831681811015613bbd57613bbd613ae6565b039392505050565b600080600060608486031215613bda57600080fd5b8351613be581613721565b6020850151909350613bf681613a74565b604085015190925061377181613721565b6000816000190483118215151615613c2157613c21613ae6565b500290565b634e487b7160e01b600052601260045260246000fd5b600082613c4b57613c4b613c26565b500490565b600080600060608486031215613c6557600080fd5b8351925060208401519150604084015161377181613721565b634e487b7160e01b600052603260045260246000fd5b600081600f0b6f7fffffffffffffffffffffffffffffff19811415613cbb57613cbb613ae6565b60000392915050565b60008260020b80613cd757613cd7613c26565b808360020b0791505092915050565b60008160020b8360020b80613cfd57613cfd613c26565b627fffff19821460001982141615613d1757613d17613ae6565b90059392505050565b60007f8000000000000000000000000000000000000000000000000000000000000000821415613d5257613d52613ae6565b5060000390565b60008160020b627fffff19811415613cbb57613cbb613ae6565b60008060408385031215613d8657600080fd5b505080516020909101519092909150565b60006001600160a01b0383811690831681811015613bbd57613bbd613ae656fea2646970667358221220a2a33f5069c6700e8c4fd6495db92fbf321c68bd892ab36e39144036a26dc86b64736f6c634300080a0033",
  "linkReferences": {
    "contracts/libraries/DyDxMath.sol": {
      "DyDxMath": [
        {
          "length": 20,
          "start": 5279
        }
      ]
    },
    "contracts/libraries/Ticks.sol": {
      "Ticks": [
        {
          "length": 20,
          "start": 711
        },
        {
          "length": 20,
          "start": 5844
        },
        {
          "length": 20,
          "start": 8702
        },
        {
          "length": 20,
          "start": 9032
        },
        {
          "length": 20,
          "start": 10829
        }
      ]
    }
  },
  "deployedLinkReferences": {
    "contracts/libraries/DyDxMath.sol": {
      "DyDxMath": [
        {
          "length": 20,
          "start": 2765
        }
      ]
    },
    "contracts/libraries/Ticks.sol": {
      "Ticks": [
        {
          "length": 20,
          "start": 3330
        },
        {
          "length": 20,
          "start": 6188
        },
        {
          "length": 20,
          "start": 6518
        },
        {
          "length": 20,
          "start": 8315
        }
      ]
    }
  }
}