{
  "_format": "hh-sol-artifact-1",
  "contractName": "TickMathMock",
  "sourceName": "contracts/mocks/TickMathMock.sol",
  "abi": [
    {
      "inputs": [],
      "name": "PriceOutOfBounds",
      "type": "error"
    },
    {
      "inputs": [],
      "name": "TickOutOfBounds",
      "type": "error"
    },
    {
      "inputs": [
        {
          "internalType": "int24",
          "name": "tick",
          "type": "int24"
        }
      ],
      "name": "getSqrtRatioAtTick",
      "outputs": [
        {
          "internalType": "uint160",
          "name": "",
          "type": "uint160"
        }
      ],
      "stateMutability": "pure",
      "type": "function"
    },
    {
      "inputs": [
        {
          "internalType": "uint160",
          "name": "sqrtPriceX96",
          "type": "uint160"
        }
      ],
      "name": "getTickAtSqrtRatio",
      "outputs": [
        {
          "internalType": "int24",
          "name": "",
          "type": "int24"
        }
      ],
      "stateMutability": "pure",
      "type": "function"
    }
  ],
  "bytecode": "0x608060405234801561001057600080fd5b506107e4806100206000396000f3fe608060405234801561001057600080fd5b50600436106100365760003560e01c80634f76c0581461003b578063986cfba314610066575b600080fd5b61004e6100493660046106ef565b610091565b60405160029190910b81526020015b60405180910390f35b61007961007436600461071f565b6100a2565b6040516001600160a01b03909116815260200161005d565b600061009c826100ad565b92915050565b600061009c826103bc565b60006401000276a36001600160a01b03831610806100e8575073fffd8963efd1fc6a506488495d951d5263988d266001600160a01b03831610155b1561010657604051636e4ba61d60e01b815260040160405180910390fd5b640100000000600160c01b03602083901b166fffffffffffffffffffffffffffffffff811160071b81811c67ffffffffffffffff811160061b90811c63ffffffff811160051b90811c61ffff811160041b90811c60ff8111600390811b91821c600f811160021b90811c918211600190811b92831c979088119617909417909217179091171717608081106101a357607f810383901c91506101ad565b80607f0383901b91505b908002607f81811c60ff83811c9190911c800280831c81831c1c800280841c81841c1c800280851c81851c1c800280861c81861c1c800280871c81871c1c800280881c81881c1c800280891c81891c1c8002808a1c818a1c1c8002808b1c818b1c1c8002808c1c818c1c1c8002808d1c818d1c1c8002808e1c9c81901c9c909c1c80029c8d901c9e9d607f198f0160401b60c09190911c678000000000000000161760c19b909b1c674000000000000000169a909a1760c29990991c672000000000000000169890981760c39790971c671000000000000000169690961760c49590951c670800000000000000169490941760c59390931c670400000000000000169290921760c69190911c670200000000000000161760c79190911c670100000000000000161760c89190911c6680000000000000161760c99190911c6640000000000000161760ca9190911c6620000000000000161760cb9190911c6610000000000000161760cc9190911c6608000000000000161760cd9190911c66040000000000001617693627a301d71055774c8581026f028f6481ab7f045a5af012a19d003aa9198101608090811d906fdb2df09e81959a81455e260799a0632f8301901d600281810b9083900b146103ad57886001600160a01b0316610392826103bc565b6001600160a01b031611156103a757816103af565b806103af565b815b9998505050505050505050565b60008060008360020b126103d3578260020b6103e0565b8260020b6103e090610758565b90506103ef620d89e719610775565b62ffffff1681111561041457604051633e1f710360e21b815260040160405180910390fd5b60006001821661042857600160801b61043a565b6ffffcb933bd6fad37aa2d162d1a5940015b70ffffffffffffffffffffffffffffffffff169050600282161561046e576ffff97272373d413259a46990580e213a0260801c5b600482161561048d576ffff2e50f5f656932ef12357cf3c7fdcc0260801c5b60088216156104ac576fffe5caca7e10e4e61c3624eaa0941cd00260801c5b60108216156104cb576fffcb9843d60f6159c9db58835c9266440260801c5b60208216156104ea576fff973b41fa98c081472e6896dfb254c00260801c5b6040821615610509576fff2ea16466c96a3843ec78b326b528610260801c5b6080821615610528576ffe5dee046a99a2a811c461f1969c30530260801c5b610100821615610548576ffcbe86c7900a88aedcffc83b479aa3a40260801c5b610200821615610568576ff987a7253ac413176f2b074cf7815e540260801c5b610400821615610588576ff3392b0822b70005940c7a398e4b70f30260801c5b6108008216156105a8576fe7159475a2c29b7443b29c7fa6e889d90260801c5b6110008216156105c8576fd097f3bdfd2022b8845ad8f792aa58250260801c5b6120008216156105e8576fa9f746462d870fdf8a65dc1f90e061e50260801c5b614000821615610608576f70d869a156d2a1b890bb3df62baf32f70260801c5b618000821615610628576f31be135f97d08fd981231505542fcfa60260801c5b62010000821615610649576f09aa508b5b7a84e1c677de54f3e99bc90260801c5b62020000821615610669576e5d6af8dedb81196699c329225ee6040260801c5b62040000821615610688576d2216e584f5fa1ea926041bedfe980260801c5b620800008216156106a5576b048a170391f7dc42444e8fa20260801c5b60008460020b13156106c65780600019816106c2576106c2610798565b0490505b6401000000008106156106da5760016106dd565b60005b60ff16602082901c0192505050919050565b60006020828403121561070157600080fd5b81356001600160a01b038116811461071857600080fd5b9392505050565b60006020828403121561073157600080fd5b81358060020b811461071857600080fd5b634e487b7160e01b600052601160045260246000fd5b6000600160ff1b82141561076e5761076e610742565b5060000390565b60008160020b627fffff1981141561078f5761078f610742565b60000392915050565b634e487b7160e01b600052601260045260246000fdfea2646970667358221220e67753417f54bf1a4990c3c19f8489bb86773d97ee55f4b5a2f5737bb564a41764736f6c634300080a0033",
  "linkReferences": {},
  "deployedLinkReferences": {}
}