{
  "_format": "hh-sol-artifact-1",
  "contractName": "Migrator",
  "sourceName": "contracts/migration/Migrator.sol",
  "abi": [
    {
      "inputs": [
        {
          "internalType": "contract IVaultMinimal",
          "name": "_vault",
          "type": "address"
        },
        {
          "internalType": "contract IMasterDeployer",
          "name": "_masterDeployer",
          "type": "address"
        },
        {
          "internalType": "contract IPoolFactory",
          "name": "_constantProductPoolFactory",
          "type": "address"
        },
        {
          "internalType": "address",
          "name": "_masterChef",
          "type": "address"
        }
      ],
      "stateMutability": "nonpayable",
      "type": "constructor"
    },
    {
      "anonymous": false,
      "inputs": [
        {
          "indexed": true,
          "internalType": "address",
          "name": "oldPool",
          "type": "address"
        },
        {
          "indexed": true,
          "internalType": "address",
          "name": "newPool",
          "type": "address"
        },
        {
          "indexed": true,
          "internalType": "address",
          "name": "intermediaryToken",
          "type": "address"
        }
      ],
      "name": "Migrate",
      "type": "event"
    },
    {
      "inputs": [],
      "name": "constantProductPoolFactory",
      "outputs": [
        {
          "internalType": "contract IPoolFactory",
          "name": "",
          "type": "address"
        }
      ],
      "stateMutability": "view",
      "type": "function"
    },
    {
      "inputs": [],
      "name": "masterChef",
      "outputs": [
        {
          "internalType": "address",
          "name": "",
          "type": "address"
        }
      ],
      "stateMutability": "view",
      "type": "function"
    },
    {
      "inputs": [],
      "name": "masterDeployer",
      "outputs": [
        {
          "internalType": "contract IMasterDeployer",
          "name": "",
          "type": "address"
        }
      ],
      "stateMutability": "view",
      "type": "function"
    },
    {
      "inputs": [
        {
          "internalType": "contract IUniswapV2Minimal",
          "name": "oldPool",
          "type": "address"
        }
      ],
      "name": "migrate",
      "outputs": [
        {
          "internalType": "address",
          "name": "",
          "type": "address"
        }
      ],
      "stateMutability": "nonpayable",
      "type": "function"
    },
    {
      "inputs": [
        {
          "internalType": "address",
          "name": "",
          "type": "address"
        }
      ],
      "name": "migrated",
      "outputs": [
        {
          "internalType": "address",
          "name": "",
          "type": "address"
        }
      ],
      "stateMutability": "view",
      "type": "function"
    },
    {
      "inputs": [],
      "name": "vault",
      "outputs": [
        {
          "internalType": "contract IVaultMinimal",
          "name": "",
          "type": "address"
        }
      ],
      "stateMutability": "view",
      "type": "function"
    }
  ],
  "bytecode": "0x61010060405234801561001157600080fd5b506040516124043803806124048339810160408190526100309161006a565b6001600160a01b0393841660805291831660a052821660c0521660e0526100c9565b6001600160a01b038116811461006757600080fd5b50565b6000806000806080858703121561008057600080fd5b845161008b81610052565b602086015190945061009c81610052565b60408601519093506100ad81610052565b60608601519092506100be81610052565b939692955090935050565b60805160a05160c05160e0516122be6101466000396000818160ce0152818161018c0152818161053e015281816105fa0152610a3b01526000818160f6015281816103b3015261049a015260008181610135015261046c01526000818161015d015281816106b10152818161074b01526107fd01526122be6000f3fe60806040523480156200001157600080fd5b50600436106200007b5760003560e01c8063ce5494bb1162000056578063ce5494bb1462000118578063cf58879a146200012f578063fbfa77cf146200015757600080fd5b80634ba0a5ee1462000080578063575a86b214620000c857806393e4449714620000f0575b600080fd5b620000ac6200009136600462000be3565b6000602081905290815260409020546001600160a01b031681565b6040516001600160a01b03909116815260200160405180910390f35b620000ac7f000000000000000000000000000000000000000000000000000000000000000081565b620000ac7f000000000000000000000000000000000000000000000000000000000000000081565b620000ac6200012936600462000be3565b6200017f565b620000ac7f000000000000000000000000000000000000000000000000000000000000000081565b620000ac7f000000000000000000000000000000000000000000000000000000000000000081565b6000336001600160a01b037f00000000000000000000000000000000000000000000000000000000000000001614620001ff5760405162461bcd60e51b815260206004820152600960248201527f4f4e4c595f43484546000000000000000000000000000000000000000000000060448201526064015b60405180910390fd5b6001600160a01b038281166000908152602081905260409020541615620002695760405162461bcd60e51b815260206004820152600960248201527f4f4e4c595f4f4e434500000000000000000000000000000000000000000000006044820152606401620001f6565b6000826001600160a01b0316630dfe16816040518163ffffffff1660e01b8152600401602060405180830381865afa158015620002aa573d6000803e3d6000fd5b505050506040513d601f19601f82011682018060405250810190620002d0919062000c0a565b90506000836001600160a01b031663d21220a76040518163ffffffff1660e01b8152600401602060405180830381865afa15801562000313573d6000803e3d6000fd5b505050506040513d601f19601f8201168201806040525081019062000339919062000c0a565b604080516001600160a01b038086166020830152831691810191909152601e606082015260006080820181905291925060a00160408051808303601f1901815290829052805160208201207ff6ab6d99000000000000000000000000000000000000000000000000000000008352600483015291506000907f00000000000000000000000000000000000000000000000000000000000000006001600160a01b03169063f6ab6d99906024016020604051808303816000875af115801562000405573d6000803e3d6000fd5b505050506040513d601f19601f820116820180604052508101906200042b919062000c0a565b90506001600160a01b0381166200050e576040517f250558dc0000000000000000000000000000000000000000000000000000000081526001600160a01b037f0000000000000000000000000000000000000000000000000000000000000000169063250558dc90620004c5907f000000000000000000000000000000000000000000000000000000000000000090869060040162000c7a565b6020604051808303816000875af1158015620004e5573d6000803e3d6000fd5b505050506040513d601f19601f820116820180604052508101906200050b919062000c0a565b90505b6040517f70a082310000000000000000000000000000000000000000000000000000000081526001600160a01b037f000000000000000000000000000000000000000000000000000000000000000081166004830152600091908816906370a0823190602401602060405180830381865afa15801562000592573d6000803e3d6000fd5b505050506040513d601f19601f82011682018060405250810190620005b8919062000ca6565b905080620005ca575095945050505050565b6040517f23b872dd0000000000000000000000000000000000000000000000000000000081526001600160a01b037f00000000000000000000000000000000000000000000000000000000000000008116600483015288166024820181905260448201839052906323b872dd906064016020604051808303816000875af11580156200065a573d6000803e3d6000fd5b505050506040513d601f19601f8201168201806040525081019062000680919062000cc0565b506040517f89afcb440000000000000000000000000000000000000000000000000000000081526001600160a01b037f00000000000000000000000000000000000000000000000000000000000000008116600483015260009182918a16906389afcb449060240160408051808303816000875af115801562000707573d6000803e3d6000fd5b505050506040513d601f19601f820116820180604052508101906200072d919062000ce4565b60405162ae511b60e21b81526001600160a01b038a811660048301527f0000000000000000000000000000000000000000000000000000000000000000811660248301819052908816604483015260648201849052600060848301529294509092506302b9446c9060a40160408051808303816000875af1158015620007b7573d6000803e3d6000fd5b505050506040513d601f19601f82011682018060405250810190620007dd919062000ce4565b505060405162ae511b60e21b81526001600160a01b0387811660048301527f000000000000000000000000000000000000000000000000000000000000000081166024830181905290861660448301526064820183905260006084830152906302b9446c9060a40160408051808303816000875af115801562000864573d6000803e3d6000fd5b505050506040513d601f19601f820116820180604052508101906200088a919062000ce4565b5050836001600160a01b03166318160ddd6040518163ffffffff1660e01b8152600401602060405180830381865afa158015620008cb573d6000803e3d6000fd5b505050506040513d601f19601f82011682018060405250810190620008f1919062000ca6565b1562000a3657600080856001600160a01b03166365dfc7676040518163ffffffff1660e01b8152600401606060405180830381865afa15801562000939573d6000803e3d6000fd5b505050506040513d601f19601f820116820180604052508101906200095f919062000d09565b5090925090506000836200097c86670de0b6b3a764000062000d4d565b62000988919062000d7b565b9050600082620009a185670de0b6b3a764000062000d4d565b620009ad919062000d7b565b9050600081620009c0846103e862000d4d565b620009cc919062000d7b565b90506103ed81108015620009e257506103e38110155b62000a305760405162461bcd60e51b815260206004820152601060248201527f50524943455f444946464552454e4345000000000000000000000000000000006044820152606401620001f6565b50505050505b6000847f00000000000000000000000000000000000000000000000000000000000000008560405162000a699062000bbc565b6001600160a01b0393841681529290911660208301526040820152606001604051809103906000f08015801562000aa4573d6000803e3d6000fd5b50604080516001600160a01b03808416602083015292935091871691637ba0e2e791016040516020818303038152906040526040518263ffffffff1660e01b815260040162000af4919062000d9e565b6020604051808303816000875af115801562000b14573d6000803e3d6000fd5b505050506040513d601f19601f8201168201806040525081019062000b3a919062000ca6565b506001600160a01b0381811660008181526020819052604080822080547fffffffffffffffffffffffff0000000000000000000000000000000000000000168a8616908117909155905192939092908e16917f334a3ad9b2f42830c082739beaa110a657d70a5bab5868b9b4d43e8a9093c4c691a49998505050505050505050565b6114d58062000db483390190565b6001600160a01b038116811462000be057600080fd5b50565b60006020828403121562000bf657600080fd5b813562000c038162000bca565b9392505050565b60006020828403121562000c1d57600080fd5b815162000c038162000bca565b6000815180845260005b8181101562000c525760208185018101518683018201520162000c34565b8181111562000c65576000602083870101525b50601f01601f19169290920160200192915050565b6001600160a01b038316815260406020820152600062000c9e604083018462000c2a565b949350505050565b60006020828403121562000cb957600080fd5b5051919050565b60006020828403121562000cd357600080fd5b8151801515811462000c0357600080fd5b6000806040838503121562000cf857600080fd5b505080516020909101519092909150565b60008060006060848603121562000d1f57600080fd5b8351925060208401519150604084015163ffffffff8116811462000d4257600080fd5b809150509250925092565b600081600019048311821515161562000d7657634e487b7160e01b600052601160045260246000fd5b500290565b60008262000d9957634e487b7160e01b600052601260045260246000fd5b500490565b60208152600062000c03602083018462000c2a56fe6101006040523480156200001257600080fd5b50604051620014d5380380620014d58339810160408190526200003591620002aa565b604080518082018252600e81526d29bab9b434902628102a37b5b2b760911b6020808301918252835180850190945260038452620534c560ec1b9084015281519192916012916200008a9160009190620001e7565b508151620000a0906001906020850190620001e7565b5060ff81166080524660a052620000b6620000de565b60c0525050506001600160a01b03831660e052620000d582826200017a565b505050620003f3565b60007f8b73c3c69bb8fe3d512ecc4cf759cc79239f7b179b0ffacaa9a75d522b39400f600060405162000112919062000328565b6040805191829003822060208301939093528101919091527fc89efdaa54c0f20c7adf612882df0950f5a951637e0307cdcb4c672f298b8bc660608201524660808201523060a082015260c00160405160208183030381529060405280519060200120905090565b80600260008282546200018e9190620003cc565b90915550506001600160a01b0382166000818152600360209081526040808320805486019055518481527fddf252ad1be2c89b69c2b068fc378daa952ba7f163c4a11628f55a4df523b3ef910160405180910390a35050565b828054620001f590620002eb565b90600052602060002090601f01602090048101928262000219576000855562000264565b82601f106200023457805160ff191683800117855562000264565b8280016001018555821562000264579182015b828111156200026457825182559160200191906001019062000247565b506200027292915062000276565b5090565b5b8082111562000272576000815560010162000277565b80516001600160a01b0381168114620002a557600080fd5b919050565b600080600060608486031215620002c057600080fd5b620002cb846200028d565b9250620002db602085016200028d565b9150604084015190509250925092565b600181811c908216806200030057607f821691505b602082108114156200032257634e487b7160e01b600052602260045260246000fd5b50919050565b600080835481600182811c9150808316806200034557607f831692505b60208084108214156200036657634e487b7160e01b86526022600452602486fd5b8180156200037d57600181146200038f57620003be565b60ff19861689528489019650620003be565b60008a81526020902060005b86811015620003b65781548b8201529085019083016200039b565b505084890196505b509498975050505050505050565b60008219821115620003ee57634e487b7160e01b600052601160045260246000fd5b500190565b60805160a05160c05160e05161108c62000449600039600081816101dd015281816105c6015281816106a201528181610a0b0152610ad1015260006104fd015260006104c80152600061019c015261108c6000f3fe608060405234801561001057600080fd5b50600436106101005760003560e01c806370a0823111610097578063b6b55f2511610066578063b6b55f2514610272578063d505accf14610285578063db006a751461029a578063dd62ed3e146102ad57600080fd5b806370a08231146102175780637ecebe001461023757806395d89b4114610257578063a9059cbb1461025f57600080fd5b806330adf81f116100d357806330adf81f14610170578063313ce567146101975780633644e515146101d05780635fcbd285146101d857600080fd5b806306fdde0314610105578063095ea7b31461012357806318160ddd1461014657806323b872dd1461015d575b600080fd5b61010d6102d8565b60405161011a9190610d0c565b60405180910390f35b610136610131366004610d7d565b610366565b604051901515815260200161011a565b61014f60025481565b60405190815260200161011a565b61013661016b366004610da7565b6103d2565b61014f7f6e71edae12b1b97f4d1f60370fef10105fa2faae0126114a169c64845d6126c981565b6101be7f000000000000000000000000000000000000000000000000000000000000000081565b60405160ff909116815260200161011a565b61014f6104c4565b6101ff7f000000000000000000000000000000000000000000000000000000000000000081565b6040516001600160a01b03909116815260200161011a565b61014f610225366004610de3565b60036020526000908152604090205481565b61014f610245366004610de3565b60056020526000908152604090205481565b61010d61051f565b61013661026d366004610d7d565b61052c565b61014f610280366004610e05565b6105a4565b610298610293366004610e1e565b61076e565b005b61014f6102a8366004610e05565b6109e9565b61014f6102bb366004610e91565b600460209081526000928352604080842090915290825290205481565b600080546102e590610ec4565b80601f016020809104026020016040519081016040528092919081815260200182805461031190610ec4565b801561035e5780601f106103335761010080835404028352916020019161035e565b820191906000526020600020905b81548152906001019060200180831161034157829003601f168201915b505050505081565b3360008181526004602090815260408083206001600160a01b038716808552925280832085905551919290917f8c5be1e5ebec7d5bd14f71427d1e84f3dd0314c0f7b2291e5b200ac8c7c3b925906103c19086815260200190565b60405180910390a350600192915050565b6001600160a01b0383166000908152600460209081526040808320338452909152812054600019811461042e576104098382610f0f565b6001600160a01b03861660009081526004602090815260408083203384529091529020555b6001600160a01b03851660009081526003602052604081208054859290610456908490610f0f565b90915550506001600160a01b03808516600081815260036020526040908190208054870190555190918716907fddf252ad1be2c89b69c2b068fc378daa952ba7f163c4a11628f55a4df523b3ef906104b19087815260200190565b60405180910390a3506001949350505050565b60007f000000000000000000000000000000000000000000000000000000000000000046146104fa576104f5610b92565b905090565b507f000000000000000000000000000000000000000000000000000000000000000090565b600180546102e590610ec4565b3360009081526003602052604081208054839190839061054d908490610f0f565b90915550506001600160a01b038316600081815260036020526040908190208054850190555133907fddf252ad1be2c89b69c2b068fc378daa952ba7f163c4a11628f55a4df523b3ef906103c19086815260200190565b6040516370a0823160e01b815230600482015260009081906001600160a01b037f000000000000000000000000000000000000000000000000000000000000000016906370a0823190602401602060405180830381865afa15801561060d573d6000803e3d6000fd5b505050506040513d601f19601f820116820180604052508101906106319190610f26565b905080156106595780836002546106489190610f3f565b6106529190610f5e565b915061065d565b8291505b6106673383610c2c565b6040517f23b872dd000000000000000000000000000000000000000000000000000000008152336004820152306024820152604481018490527f00000000000000000000000000000000000000000000000000000000000000006001600160a01b0316906323b872dd906064016020604051808303816000875af11580156106f3573d6000803e3d6000fd5b505050506040513d601f19601f820116820180604052508101906107179190610f80565b6107685760405162461bcd60e51b815260206004820152601460248201527f5452414e534645525f46524f4d5f4641494c454400000000000000000000000060448201526064015b60405180910390fd5b50919050565b428410156107be5760405162461bcd60e51b815260206004820152601760248201527f5045524d49545f444541444c494e455f45585049524544000000000000000000604482015260640161075f565b60006107c86104c4565b6001600160a01b0389811660008181526005602090815260409182902080546001810190915582517f6e71edae12b1b97f4d1f60370fef10105fa2faae0126114a169c64845d6126c98184015280840194909452938c166060840152608083018b905260a083019390935260c08083018a90528151808403909101815260e0830190915280519201919091207f19010000000000000000000000000000000000000000000000000000000000006101008301526101028201929092526101228101919091526101420160408051601f198184030181528282528051602091820120600080855291840180845281905260ff88169284019290925260608301869052608083018590529092509060019060a0016020604051602081039080840390855afa1580156108fc573d6000803e3d6000fd5b5050604051601f1901519150506001600160a01b038116158015906109325750886001600160a01b0316816001600160a01b0316145b61097e5760405162461bcd60e51b815260206004820152600e60248201527f494e56414c49445f5349474e4552000000000000000000000000000000000000604482015260640161075f565b6001600160a01b0390811660009081526004602090815260408083208b8516808552908352928190208a905551898152919350918a16917f8c5be1e5ebec7d5bd14f71427d1e84f3dd0314c0f7b2291e5b200ac8c7c3b925910160405180910390a350505050505050565b6040516370a0823160e01b815230600482015260009081906001600160a01b037f000000000000000000000000000000000000000000000000000000000000000016906370a0823190602401602060405180830381865afa158015610a52573d6000803e3d6000fd5b505050506040513d601f19601f82011682018060405250810190610a769190610f26565b600254909150610a868483610f3f565b610a909190610f5e565b9150610a9c3384610c98565b6040517fa9059cbb000000000000000000000000000000000000000000000000000000008152336004820152602481018390527f00000000000000000000000000000000000000000000000000000000000000006001600160a01b03169063a9059cbb906044016020604051808303816000875af1158015610b22573d6000803e3d6000fd5b505050506040513d601f19601f82011682018060405250810190610b469190610f80565b6107685760405162461bcd60e51b815260206004820152600f60248201527f5452414e534645525f4641494c45440000000000000000000000000000000000604482015260640161075f565b60007f8b73c3c69bb8fe3d512ecc4cf759cc79239f7b179b0ffacaa9a75d522b39400f6000604051610bc49190610fa2565b6040805191829003822060208301939093528101919091527fc89efdaa54c0f20c7adf612882df0950f5a951637e0307cdcb4c672f298b8bc660608201524660808201523060a082015260c00160405160208183030381529060405280519060200120905090565b8060026000828254610c3e919061103e565b90915550506001600160a01b0382166000818152600360209081526040808320805486019055518481527fddf252ad1be2c89b69c2b068fc378daa952ba7f163c4a11628f55a4df523b3ef91015b60405180910390a35050565b6001600160a01b03821660009081526003602052604081208054839290610cc0908490610f0f565b90915550506002805482900390556040518181526000906001600160a01b038416907fddf252ad1be2c89b69c2b068fc378daa952ba7f163c4a11628f55a4df523b3ef90602001610c8c565b600060208083528351808285015260005b81811015610d3957858101830151858201604001528201610d1d565b81811115610d4b576000604083870101525b50601f01601f1916929092016040019392505050565b80356001600160a01b0381168114610d7857600080fd5b919050565b60008060408385031215610d9057600080fd5b610d9983610d61565b946020939093013593505050565b600080600060608486031215610dbc57600080fd5b610dc584610d61565b9250610dd360208501610d61565b9150604084013590509250925092565b600060208284031215610df557600080fd5b610dfe82610d61565b9392505050565b600060208284031215610e1757600080fd5b5035919050565b600080600080600080600060e0888a031215610e3957600080fd5b610e4288610d61565b9650610e5060208901610d61565b95506040880135945060608801359350608088013560ff81168114610e7457600080fd5b9699959850939692959460a0840135945060c09093013592915050565b60008060408385031215610ea457600080fd5b610ead83610d61565b9150610ebb60208401610d61565b90509250929050565b600181811c90821680610ed857607f821691505b6020821081141561076857634e487b7160e01b600052602260045260246000fd5b634e487b7160e01b600052601160045260246000fd5b600082821015610f2157610f21610ef9565b500390565b600060208284031215610f3857600080fd5b5051919050565b6000816000190483118215151615610f5957610f59610ef9565b500290565b600082610f7b57634e487b7160e01b600052601260045260246000fd5b500490565b600060208284031215610f9257600080fd5b81518015158114610dfe57600080fd5b600080835481600182811c915080831680610fbe57607f831692505b6020808410821415610fde57634e487b7160e01b86526022600452602486fd5b818015610ff2576001811461100357611030565b60ff19861689528489019650611030565b60008a81526020902060005b868110156110285781548b82015290850190830161100f565b505084890196505b509498975050505050505050565b6000821982111561105157611051610ef9565b50019056fea26469706673582212200d93ae7b27a5f6612391a5552ef887ff4027bc3ecd61d1ff4956fd19756bee8e64736f6c634300080a0033a26469706673582212202f808640b8f15b8c1f4724b25ede262a6c808fef9edab1d49c96972293c01bd464736f6c634300080a0033",
  "linkReferences": {},
  "deployedLinkReferences": {}
}