{
  "_format": "hh-sol-artifact-1",
  "contractName": "MasterDeployer",
  "sourceName": "contracts/deployer/MasterDeployer.sol",
  "abi": [
    {
      "inputs": [
        {
          "internalType": "uint256",
          "name": "_dfynFee",
          "type": "uint256"
        },
        {
          "internalType": "address",
          "name": "_dfynFeeTo",
          "type": "address"
        },
        {
          "internalType": "address",
          "name": "_vault",
          "type": "address"
        },
        {
          "internalType": "uint256",
          "name": "_limitOrderFee",
          "type": "uint256"
        }
      ],
      "stateMutability": "nonpayable",
      "type": "constructor"
    },
    {
      "inputs": [],
      "name": "InvalidDfynFee",
      "type": "error"
    },
    {
      "inputs": [],
      "name": "InvalidLimitOrderFee",
      "type": "error"
    },
    {
      "inputs": [],
      "name": "NotWhitelisted",
      "type": "error"
    },
    {
      "inputs": [],
      "name": "ZeroAddress",
      "type": "error"
    },
    {
      "anonymous": false,
      "inputs": [
        {
          "indexed": true,
          "internalType": "address",
          "name": "factory",
          "type": "address"
        }
      ],
      "name": "AddToWhitelist",
      "type": "event"
    },
    {
      "anonymous": false,
      "inputs": [
        {
          "indexed": true,
          "internalType": "address",
          "name": "factory",
          "type": "address"
        },
        {
          "indexed": true,
          "internalType": "address",
          "name": "pool",
          "type": "address"
        },
        {
          "indexed": false,
          "internalType": "bytes",
          "name": "deployData",
          "type": "bytes"
        }
      ],
      "name": "DeployPool",
      "type": "event"
    },
    {
      "anonymous": false,
      "inputs": [
        {
          "indexed": true,
          "internalType": "uint256",
          "name": "dfynFee",
          "type": "uint256"
        }
      ],
      "name": "DfynFeeUpdated",
      "type": "event"
    },
    {
      "anonymous": false,
      "inputs": [
        {
          "indexed": true,
          "internalType": "uint256",
          "name": "limitOrderFee",
          "type": "uint256"
        }
      ],
      "name": "LimitOrderFeeUpdated",
      "type": "event"
    },
    {
      "anonymous": false,
      "inputs": [
        {
          "indexed": true,
          "internalType": "address",
          "name": "previousOwner",
          "type": "address"
        },
        {
          "indexed": true,
          "internalType": "address",
          "name": "newOwner",
          "type": "address"
        }
      ],
      "name": "OwnershipTransferred",
      "type": "event"
    },
    {
      "anonymous": false,
      "inputs": [
        {
          "indexed": true,
          "internalType": "address",
          "name": "factory",
          "type": "address"
        }
      ],
      "name": "RemoveFromWhitelist",
      "type": "event"
    },
    {
      "inputs": [
        {
          "internalType": "address",
          "name": "_factory",
          "type": "address"
        }
      ],
      "name": "addToWhitelist",
      "outputs": [],
      "stateMutability": "nonpayable",
      "type": "function"
    },
    {
      "inputs": [
        {
          "internalType": "address",
          "name": "_factory",
          "type": "address"
        },
        {
          "internalType": "bytes",
          "name": "_deployData",
          "type": "bytes"
        }
      ],
      "name": "deployPool",
      "outputs": [
        {
          "internalType": "address",
          "name": "pool",
          "type": "address"
        }
      ],
      "stateMutability": "nonpayable",
      "type": "function"
    },
    {
      "inputs": [],
      "name": "dfynFee",
      "outputs": [
        {
          "internalType": "uint256",
          "name": "",
          "type": "uint256"
        }
      ],
      "stateMutability": "view",
      "type": "function"
    },
    {
      "inputs": [],
      "name": "dfynFeeTo",
      "outputs": [
        {
          "internalType": "address",
          "name": "",
          "type": "address"
        }
      ],
      "stateMutability": "view",
      "type": "function"
    },
    {
      "inputs": [],
      "name": "limitOrderFee",
      "outputs": [
        {
          "internalType": "uint256",
          "name": "",
          "type": "uint256"
        }
      ],
      "stateMutability": "view",
      "type": "function"
    },
    {
      "inputs": [],
      "name": "owner",
      "outputs": [
        {
          "internalType": "address",
          "name": "",
          "type": "address"
        }
      ],
      "stateMutability": "view",
      "type": "function"
    },
    {
      "inputs": [
        {
          "internalType": "address",
          "name": "",
          "type": "address"
        }
      ],
      "name": "pools",
      "outputs": [
        {
          "internalType": "bool",
          "name": "",
          "type": "bool"
        }
      ],
      "stateMutability": "view",
      "type": "function"
    },
    {
      "inputs": [
        {
          "internalType": "address",
          "name": "_factory",
          "type": "address"
        }
      ],
      "name": "removeFromWhitelist",
      "outputs": [],
      "stateMutability": "nonpayable",
      "type": "function"
    },
    {
      "inputs": [],
      "name": "renounceOwnership",
      "outputs": [],
      "stateMutability": "nonpayable",
      "type": "function"
    },
    {
      "inputs": [
        {
          "internalType": "uint256",
          "name": "_dfynFee",
          "type": "uint256"
        }
      ],
      "name": "setDfynFee",
      "outputs": [],
      "stateMutability": "nonpayable",
      "type": "function"
    },
    {
      "inputs": [
        {
          "internalType": "uint256",
          "name": "_limitOrderFee",
          "type": "uint256"
        }
      ],
      "name": "setLimitOrderFee",
      "outputs": [],
      "stateMutability": "nonpayable",
      "type": "function"
    },
    {
      "inputs": [
        {
          "internalType": "address",
          "name": "newOwner",
          "type": "address"
        }
      ],
      "name": "transferOwnership",
      "outputs": [],
      "stateMutability": "nonpayable",
      "type": "function"
    },
    {
      "inputs": [],
      "name": "vault",
      "outputs": [
        {
          "internalType": "address",
          "name": "",
          "type": "address"
        }
      ],
      "stateMutability": "view",
      "type": "function"
    },
    {
      "inputs": [
        {
          "internalType": "address",
          "name": "",
          "type": "address"
        }
      ],
      "name": "whitelistedFactories",
      "outputs": [
        {
          "internalType": "bool",
          "name": "",
          "type": "bool"
        }
      ],
      "stateMutability": "view",
      "type": "function"
    }
  ],
  "bytecode": "0x60c060405234801561001057600080fd5b506040516109b23803806109b283398101604081905261002f91610135565b610038336100c9565b61271084111561005b5760405163692e0e7960e11b815260040160405180910390fd5b6001600160a01b0383166100825760405163d92e233d60e01b815260040160405180910390fd5b6001600160a01b0382166100a95760405163d92e233d60e01b815260040160405180910390fd5b6001939093556001600160a01b039182166080521660a052600255610179565b600080546001600160a01b038381166001600160a01b0319831681178455604051919092169283917f8be0079c531659141344cd1fd0a4f28419497f9722a3daafe3b4186f6b6457e09190a35050565b80516001600160a01b038116811461013057600080fd5b919050565b6000806000806080858703121561014b57600080fd5b8451935061015b60208601610119565b925061016960408601610119565b6060959095015193969295505050565b60805160a05161081561019d600039600061023b0152600060f401526108156000f3fe608060405234801561001057600080fd5b50600436106100ea5760003560e01c8063715018a61161008c578063a4063dbc11610066578063a4063dbc146101ed578063e43252d714610210578063f2fde38b14610223578063fbfa77cf1461023657600080fd5b8063715018a6146101c15780638ab1d681146101c95780638da5cb5b146101dc57600080fd5b8063432cb5d5116100c8578063432cb5d51461015d578063458edd7414610166578063611115bc1461017b5780636f50f2f41461018e57600080fd5b80630bf9d29e146100ef578063250558dc1461013357806327ca100914610146575b600080fd5b6101167f000000000000000000000000000000000000000000000000000000000000000081565b6040516001600160a01b0390911681526020015b60405180910390f35b61011661014136600461069c565b61025d565b61014f60025481565b60405190815260200161012a565b61014f60015481565b610179610174366004610721565b610374565b005b610179610189366004610721565b6103fd565b6101b161019c36600461073a565b60046020526000908152604090205460ff1681565b604051901515815260200161012a565b61017961047d565b6101796101d736600461073a565b6104b3565b6000546001600160a01b0316610116565b6101b16101fb36600461073a565b60036020526000908152604090205460ff1681565b61017961021e36600461073a565b610526565b61017961023136600461073a565b61059c565b6101167f000000000000000000000000000000000000000000000000000000000000000081565b6001600160a01b03831660009081526004602052604081205460ff1661029657604051630b094f2760e31b815260040160405180910390fd5b6040516327c3cae160e01b81526001600160a01b038516906327c3cae1906102c4908690869060040161075e565b6020604051808303816000875af11580156102e3573d6000803e3d6000fd5b505050506040513d601f19601f82011682018060405250810190610307919061078d565b6001600160a01b0380821660008181526003602052604090819020805460ff191660011790555192935091908616907fe469f9471ac1d98222517eb2cdff1ef4df5f7880269173bb782bb78e499d9de390610365908790879061075e565b60405180910390a39392505050565b6000546001600160a01b031633146103a75760405162461bcd60e51b815260040161039e906107aa565b60405180910390fd5b6127108111156103ca5760405163106660bb60e01b815260040160405180910390fd5b600281905560405181907fa5f3ff54111cbdcbdb93a4e36e876aafb31fd489212274e2235561c1f77510dc90600090a250565b6000546001600160a01b031633146104275760405162461bcd60e51b815260040161039e906107aa565b61271081111561044a5760405163692e0e7960e11b815260040160405180910390fd5b600181905560405181907f5dd564a1b1213e982e1b568a6dac01eaf117eccc487d06b7354644a82213ca0a90600090a250565b6000546001600160a01b031633146104a75760405162461bcd60e51b815260040161039e906107aa565b6104b16000610637565b565b6000546001600160a01b031633146104dd5760405162461bcd60e51b815260040161039e906107aa565b6001600160a01b038116600081815260046020526040808220805460ff19169055517f1f756c8b089af6b33ee121fee8badac2553a2fa89c0575ea91ff8792617746c29190a250565b6000546001600160a01b031633146105505760405162461bcd60e51b815260040161039e906107aa565b6001600160a01b038116600081815260046020526040808220805460ff19166001179055517f75b2135d1c8c3519f3c09c43fe6527089ef09f40c7981ebf0ed46e79e79032c79190a250565b6000546001600160a01b031633146105c65760405162461bcd60e51b815260040161039e906107aa565b6001600160a01b03811661062b5760405162461bcd60e51b815260206004820152602660248201527f4f776e61626c653a206e6577206f776e657220697320746865207a65726f206160448201526564647265737360d01b606482015260840161039e565b61063481610637565b50565b600080546001600160a01b038381166001600160a01b0319831681178455604051919092169283917f8be0079c531659141344cd1fd0a4f28419497f9722a3daafe3b4186f6b6457e09190a35050565b6001600160a01b038116811461063457600080fd5b6000806000604084860312156106b157600080fd5b83356106bc81610687565b9250602084013567ffffffffffffffff808211156106d957600080fd5b818601915086601f8301126106ed57600080fd5b8135818111156106fc57600080fd5b87602082850101111561070e57600080fd5b6020830194508093505050509250925092565b60006020828403121561073357600080fd5b5035919050565b60006020828403121561074c57600080fd5b813561075781610687565b9392505050565b60208152816020820152818360408301376000818301604090810191909152601f909201601f19160101919050565b60006020828403121561079f57600080fd5b815161075781610687565b6020808252818101527f4f776e61626c653a2063616c6c6572206973206e6f7420746865206f776e657260408201526060019056fea26469706673582212208544bc191b4b64ad83b1f2f669396f9dcd6065130fce7f6170e953e5936e043f64736f6c634300080a0033",
  "linkReferences": {},
  "deployedLinkReferences": {}
}