{
  "_format": "hh-sol-artifact-1",
  "contractName": "MasterDeployer",
  "sourceName": "contracts/deployer/MasterDeployer.sol",
  "abi": [
    {
      "inputs": [
        {
          "internalType": "uint256",
          "name": "_barFee",
          "type": "uint256"
        },
        {
          "internalType": "address",
          "name": "_barFeeTo",
          "type": "address"
        },
        {
          "internalType": "address",
          "name": "_vault",
          "type": "address"
        }
      ],
      "stateMutability": "nonpayable",
      "type": "constructor"
    },
    {
      "inputs": [],
      "name": "InvalidBarFee",
      "type": "error"
    },
    {
      "inputs": [],
      "name": "NotWhitelisted",
      "type": "error"
    },
    {
      "inputs": [],
      "name": "ZeroAddress",
      "type": "error"
    },
    {
      "anonymous": false,
      "inputs": [
        {
          "indexed": true,
          "internalType": "address",
          "name": "factory",
          "type": "address"
        }
      ],
      "name": "AddToWhitelist",
      "type": "event"
    },
    {
      "anonymous": false,
      "inputs": [
        {
          "indexed": true,
          "internalType": "uint256",
          "name": "barFee",
          "type": "uint256"
        }
      ],
      "name": "BarFeeUpdated",
      "type": "event"
    },
    {
      "anonymous": false,
      "inputs": [
        {
          "indexed": true,
          "internalType": "address",
          "name": "factory",
          "type": "address"
        },
        {
          "indexed": true,
          "internalType": "address",
          "name": "pool",
          "type": "address"
        },
        {
          "indexed": false,
          "internalType": "bytes",
          "name": "deployData",
          "type": "bytes"
        }
      ],
      "name": "DeployPool",
      "type": "event"
    },
    {
      "anonymous": false,
      "inputs": [
        {
          "indexed": true,
          "internalType": "address",
          "name": "previousOwner",
          "type": "address"
        },
        {
          "indexed": true,
          "internalType": "address",
          "name": "newOwner",
          "type": "address"
        }
      ],
      "name": "OwnershipTransferred",
      "type": "event"
    },
    {
      "anonymous": false,
      "inputs": [
        {
          "indexed": true,
          "internalType": "address",
          "name": "factory",
          "type": "address"
        }
      ],
      "name": "RemoveFromWhitelist",
      "type": "event"
    },
    {
      "inputs": [
        {
          "internalType": "address",
          "name": "_factory",
          "type": "address"
        }
      ],
      "name": "addToWhitelist",
      "outputs": [],
      "stateMutability": "nonpayable",
      "type": "function"
    },
    {
      "inputs": [],
      "name": "barFee",
      "outputs": [
        {
          "internalType": "uint256",
          "name": "",
          "type": "uint256"
        }
      ],
      "stateMutability": "view",
      "type": "function"
    },
    {
      "inputs": [],
      "name": "barFeeTo",
      "outputs": [
        {
          "internalType": "address",
          "name": "",
          "type": "address"
        }
      ],
      "stateMutability": "view",
      "type": "function"
    },
    {
      "inputs": [
        {
          "internalType": "address",
          "name": "_factory",
          "type": "address"
        },
        {
          "internalType": "bytes",
          "name": "_deployData",
          "type": "bytes"
        }
      ],
      "name": "deployPool",
      "outputs": [
        {
          "internalType": "address",
          "name": "pool",
          "type": "address"
        }
      ],
      "stateMutability": "nonpayable",
      "type": "function"
    },
    {
      "inputs": [],
      "name": "owner",
      "outputs": [
        {
          "internalType": "address",
          "name": "",
          "type": "address"
        }
      ],
      "stateMutability": "view",
      "type": "function"
    },
    {
      "inputs": [
        {
          "internalType": "address",
          "name": "",
          "type": "address"
        }
      ],
      "name": "pools",
      "outputs": [
        {
          "internalType": "bool",
          "name": "",
          "type": "bool"
        }
      ],
      "stateMutability": "view",
      "type": "function"
    },
    {
      "inputs": [
        {
          "internalType": "address",
          "name": "_factory",
          "type": "address"
        }
      ],
      "name": "removeFromWhitelist",
      "outputs": [],
      "stateMutability": "nonpayable",
      "type": "function"
    },
    {
      "inputs": [],
      "name": "renounceOwnership",
      "outputs": [],
      "stateMutability": "nonpayable",
      "type": "function"
    },
    {
      "inputs": [
        {
          "internalType": "uint256",
          "name": "_barFee",
          "type": "uint256"
        }
      ],
      "name": "setBarFee",
      "outputs": [],
      "stateMutability": "nonpayable",
      "type": "function"
    },
    {
      "inputs": [
        {
          "internalType": "address",
          "name": "newOwner",
          "type": "address"
        }
      ],
      "name": "transferOwnership",
      "outputs": [],
      "stateMutability": "nonpayable",
      "type": "function"
    },
    {
      "inputs": [],
      "name": "vault",
      "outputs": [
        {
          "internalType": "address",
          "name": "",
          "type": "address"
        }
      ],
      "stateMutability": "view",
      "type": "function"
    },
    {
      "inputs": [
        {
          "internalType": "address",
          "name": "",
          "type": "address"
        }
      ],
      "name": "whitelistedFactories",
      "outputs": [
        {
          "internalType": "bool",
          "name": "",
          "type": "bool"
        }
      ],
      "stateMutability": "view",
      "type": "function"
    }
  ],
  "bytecode": "0x60c060405234801561001057600080fd5b50604051610a26380380610a2683398101604081905261002f91610132565b610038336100c6565b61271083111561005b57604051637c2d2d2b60e01b815260040160405180910390fd5b6001600160a01b0382166100825760405163d92e233d60e01b815260040160405180910390fd5b6001600160a01b0381166100a95760405163d92e233d60e01b815260040160405180910390fd5b6001929092556001600160a01b039081166080521660a05261016e565b600080546001600160a01b038381166001600160a01b0319831681178455604051919092169283917f8be0079c531659141344cd1fd0a4f28419497f9722a3daafe3b4186f6b6457e09190a35050565b80516001600160a01b038116811461012d57600080fd5b919050565b60008060006060848603121561014757600080fd5b8351925061015760208501610116565b915061016560408501610116565b90509250925092565b60805160a05161089461019260003960006102090152600060f301526108946000f3fe608060405234801561001057600080fd5b50600436106100d45760003560e01c80638da5cb5b11610081578063e43252d71161005b578063e43252d7146101de578063f2fde38b146101f1578063fbfa77cf1461020457600080fd5b80638da5cb5b14610193578063a4063dbc146101a4578063c14ad802146101c757600080fd5b80636f50f2f4116100b25780636f50f2f414610145578063715018a6146101785780638ab1d6811461018057600080fd5b806306e22d12146100d95780630c0a0cd2146100ee578063250558dc14610132575b600080fd5b6100ec6100e736600461073b565b61022b565b005b6101157f000000000000000000000000000000000000000000000000000000000000000081565b6040516001600160a01b0390911681526020015b60405180910390f35b610115610140366004610769565b6102f9565b6101686101533660046107ee565b60036020526000908152604090205460ff1681565b6040519015158152602001610129565b6100ec610442565b6100ec61018e3660046107ee565b6104a8565b6000546001600160a01b0316610115565b6101686101b23660046107ee565b60026020526000908152604090205460ff1681565b6101d060015481565b604051908152602001610129565b6100ec6101ec3660046107ee565b61054b565b6100ec6101ff3660046107ee565b6105f1565b6101157f000000000000000000000000000000000000000000000000000000000000000081565b6000546001600160a01b0316331461028a5760405162461bcd60e51b815260206004820181905260248201527f4f776e61626c653a2063616c6c6572206973206e6f7420746865206f776e657260448201526064015b60405180910390fd5b6127108111156102c6576040517f7c2d2d2b00000000000000000000000000000000000000000000000000000000815260040160405180910390fd5b600181905560405181907f880a5214911723edb25bb08410581af1de2e40c52eda03920990c4bc27011fb690600090a250565b6001600160a01b03831660009081526003602052604081205460ff1661034b576040517f584a793800000000000000000000000000000000000000000000000000000000815260040160405180910390fd5b6040517f27c3cae10000000000000000000000000000000000000000000000000000000081526001600160a01b038516906327c3cae1906103929086908690600401610812565b6020604051808303816000875af11580156103b1573d6000803e3d6000fd5b505050506040513d601f19601f820116820180604052508101906103d59190610841565b6001600160a01b0380821660008181526002602052604090819020805460ff191660011790555192935091908616907fe469f9471ac1d98222517eb2cdff1ef4df5f7880269173bb782bb78e499d9de3906104339087908790610812565b60405180910390a39392505050565b6000546001600160a01b0316331461049c5760405162461bcd60e51b815260206004820181905260248201527f4f776e61626c653a2063616c6c6572206973206e6f7420746865206f776e65726044820152606401610281565b6104a660006106d3565b565b6000546001600160a01b031633146105025760405162461bcd60e51b815260206004820181905260248201527f4f776e61626c653a2063616c6c6572206973206e6f7420746865206f776e65726044820152606401610281565b6001600160a01b038116600081815260036020526040808220805460ff19169055517f1f756c8b089af6b33ee121fee8badac2553a2fa89c0575ea91ff8792617746c29190a250565b6000546001600160a01b031633146105a55760405162461bcd60e51b815260206004820181905260248201527f4f776e61626c653a2063616c6c6572206973206e6f7420746865206f776e65726044820152606401610281565b6001600160a01b038116600081815260036020526040808220805460ff19166001179055517f75b2135d1c8c3519f3c09c43fe6527089ef09f40c7981ebf0ed46e79e79032c79190a250565b6000546001600160a01b0316331461064b5760405162461bcd60e51b815260206004820181905260248201527f4f776e61626c653a2063616c6c6572206973206e6f7420746865206f776e65726044820152606401610281565b6001600160a01b0381166106c75760405162461bcd60e51b815260206004820152602660248201527f4f776e61626c653a206e6577206f776e657220697320746865207a65726f206160448201527f64647265737300000000000000000000000000000000000000000000000000006064820152608401610281565b6106d0816106d3565b50565b600080546001600160a01b038381167fffffffffffffffffffffffff0000000000000000000000000000000000000000831681178455604051919092169283917f8be0079c531659141344cd1fd0a4f28419497f9722a3daafe3b4186f6b6457e09190a35050565b60006020828403121561074d57600080fd5b5035919050565b6001600160a01b03811681146106d057600080fd5b60008060006040848603121561077e57600080fd5b833561078981610754565b9250602084013567ffffffffffffffff808211156107a657600080fd5b818601915086601f8301126107ba57600080fd5b8135818111156107c957600080fd5b8760208285010111156107db57600080fd5b6020830194508093505050509250925092565b60006020828403121561080057600080fd5b813561080b81610754565b9392505050565b60208152816020820152818360408301376000818301604090810191909152601f909201601f19160101919050565b60006020828403121561085357600080fd5b815161080b8161075456fea2646970667358221220372a9c0b2bc90c1e36ac289d534b6464c6e38ae1836525210d16a3852a4dc90764736f6c634300080a0033",
  "linkReferences": {},
  "deployedLinkReferences": {}
}