{
  "_format": "hh-sol-artifact-1",
  "contractName": "ERC20PermitAllowedMock",
  "sourceName": "contracts/mocks/ERC20PermitAllowedMock.sol",
  "abi": [
    {
      "inputs": [
        {
          "internalType": "uint256",
          "name": "supply",
          "type": "uint256"
        }
      ],
      "stateMutability": "nonpayable",
      "type": "constructor"
    },
    {
      "anonymous": false,
      "inputs": [
        {
          "indexed": true,
          "internalType": "address",
          "name": "owner",
          "type": "address"
        },
        {
          "indexed": true,
          "internalType": "address",
          "name": "spender",
          "type": "address"
        },
        {
          "indexed": false,
          "internalType": "uint256",
          "name": "value",
          "type": "uint256"
        }
      ],
      "name": "Approval",
      "type": "event"
    },
    {
      "anonymous": false,
      "inputs": [
        {
          "indexed": true,
          "internalType": "address",
          "name": "from",
          "type": "address"
        },
        {
          "indexed": true,
          "internalType": "address",
          "name": "to",
          "type": "address"
        },
        {
          "indexed": false,
          "internalType": "uint256",
          "name": "value",
          "type": "uint256"
        }
      ],
      "name": "Transfer",
      "type": "event"
    },
    {
      "inputs": [],
      "name": "DOMAIN_SEPARATOR",
      "outputs": [
        {
          "internalType": "bytes32",
          "name": "",
          "type": "bytes32"
        }
      ],
      "stateMutability": "view",
      "type": "function"
    },
    {
      "inputs": [
        {
          "internalType": "address",
          "name": "owner",
          "type": "address"
        },
        {
          "internalType": "address",
          "name": "spender",
          "type": "address"
        }
      ],
      "name": "allowance",
      "outputs": [
        {
          "internalType": "uint256",
          "name": "",
          "type": "uint256"
        }
      ],
      "stateMutability": "view",
      "type": "function"
    },
    {
      "inputs": [
        {
          "internalType": "address",
          "name": "spender",
          "type": "address"
        },
        {
          "internalType": "uint256",
          "name": "amount",
          "type": "uint256"
        }
      ],
      "name": "approve",
      "outputs": [
        {
          "internalType": "bool",
          "name": "",
          "type": "bool"
        }
      ],
      "stateMutability": "nonpayable",
      "type": "function"
    },
    {
      "inputs": [
        {
          "internalType": "address",
          "name": "account",
          "type": "address"
        }
      ],
      "name": "balanceOf",
      "outputs": [
        {
          "internalType": "uint256",
          "name": "",
          "type": "uint256"
        }
      ],
      "stateMutability": "view",
      "type": "function"
    },
    {
      "inputs": [],
      "name": "decimals",
      "outputs": [
        {
          "internalType": "uint8",
          "name": "",
          "type": "uint8"
        }
      ],
      "stateMutability": "view",
      "type": "function"
    },
    {
      "inputs": [
        {
          "internalType": "address",
          "name": "spender",
          "type": "address"
        },
        {
          "internalType": "uint256",
          "name": "subtractedValue",
          "type": "uint256"
        }
      ],
      "name": "decreaseAllowance",
      "outputs": [
        {
          "internalType": "bool",
          "name": "",
          "type": "bool"
        }
      ],
      "stateMutability": "nonpayable",
      "type": "function"
    },
    {
      "inputs": [
        {
          "internalType": "address",
          "name": "spender",
          "type": "address"
        },
        {
          "internalType": "uint256",
          "name": "addedValue",
          "type": "uint256"
        }
      ],
      "name": "increaseAllowance",
      "outputs": [
        {
          "internalType": "bool",
          "name": "",
          "type": "bool"
        }
      ],
      "stateMutability": "nonpayable",
      "type": "function"
    },
    {
      "inputs": [],
      "name": "name",
      "outputs": [
        {
          "internalType": "string",
          "name": "",
          "type": "string"
        }
      ],
      "stateMutability": "view",
      "type": "function"
    },
    {
      "inputs": [
        {
          "internalType": "address",
          "name": "owner",
          "type": "address"
        }
      ],
      "name": "nonces",
      "outputs": [
        {
          "internalType": "uint256",
          "name": "",
          "type": "uint256"
        }
      ],
      "stateMutability": "view",
      "type": "function"
    },
    {
      "inputs": [
        {
          "internalType": "address",
          "name": "holder",
          "type": "address"
        },
        {
          "internalType": "address",
          "name": "spender",
          "type": "address"
        },
        {
          "internalType": "uint256",
          "name": "nonce",
          "type": "uint256"
        },
        {
          "internalType": "uint256",
          "name": "expiry",
          "type": "uint256"
        },
        {
          "internalType": "bool",
          "name": "allowed",
          "type": "bool"
        },
        {
          "internalType": "uint8",
          "name": "v",
          "type": "uint8"
        },
        {
          "internalType": "bytes32",
          "name": "r",
          "type": "bytes32"
        },
        {
          "internalType": "bytes32",
          "name": "s",
          "type": "bytes32"
        }
      ],
      "name": "permit",
      "outputs": [],
      "stateMutability": "nonpayable",
      "type": "function"
    },
    {
      "inputs": [
        {
          "internalType": "address",
          "name": "owner",
          "type": "address"
        },
        {
          "internalType": "address",
          "name": "spender",
          "type": "address"
        },
        {
          "internalType": "uint256",
          "name": "value",
          "type": "uint256"
        },
        {
          "internalType": "uint256",
          "name": "deadline",
          "type": "uint256"
        },
        {
          "internalType": "uint8",
          "name": "v",
          "type": "uint8"
        },
        {
          "internalType": "bytes32",
          "name": "r",
          "type": "bytes32"
        },
        {
          "internalType": "bytes32",
          "name": "s",
          "type": "bytes32"
        }
      ],
      "name": "permit",
      "outputs": [],
      "stateMutability": "nonpayable",
      "type": "function"
    },
    {
      "inputs": [],
      "name": "symbol",
      "outputs": [
        {
          "internalType": "string",
          "name": "",
          "type": "string"
        }
      ],
      "stateMutability": "view",
      "type": "function"
    },
    {
      "inputs": [],
      "name": "totalSupply",
      "outputs": [
        {
          "internalType": "uint256",
          "name": "",
          "type": "uint256"
        }
      ],
      "stateMutability": "view",
      "type": "function"
    },
    {
      "inputs": [
        {
          "internalType": "address",
          "name": "to",
          "type": "address"
        },
        {
          "internalType": "uint256",
          "name": "amount",
          "type": "uint256"
        }
      ],
      "name": "transfer",
      "outputs": [
        {
          "internalType": "bool",
          "name": "",
          "type": "bool"
        }
      ],
      "stateMutability": "nonpayable",
      "type": "function"
    },
    {
      "inputs": [
        {
          "internalType": "address",
          "name": "from",
          "type": "address"
        },
        {
          "internalType": "address",
          "name": "to",
          "type": "address"
        },
        {
          "internalType": "uint256",
          "name": "amount",
          "type": "uint256"
        }
      ],
      "name": "transferFrom",
      "outputs": [
        {
          "internalType": "bool",
          "name": "",
          "type": "bool"
        }
      ],
      "stateMutability": "nonpayable",
      "type": "function"
    }
  ],
  "bytecode": "0x6101606040527f6e71edae12b1b97f4d1f60370fef10105fa2faae0126114a169c64845d6126c9610140523480156200003757600080fd5b506040516200156a3803806200156a8339810160408190526200005a9162000319565b604051806040016040528060048152602001634d6f636b60e01b815250604051806040016040528060048152602001634d4f434b60e01b815250828280604051806040016040528060018152602001603160f81b81525085858160039080519060200190620000cb92919062000273565b508051620000e190600490602084019062000273565b5050825160209384012082519284019290922060e08390526101008190524660a0818152604080517f8b73c3c69bb8fe3d512ecc4cf759cc79239f7b179b0ffacaa9a75d522b39400f818901819052818301979097526060810194909452608080850193909352308483018190528151808603909301835260c094850190915281519190960120905292909252610120525062000181905033826200018b565b5050505062000397565b6001600160a01b038216620001e65760405162461bcd60e51b815260206004820152601f60248201527f45524332303a206d696e7420746f20746865207a65726f206164647265737300604482015260640160405180910390fd5b8060026000828254620001fa919062000333565b90915550506001600160a01b038216600090815260208190526040812080548392906200022990849062000333565b90915550506040518181526001600160a01b038316906000907fddf252ad1be2c89b69c2b068fc378daa952ba7f163c4a11628f55a4df523b3ef9060200160405180910390a35050565b82805462000281906200035a565b90600052602060002090601f016020900481019282620002a55760008555620002f0565b82601f10620002c057805160ff1916838001178555620002f0565b82800160010185558215620002f0579182015b82811115620002f0578251825591602001919060010190620002d3565b50620002fe92915062000302565b5090565b5b80821115620002fe576000815560010162000303565b6000602082840312156200032c57600080fd5b5051919050565b600082198211156200035557634e487b7160e01b600052601160045260246000fd5b500190565b600181811c908216806200036f57607f821691505b602082108114156200039157634e487b7160e01b600052602260045260246000fd5b50919050565b60805160a05160c05160e051610100516101205161014051611178620003f2600039600061058b01526000610aa901526000610af801526000610ad301526000610a2c01526000610a5601526000610a8001526111786000f3fe608060405234801561001057600080fd5b50600436106100f55760003560e01c806370a0823111610097578063a457c2d711610066578063a457c2d7146101e3578063a9059cbb146101f6578063d505accf14610209578063dd62ed3e1461021c57600080fd5b806370a082311461018a5780637ecebe00146101b35780638fcbaf0c146101c657806395d89b41146101db57600080fd5b806323b872dd116100d357806323b872dd1461014d578063313ce567146101605780633644e5151461016f578063395093511461017757600080fd5b806306fdde03146100fa578063095ea7b31461011857806318160ddd1461013b575b600080fd5b610102610255565b60405161010f9190610e8f565b60405180910390f35b61012b610126366004610f00565b6102e7565b604051901515815260200161010f565b6002545b60405190815260200161010f565b61012b61015b366004610f2a565b6102ff565b6040516012815260200161010f565b61013f610323565b61012b610185366004610f00565b610332565b61013f610198366004610f66565b6001600160a01b031660009081526020819052604090205490565b61013f6101c1366004610f66565b610371565b6101d96101d4366004610f99565b610391565b005b610102610488565b61012b6101f1366004610f00565b610497565b61012b610204366004610f00565b610529565b6101d961021736600461101b565b610537565b61013f61022a366004611085565b6001600160a01b03918216600090815260016020908152604080832093909416825291909152205490565b606060038054610264906110b8565b80601f0160208091040260200160405190810160405280929190818152602001828054610290906110b8565b80156102dd5780601f106102b2576101008083540402835291602001916102dd565b820191906000526020600020905b8154815290600101906020018083116102c057829003601f168201915b5050505050905090565b6000336102f581858561069b565b5060019392505050565b60003361030d8582856107bf565b610318858585610851565b506001949350505050565b600061032d610a1f565b905090565b3360008181526001602090815260408083206001600160a01b03871684529091528120549091906102f5908290869061036c9087906110ed565b61069b565b6001600160a01b0381166000908152600560205260408120545b92915050565b604051623f675f60e91b81526001600160a01b038916600482015286903090637ecebe0090602401602060405180830381865afa1580156103d6573d6000803e3d6000fd5b505050506040513d601f19601f820116820180604052508101906103fa9190611113565b146104605760405162461bcd60e51b815260206004820152602b60248201527f45524332305065726d6974416c6c6f7765644d6f636b3a3a7065726d69743a2060448201526a77726f6e67206e6f6e636560a81b60648201526084015b60405180910390fd5b61047e888886610471576000610475565b6000195b88878787610537565b5050505050505050565b606060048054610264906110b8565b3360008181526001602090815260408083206001600160a01b03871684529091528120549091908381101561051c5760405162461bcd60e51b815260206004820152602560248201527f45524332303a2064656372656173656420616c6c6f77616e63652062656c6f77604482015264207a65726f60d81b6064820152608401610457565b610318828686840361069b565b6000336102f5818585610851565b834211156105875760405162461bcd60e51b815260206004820152601d60248201527f45524332305065726d69743a206578706972656420646561646c696e650000006044820152606401610457565b60007f00000000000000000000000000000000000000000000000000000000000000008888886105b68c610b46565b6040805160208101969096526001600160a01b0394851690860152929091166060840152608083015260a082015260c0810186905260e001604051602081830303815290604052805190602001209050600061061182610b6e565b9050600061062182878787610bbc565b9050896001600160a01b0316816001600160a01b0316146106845760405162461bcd60e51b815260206004820152601e60248201527f45524332305065726d69743a20696e76616c6964207369676e617475726500006044820152606401610457565b61068f8a8a8a61069b565b50505050505050505050565b6001600160a01b0383166106fd5760405162461bcd60e51b8152602060048201526024808201527f45524332303a20617070726f76652066726f6d20746865207a65726f206164646044820152637265737360e01b6064820152608401610457565b6001600160a01b03821661075e5760405162461bcd60e51b815260206004820152602260248201527f45524332303a20617070726f766520746f20746865207a65726f206164647265604482015261737360f01b6064820152608401610457565b6001600160a01b0383811660008181526001602090815260408083209487168084529482529182902085905590518481527f8c5be1e5ebec7d5bd14f71427d1e84f3dd0314c0f7b2291e5b200ac8c7c3b925910160405180910390a3505050565b6001600160a01b03838116600090815260016020908152604080832093861683529290522054600019811461084b578181101561083e5760405162461bcd60e51b815260206004820152601d60248201527f45524332303a20696e73756666696369656e7420616c6c6f77616e63650000006044820152606401610457565b61084b848484840361069b565b50505050565b6001600160a01b0383166108b55760405162461bcd60e51b815260206004820152602560248201527f45524332303a207472616e736665722066726f6d20746865207a65726f206164604482015264647265737360d81b6064820152608401610457565b6001600160a01b0382166109175760405162461bcd60e51b815260206004820152602360248201527f45524332303a207472616e7366657220746f20746865207a65726f206164647260448201526265737360e81b6064820152608401610457565b6001600160a01b0383166000908152602081905260409020548181101561098f5760405162461bcd60e51b815260206004820152602660248201527f45524332303a207472616e7366657220616d6f756e7420657863656564732062604482015265616c616e636560d01b6064820152608401610457565b6001600160a01b038085166000908152602081905260408082208585039055918516815290812080548492906109c69084906110ed565b92505081905550826001600160a01b0316846001600160a01b03167fddf252ad1be2c89b69c2b068fc378daa952ba7f163c4a11628f55a4df523b3ef84604051610a1291815260200190565b60405180910390a361084b565b6000306001600160a01b037f000000000000000000000000000000000000000000000000000000000000000016148015610a7857507f000000000000000000000000000000000000000000000000000000000000000046145b15610aa257507f000000000000000000000000000000000000000000000000000000000000000090565b50604080517f00000000000000000000000000000000000000000000000000000000000000006020808301919091527f0000000000000000000000000000000000000000000000000000000000000000828401527f000000000000000000000000000000000000000000000000000000000000000060608301524660808301523060a0808401919091528351808403909101815260c0909201909252805191012090565b6001600160a01b03811660009081526005602052604090208054600181018255905b50919050565b600061038b610b7b610a1f565b8360405161190160f01b6020820152602281018390526042810182905260009060620160405160208183030381529060405280519060200120905092915050565b6000806000610bcd87878787610be4565b91509150610bda81610cd1565b5095945050505050565b6000807f7fffffffffffffffffffffffffffffff5d576e7357a4501ddfe92f46681b20a0831115610c1b5750600090506003610cc8565b8460ff16601b14158015610c3357508460ff16601c14155b15610c445750600090506004610cc8565b6040805160008082526020820180845289905260ff881692820192909252606081018690526080810185905260019060a0016020604051602081039080840390855afa158015610c98573d6000803e3d6000fd5b5050604051601f1901519150506001600160a01b038116610cc157600060019250925050610cc8565b9150600090505b94509492505050565b6000816004811115610ce557610ce561112c565b1415610cee5750565b6001816004811115610d0257610d0261112c565b1415610d505760405162461bcd60e51b815260206004820152601860248201527f45434453413a20696e76616c6964207369676e617475726500000000000000006044820152606401610457565b6002816004811115610d6457610d6461112c565b1415610db25760405162461bcd60e51b815260206004820152601f60248201527f45434453413a20696e76616c6964207369676e6174757265206c656e677468006044820152606401610457565b6003816004811115610dc657610dc661112c565b1415610e1f5760405162461bcd60e51b815260206004820152602260248201527f45434453413a20696e76616c6964207369676e6174757265202773272076616c604482015261756560f01b6064820152608401610457565b6004816004811115610e3357610e3361112c565b1415610e8c5760405162461bcd60e51b815260206004820152602260248201527f45434453413a20696e76616c6964207369676e6174757265202776272076616c604482015261756560f01b6064820152608401610457565b50565b600060208083528351808285015260005b81811015610ebc57858101830151858201604001528201610ea0565b81811115610ece576000604083870101525b50601f01601f1916929092016040019392505050565b80356001600160a01b0381168114610efb57600080fd5b919050565b60008060408385031215610f1357600080fd5b610f1c83610ee4565b946020939093013593505050565b600080600060608486031215610f3f57600080fd5b610f4884610ee4565b9250610f5660208501610ee4565b9150604084013590509250925092565b600060208284031215610f7857600080fd5b610f8182610ee4565b9392505050565b803560ff81168114610efb57600080fd5b600080600080600080600080610100898b031215610fb657600080fd5b610fbf89610ee4565b9750610fcd60208a01610ee4565b9650604089013595506060890135945060808901358015158114610ff057600080fd5b9350610ffe60a08a01610f88565b925060c0890135915060e089013590509295985092959890939650565b600080600080600080600060e0888a03121561103657600080fd5b61103f88610ee4565b965061104d60208901610ee4565b9550604088013594506060880135935061106960808901610f88565b925060a0880135915060c0880135905092959891949750929550565b6000806040838503121561109857600080fd5b6110a183610ee4565b91506110af60208401610ee4565b90509250929050565b600181811c908216806110cc57607f821691505b60208210811415610b6857634e487b7160e01b600052602260045260246000fd5b6000821982111561110e57634e487b7160e01b600052601160045260246000fd5b500190565b60006020828403121561112557600080fd5b5051919050565b634e487b7160e01b600052602160045260246000fdfea2646970667358221220a843b919a6bdcf55f2b7cb3099bd89f4a4e7060bd5b1b39cc972e0075928b21864736f6c634300080a0033",
  "linkReferences": {},
  "deployedLinkReferences": {}
}