{
  "_format": "hh-sol-artifact-1",
  "contractName": "ERC20PermitAllowedMock",
  "sourceName": "contracts/mocks/ERC20PermitAllowedMock.sol",
  "abi": [
    {
      "inputs": [
        {
          "internalType": "uint256",
          "name": "supply",
          "type": "uint256"
        }
      ],
      "stateMutability": "nonpayable",
      "type": "constructor"
    },
    {
      "anonymous": false,
      "inputs": [
        {
          "indexed": true,
          "internalType": "address",
          "name": "owner",
          "type": "address"
        },
        {
          "indexed": true,
          "internalType": "address",
          "name": "spender",
          "type": "address"
        },
        {
          "indexed": false,
          "internalType": "uint256",
          "name": "value",
          "type": "uint256"
        }
      ],
      "name": "Approval",
      "type": "event"
    },
    {
      "anonymous": false,
      "inputs": [
        {
          "indexed": true,
          "internalType": "address",
          "name": "from",
          "type": "address"
        },
        {
          "indexed": true,
          "internalType": "address",
          "name": "to",
          "type": "address"
        },
        {
          "indexed": false,
          "internalType": "uint256",
          "name": "value",
          "type": "uint256"
        }
      ],
      "name": "Transfer",
      "type": "event"
    },
    {
      "inputs": [],
      "name": "DOMAIN_SEPARATOR",
      "outputs": [
        {
          "internalType": "bytes32",
          "name": "",
          "type": "bytes32"
        }
      ],
      "stateMutability": "view",
      "type": "function"
    },
    {
      "inputs": [
        {
          "internalType": "address",
          "name": "owner",
          "type": "address"
        },
        {
          "internalType": "address",
          "name": "spender",
          "type": "address"
        }
      ],
      "name": "allowance",
      "outputs": [
        {
          "internalType": "uint256",
          "name": "",
          "type": "uint256"
        }
      ],
      "stateMutability": "view",
      "type": "function"
    },
    {
      "inputs": [
        {
          "internalType": "address",
          "name": "spender",
          "type": "address"
        },
        {
          "internalType": "uint256",
          "name": "amount",
          "type": "uint256"
        }
      ],
      "name": "approve",
      "outputs": [
        {
          "internalType": "bool",
          "name": "",
          "type": "bool"
        }
      ],
      "stateMutability": "nonpayable",
      "type": "function"
    },
    {
      "inputs": [
        {
          "internalType": "address",
          "name": "account",
          "type": "address"
        }
      ],
      "name": "balanceOf",
      "outputs": [
        {
          "internalType": "uint256",
          "name": "",
          "type": "uint256"
        }
      ],
      "stateMutability": "view",
      "type": "function"
    },
    {
      "inputs": [],
      "name": "decimals",
      "outputs": [
        {
          "internalType": "uint8",
          "name": "",
          "type": "uint8"
        }
      ],
      "stateMutability": "view",
      "type": "function"
    },
    {
      "inputs": [
        {
          "internalType": "address",
          "name": "spender",
          "type": "address"
        },
        {
          "internalType": "uint256",
          "name": "subtractedValue",
          "type": "uint256"
        }
      ],
      "name": "decreaseAllowance",
      "outputs": [
        {
          "internalType": "bool",
          "name": "",
          "type": "bool"
        }
      ],
      "stateMutability": "nonpayable",
      "type": "function"
    },
    {
      "inputs": [
        {
          "internalType": "address",
          "name": "spender",
          "type": "address"
        },
        {
          "internalType": "uint256",
          "name": "addedValue",
          "type": "uint256"
        }
      ],
      "name": "increaseAllowance",
      "outputs": [
        {
          "internalType": "bool",
          "name": "",
          "type": "bool"
        }
      ],
      "stateMutability": "nonpayable",
      "type": "function"
    },
    {
      "inputs": [],
      "name": "name",
      "outputs": [
        {
          "internalType": "string",
          "name": "",
          "type": "string"
        }
      ],
      "stateMutability": "view",
      "type": "function"
    },
    {
      "inputs": [
        {
          "internalType": "address",
          "name": "owner",
          "type": "address"
        }
      ],
      "name": "nonces",
      "outputs": [
        {
          "internalType": "uint256",
          "name": "",
          "type": "uint256"
        }
      ],
      "stateMutability": "view",
      "type": "function"
    },
    {
      "inputs": [
        {
          "internalType": "address",
          "name": "holder",
          "type": "address"
        },
        {
          "internalType": "address",
          "name": "spender",
          "type": "address"
        },
        {
          "internalType": "uint256",
          "name": "nonce",
          "type": "uint256"
        },
        {
          "internalType": "uint256",
          "name": "expiry",
          "type": "uint256"
        },
        {
          "internalType": "bool",
          "name": "allowed",
          "type": "bool"
        },
        {
          "internalType": "uint8",
          "name": "v",
          "type": "uint8"
        },
        {
          "internalType": "bytes32",
          "name": "r",
          "type": "bytes32"
        },
        {
          "internalType": "bytes32",
          "name": "s",
          "type": "bytes32"
        }
      ],
      "name": "permit",
      "outputs": [],
      "stateMutability": "nonpayable",
      "type": "function"
    },
    {
      "inputs": [
        {
          "internalType": "address",
          "name": "owner",
          "type": "address"
        },
        {
          "internalType": "address",
          "name": "spender",
          "type": "address"
        },
        {
          "internalType": "uint256",
          "name": "value",
          "type": "uint256"
        },
        {
          "internalType": "uint256",
          "name": "deadline",
          "type": "uint256"
        },
        {
          "internalType": "uint8",
          "name": "v",
          "type": "uint8"
        },
        {
          "internalType": "bytes32",
          "name": "r",
          "type": "bytes32"
        },
        {
          "internalType": "bytes32",
          "name": "s",
          "type": "bytes32"
        }
      ],
      "name": "permit",
      "outputs": [],
      "stateMutability": "nonpayable",
      "type": "function"
    },
    {
      "inputs": [],
      "name": "symbol",
      "outputs": [
        {
          "internalType": "string",
          "name": "",
          "type": "string"
        }
      ],
      "stateMutability": "view",
      "type": "function"
    },
    {
      "inputs": [],
      "name": "totalSupply",
      "outputs": [
        {
          "internalType": "uint256",
          "name": "",
          "type": "uint256"
        }
      ],
      "stateMutability": "view",
      "type": "function"
    },
    {
      "inputs": [
        {
          "internalType": "address",
          "name": "to",
          "type": "address"
        },
        {
          "internalType": "uint256",
          "name": "amount",
          "type": "uint256"
        }
      ],
      "name": "transfer",
      "outputs": [
        {
          "internalType": "bool",
          "name": "",
          "type": "bool"
        }
      ],
      "stateMutability": "nonpayable",
      "type": "function"
    },
    {
      "inputs": [
        {
          "internalType": "address",
          "name": "from",
          "type": "address"
        },
        {
          "internalType": "address",
          "name": "to",
          "type": "address"
        },
        {
          "internalType": "uint256",
          "name": "amount",
          "type": "uint256"
        }
      ],
      "name": "transferFrom",
      "outputs": [
        {
          "internalType": "bool",
          "name": "",
          "type": "bool"
        }
      ],
      "stateMutability": "nonpayable",
      "type": "function"
    }
  ],
  "bytecode": "0x6101606040527f6e71edae12b1b97f4d1f60370fef10105fa2faae0126114a169c64845d6126c9610140523480156200003757600080fd5b5060405162001646380380620016468339810160408190526200005a9162000319565b604051806040016040528060048152602001634d6f636b60e01b815250604051806040016040528060048152602001634d4f434b60e01b815250828280604051806040016040528060018152602001603160f81b81525085858160039080519060200190620000cb92919062000273565b508051620000e190600490602084019062000273565b5050825160209384012082519284019290922060e08390526101008190524660a0818152604080517f8b73c3c69bb8fe3d512ecc4cf759cc79239f7b179b0ffacaa9a75d522b39400f818901819052818301979097526060810194909452608080850193909352308483018190528151808603909301835260c094850190915281519190960120905292909252610120525062000181905033826200018b565b5050505062000397565b6001600160a01b038216620001e65760405162461bcd60e51b815260206004820152601f60248201527f45524332303a206d696e7420746f20746865207a65726f206164647265737300604482015260640160405180910390fd5b8060026000828254620001fa919062000333565b90915550506001600160a01b038216600090815260208190526040812080548392906200022990849062000333565b90915550506040518181526001600160a01b038316906000907fddf252ad1be2c89b69c2b068fc378daa952ba7f163c4a11628f55a4df523b3ef9060200160405180910390a35050565b82805462000281906200035a565b90600052602060002090601f016020900481019282620002a55760008555620002f0565b82601f10620002c057805160ff1916838001178555620002f0565b82800160010185558215620002f0579182015b82811115620002f0578251825591602001919060010190620002d3565b50620002fe92915062000302565b5090565b5b80821115620002fe576000815560010162000303565b6000602082840312156200032c57600080fd5b5051919050565b600082198211156200035557634e487b7160e01b600052601160045260246000fd5b500190565b600181811c908216806200036f57607f821691505b602082108114156200039157634e487b7160e01b600052602260045260246000fd5b50919050565b60805160a05160c05160e051610100516101205161014051611254620003f260003960006105cf01526000610b6a01526000610bb901526000610b9401526000610aed01526000610b1701526000610b4101526112546000f3fe608060405234801561001057600080fd5b50600436106100f55760003560e01c806370a0823111610097578063a457c2d711610066578063a457c2d7146101e3578063a9059cbb146101f6578063d505accf14610209578063dd62ed3e1461021c57600080fd5b806370a082311461018a5780637ecebe00146101b35780638fcbaf0c146101c657806395d89b41146101db57600080fd5b806323b872dd116100d357806323b872dd1461014d578063313ce567146101605780633644e5151461016f578063395093511461017757600080fd5b806306fdde03146100fa578063095ea7b31461011857806318160ddd1461013b575b600080fd5b610102610255565b60405161010f9190610f6b565b60405180910390f35b61012b610126366004610fdc565b6102e7565b604051901515815260200161010f565b6002545b60405190815260200161010f565b61012b61015b366004611006565b6102ff565b6040516012815260200161010f565b61013f610323565b61012b610185366004610fdc565b610332565b61013f610198366004611042565b6001600160a01b031660009081526020819052604090205490565b61013f6101c1366004611042565b610371565b6101d96101d4366004611075565b610391565b005b6101026104b4565b61012b6101f1366004610fdc565b6104c3565b61012b610204366004610fdc565b61056d565b6101d96102173660046110f7565b61057b565b61013f61022a366004611161565b6001600160a01b03918216600090815260016020908152604080832093909416825291909152205490565b60606003805461026490611194565b80601f016020809104026020016040519081016040528092919081815260200182805461029090611194565b80156102dd5780601f106102b2576101008083540402835291602001916102dd565b820191906000526020600020905b8154815290600101906020018083116102c057829003601f168201915b5050505050905090565b6000336102f58185856106df565b5060019392505050565b60003361030d858285610837565b6103188585856108c9565b506001949350505050565b600061032d610ae0565b905090565b3360008181526001602090815260408083206001600160a01b03871684529091528120549091906102f5908290869061036c9087906111c9565b6106df565b6001600160a01b0381166000908152600560205260408120545b92915050565b6040517f7ecebe000000000000000000000000000000000000000000000000000000000081526001600160a01b038916600482015286903090637ecebe0090602401602060405180830381865afa1580156103f0573d6000803e3d6000fd5b505050506040513d601f19601f8201168201806040525081019061041491906111ef565b1461048c5760405162461bcd60e51b815260206004820152602b60248201527f45524332305065726d6974416c6c6f7765644d6f636b3a3a7065726d69743a2060448201527f77726f6e67206e6f6e636500000000000000000000000000000000000000000060648201526084015b60405180910390fd5b6104aa88888661049d5760006104a1565b6000195b8887878761057b565b5050505050505050565b60606004805461026490611194565b3360008181526001602090815260408083206001600160a01b0387168452909152812054909190838110156105605760405162461bcd60e51b815260206004820152602560248201527f45524332303a2064656372656173656420616c6c6f77616e63652062656c6f7760448201527f207a65726f0000000000000000000000000000000000000000000000000000006064820152608401610483565b61031882868684036106df565b6000336102f58185856108c9565b834211156105cb5760405162461bcd60e51b815260206004820152601d60248201527f45524332305065726d69743a206578706972656420646561646c696e650000006044820152606401610483565b60007f00000000000000000000000000000000000000000000000000000000000000008888886105fa8c610c07565b6040805160208101969096526001600160a01b0394851690860152929091166060840152608083015260a082015260c0810186905260e001604051602081830303815290604052805190602001209050600061065582610c2f565b9050600061066582878787610c98565b9050896001600160a01b0316816001600160a01b0316146106c85760405162461bcd60e51b815260206004820152601e60248201527f45524332305065726d69743a20696e76616c6964207369676e617475726500006044820152606401610483565b6106d38a8a8a6106df565b50505050505050505050565b6001600160a01b03831661075a5760405162461bcd60e51b8152602060048201526024808201527f45524332303a20617070726f76652066726f6d20746865207a65726f2061646460448201527f72657373000000000000000000000000000000000000000000000000000000006064820152608401610483565b6001600160a01b0382166107d65760405162461bcd60e51b815260206004820152602260248201527f45524332303a20617070726f766520746f20746865207a65726f20616464726560448201527f73730000000000000000000000000000000000000000000000000000000000006064820152608401610483565b6001600160a01b0383811660008181526001602090815260408083209487168084529482529182902085905590518481527f8c5be1e5ebec7d5bd14f71427d1e84f3dd0314c0f7b2291e5b200ac8c7c3b925910160405180910390a3505050565b6001600160a01b0383811660009081526001602090815260408083209386168352929052205460001981146108c357818110156108b65760405162461bcd60e51b815260206004820152601d60248201527f45524332303a20696e73756666696369656e7420616c6c6f77616e63650000006044820152606401610483565b6108c384848484036106df565b50505050565b6001600160a01b0383166109455760405162461bcd60e51b815260206004820152602560248201527f45524332303a207472616e736665722066726f6d20746865207a65726f20616460448201527f64726573730000000000000000000000000000000000000000000000000000006064820152608401610483565b6001600160a01b0382166109c15760405162461bcd60e51b815260206004820152602360248201527f45524332303a207472616e7366657220746f20746865207a65726f206164647260448201527f65737300000000000000000000000000000000000000000000000000000000006064820152608401610483565b6001600160a01b03831660009081526020819052604090205481811015610a505760405162461bcd60e51b815260206004820152602660248201527f45524332303a207472616e7366657220616d6f756e742065786365656473206260448201527f616c616e636500000000000000000000000000000000000000000000000000006064820152608401610483565b6001600160a01b03808516600090815260208190526040808220858503905591851681529081208054849290610a879084906111c9565b92505081905550826001600160a01b0316846001600160a01b03167fddf252ad1be2c89b69c2b068fc378daa952ba7f163c4a11628f55a4df523b3ef84604051610ad391815260200190565b60405180910390a36108c3565b6000306001600160a01b037f000000000000000000000000000000000000000000000000000000000000000016148015610b3957507f000000000000000000000000000000000000000000000000000000000000000046145b15610b6357507f000000000000000000000000000000000000000000000000000000000000000090565b50604080517f00000000000000000000000000000000000000000000000000000000000000006020808301919091527f0000000000000000000000000000000000000000000000000000000000000000828401527f000000000000000000000000000000000000000000000000000000000000000060608301524660808301523060a0808401919091528351808403909101815260c0909201909252805191012090565b6001600160a01b03811660009081526005602052604090208054600181018255905b50919050565b600061038b610c3c610ae0565b836040517f19010000000000000000000000000000000000000000000000000000000000006020820152602281018390526042810182905260009060620160405160208183030381529060405280519060200120905092915050565b6000806000610ca987878787610cc0565b91509150610cb681610dad565b5095945050505050565b6000807f7fffffffffffffffffffffffffffffff5d576e7357a4501ddfe92f46681b20a0831115610cf75750600090506003610da4565b8460ff16601b14158015610d0f57508460ff16601c14155b15610d205750600090506004610da4565b6040805160008082526020820180845289905260ff881692820192909252606081018690526080810185905260019060a0016020604051602081039080840390855afa158015610d74573d6000803e3d6000fd5b5050604051601f1901519150506001600160a01b038116610d9d57600060019250925050610da4565b9150600090505b94509492505050565b6000816004811115610dc157610dc1611208565b1415610dca5750565b6001816004811115610dde57610dde611208565b1415610e2c5760405162461bcd60e51b815260206004820152601860248201527f45434453413a20696e76616c6964207369676e617475726500000000000000006044820152606401610483565b6002816004811115610e4057610e40611208565b1415610e8e5760405162461bcd60e51b815260206004820152601f60248201527f45434453413a20696e76616c6964207369676e6174757265206c656e677468006044820152606401610483565b6003816004811115610ea257610ea2611208565b1415610efb5760405162461bcd60e51b815260206004820152602260248201527f45434453413a20696e76616c6964207369676e6174757265202773272076616c604482015261756560f01b6064820152608401610483565b6004816004811115610f0f57610f0f611208565b1415610f685760405162461bcd60e51b815260206004820152602260248201527f45434453413a20696e76616c6964207369676e6174757265202776272076616c604482015261756560f01b6064820152608401610483565b50565b600060208083528351808285015260005b81811015610f9857858101830151858201604001528201610f7c565b81811115610faa576000604083870101525b50601f01601f1916929092016040019392505050565b80356001600160a01b0381168114610fd757600080fd5b919050565b60008060408385031215610fef57600080fd5b610ff883610fc0565b946020939093013593505050565b60008060006060848603121561101b57600080fd5b61102484610fc0565b925061103260208501610fc0565b9150604084013590509250925092565b60006020828403121561105457600080fd5b61105d82610fc0565b9392505050565b803560ff81168114610fd757600080fd5b600080600080600080600080610100898b03121561109257600080fd5b61109b89610fc0565b97506110a960208a01610fc0565b96506040890135955060608901359450608089013580151581146110cc57600080fd5b93506110da60a08a01611064565b925060c0890135915060e089013590509295985092959890939650565b600080600080600080600060e0888a03121561111257600080fd5b61111b88610fc0565b965061112960208901610fc0565b9550604088013594506060880135935061114560808901611064565b925060a0880135915060c0880135905092959891949750929550565b6000806040838503121561117457600080fd5b61117d83610fc0565b915061118b60208401610fc0565b90509250929050565b600181811c908216806111a857607f821691505b60208210811415610c2957634e487b7160e01b600052602260045260246000fd5b600082198211156111ea57634e487b7160e01b600052601160045260246000fd5b500190565b60006020828403121561120157600080fd5b5051919050565b634e487b7160e01b600052602160045260246000fdfea26469706673582212202abf9356ec2321fd33b90d4a92e773bb1a22c5632426b195fd5224eaaa7aa64d64736f6c634300080a0033",
  "linkReferences": {},
  "deployedLinkReferences": {}
}