{
  "contracts/libraries/DfynMathUI.sol": {
    "DfynMathUI": {
      "abi": [
        {
          "inputs": [
            {
              "internalType": "uint160",
              "name": "_tickZeroPrice",
              "type": "uint160"
            },
            {
              "internalType": "uint160",
              "name": "_sqrtPrice",
              "type": "uint160"
            }
          ],
          "name": "priceFromSqrtprice",
          "outputs": [
            {
              "internalType": "uint160",
              "name": "price",
              "type": "uint160"
            }
          ],
          "stateMutability": "view",
          "type": "function"
        },
        {
          "inputs": [
            {
              "internalType": "uint256",
              "name": "x",
              "type": "uint256"
            }
          ],
          "name": "sqrt",
          "outputs": [
            {
              "internalType": "uint256",
              "name": "z",
              "type": "uint256"
            }
          ],
          "stateMutability": "pure",
          "type": "function"
        },
        {
          "inputs": [
            {
              "internalType": "uint160",
              "name": "_tickZeroPrice",
              "type": "uint160"
            },
            {
              "internalType": "uint160",
              "name": "price",
              "type": "uint160"
            }
          ],
          "name": "sqrtPriceFromPrice",
          "outputs": [
            {
              "internalType": "uint160",
              "name": "sqrtRatioX96",
              "type": "uint160"
            }
          ],
          "stateMutability": "view",
          "type": "function"
        }
      ],
      "devdoc": {
        "kind": "dev",
        "methods": {
          "sqrt(uint256)": {
            "details": "Modified from Solmate (https://github.com/Rari-Capital/solmate/blob/main/src/utils/FixedPointMathLib.sol)"
          }
        },
        "version": 1
      },
      "evm": {
        "bytecode": {
          "linkReferences": {},
          "object": "61035561003a600b82828239805160001a60731461002d57634e487b7160e01b600052600060045260246000fd5b30600052607381538281f3fe730000000000000000000000000000000000000000301460806040526004361061004b5760003560e01c8063677342ce146100505780639f85c4b814610076578063ebe0ebd2146100a1575b600080fd5b61006361005e3660046101e5565b6100b4565b6040519081526020015b60405180910390f35b61008961008436600461021a565b61018d565b6040516001600160a01b03909116815260200161006d565b6100896100af36600461021a565b6101a0565b600181600160801b81106100cd5760409190911b9060801c5b6801000000000000000081106100e85760209190911b9060401c5b64010000000081106100ff5760109190911b9060201c5b6201000081106101145760089190911b9060101c5b61010081106101285760049190911b9060081c5b6010811061013b5760029190911b9060041c5b6008811061014a578160011b91505b5080820401600190811c80830401811c80830401811c80830401811c80830401811c80830401811c80830401901c80820481811015610187578091505b50919050565b60006101998284610263565b9392505050565b6000826101b083620f4240610263565b6101ba91906102a8565b90506101c683836102ce565b6001600160a01b0316156101df576101996001826102f4565b92915050565b6000602082840312156101f757600080fd5b5035919050565b80356001600160a01b038116811461021557600080fd5b919050565b6000806040838503121561022d57600080fd5b610236836101fe565b9150610244602084016101fe565b90509250929050565b634e487b7160e01b600052601160045260246000fd5b60006001600160a01b03828116848216811515828404821116156102895761028961024d565b02949350505050565b634e487b7160e01b600052601260045260246000fd5b60006001600160a01b03838116806102c2576102c2610292565b92169190910492915050565b60006001600160a01b03838116806102e8576102e8610292565b92169190910692915050565b60006001600160a01b038281168482168083038211156103165761031661024d565b0194935050505056fea26469706673582212206baad753663f246439b86cb0bb9cca089e7f2a0184bb2b6821a0ccbebcc402b964736f6c634300080a0033",
          "opcodes": "PUSH2 0x355 PUSH2 0x3A PUSH1 0xB DUP3 DUP3 DUP3 CODECOPY DUP1 MLOAD PUSH1 0x0 BYTE PUSH1 0x73 EQ PUSH2 0x2D JUMPI PUSH4 0x4E487B71 PUSH1 0xE0 SHL PUSH1 0x0 MSTORE PUSH1 0x0 PUSH1 0x4 MSTORE PUSH1 0x24 PUSH1 0x0 REVERT JUMPDEST ADDRESS PUSH1 0x0 MSTORE PUSH1 0x73 DUP2 MSTORE8 DUP3 DUP2 RETURN INVALID PUSH20 0x0 ADDRESS EQ PUSH1 0x80 PUSH1 0x40 MSTORE PUSH1 0x4 CALLDATASIZE LT PUSH2 0x4B JUMPI PUSH1 0x0 CALLDATALOAD PUSH1 0xE0 SHR DUP1 PUSH4 0x677342CE EQ PUSH2 0x50 JUMPI DUP1 PUSH4 0x9F85C4B8 EQ PUSH2 0x76 JUMPI DUP1 PUSH4 0xEBE0EBD2 EQ PUSH2 0xA1 JUMPI JUMPDEST PUSH1 0x0 DUP1 REVERT JUMPDEST PUSH2 0x63 PUSH2 0x5E CALLDATASIZE PUSH1 0x4 PUSH2 0x1E5 JUMP JUMPDEST PUSH2 0xB4 JUMP JUMPDEST PUSH1 0x40 MLOAD SWAP1 DUP2 MSTORE PUSH1 0x20 ADD JUMPDEST PUSH1 0x40 MLOAD DUP1 SWAP2 SUB SWAP1 RETURN JUMPDEST PUSH2 0x89 PUSH2 0x84 CALLDATASIZE PUSH1 0x4 PUSH2 0x21A JUMP JUMPDEST PUSH2 0x18D JUMP JUMPDEST PUSH1 0x40 MLOAD PUSH1 0x1 PUSH1 0x1 PUSH1 0xA0 SHL SUB SWAP1 SWAP2 AND DUP2 MSTORE PUSH1 0x20 ADD PUSH2 0x6D JUMP JUMPDEST PUSH2 0x89 PUSH2 0xAF CALLDATASIZE PUSH1 0x4 PUSH2 0x21A JUMP JUMPDEST PUSH2 0x1A0 JUMP JUMPDEST PUSH1 0x1 DUP2 PUSH1 0x1 PUSH1 0x80 SHL DUP2 LT PUSH2 0xCD JUMPI PUSH1 0x40 SWAP2 SWAP1 SWAP2 SHL SWAP1 PUSH1 0x80 SHR JUMPDEST PUSH9 0x10000000000000000 DUP2 LT PUSH2 0xE8 JUMPI PUSH1 0x20 SWAP2 SWAP1 SWAP2 SHL SWAP1 PUSH1 0x40 SHR JUMPDEST PUSH5 0x100000000 DUP2 LT PUSH2 0xFF JUMPI PUSH1 0x10 SWAP2 SWAP1 SWAP2 SHL SWAP1 PUSH1 0x20 SHR JUMPDEST PUSH3 0x10000 DUP2 LT PUSH2 0x114 JUMPI PUSH1 0x8 SWAP2 SWAP1 SWAP2 SHL SWAP1 PUSH1 0x10 SHR JUMPDEST PUSH2 0x100 DUP2 LT PUSH2 0x128 JUMPI PUSH1 0x4 SWAP2 SWAP1 SWAP2 SHL SWAP1 PUSH1 0x8 SHR JUMPDEST PUSH1 0x10 DUP2 LT PUSH2 0x13B JUMPI PUSH1 0x2 SWAP2 SWAP1 SWAP2 SHL SWAP1 PUSH1 0x4 SHR JUMPDEST PUSH1 0x8 DUP2 LT PUSH2 0x14A JUMPI DUP2 PUSH1 0x1 SHL SWAP2 POP JUMPDEST POP DUP1 DUP3 DIV ADD PUSH1 0x1 SWAP1 DUP2 SHR DUP1 DUP4 DIV ADD DUP2 SHR DUP1 DUP4 DIV ADD DUP2 SHR DUP1 DUP4 DIV ADD DUP2 SHR DUP1 DUP4 DIV ADD DUP2 SHR DUP1 DUP4 DIV ADD DUP2 SHR DUP1 DUP4 DIV ADD SWAP1 SHR DUP1 DUP3 DIV DUP2 DUP2 LT ISZERO PUSH2 0x187 JUMPI DUP1 SWAP2 POP JUMPDEST POP SWAP2 SWAP1 POP JUMP JUMPDEST PUSH1 0x0 PUSH2 0x199 DUP3 DUP5 PUSH2 0x263 JUMP JUMPDEST SWAP4 SWAP3 POP POP POP JUMP JUMPDEST PUSH1 0x0 DUP3 PUSH2 0x1B0 DUP4 PUSH3 0xF4240 PUSH2 0x263 JUMP JUMPDEST PUSH2 0x1BA SWAP2 SWAP1 PUSH2 0x2A8 JUMP JUMPDEST SWAP1 POP PUSH2 0x1C6 DUP4 DUP4 PUSH2 0x2CE JUMP JUMPDEST PUSH1 0x1 PUSH1 0x1 PUSH1 0xA0 SHL SUB AND ISZERO PUSH2 0x1DF JUMPI PUSH2 0x199 PUSH1 0x1 DUP3 PUSH2 0x2F4 JUMP JUMPDEST SWAP3 SWAP2 POP POP JUMP JUMPDEST PUSH1 0x0 PUSH1 0x20 DUP3 DUP5 SUB SLT ISZERO PUSH2 0x1F7 JUMPI PUSH1 0x0 DUP1 REVERT JUMPDEST POP CALLDATALOAD SWAP2 SWAP1 POP JUMP JUMPDEST DUP1 CALLDATALOAD PUSH1 0x1 PUSH1 0x1 PUSH1 0xA0 SHL SUB DUP2 AND DUP2 EQ PUSH2 0x215 JUMPI PUSH1 0x0 DUP1 REVERT JUMPDEST SWAP2 SWAP1 POP JUMP JUMPDEST PUSH1 0x0 DUP1 PUSH1 0x40 DUP4 DUP6 SUB SLT ISZERO PUSH2 0x22D JUMPI PUSH1 0x0 DUP1 REVERT JUMPDEST PUSH2 0x236 DUP4 PUSH2 0x1FE JUMP JUMPDEST SWAP2 POP PUSH2 0x244 PUSH1 0x20 DUP5 ADD PUSH2 0x1FE JUMP JUMPDEST SWAP1 POP SWAP3 POP SWAP3 SWAP1 POP JUMP JUMPDEST PUSH4 0x4E487B71 PUSH1 0xE0 SHL PUSH1 0x0 MSTORE PUSH1 0x11 PUSH1 0x4 MSTORE PUSH1 0x24 PUSH1 0x0 REVERT JUMPDEST PUSH1 0x0 PUSH1 0x1 PUSH1 0x1 PUSH1 0xA0 SHL SUB DUP3 DUP2 AND DUP5 DUP3 AND DUP2 ISZERO ISZERO DUP3 DUP5 DIV DUP3 GT AND ISZERO PUSH2 0x289 JUMPI PUSH2 0x289 PUSH2 0x24D JUMP JUMPDEST MUL SWAP5 SWAP4 POP POP POP POP JUMP JUMPDEST PUSH4 0x4E487B71 PUSH1 0xE0 SHL PUSH1 0x0 MSTORE PUSH1 0x12 PUSH1 0x4 MSTORE PUSH1 0x24 PUSH1 0x0 REVERT JUMPDEST PUSH1 0x0 PUSH1 0x1 PUSH1 0x1 PUSH1 0xA0 SHL SUB DUP4 DUP2 AND DUP1 PUSH2 0x2C2 JUMPI PUSH2 0x2C2 PUSH2 0x292 JUMP JUMPDEST SWAP3 AND SWAP2 SWAP1 SWAP2 DIV SWAP3 SWAP2 POP POP JUMP JUMPDEST PUSH1 0x0 PUSH1 0x1 PUSH1 0x1 PUSH1 0xA0 SHL SUB DUP4 DUP2 AND DUP1 PUSH2 0x2E8 JUMPI PUSH2 0x2E8 PUSH2 0x292 JUMP JUMPDEST SWAP3 AND SWAP2 SWAP1 SWAP2 MOD SWAP3 SWAP2 POP POP JUMP JUMPDEST PUSH1 0x0 PUSH1 0x1 PUSH1 0x1 PUSH1 0xA0 SHL SUB DUP3 DUP2 AND DUP5 DUP3 AND DUP1 DUP4 SUB DUP3 GT ISZERO PUSH2 0x316 JUMPI PUSH2 0x316 PUSH2 0x24D JUMP JUMPDEST ADD SWAP5 SWAP4 POP POP POP POP JUMP INVALID LOG2 PUSH5 0x6970667358 0x22 SLT KECCAK256 PUSH12 0xAAD753663F246439B86CB0BB SWAP13 0xCA ADDMOD SWAP15 PUSH32 0x2A0184BB2B6821A0CCBEBCC402B964736F6C634300080A003300000000000000 "
        },
        "gasEstimates": {
          "creation": {
            "codeDepositCost": "170600",
            "executionCost": "245",
            "totalCost": "170845"
          },
          "external": {
            "priceFromSqrtprice(uint160,uint160)": "infinite",
            "sqrt(uint256)": "763",
            "sqrtPriceFromPrice(uint160,uint160)": "infinite"
          }
        },
        "methodIdentifiers": {
          "priceFromSqrtprice(uint160,uint160)": "ebe0ebd2",
          "sqrt(uint256)": "677342ce",
          "sqrtPriceFromPrice(uint160,uint160)": "9f85c4b8"
        }
      },
      "storageLayout": {
        "storage": [],
        "types": null
      },
      "userdoc": {
        "kind": "user",
        "methods": {},
        "notice": "Trident sqrt helper library.",
        "version": 1
      }
    }
  }
}