{
  "@boringcrypto/boring-solidity/contracts/BoringBatchable.sol": {
    "BaseBoringBatchable": {
      "abi": [
        {
          "inputs": [
            {
              "internalType": "bytes[]",
              "name": "calls",
              "type": "bytes[]"
            },
            {
              "internalType": "bool",
              "name": "revertOnFail",
              "type": "bool"
            }
          ],
          "name": "batch",
          "outputs": [],
          "stateMutability": "payable",
          "type": "function"
        }
      ],
      "devdoc": {
        "kind": "dev",
        "methods": {
          "batch(bytes[],bool)": {
            "params": {
              "calls": "An array of inputs for each call.",
              "revertOnFail": "If True then reverts after a failed call and stops doing further calls."
            }
          }
        },
        "version": 1
      },
      "evm": {
        "bytecode": {
          "linkReferences": {},
          "object": "608060405234801561001057600080fd5b506103f9806100206000396000f3fe60806040526004361061001e5760003560e01c8063d2423b5114610023575b600080fd5b610036610031366004610179565b610038565b005b60005b8281101561010e576000803086868581811061005957610059610204565b905060200281019061006b919061021a565b604051610079929190610268565b600060405180830381855af49150503d80600081146100b4576040519150601f19603f3d011682016040523d82523d6000602084013e6100b9565b606091505b5091509150811580156100c95750835b156100f9576100d781610114565b60405162461bcd60e51b81526004016100f091906102a4565b60405180910390fd5b50508080610106906102d7565b91505061003b565b50505050565b606060448251101561015957505060408051808201909152601d81527f5472616e73616374696f6e2072657665727465642073696c656e746c79000000602082015290565b600482019150818060200190518101906101739190610316565b92915050565b60008060006040848603121561018e57600080fd5b833567ffffffffffffffff808211156101a657600080fd5b818601915086601f8301126101ba57600080fd5b8135818111156101c957600080fd5b8760208260051b85010111156101de57600080fd5b6020928301955093505084013580151581146101f957600080fd5b809150509250925092565b634e487b7160e01b600052603260045260246000fd5b6000808335601e1984360301811261023157600080fd5b83018035915067ffffffffffffffff82111561024c57600080fd5b60200191503681900382131561026157600080fd5b9250929050565b8183823760009101908152919050565b60005b8381101561029357818101518382015260200161027b565b8381111561010e5750506000910152565b60208152600082518060208401526102c3816040850160208701610278565b601f01601f19169190910160400192915050565b60006000198214156102f957634e487b7160e01b600052601160045260246000fd5b5060010190565b634e487b7160e01b600052604160045260246000fd5b60006020828403121561032857600080fd5b815167ffffffffffffffff8082111561034057600080fd5b818401915084601f83011261035457600080fd5b81518181111561036657610366610300565b604051601f8201601f19908116603f0116810190838211818310171561038e5761038e610300565b816040528281528760208487010111156103a757600080fd5b6103b8836020830160208801610278565b97965050505050505056fea264697066735822122003d890a869c084e179692b537724f795a655c63820455dc95045ad48a7bcb98464736f6c634300080a0033",
          "opcodes": "PUSH1 0x80 PUSH1 0x40 MSTORE CALLVALUE DUP1 ISZERO PUSH2 0x10 JUMPI PUSH1 0x0 DUP1 REVERT JUMPDEST POP PUSH2 0x3F9 DUP1 PUSH2 0x20 PUSH1 0x0 CODECOPY PUSH1 0x0 RETURN INVALID PUSH1 0x80 PUSH1 0x40 MSTORE PUSH1 0x4 CALLDATASIZE LT PUSH2 0x1E JUMPI PUSH1 0x0 CALLDATALOAD PUSH1 0xE0 SHR DUP1 PUSH4 0xD2423B51 EQ PUSH2 0x23 JUMPI JUMPDEST PUSH1 0x0 DUP1 REVERT JUMPDEST PUSH2 0x36 PUSH2 0x31 CALLDATASIZE PUSH1 0x4 PUSH2 0x179 JUMP JUMPDEST PUSH2 0x38 JUMP JUMPDEST STOP JUMPDEST PUSH1 0x0 JUMPDEST DUP3 DUP2 LT ISZERO PUSH2 0x10E JUMPI PUSH1 0x0 DUP1 ADDRESS DUP7 DUP7 DUP6 DUP2 DUP2 LT PUSH2 0x59 JUMPI PUSH2 0x59 PUSH2 0x204 JUMP JUMPDEST SWAP1 POP PUSH1 0x20 MUL DUP2 ADD SWAP1 PUSH2 0x6B SWAP2 SWAP1 PUSH2 0x21A JUMP JUMPDEST PUSH1 0x40 MLOAD PUSH2 0x79 SWAP3 SWAP2 SWAP1 PUSH2 0x268 JUMP JUMPDEST PUSH1 0x0 PUSH1 0x40 MLOAD DUP1 DUP4 SUB DUP2 DUP6 GAS DELEGATECALL SWAP2 POP POP RETURNDATASIZE DUP1 PUSH1 0x0 DUP2 EQ PUSH2 0xB4 JUMPI PUSH1 0x40 MLOAD SWAP2 POP PUSH1 0x1F NOT PUSH1 0x3F RETURNDATASIZE ADD AND DUP3 ADD PUSH1 0x40 MSTORE RETURNDATASIZE DUP3 MSTORE RETURNDATASIZE PUSH1 0x0 PUSH1 0x20 DUP5 ADD RETURNDATACOPY PUSH2 0xB9 JUMP JUMPDEST PUSH1 0x60 SWAP2 POP JUMPDEST POP SWAP2 POP SWAP2 POP DUP2 ISZERO DUP1 ISZERO PUSH2 0xC9 JUMPI POP DUP4 JUMPDEST ISZERO PUSH2 0xF9 JUMPI PUSH2 0xD7 DUP2 PUSH2 0x114 JUMP JUMPDEST PUSH1 0x40 MLOAD PUSH3 0x461BCD PUSH1 0xE5 SHL DUP2 MSTORE PUSH1 0x4 ADD PUSH2 0xF0 SWAP2 SWAP1 PUSH2 0x2A4 JUMP JUMPDEST PUSH1 0x40 MLOAD DUP1 SWAP2 SUB SWAP1 REVERT JUMPDEST POP POP DUP1 DUP1 PUSH2 0x106 SWAP1 PUSH2 0x2D7 JUMP JUMPDEST SWAP2 POP POP PUSH2 0x3B JUMP JUMPDEST POP POP POP POP JUMP JUMPDEST PUSH1 0x60 PUSH1 0x44 DUP3 MLOAD LT ISZERO PUSH2 0x159 JUMPI POP POP PUSH1 0x40 DUP1 MLOAD DUP1 DUP3 ADD SWAP1 SWAP2 MSTORE PUSH1 0x1D DUP2 MSTORE PUSH32 0x5472616E73616374696F6E2072657665727465642073696C656E746C79000000 PUSH1 0x20 DUP3 ADD MSTORE SWAP1 JUMP JUMPDEST PUSH1 0x4 DUP3 ADD SWAP2 POP DUP2 DUP1 PUSH1 0x20 ADD SWAP1 MLOAD DUP2 ADD SWAP1 PUSH2 0x173 SWAP2 SWAP1 PUSH2 0x316 JUMP JUMPDEST SWAP3 SWAP2 POP POP JUMP JUMPDEST PUSH1 0x0 DUP1 PUSH1 0x0 PUSH1 0x40 DUP5 DUP7 SUB SLT ISZERO PUSH2 0x18E JUMPI PUSH1 0x0 DUP1 REVERT JUMPDEST DUP4 CALLDATALOAD PUSH8 0xFFFFFFFFFFFFFFFF DUP1 DUP3 GT ISZERO PUSH2 0x1A6 JUMPI PUSH1 0x0 DUP1 REVERT JUMPDEST DUP2 DUP7 ADD SWAP2 POP DUP7 PUSH1 0x1F DUP4 ADD SLT PUSH2 0x1BA JUMPI PUSH1 0x0 DUP1 REVERT JUMPDEST DUP2 CALLDATALOAD DUP2 DUP2 GT ISZERO PUSH2 0x1C9 JUMPI PUSH1 0x0 DUP1 REVERT JUMPDEST DUP8 PUSH1 0x20 DUP3 PUSH1 0x5 SHL DUP6 ADD ADD GT ISZERO PUSH2 0x1DE JUMPI PUSH1 0x0 DUP1 REVERT JUMPDEST PUSH1 0x20 SWAP3 DUP4 ADD SWAP6 POP SWAP4 POP POP DUP5 ADD CALLDATALOAD DUP1 ISZERO ISZERO DUP2 EQ PUSH2 0x1F9 JUMPI PUSH1 0x0 DUP1 REVERT JUMPDEST DUP1 SWAP2 POP POP SWAP3 POP SWAP3 POP SWAP3 JUMP JUMPDEST PUSH4 0x4E487B71 PUSH1 0xE0 SHL PUSH1 0x0 MSTORE PUSH1 0x32 PUSH1 0x4 MSTORE PUSH1 0x24 PUSH1 0x0 REVERT JUMPDEST PUSH1 0x0 DUP1 DUP4 CALLDATALOAD PUSH1 0x1E NOT DUP5 CALLDATASIZE SUB ADD DUP2 SLT PUSH2 0x231 JUMPI PUSH1 0x0 DUP1 REVERT JUMPDEST DUP4 ADD DUP1 CALLDATALOAD SWAP2 POP PUSH8 0xFFFFFFFFFFFFFFFF DUP3 GT ISZERO PUSH2 0x24C JUMPI PUSH1 0x0 DUP1 REVERT JUMPDEST PUSH1 0x20 ADD SWAP2 POP CALLDATASIZE DUP2 SWAP1 SUB DUP3 SGT ISZERO PUSH2 0x261 JUMPI PUSH1 0x0 DUP1 REVERT JUMPDEST SWAP3 POP SWAP3 SWAP1 POP JUMP JUMPDEST DUP2 DUP4 DUP3 CALLDATACOPY PUSH1 0x0 SWAP2 ADD SWAP1 DUP2 MSTORE SWAP2 SWAP1 POP JUMP JUMPDEST PUSH1 0x0 JUMPDEST DUP4 DUP2 LT ISZERO PUSH2 0x293 JUMPI DUP2 DUP2 ADD MLOAD DUP4 DUP3 ADD MSTORE PUSH1 0x20 ADD PUSH2 0x27B JUMP JUMPDEST DUP4 DUP2 GT ISZERO PUSH2 0x10E JUMPI POP POP PUSH1 0x0 SWAP2 ADD MSTORE JUMP JUMPDEST PUSH1 0x20 DUP2 MSTORE PUSH1 0x0 DUP3 MLOAD DUP1 PUSH1 0x20 DUP5 ADD MSTORE PUSH2 0x2C3 DUP2 PUSH1 0x40 DUP6 ADD PUSH1 0x20 DUP8 ADD PUSH2 0x278 JUMP JUMPDEST PUSH1 0x1F ADD PUSH1 0x1F NOT AND SWAP2 SWAP1 SWAP2 ADD PUSH1 0x40 ADD SWAP3 SWAP2 POP POP JUMP JUMPDEST PUSH1 0x0 PUSH1 0x0 NOT DUP3 EQ ISZERO PUSH2 0x2F9 JUMPI PUSH4 0x4E487B71 PUSH1 0xE0 SHL PUSH1 0x0 MSTORE PUSH1 0x11 PUSH1 0x4 MSTORE PUSH1 0x24 PUSH1 0x0 REVERT JUMPDEST POP PUSH1 0x1 ADD SWAP1 JUMP JUMPDEST PUSH4 0x4E487B71 PUSH1 0xE0 SHL PUSH1 0x0 MSTORE PUSH1 0x41 PUSH1 0x4 MSTORE PUSH1 0x24 PUSH1 0x0 REVERT JUMPDEST PUSH1 0x0 PUSH1 0x20 DUP3 DUP5 SUB SLT ISZERO PUSH2 0x328 JUMPI PUSH1 0x0 DUP1 REVERT JUMPDEST DUP2 MLOAD PUSH8 0xFFFFFFFFFFFFFFFF DUP1 DUP3 GT ISZERO PUSH2 0x340 JUMPI PUSH1 0x0 DUP1 REVERT JUMPDEST DUP2 DUP5 ADD SWAP2 POP DUP5 PUSH1 0x1F DUP4 ADD SLT PUSH2 0x354 JUMPI PUSH1 0x0 DUP1 REVERT JUMPDEST DUP2 MLOAD DUP2 DUP2 GT ISZERO PUSH2 0x366 JUMPI PUSH2 0x366 PUSH2 0x300 JUMP JUMPDEST PUSH1 0x40 MLOAD PUSH1 0x1F DUP3 ADD PUSH1 0x1F NOT SWAP1 DUP2 AND PUSH1 0x3F ADD AND DUP2 ADD SWAP1 DUP4 DUP3 GT DUP2 DUP4 LT OR ISZERO PUSH2 0x38E JUMPI PUSH2 0x38E PUSH2 0x300 JUMP JUMPDEST DUP2 PUSH1 0x40 MSTORE DUP3 DUP2 MSTORE DUP8 PUSH1 0x20 DUP5 DUP8 ADD ADD GT ISZERO PUSH2 0x3A7 JUMPI PUSH1 0x0 DUP1 REVERT JUMPDEST PUSH2 0x3B8 DUP4 PUSH1 0x20 DUP4 ADD PUSH1 0x20 DUP9 ADD PUSH2 0x278 JUMP JUMPDEST SWAP8 SWAP7 POP POP POP POP POP POP POP JUMP INVALID LOG2 PUSH5 0x6970667358 0x22 SLT KECCAK256 SUB 0xD8 SWAP1 0xA8 PUSH10 0xC084E179692B537724F7 SWAP6 0xA6 SSTORE 0xC6 CODESIZE KECCAK256 GASLIMIT 0x5D 0xC9 POP GASLIMIT 0xAD BASEFEE 0xA7 0xBC 0xB9 DUP5 PUSH5 0x736F6C6343 STOP ADDMOD EXP STOP CALLER "
        },
        "gasEstimates": {
          "creation": {
            "codeDepositCost": "203400",
            "executionCost": "245",
            "totalCost": "203645"
          },
          "external": {
            "batch(bytes[],bool)": "infinite"
          },
          "internal": {
            "_getRevertMsg(bytes memory)": "infinite"
          }
        },
        "methodIdentifiers": {
          "batch(bytes[],bool)": "d2423b51"
        }
      },
      "storageLayout": {
        "storage": [],
        "types": null
      },
      "userdoc": {
        "kind": "user",
        "methods": {
          "batch(bytes[],bool)": {
            "notice": "Allows batched call to self (this contract)."
          }
        },
        "version": 1
      }
    }
  }
}