{
  "@boringcrypto/boring-solidity/contracts/BoringOwnable.sol": {
    "BoringOwnableData": {
      "abi": [
        {
          "inputs": [],
          "name": "owner",
          "outputs": [
            {
              "internalType": "address",
              "name": "",
              "type": "address"
            }
          ],
          "stateMutability": "view",
          "type": "function"
        },
        {
          "inputs": [],
          "name": "pendingOwner",
          "outputs": [
            {
              "internalType": "address",
              "name": "",
              "type": "address"
            }
          ],
          "stateMutability": "view",
          "type": "function"
        }
      ],
      "devdoc": {
        "kind": "dev",
        "methods": {},
        "version": 1
      },
      "evm": {
        "bytecode": {
          "linkReferences": {},
          "object": "6080604052348015600f57600080fd5b5060ad8061001e6000396000f3fe6080604052348015600f57600080fd5b506004361060325760003560e01c80638da5cb5b146037578063e30c3978146065575b600080fd5b6000546049906001600160a01b031681565b6040516001600160a01b03909116815260200160405180910390f35b6001546049906001600160a01b03168156fea26469706673582212206cd0c6290bd4406ac55141bfa14dbb55ed51d2356d761bb8bf7b792305935d0e64736f6c634300080a0033",
          "opcodes": "PUSH1 0x80 PUSH1 0x40 MSTORE CALLVALUE DUP1 ISZERO PUSH1 0xF JUMPI PUSH1 0x0 DUP1 REVERT JUMPDEST POP PUSH1 0xAD DUP1 PUSH2 0x1E PUSH1 0x0 CODECOPY PUSH1 0x0 RETURN INVALID PUSH1 0x80 PUSH1 0x40 MSTORE CALLVALUE DUP1 ISZERO PUSH1 0xF JUMPI PUSH1 0x0 DUP1 REVERT JUMPDEST POP PUSH1 0x4 CALLDATASIZE LT PUSH1 0x32 JUMPI PUSH1 0x0 CALLDATALOAD PUSH1 0xE0 SHR DUP1 PUSH4 0x8DA5CB5B EQ PUSH1 0x37 JUMPI DUP1 PUSH4 0xE30C3978 EQ PUSH1 0x65 JUMPI JUMPDEST PUSH1 0x0 DUP1 REVERT JUMPDEST PUSH1 0x0 SLOAD PUSH1 0x49 SWAP1 PUSH1 0x1 PUSH1 0x1 PUSH1 0xA0 SHL SUB AND DUP2 JUMP JUMPDEST PUSH1 0x40 MLOAD PUSH1 0x1 PUSH1 0x1 PUSH1 0xA0 SHL SUB SWAP1 SWAP2 AND DUP2 MSTORE PUSH1 0x20 ADD PUSH1 0x40 MLOAD DUP1 SWAP2 SUB SWAP1 RETURN JUMPDEST PUSH1 0x1 SLOAD PUSH1 0x49 SWAP1 PUSH1 0x1 PUSH1 0x1 PUSH1 0xA0 SHL SUB AND DUP2 JUMP INVALID LOG2 PUSH5 0x6970667358 0x22 SLT KECCAK256 PUSH13 0xD0C6290BD4406AC55141BFA14D 0xBB SSTORE 0xED MLOAD 0xD2 CALLDATALOAD PUSH14 0x761BB8BF7B792305935D0E64736F PUSH13 0x634300080A0033000000000000 "
        },
        "gasEstimates": {
          "creation": {
            "codeDepositCost": "34600",
            "executionCost": "87",
            "totalCost": "34687"
          },
          "external": {
            "owner()": "2303",
            "pendingOwner()": "2325"
          }
        },
        "methodIdentifiers": {
          "owner()": "8da5cb5b",
          "pendingOwner()": "e30c3978"
        }
      },
      "storageLayout": {
        "storage": [
          {
            "astId": 229,
            "contract": "@boringcrypto/boring-solidity/contracts/BoringOwnable.sol:BoringOwnableData",
            "label": "owner",
            "offset": 0,
            "slot": "0",
            "type": "t_address"
          },
          {
            "astId": 231,
            "contract": "@boringcrypto/boring-solidity/contracts/BoringOwnable.sol:BoringOwnableData",
            "label": "pendingOwner",
            "offset": 0,
            "slot": "1",
            "type": "t_address"
          }
        ],
        "types": {
          "t_address": {
            "encoding": "inplace",
            "label": "address",
            "numberOfBytes": "20"
          }
        }
      },
      "userdoc": {
        "kind": "user",
        "methods": {},
        "version": 1
      }
    }
  }
}