{
  "contracts/mocks/TridentMathMock.sol": {
    "DfynMathMock": {
      "abi": [
        {
          "inputs": [
            {
              "internalType": "uint256",
              "name": "x",
              "type": "uint256"
            }
          ],
          "name": "sqrt",
          "outputs": [
            {
              "internalType": "uint256",
              "name": "",
              "type": "uint256"
            }
          ],
          "stateMutability": "pure",
          "type": "function"
        }
      ],
      "devdoc": {
        "kind": "dev",
        "methods": {},
        "version": 1
      },
      "evm": {
        "bytecode": {
          "linkReferences": {},
          "object": "608060405234801561001057600080fd5b5061018e806100206000396000f3fe608060405234801561001057600080fd5b506004361061002b5760003560e01c8063677342ce14610030575b600080fd5b61004361003e36600461013f565b610055565b60405190815260200160405180910390f35b600061006082610066565b92915050565b600181600160801b811061007f5760409190911b9060801c5b68010000000000000000811061009a5760209190911b9060401c5b64010000000081106100b15760109190911b9060201c5b6201000081106100c65760089190911b9060101c5b61010081106100da5760049190911b9060081c5b601081106100ed5760029190911b9060041c5b600881106100fc578160011b91505b5080820401600190811c80830401811c80830401811c80830401811c80830401811c80830401811c80830401901c80820481811015610139578091505b50919050565b60006020828403121561015157600080fd5b503591905056fea2646970667358221220c4e837fe30d9b83ebc61f65a92b065cc1ed85bf527124806ddd25effae2bd2dd64736f6c634300080a0033",
          "opcodes": "PUSH1 0x80 PUSH1 0x40 MSTORE CALLVALUE DUP1 ISZERO PUSH2 0x10 JUMPI PUSH1 0x0 DUP1 REVERT JUMPDEST POP PUSH2 0x18E DUP1 PUSH2 0x20 PUSH1 0x0 CODECOPY PUSH1 0x0 RETURN INVALID PUSH1 0x80 PUSH1 0x40 MSTORE CALLVALUE DUP1 ISZERO PUSH2 0x10 JUMPI PUSH1 0x0 DUP1 REVERT JUMPDEST POP PUSH1 0x4 CALLDATASIZE LT PUSH2 0x2B JUMPI PUSH1 0x0 CALLDATALOAD PUSH1 0xE0 SHR DUP1 PUSH4 0x677342CE EQ PUSH2 0x30 JUMPI JUMPDEST PUSH1 0x0 DUP1 REVERT JUMPDEST PUSH2 0x43 PUSH2 0x3E CALLDATASIZE PUSH1 0x4 PUSH2 0x13F JUMP JUMPDEST PUSH2 0x55 JUMP JUMPDEST PUSH1 0x40 MLOAD SWAP1 DUP2 MSTORE PUSH1 0x20 ADD PUSH1 0x40 MLOAD DUP1 SWAP2 SUB SWAP1 RETURN JUMPDEST PUSH1 0x0 PUSH2 0x60 DUP3 PUSH2 0x66 JUMP JUMPDEST SWAP3 SWAP2 POP POP JUMP JUMPDEST PUSH1 0x1 DUP2 PUSH1 0x1 PUSH1 0x80 SHL DUP2 LT PUSH2 0x7F JUMPI PUSH1 0x40 SWAP2 SWAP1 SWAP2 SHL SWAP1 PUSH1 0x80 SHR JUMPDEST PUSH9 0x10000000000000000 DUP2 LT PUSH2 0x9A JUMPI PUSH1 0x20 SWAP2 SWAP1 SWAP2 SHL SWAP1 PUSH1 0x40 SHR JUMPDEST PUSH5 0x100000000 DUP2 LT PUSH2 0xB1 JUMPI PUSH1 0x10 SWAP2 SWAP1 SWAP2 SHL SWAP1 PUSH1 0x20 SHR JUMPDEST PUSH3 0x10000 DUP2 LT PUSH2 0xC6 JUMPI PUSH1 0x8 SWAP2 SWAP1 SWAP2 SHL SWAP1 PUSH1 0x10 SHR JUMPDEST PUSH2 0x100 DUP2 LT PUSH2 0xDA JUMPI PUSH1 0x4 SWAP2 SWAP1 SWAP2 SHL SWAP1 PUSH1 0x8 SHR JUMPDEST PUSH1 0x10 DUP2 LT PUSH2 0xED JUMPI PUSH1 0x2 SWAP2 SWAP1 SWAP2 SHL SWAP1 PUSH1 0x4 SHR JUMPDEST PUSH1 0x8 DUP2 LT PUSH2 0xFC JUMPI DUP2 PUSH1 0x1 SHL SWAP2 POP JUMPDEST POP DUP1 DUP3 DIV ADD PUSH1 0x1 SWAP1 DUP2 SHR DUP1 DUP4 DIV ADD DUP2 SHR DUP1 DUP4 DIV ADD DUP2 SHR DUP1 DUP4 DIV ADD DUP2 SHR DUP1 DUP4 DIV ADD DUP2 SHR DUP1 DUP4 DIV ADD DUP2 SHR DUP1 DUP4 DIV ADD SWAP1 SHR DUP1 DUP3 DIV DUP2 DUP2 LT ISZERO PUSH2 0x139 JUMPI DUP1 SWAP2 POP JUMPDEST POP SWAP2 SWAP1 POP JUMP JUMPDEST PUSH1 0x0 PUSH1 0x20 DUP3 DUP5 SUB SLT ISZERO PUSH2 0x151 JUMPI PUSH1 0x0 DUP1 REVERT JUMPDEST POP CALLDATALOAD SWAP2 SWAP1 POP JUMP INVALID LOG2 PUSH5 0x6970667358 0x22 SLT KECCAK256 0xC4 0xE8 CALLDATACOPY INVALID ADDRESS 0xD9 0xB8 RETURNDATACOPY 0xBC PUSH2 0xF65A SWAP3 0xB0 PUSH6 0xCC1ED85BF527 SLT BASEFEE MOD 0xDD 0xD2 0x5E SELFDESTRUCT 0xAE 0x2B 0xD2 0xDD PUSH5 0x736F6C6343 STOP ADDMOD EXP STOP CALLER "
        },
        "gasEstimates": {
          "creation": {
            "codeDepositCost": "79600",
            "executionCost": "129",
            "totalCost": "79729"
          },
          "external": {
            "sqrt(uint256)": "818"
          }
        },
        "methodIdentifiers": {
          "sqrt(uint256)": "677342ce"
        }
      },
      "storageLayout": {
        "storage": [],
        "types": null
      },
      "userdoc": {
        "kind": "user",
        "methods": {},
        "version": 1
      }
    }
  }
}