{
  "contracts/libraries/DfynMath.sol": {
    "DfynMath": {
      "abi": [
        {
          "inputs": [
            {
              "internalType": "uint160",
              "name": "_tickZeroPrice",
              "type": "uint160"
            },
            {
              "internalType": "uint160",
              "name": "_sqrtPrice",
              "type": "uint160"
            }
          ],
          "name": "priceFromSqrtprice",
          "outputs": [
            {
              "internalType": "uint160",
              "name": "price",
              "type": "uint160"
            }
          ],
          "stateMutability": "view",
          "type": "function"
        },
        {
          "inputs": [
            {
              "internalType": "uint160",
              "name": "_tickZeroPrice",
              "type": "uint160"
            },
            {
              "internalType": "uint160",
              "name": "price",
              "type": "uint160"
            }
          ],
          "name": "sqrtPriceFromPrice",
          "outputs": [
            {
              "internalType": "uint160",
              "name": "sqrtRatioX96",
              "type": "uint160"
            }
          ],
          "stateMutability": "view",
          "type": "function"
        }
      ],
      "devdoc": {
        "kind": "dev",
        "methods": {},
        "version": 1
      },
      "evm": {
        "bytecode": {
          "linkReferences": {},
          "object": "61023661003a600b82828239805160001a60731461002d57634e487b7160e01b600052600060045260246000fd5b30600052607381538281f3fe73000000000000000000000000000000000000000030146080604052600436106100405760003560e01c80639f85c4b814610045578063ebe0ebd214610074575b600080fd5b6100586100533660046100fb565b610087565b6040516001600160a01b03909116815260200160405180910390f35b6100586100823660046100fb565b61009a565b60006100938284610144565b9392505050565b6000826100aa83620f4240610144565b6100b49190610189565b90506100c083836101af565b6001600160a01b0316156100d9576100936001826101d5565b92915050565b80356001600160a01b03811681146100f657600080fd5b919050565b6000806040838503121561010e57600080fd5b610117836100df565b9150610125602084016100df565b90509250929050565b634e487b7160e01b600052601160045260246000fd5b60006001600160a01b038281168482168115158284048211161561016a5761016a61012e565b02949350505050565b634e487b7160e01b600052601260045260246000fd5b60006001600160a01b03838116806101a3576101a3610173565b92169190910492915050565b60006001600160a01b03838116806101c9576101c9610173565b92169190910692915050565b60006001600160a01b038281168482168083038211156101f7576101f761012e565b0194935050505056fea264697066735822122004375a9598ecacbfc685223250383b76ffa2451f1f58f1c615ebb9a13550f6d464736f6c634300080a0033",
          "opcodes": "PUSH2 0x236 PUSH2 0x3A PUSH1 0xB DUP3 DUP3 DUP3 CODECOPY DUP1 MLOAD PUSH1 0x0 BYTE PUSH1 0x73 EQ PUSH2 0x2D JUMPI PUSH4 0x4E487B71 PUSH1 0xE0 SHL PUSH1 0x0 MSTORE PUSH1 0x0 PUSH1 0x4 MSTORE PUSH1 0x24 PUSH1 0x0 REVERT JUMPDEST ADDRESS PUSH1 0x0 MSTORE PUSH1 0x73 DUP2 MSTORE8 DUP3 DUP2 RETURN INVALID PUSH20 0x0 ADDRESS EQ PUSH1 0x80 PUSH1 0x40 MSTORE PUSH1 0x4 CALLDATASIZE LT PUSH2 0x40 JUMPI PUSH1 0x0 CALLDATALOAD PUSH1 0xE0 SHR DUP1 PUSH4 0x9F85C4B8 EQ PUSH2 0x45 JUMPI DUP1 PUSH4 0xEBE0EBD2 EQ PUSH2 0x74 JUMPI JUMPDEST PUSH1 0x0 DUP1 REVERT JUMPDEST PUSH2 0x58 PUSH2 0x53 CALLDATASIZE PUSH1 0x4 PUSH2 0xFB JUMP JUMPDEST PUSH2 0x87 JUMP JUMPDEST PUSH1 0x40 MLOAD PUSH1 0x1 PUSH1 0x1 PUSH1 0xA0 SHL SUB SWAP1 SWAP2 AND DUP2 MSTORE PUSH1 0x20 ADD PUSH1 0x40 MLOAD DUP1 SWAP2 SUB SWAP1 RETURN JUMPDEST PUSH2 0x58 PUSH2 0x82 CALLDATASIZE PUSH1 0x4 PUSH2 0xFB JUMP JUMPDEST PUSH2 0x9A JUMP JUMPDEST PUSH1 0x0 PUSH2 0x93 DUP3 DUP5 PUSH2 0x144 JUMP JUMPDEST SWAP4 SWAP3 POP POP POP JUMP JUMPDEST PUSH1 0x0 DUP3 PUSH2 0xAA DUP4 PUSH3 0xF4240 PUSH2 0x144 JUMP JUMPDEST PUSH2 0xB4 SWAP2 SWAP1 PUSH2 0x189 JUMP JUMPDEST SWAP1 POP PUSH2 0xC0 DUP4 DUP4 PUSH2 0x1AF JUMP JUMPDEST PUSH1 0x1 PUSH1 0x1 PUSH1 0xA0 SHL SUB AND ISZERO PUSH2 0xD9 JUMPI PUSH2 0x93 PUSH1 0x1 DUP3 PUSH2 0x1D5 JUMP JUMPDEST SWAP3 SWAP2 POP POP JUMP JUMPDEST DUP1 CALLDATALOAD PUSH1 0x1 PUSH1 0x1 PUSH1 0xA0 SHL SUB DUP2 AND DUP2 EQ PUSH2 0xF6 JUMPI PUSH1 0x0 DUP1 REVERT JUMPDEST SWAP2 SWAP1 POP JUMP JUMPDEST PUSH1 0x0 DUP1 PUSH1 0x40 DUP4 DUP6 SUB SLT ISZERO PUSH2 0x10E JUMPI PUSH1 0x0 DUP1 REVERT JUMPDEST PUSH2 0x117 DUP4 PUSH2 0xDF JUMP JUMPDEST SWAP2 POP PUSH2 0x125 PUSH1 0x20 DUP5 ADD PUSH2 0xDF JUMP JUMPDEST SWAP1 POP SWAP3 POP SWAP3 SWAP1 POP JUMP JUMPDEST PUSH4 0x4E487B71 PUSH1 0xE0 SHL PUSH1 0x0 MSTORE PUSH1 0x11 PUSH1 0x4 MSTORE PUSH1 0x24 PUSH1 0x0 REVERT JUMPDEST PUSH1 0x0 PUSH1 0x1 PUSH1 0x1 PUSH1 0xA0 SHL SUB DUP3 DUP2 AND DUP5 DUP3 AND DUP2 ISZERO ISZERO DUP3 DUP5 DIV DUP3 GT AND ISZERO PUSH2 0x16A JUMPI PUSH2 0x16A PUSH2 0x12E JUMP JUMPDEST MUL SWAP5 SWAP4 POP POP POP POP JUMP JUMPDEST PUSH4 0x4E487B71 PUSH1 0xE0 SHL PUSH1 0x0 MSTORE PUSH1 0x12 PUSH1 0x4 MSTORE PUSH1 0x24 PUSH1 0x0 REVERT JUMPDEST PUSH1 0x0 PUSH1 0x1 PUSH1 0x1 PUSH1 0xA0 SHL SUB DUP4 DUP2 AND DUP1 PUSH2 0x1A3 JUMPI PUSH2 0x1A3 PUSH2 0x173 JUMP JUMPDEST SWAP3 AND SWAP2 SWAP1 SWAP2 DIV SWAP3 SWAP2 POP POP JUMP JUMPDEST PUSH1 0x0 PUSH1 0x1 PUSH1 0x1 PUSH1 0xA0 SHL SUB DUP4 DUP2 AND DUP1 PUSH2 0x1C9 JUMPI PUSH2 0x1C9 PUSH2 0x173 JUMP JUMPDEST SWAP3 AND SWAP2 SWAP1 SWAP2 MOD SWAP3 SWAP2 POP POP JUMP JUMPDEST PUSH1 0x0 PUSH1 0x1 PUSH1 0x1 PUSH1 0xA0 SHL SUB DUP3 DUP2 AND DUP5 DUP3 AND DUP1 DUP4 SUB DUP3 GT ISZERO PUSH2 0x1F7 JUMPI PUSH2 0x1F7 PUSH2 0x12E JUMP JUMPDEST ADD SWAP5 SWAP4 POP POP POP POP JUMP INVALID LOG2 PUSH5 0x6970667358 0x22 SLT KECCAK256 DIV CALLDATACOPY GAS SWAP6 SWAP9 0xEC 0xAC 0xBF 0xC6 DUP6 0x22 ORIGIN POP CODESIZE EXTCODESIZE PUSH23 0xFFA2451F1F58F1C615EBB9A13550F6D464736F6C634300 ADDMOD EXP STOP CALLER "
        },
        "gasEstimates": {
          "creation": {
            "codeDepositCost": "113200",
            "executionCost": "193",
            "totalCost": "113393"
          },
          "external": {
            "priceFromSqrtprice(uint160,uint160)": "infinite",
            "sqrtPriceFromPrice(uint160,uint160)": "infinite"
          },
          "internal": {
            "sqrt(uint256)": "infinite"
          }
        },
        "methodIdentifiers": {
          "priceFromSqrtprice(uint160,uint160)": "ebe0ebd2",
          "sqrtPriceFromPrice(uint160,uint160)": "9f85c4b8"
        }
      },
      "storageLayout": {
        "storage": [],
        "types": null
      },
      "userdoc": {
        "kind": "user",
        "methods": {},
        "notice": "Trident sqrt helper library.",
        "version": 1
      }
    }
  }
}