{
  "contracts/mocks/ERC20Compliant.sol": {
    "ERC20Compliant": {
      "abi": [
        {
          "inputs": [
            {
              "internalType": "address",
              "name": "",
              "type": "address"
            },
            {
              "internalType": "uint256",
              "name": "",
              "type": "uint256"
            }
          ],
          "name": "approve",
          "outputs": [
            {
              "internalType": "bool",
              "name": "",
              "type": "bool"
            }
          ],
          "stateMutability": "view",
          "type": "function"
        },
        {
          "inputs": [
            {
              "internalType": "bool",
              "name": "success_",
              "type": "bool"
            },
            {
              "internalType": "bool",
              "name": "shouldRevert_",
              "type": "bool"
            }
          ],
          "name": "setup",
          "outputs": [],
          "stateMutability": "nonpayable",
          "type": "function"
        },
        {
          "inputs": [],
          "name": "shouldRevert",
          "outputs": [
            {
              "internalType": "bool",
              "name": "",
              "type": "bool"
            }
          ],
          "stateMutability": "view",
          "type": "function"
        },
        {
          "inputs": [],
          "name": "success",
          "outputs": [
            {
              "internalType": "bool",
              "name": "",
              "type": "bool"
            }
          ],
          "stateMutability": "view",
          "type": "function"
        },
        {
          "inputs": [
            {
              "internalType": "address",
              "name": "",
              "type": "address"
            },
            {
              "internalType": "uint256",
              "name": "",
              "type": "uint256"
            }
          ],
          "name": "transfer",
          "outputs": [
            {
              "internalType": "bool",
              "name": "",
              "type": "bool"
            }
          ],
          "stateMutability": "view",
          "type": "function"
        },
        {
          "inputs": [
            {
              "internalType": "address",
              "name": "",
              "type": "address"
            },
            {
              "internalType": "address",
              "name": "",
              "type": "address"
            },
            {
              "internalType": "uint256",
              "name": "",
              "type": "uint256"
            }
          ],
          "name": "transferFrom",
          "outputs": [
            {
              "internalType": "bool",
              "name": "",
              "type": "bool"
            }
          ],
          "stateMutability": "view",
          "type": "function"
        }
      ],
      "devdoc": {
        "kind": "dev",
        "methods": {},
        "version": 1
      },
      "evm": {
        "bytecode": {
          "linkReferences": {},
          "object": "608060405234801561001057600080fd5b506102b0806100206000396000f3fe608060405234801561001057600080fd5b50600436106100725760003560e01c806323b872dd1161005057806323b872dd146100df578063a9059cbb14610077578063d3072d82146100f257600080fd5b8063095ea7b3146100775780630b93381b1461009e57806315d98b40146100ab575b600080fd5b61008a6100853660046101d1565b610104565b604051901515815260200160405180910390f35b60005461008a9060ff1681565b6100dd6100b936600461020b565b6000805461ffff191692151561ff0019169290921761010091151591909102179055565b005b61008a6100ed36600461023e565b610158565b60005461008a90610100900460ff1681565b60008054610100900460ff161561014b5760405162461bcd60e51b815260206004820152600660248201526514915591549560d21b60448201526064015b60405180910390fd5b5060005460ff1692915050565b60008054610100900460ff161561019a5760405162461bcd60e51b815260206004820152600660248201526514915591549560d21b6044820152606401610142565b5060005460ff169392505050565b803573ffffffffffffffffffffffffffffffffffffffff811681146101cc57600080fd5b919050565b600080604083850312156101e457600080fd5b6101ed836101a8565b946020939093013593505050565b803580151581146101cc57600080fd5b6000806040838503121561021e57600080fd5b610227836101fb565b9150610235602084016101fb565b90509250929050565b60008060006060848603121561025357600080fd5b61025c846101a8565b925061026a602085016101a8565b915060408401359050925092509256fea2646970667358221220d37eb6a02f45082440a78b14ec720275bf2d95e18b81dc3bf96bf2afcde9626564736f6c634300080a0033",
          "opcodes": "PUSH1 0x80 PUSH1 0x40 MSTORE CALLVALUE DUP1 ISZERO PUSH2 0x10 JUMPI PUSH1 0x0 DUP1 REVERT JUMPDEST POP PUSH2 0x2B0 DUP1 PUSH2 0x20 PUSH1 0x0 CODECOPY PUSH1 0x0 RETURN INVALID PUSH1 0x80 PUSH1 0x40 MSTORE CALLVALUE DUP1 ISZERO PUSH2 0x10 JUMPI PUSH1 0x0 DUP1 REVERT JUMPDEST POP PUSH1 0x4 CALLDATASIZE LT PUSH2 0x72 JUMPI PUSH1 0x0 CALLDATALOAD PUSH1 0xE0 SHR DUP1 PUSH4 0x23B872DD GT PUSH2 0x50 JUMPI DUP1 PUSH4 0x23B872DD EQ PUSH2 0xDF JUMPI DUP1 PUSH4 0xA9059CBB EQ PUSH2 0x77 JUMPI DUP1 PUSH4 0xD3072D82 EQ PUSH2 0xF2 JUMPI PUSH1 0x0 DUP1 REVERT JUMPDEST DUP1 PUSH4 0x95EA7B3 EQ PUSH2 0x77 JUMPI DUP1 PUSH4 0xB93381B EQ PUSH2 0x9E JUMPI DUP1 PUSH4 0x15D98B40 EQ PUSH2 0xAB JUMPI JUMPDEST PUSH1 0x0 DUP1 REVERT JUMPDEST PUSH2 0x8A PUSH2 0x85 CALLDATASIZE PUSH1 0x4 PUSH2 0x1D1 JUMP JUMPDEST PUSH2 0x104 JUMP JUMPDEST PUSH1 0x40 MLOAD SWAP1 ISZERO ISZERO DUP2 MSTORE PUSH1 0x20 ADD PUSH1 0x40 MLOAD DUP1 SWAP2 SUB SWAP1 RETURN JUMPDEST PUSH1 0x0 SLOAD PUSH2 0x8A SWAP1 PUSH1 0xFF AND DUP2 JUMP JUMPDEST PUSH2 0xDD PUSH2 0xB9 CALLDATASIZE PUSH1 0x4 PUSH2 0x20B JUMP JUMPDEST PUSH1 0x0 DUP1 SLOAD PUSH2 0xFFFF NOT AND SWAP3 ISZERO ISZERO PUSH2 0xFF00 NOT AND SWAP3 SWAP1 SWAP3 OR PUSH2 0x100 SWAP2 ISZERO ISZERO SWAP2 SWAP1 SWAP2 MUL OR SWAP1 SSTORE JUMP JUMPDEST STOP JUMPDEST PUSH2 0x8A PUSH2 0xED CALLDATASIZE PUSH1 0x4 PUSH2 0x23E JUMP JUMPDEST PUSH2 0x158 JUMP JUMPDEST PUSH1 0x0 SLOAD PUSH2 0x8A SWAP1 PUSH2 0x100 SWAP1 DIV PUSH1 0xFF AND DUP2 JUMP JUMPDEST PUSH1 0x0 DUP1 SLOAD PUSH2 0x100 SWAP1 DIV PUSH1 0xFF AND ISZERO PUSH2 0x14B JUMPI PUSH1 0x40 MLOAD PUSH3 0x461BCD PUSH1 0xE5 SHL DUP2 MSTORE PUSH1 0x20 PUSH1 0x4 DUP3 ADD MSTORE PUSH1 0x6 PUSH1 0x24 DUP3 ADD MSTORE PUSH6 0x149155915495 PUSH1 0xD2 SHL PUSH1 0x44 DUP3 ADD MSTORE PUSH1 0x64 ADD JUMPDEST PUSH1 0x40 MLOAD DUP1 SWAP2 SUB SWAP1 REVERT JUMPDEST POP PUSH1 0x0 SLOAD PUSH1 0xFF AND SWAP3 SWAP2 POP POP JUMP JUMPDEST PUSH1 0x0 DUP1 SLOAD PUSH2 0x100 SWAP1 DIV PUSH1 0xFF AND ISZERO PUSH2 0x19A JUMPI PUSH1 0x40 MLOAD PUSH3 0x461BCD PUSH1 0xE5 SHL DUP2 MSTORE PUSH1 0x20 PUSH1 0x4 DUP3 ADD MSTORE PUSH1 0x6 PUSH1 0x24 DUP3 ADD MSTORE PUSH6 0x149155915495 PUSH1 0xD2 SHL PUSH1 0x44 DUP3 ADD MSTORE PUSH1 0x64 ADD PUSH2 0x142 JUMP JUMPDEST POP PUSH1 0x0 SLOAD PUSH1 0xFF AND SWAP4 SWAP3 POP POP POP JUMP JUMPDEST DUP1 CALLDATALOAD PUSH20 0xFFFFFFFFFFFFFFFFFFFFFFFFFFFFFFFFFFFFFFFF DUP2 AND DUP2 EQ PUSH2 0x1CC JUMPI PUSH1 0x0 DUP1 REVERT JUMPDEST SWAP2 SWAP1 POP JUMP JUMPDEST PUSH1 0x0 DUP1 PUSH1 0x40 DUP4 DUP6 SUB SLT ISZERO PUSH2 0x1E4 JUMPI PUSH1 0x0 DUP1 REVERT JUMPDEST PUSH2 0x1ED DUP4 PUSH2 0x1A8 JUMP JUMPDEST SWAP5 PUSH1 0x20 SWAP4 SWAP1 SWAP4 ADD CALLDATALOAD SWAP4 POP POP POP JUMP JUMPDEST DUP1 CALLDATALOAD DUP1 ISZERO ISZERO DUP2 EQ PUSH2 0x1CC JUMPI PUSH1 0x0 DUP1 REVERT JUMPDEST PUSH1 0x0 DUP1 PUSH1 0x40 DUP4 DUP6 SUB SLT ISZERO PUSH2 0x21E JUMPI PUSH1 0x0 DUP1 REVERT JUMPDEST PUSH2 0x227 DUP4 PUSH2 0x1FB JUMP JUMPDEST SWAP2 POP PUSH2 0x235 PUSH1 0x20 DUP5 ADD PUSH2 0x1FB JUMP JUMPDEST SWAP1 POP SWAP3 POP SWAP3 SWAP1 POP JUMP JUMPDEST PUSH1 0x0 DUP1 PUSH1 0x0 PUSH1 0x60 DUP5 DUP7 SUB SLT ISZERO PUSH2 0x253 JUMPI PUSH1 0x0 DUP1 REVERT JUMPDEST PUSH2 0x25C DUP5 PUSH2 0x1A8 JUMP JUMPDEST SWAP3 POP PUSH2 0x26A PUSH1 0x20 DUP6 ADD PUSH2 0x1A8 JUMP JUMPDEST SWAP2 POP PUSH1 0x40 DUP5 ADD CALLDATALOAD SWAP1 POP SWAP3 POP SWAP3 POP SWAP3 JUMP INVALID LOG2 PUSH5 0x6970667358 0x22 SLT KECCAK256 0xD3 PUSH31 0xB6A02F45082440A78B14EC720275BF2D95E18B81DC3BF96BF2AFCDE9626564 PUSH20 0x6F6C634300080A00330000000000000000000000 "
        },
        "gasEstimates": {
          "creation": {
            "codeDepositCost": "137600",
            "executionCost": "183",
            "totalCost": "137783"
          },
          "external": {
            "approve(address,uint256)": "4624",
            "setup(bool,bool)": "infinite",
            "shouldRevert()": "2353",
            "success()": "2321",
            "transfer(address,uint256)": "4645",
            "transferFrom(address,address,uint256)": "infinite"
          }
        },
        "methodIdentifiers": {
          "approve(address,uint256)": "095ea7b3",
          "setup(bool,bool)": "15d98b40",
          "shouldRevert()": "d3072d82",
          "success()": "0b93381b",
          "transfer(address,uint256)": "a9059cbb",
          "transferFrom(address,address,uint256)": "23b872dd"
        }
      },
      "storageLayout": {
        "storage": [
          {
            "astId": 3,
            "contract": "contracts/mocks/ERC20Compliant.sol:ERC20Compliant",
            "label": "success",
            "offset": 0,
            "slot": "0",
            "type": "t_bool"
          },
          {
            "astId": 5,
            "contract": "contracts/mocks/ERC20Compliant.sol:ERC20Compliant",
            "label": "shouldRevert",
            "offset": 1,
            "slot": "0",
            "type": "t_bool"
          }
        ],
        "types": {
          "t_bool": {
            "encoding": "inplace",
            "label": "bool",
            "numberOfBytes": "1"
          }
        }
      },
      "userdoc": {
        "kind": "user",
        "methods": {},
        "version": 1
      }
    }
  }
}