{
  "contracts/mocks/TridentMathMock.sol": {
    "TridentMathMock": {
      "abi": [
        {
          "inputs": [
            {
              "internalType": "uint256",
              "name": "x",
              "type": "uint256"
            }
          ],
          "name": "sqrt",
          "outputs": [
            {
              "internalType": "uint256",
              "name": "",
              "type": "uint256"
            }
          ],
          "stateMutability": "pure",
          "type": "function"
        }
      ],
      "devdoc": {
        "kind": "dev",
        "methods": {},
        "version": 1
      },
      "evm": {
        "bytecode": {
          "linkReferences": {},
          "object": "608060405234801561001057600080fd5b5061019b806100206000396000f3fe608060405234801561001057600080fd5b506004361061002b5760003560e01c8063677342ce14610030575b600080fd5b61004361003e36600461014c565b610055565b60405190815260200160405180910390f35b600061006082610066565b92915050565b600181700100000000000000000000000000000000811061008c5760409190911b9060801c5b6801000000000000000081106100a75760209190911b9060401c5b64010000000081106100be5760109190911b9060201c5b6201000081106100d35760089190911b9060101c5b61010081106100e75760049190911b9060081c5b601081106100fa5760029190911b9060041c5b60088110610109578160011b91505b5080820401600190811c80830401811c80830401811c80830401811c80830401811c80830401811c80830401901c80820481811015610146578091505b50919050565b60006020828403121561015e57600080fd5b503591905056fea264697066735822122018473d8b20d0edc1320f2307cc999face3bfaa6425baf7812a0202afc31afab064736f6c634300080a0033",
          "opcodes": "PUSH1 0x80 PUSH1 0x40 MSTORE CALLVALUE DUP1 ISZERO PUSH2 0x10 JUMPI PUSH1 0x0 DUP1 REVERT JUMPDEST POP PUSH2 0x19B DUP1 PUSH2 0x20 PUSH1 0x0 CODECOPY PUSH1 0x0 RETURN INVALID PUSH1 0x80 PUSH1 0x40 MSTORE CALLVALUE DUP1 ISZERO PUSH2 0x10 JUMPI PUSH1 0x0 DUP1 REVERT JUMPDEST POP PUSH1 0x4 CALLDATASIZE LT PUSH2 0x2B JUMPI PUSH1 0x0 CALLDATALOAD PUSH1 0xE0 SHR DUP1 PUSH4 0x677342CE EQ PUSH2 0x30 JUMPI JUMPDEST PUSH1 0x0 DUP1 REVERT JUMPDEST PUSH2 0x43 PUSH2 0x3E CALLDATASIZE PUSH1 0x4 PUSH2 0x14C JUMP JUMPDEST PUSH2 0x55 JUMP JUMPDEST PUSH1 0x40 MLOAD SWAP1 DUP2 MSTORE PUSH1 0x20 ADD PUSH1 0x40 MLOAD DUP1 SWAP2 SUB SWAP1 RETURN JUMPDEST PUSH1 0x0 PUSH2 0x60 DUP3 PUSH2 0x66 JUMP JUMPDEST SWAP3 SWAP2 POP POP JUMP JUMPDEST PUSH1 0x1 DUP2 PUSH17 0x100000000000000000000000000000000 DUP2 LT PUSH2 0x8C JUMPI PUSH1 0x40 SWAP2 SWAP1 SWAP2 SHL SWAP1 PUSH1 0x80 SHR JUMPDEST PUSH9 0x10000000000000000 DUP2 LT PUSH2 0xA7 JUMPI PUSH1 0x20 SWAP2 SWAP1 SWAP2 SHL SWAP1 PUSH1 0x40 SHR JUMPDEST PUSH5 0x100000000 DUP2 LT PUSH2 0xBE JUMPI PUSH1 0x10 SWAP2 SWAP1 SWAP2 SHL SWAP1 PUSH1 0x20 SHR JUMPDEST PUSH3 0x10000 DUP2 LT PUSH2 0xD3 JUMPI PUSH1 0x8 SWAP2 SWAP1 SWAP2 SHL SWAP1 PUSH1 0x10 SHR JUMPDEST PUSH2 0x100 DUP2 LT PUSH2 0xE7 JUMPI PUSH1 0x4 SWAP2 SWAP1 SWAP2 SHL SWAP1 PUSH1 0x8 SHR JUMPDEST PUSH1 0x10 DUP2 LT PUSH2 0xFA JUMPI PUSH1 0x2 SWAP2 SWAP1 SWAP2 SHL SWAP1 PUSH1 0x4 SHR JUMPDEST PUSH1 0x8 DUP2 LT PUSH2 0x109 JUMPI DUP2 PUSH1 0x1 SHL SWAP2 POP JUMPDEST POP DUP1 DUP3 DIV ADD PUSH1 0x1 SWAP1 DUP2 SHR DUP1 DUP4 DIV ADD DUP2 SHR DUP1 DUP4 DIV ADD DUP2 SHR DUP1 DUP4 DIV ADD DUP2 SHR DUP1 DUP4 DIV ADD DUP2 SHR DUP1 DUP4 DIV ADD DUP2 SHR DUP1 DUP4 DIV ADD SWAP1 SHR DUP1 DUP3 DIV DUP2 DUP2 LT ISZERO PUSH2 0x146 JUMPI DUP1 SWAP2 POP JUMPDEST POP SWAP2 SWAP1 POP JUMP JUMPDEST PUSH1 0x0 PUSH1 0x20 DUP3 DUP5 SUB SLT ISZERO PUSH2 0x15E JUMPI PUSH1 0x0 DUP1 REVERT JUMPDEST POP CALLDATALOAD SWAP2 SWAP1 POP JUMP INVALID LOG2 PUSH5 0x6970667358 0x22 SLT KECCAK256 XOR SELFBALANCE RETURNDATASIZE DUP12 KECCAK256 0xD0 0xED 0xC1 ORIGIN 0xF 0x23 SMOD 0xCC SWAP10 SWAP16 0xAC 0xE3 0xBF 0xAA PUSH5 0x25BAF7812A MUL MUL 0xAF 0xC3 BYTE STATICCALL 0xB0 PUSH5 0x736F6C6343 STOP ADDMOD EXP STOP CALLER "
        },
        "gasEstimates": {
          "creation": {
            "codeDepositCost": "82200",
            "executionCost": "129",
            "totalCost": "82329"
          },
          "external": {
            "sqrt(uint256)": "812"
          }
        },
        "methodIdentifiers": {
          "sqrt(uint256)": "677342ce"
        }
      },
      "storageLayout": {
        "storage": [],
        "types": null
      },
      "userdoc": {
        "kind": "user",
        "methods": {},
        "version": 1
      }
    }
  }
}