{
  "_format": "hh-sol-artifact-1",
  "contractName": "TickMathUI",
  "sourceName": "contracts/libraries/TickMathUI.sol",
  "abi": [
    {
      "inputs": [],
      "name": "PriceOutOfBounds",
      "type": "error"
    },
    {
      "inputs": [],
      "name": "TickOutOfBounds",
      "type": "error"
    },
    {
      "inputs": [
        {
          "internalType": "int24",
          "name": "tick",
          "type": "int24"
        }
      ],
      "name": "getSqrtRatioAtTick",
      "outputs": [
        {
          "internalType": "uint160",
          "name": "sqrtPriceX96",
          "type": "uint160"
        }
      ],
      "stateMutability": "pure",
      "type": "function"
    },
    {
      "inputs": [
        {
          "internalType": "uint160",
          "name": "sqrtPriceX96",
          "type": "uint160"
        }
      ],
      "name": "getTickAtSqrtRatio",
      "outputs": [
        {
          "internalType": "int24",
          "name": "tick",
          "type": "int24"
        }
      ],
      "stateMutability": "pure",
      "type": "function"
    }
  ],
  "bytecode": "0x61083a61003a600b82828239805160001a60731461002d57634e487b7160e01b600052600060045260246000fd5b30600052607381538281f3fe73000000000000000000000000000000000000000030146080604052600436106100405760003560e01c80634f76c05814610045578063986cfba314610070575b600080fd5b610058610053366004610729565b61009b565b60405160029190910b81526020015b60405180910390f35b61008361007e366004610759565b6103d0565b6040516001600160a01b039091168152602001610067565b60006401000276a36001600160a01b03831610806100d6575073fffd8963efd1fc6a506488495d951d5263988d266001600160a01b03831610155b1561010d576040517f6e4ba61d00000000000000000000000000000000000000000000000000000000815260040160405180910390fd5b77ffffffffffffffffffffffffffffffffffffffff00000000602083901b166fffffffffffffffffffffffffffffffff811160071b81811c67ffffffffffffffff811160061b90811c63ffffffff811160051b90811c61ffff811160041b90811c60ff8111600390811b91821c600f811160021b90811c918211600190811b92831c979088119617909417909217179091171717608081106101b757607f810383901c91506101c1565b80607f0383901b91505b908002607f81811c60ff83811c9190911c800280831c81831c1c800280841c81841c1c800280851c81851c1c800280861c81861c1c800280871c81871c1c800280881c81881c1c800280891c81891c1c8002808a1c818a1c1c8002808b1c818b1c1c8002808c1c818c1c1c8002808d1c818d1c1c8002808e1c9c81901c9c909c1c80029c8d901c9e9d607f198f0160401b60c09190911c678000000000000000161760c19b909b1c674000000000000000169a909a1760c29990991c672000000000000000169890981760c39790971c671000000000000000169690961760c49590951c670800000000000000169490941760c59390931c670400000000000000169290921760c69190911c670200000000000000161760c79190911c670100000000000000161760c89190911c6680000000000000161760c99190911c6640000000000000161760ca9190911c6620000000000000161760cb9190911c6610000000000000161760cc9190911c6608000000000000161760cd9190911c66040000000000001617693627a301d71055774c8581026f028f6481ab7f045a5af012a19d003aa9198101608090811d906fdb2df09e81959a81455e260799a0632f8301901d600281810b9083900b146103c157886001600160a01b03166103a6826103d0565b6001600160a01b031611156103bb57816103c3565b806103c3565b815b9998505050505050505050565b60008060008360020b126103e7578260020b6103f4565b8260020b6103f490610792565b9050610403620d89e7196107cb565b62ffffff16811115610441576040517ff87dc40c00000000000000000000000000000000000000000000000000000000815260040160405180910390fd5b60006001821661046257700100000000000000000000000000000000610474565b6ffffcb933bd6fad37aa2d162d1a5940015b70ffffffffffffffffffffffffffffffffff16905060028216156104a8576ffff97272373d413259a46990580e213a0260801c5b60048216156104c7576ffff2e50f5f656932ef12357cf3c7fdcc0260801c5b60088216156104e6576fffe5caca7e10e4e61c3624eaa0941cd00260801c5b6010821615610505576fffcb9843d60f6159c9db58835c9266440260801c5b6020821615610524576fff973b41fa98c081472e6896dfb254c00260801c5b6040821615610543576fff2ea16466c96a3843ec78b326b528610260801c5b6080821615610562576ffe5dee046a99a2a811c461f1969c30530260801c5b610100821615610582576ffcbe86c7900a88aedcffc83b479aa3a40260801c5b6102008216156105a2576ff987a7253ac413176f2b074cf7815e540260801c5b6104008216156105c2576ff3392b0822b70005940c7a398e4b70f30260801c5b6108008216156105e2576fe7159475a2c29b7443b29c7fa6e889d90260801c5b611000821615610602576fd097f3bdfd2022b8845ad8f792aa58250260801c5b612000821615610622576fa9f746462d870fdf8a65dc1f90e061e50260801c5b614000821615610642576f70d869a156d2a1b890bb3df62baf32f70260801c5b618000821615610662576f31be135f97d08fd981231505542fcfa60260801c5b62010000821615610683576f09aa508b5b7a84e1c677de54f3e99bc90260801c5b620200008216156106a3576e5d6af8dedb81196699c329225ee6040260801c5b620400008216156106c2576d2216e584f5fa1ea926041bedfe980260801c5b620800008216156106df576b048a170391f7dc42444e8fa20260801c5b60008460020b13156107005780600019816106fc576106fc6107ee565b0490505b640100000000810615610714576001610717565b60005b60ff16602082901c0192505050919050565b60006020828403121561073b57600080fd5b81356001600160a01b038116811461075257600080fd5b9392505050565b60006020828403121561076b57600080fd5b81358060020b811461075257600080fd5b634e487b7160e01b600052601160045260246000fd5b60007f80000000000000000000000000000000000000000000000000000000000000008214156107c4576107c461077c565b5060000390565b60008160020b627fffff198114156107e5576107e561077c565b60000392915050565b634e487b7160e01b600052601260045260246000fdfea2646970667358221220022954ec99a5f9d7cd174dac254e5a6e835f5d684c6a63658bf82e964b3e486e64736f6c634300080a0033",
  "linkReferences": {},
  "deployedLinkReferences": {}
}