{
  "_format": "hh-sol-artifact-1",
  "contractName": "FlashSwapMock",
  "sourceName": "contracts/mocks/FlashSwapMock.sol",
  "abi": [
    {
      "inputs": [
        {
          "internalType": "contract IVaultMinimal",
          "name": "_vault",
          "type": "address"
        }
      ],
      "stateMutability": "nonpayable",
      "type": "constructor"
    },
    {
      "inputs": [
        {
          "internalType": "contract IPool",
          "name": "pair",
          "type": "address"
        },
        {
          "internalType": "bytes",
          "name": "data",
          "type": "bytes"
        }
      ],
      "name": "testFlashSwap",
      "outputs": [],
      "stateMutability": "nonpayable",
      "type": "function"
    },
    {
      "inputs": [
        {
          "internalType": "bytes",
          "name": "data",
          "type": "bytes"
        }
      ],
      "name": "tridentSwapCallback",
      "outputs": [],
      "stateMutability": "nonpayable",
      "type": "function"
    },
    {
      "inputs": [],
      "name": "vault",
      "outputs": [
        {
          "internalType": "contract IVaultMinimal",
          "name": "",
          "type": "address"
        }
      ],
      "stateMutability": "view",
      "type": "function"
    }
  ],
  "bytecode": "0x60a060405234801561001057600080fd5b506040516106e73803806106e783398101604081905261002f91610040565b6001600160a01b0316608052610070565b60006020828403121561005257600080fd5b81516001600160a01b038116811461006957600080fd5b9392505050565b6080516106416100a66000396000818160730152818161017101528181610213015281816102f9015261039801526106416000f3fe608060405234801561001057600080fd5b50600436106100415760003560e01c806345308e5b14610046578063bd50c7b11461005b578063fbfa77cf1461006e575b600080fd5b61005961005436600461048b565b6100b1565b005b6100596100693660046104e0565b610127565b6100957f000000000000000000000000000000000000000000000000000000000000000081565b6040516001600160a01b03909116815260200160405180910390f35b60405162a7b43960e31b81526001600160a01b0384169063053da1c8906100de9085908590600401610522565b6020604051808303816000875af11580156100fd573d6000803e3d6000fd5b505050506040513d601f19601f820116820180604052508101906101219190610551565b50505050565b6000808061013784860186610578565b925092509250821561042357801561027757604051633de222bb60e21b81526001600160a01b0383811660048301523060248301526000917f00000000000000000000000000000000000000000000000000000000000000009091169063f7888aec90604401602060405180830381865afa1580156101ba573d6000803e3d6000fd5b505050506040513d601f19601f820116820180604052508101906101de9190610551565b604051633c6340f360e21b81526001600160a01b038581166004830152306024830152336044830152606482018390529192507f00000000000000000000000000000000000000000000000000000000000000009091169063f18d03cc90608401600060405180830381600087803b15801561025957600080fd5b505af115801561026d573d6000803e3d6000fd5b5050505050610423565b6040516370a0823160e01b81523060048201526000906001600160a01b038416906370a0823190602401602060405180830381865afa1580156102be573d6000803e3d6000fd5b505050506040513d601f19601f820116820180604052508101906102e29190610551565b60405163a9059cbb60e01b81526001600160a01b037f000000000000000000000000000000000000000000000000000000000000000081166004830152602482018390529192509084169063a9059cbb906044016020604051808303816000875af1158015610355573d6000803e3d6000fd5b505050506040513d601f19601f8201168201806040525081019061037991906105c3565b5060405162ae511b60e21b81526001600160a01b0384811660048301527f000000000000000000000000000000000000000000000000000000000000000016602482018190523360448301526064820183905260006084830152906302b9446c9060a40160408051808303816000875af11580156103fb573d6000803e3d6000fd5b505050506040513d601f19601f8201168201806040525081019061041f91906105e7565b5050505b5050505050565b6001600160a01b038116811461043f57600080fd5b50565b60008083601f84011261045457600080fd5b50813567ffffffffffffffff81111561046c57600080fd5b60208301915083602082850101111561048457600080fd5b9250929050565b6000806000604084860312156104a057600080fd5b83356104ab8161042a565b9250602084013567ffffffffffffffff8111156104c757600080fd5b6104d386828701610442565b9497909650939450505050565b600080602083850312156104f357600080fd5b823567ffffffffffffffff81111561050a57600080fd5b61051685828601610442565b90969095509350505050565b60208152816020820152818360408301376000818301604090810191909152601f909201601f19160101919050565b60006020828403121561056357600080fd5b5051919050565b801515811461043f57600080fd5b60008060006060848603121561058d57600080fd5b83356105988161056a565b925060208401356105a88161042a565b915060408401356105b88161056a565b809150509250925092565b6000602082840312156105d557600080fd5b81516105e08161056a565b9392505050565b600080604083850312156105fa57600080fd5b50508051602090910151909290915056fea2646970667358221220591e2cc5f7511027520f25af09322db6e68dcb128b0cad310cc1110068b8ee9464736f6c634300080a0033",
  "linkReferences": {},
  "deployedLinkReferences": {}
}