{
  "_format": "hh-sol-artifact-1",
  "contractName": "FlashSwapMock",
  "sourceName": "contracts/mocks/FlashSwapMock.sol",
  "abi": [
    {
      "inputs": [
        {
          "internalType": "contract IVaultMinimal",
          "name": "_vault",
          "type": "address"
        }
      ],
      "stateMutability": "nonpayable",
      "type": "constructor"
    },
    {
      "inputs": [
        {
          "internalType": "contract IPool",
          "name": "pair",
          "type": "address"
        },
        {
          "internalType": "bytes",
          "name": "data",
          "type": "bytes"
        }
      ],
      "name": "testFlashSwap",
      "outputs": [],
      "stateMutability": "nonpayable",
      "type": "function"
    },
    {
      "inputs": [
        {
          "internalType": "bytes",
          "name": "data",
          "type": "bytes"
        }
      ],
      "name": "tridentSwapCallback",
      "outputs": [],
      "stateMutability": "nonpayable",
      "type": "function"
    },
    {
      "inputs": [],
      "name": "vault",
      "outputs": [
        {
          "internalType": "contract IVaultMinimal",
          "name": "",
          "type": "address"
        }
      ],
      "stateMutability": "view",
      "type": "function"
    }
  ],
  "bytecode": "0x60a060405234801561001057600080fd5b5060405161077f38038061077f83398101604081905261002f91610040565b6001600160a01b0316608052610070565b60006020828403121561005257600080fd5b81516001600160a01b038116811461006957600080fd5b9392505050565b6080516106d96100a6600039600081816073015281816101a40152818161025f01528181610377015261043001526106d96000f3fe608060405234801561001057600080fd5b50600436106100415760003560e01c806345308e5b14610046578063bd50c7b11461005b578063fbfa77cf1461006e575b600080fd5b610059610054366004610523565b6100b1565b005b610059610069366004610578565b610141565b6100957f000000000000000000000000000000000000000000000000000000000000000081565b6040516001600160a01b03909116815260200160405180910390f35b6040517f053da1c80000000000000000000000000000000000000000000000000000000081526001600160a01b0384169063053da1c8906100f890859085906004016105ba565b6020604051808303816000875af1158015610117573d6000803e3d6000fd5b505050506040513d601f19601f8201168201806040525081019061013b91906105e9565b50505050565b6000808061015184860186610610565b92509250925082156104bb5780156102c3576040517ff7888aec0000000000000000000000000000000000000000000000000000000081526001600160a01b0383811660048301523060248301526000917f00000000000000000000000000000000000000000000000000000000000000009091169063f7888aec90604401602060405180830381865afa1580156101ed573d6000803e3d6000fd5b505050506040513d601f19601f8201168201806040525081019061021191906105e9565b6040517ff18d03cc0000000000000000000000000000000000000000000000000000000081526001600160a01b038581166004830152306024830152336044830152606482018390529192507f00000000000000000000000000000000000000000000000000000000000000009091169063f18d03cc90608401600060405180830381600087803b1580156102a557600080fd5b505af11580156102b9573d6000803e3d6000fd5b50505050506104bb565b6040517f70a082310000000000000000000000000000000000000000000000000000000081523060048201526000906001600160a01b038416906370a0823190602401602060405180830381865afa158015610323573d6000803e3d6000fd5b505050506040513d601f19601f8201168201806040525081019061034791906105e9565b6040517fa9059cbb0000000000000000000000000000000000000000000000000000000081526001600160a01b037f000000000000000000000000000000000000000000000000000000000000000081166004830152602482018390529192509084169063a9059cbb906044016020604051808303816000875af11580156103d3573d6000803e3d6000fd5b505050506040513d601f19601f820116820180604052508101906103f7919061065b565b506040517f02b9446c0000000000000000000000000000000000000000000000000000000081526001600160a01b0384811660048301527f000000000000000000000000000000000000000000000000000000000000000016602482018190523360448301526064820183905260006084830152906302b9446c9060a40160408051808303816000875af1158015610493573d6000803e3d6000fd5b505050506040513d601f19601f820116820180604052508101906104b7919061067f565b5050505b5050505050565b6001600160a01b03811681146104d757600080fd5b50565b60008083601f8401126104ec57600080fd5b50813567ffffffffffffffff81111561050457600080fd5b60208301915083602082850101111561051c57600080fd5b9250929050565b60008060006040848603121561053857600080fd5b8335610543816104c2565b9250602084013567ffffffffffffffff81111561055f57600080fd5b61056b868287016104da565b9497909650939450505050565b6000806020838503121561058b57600080fd5b823567ffffffffffffffff8111156105a257600080fd5b6105ae858286016104da565b90969095509350505050565b60208152816020820152818360408301376000818301604090810191909152601f909201601f19160101919050565b6000602082840312156105fb57600080fd5b5051919050565b80151581146104d757600080fd5b60008060006060848603121561062557600080fd5b833561063081610602565b92506020840135610640816104c2565b9150604084013561065081610602565b809150509250925092565b60006020828403121561066d57600080fd5b815161067881610602565b9392505050565b6000806040838503121561069257600080fd5b50508051602090910151909290915056fea2646970667358221220874ca23ad9e2a5d6aa256e158cb39507117d08aede7fbc55e2a4f86d6a8e32e264736f6c634300080a0033",
  "linkReferences": {},
  "deployedLinkReferences": {}
}