{
  "_format": "hh-sol-artifact-1",
  "contractName": "DyDxMathMock",
  "sourceName": "contracts/mocks/DyDxMathMock.sol",
  "abi": [
    {
      "inputs": [
        {
          "internalType": "uint256",
          "name": "liquidity",
          "type": "uint256"
        },
        {
          "internalType": "uint256",
          "name": "priceLower",
          "type": "uint256"
        },
        {
          "internalType": "uint256",
          "name": "priceUpper",
          "type": "uint256"
        },
        {
          "internalType": "bool",
          "name": "roundUp",
          "type": "bool"
        }
      ],
      "name": "getDx",
      "outputs": [
        {
          "internalType": "uint256",
          "name": "dx",
          "type": "uint256"
        }
      ],
      "stateMutability": "pure",
      "type": "function"
    },
    {
      "inputs": [
        {
          "internalType": "uint256",
          "name": "liquidity",
          "type": "uint256"
        },
        {
          "internalType": "uint256",
          "name": "priceLower",
          "type": "uint256"
        },
        {
          "internalType": "uint256",
          "name": "priceUpper",
          "type": "uint256"
        },
        {
          "internalType": "bool",
          "name": "roundUp",
          "type": "bool"
        }
      ],
      "name": "getDy",
      "outputs": [
        {
          "internalType": "uint256",
          "name": "dy",
          "type": "uint256"
        }
      ],
      "stateMutability": "pure",
      "type": "function"
    },
    {
      "inputs": [
        {
          "internalType": "uint256",
          "name": "priceLower",
          "type": "uint256"
        },
        {
          "internalType": "uint256",
          "name": "priceUpper",
          "type": "uint256"
        },
        {
          "internalType": "uint256",
          "name": "currentPrice",
          "type": "uint256"
        },
        {
          "internalType": "uint256",
          "name": "dy",
          "type": "uint256"
        },
        {
          "internalType": "uint256",
          "name": "dx",
          "type": "uint256"
        }
      ],
      "name": "getLiquidityForAmounts",
      "outputs": [
        {
          "internalType": "uint256",
          "name": "liquidity",
          "type": "uint256"
        }
      ],
      "stateMutability": "pure",
      "type": "function"
    }
  ],
  "bytecode": "0x608060405234801561001057600080fd5b50610370806100206000396000f3fe608060405234801561001057600080fd5b50600436106100415760003560e01c80637247189014610046578063902614731461006b578063aec6cbfe1461007e575b600080fd5b6100596100543660046102a3565b610091565b60405190815260200160405180910390f35b6100596100793660046102a3565b6100cd565b61005961008c3660046102e9565b61011e565b600081156100b1576100aa85858503600160601b6101b2565b90506100c5565b6100c285858503600160601b6101f0565b90505b949350505050565b600081156100f5576100aa6100e9606087901b868603866101b2565b85808204910615150190565b83610107606087901b868603866101f0565b8161011457610114610324565b0495945050505050565b600083851161013f5761013883600160601b8888036101f0565b90506101a9565b85841161016157610138826101598888600160601b6101f0565b8888036101f0565b600061017e836101768888600160601b6101f0565b8789036101f0565b9050600061019385600160601b8a89036101f0565b90508082106101a257806101a4565b815b925050505b95945050505050565b60006101bf8484846101f0565b905081806101cf576101cf610324565b838509156101e95760001981106101e557600080fd5b6001015b9392505050565b60008080600019858709858702925082811083820303915050806000141561022a576000841161021f57600080fd5b5082900490506101e9565b80841161023657600080fd5b6000848688096000868103871696879004966002600389028118808a02820302808a02820302808a02820302808a02820302808a02820302808a02909103029181900381900460010186841190950394909402919094039290920491909117919091029150509392505050565b600080600080608085870312156102b957600080fd5b843593506020850135925060408501359150606085013580151581146102de57600080fd5b939692955090935050565b600080600080600060a0868803121561030157600080fd5b505083359560208501359550604085013594606081013594506080013592509050565b634e487b7160e01b600052601260045260246000fdfea2646970667358221220acee705a01bc8a9587e4405caf0c3a2bacf859f19ce493a154134dac3f7d157c64736f6c634300080a0033",
  "linkReferences": {},
  "deployedLinkReferences": {}
}