{
  "_format": "hh-sol-artifact-1",
  "contractName": "TransferMock",
  "sourceName": "contracts/mocks/TransferMock.sol",
  "abi": [
    {
      "inputs": [
        {
          "internalType": "address",
          "name": "token",
          "type": "address"
        },
        {
          "internalType": "address",
          "name": "to",
          "type": "address"
        },
        {
          "internalType": "uint256",
          "name": "value",
          "type": "uint256"
        }
      ],
      "name": "safeApprove",
      "outputs": [],
      "stateMutability": "nonpayable",
      "type": "function"
    },
    {
      "inputs": [
        {
          "internalType": "address",
          "name": "token",
          "type": "address"
        },
        {
          "internalType": "address",
          "name": "to",
          "type": "address"
        },
        {
          "internalType": "uint256",
          "name": "value",
          "type": "uint256"
        }
      ],
      "name": "safeTransfer",
      "outputs": [],
      "stateMutability": "nonpayable",
      "type": "function"
    },
    {
      "inputs": [
        {
          "internalType": "address",
          "name": "to",
          "type": "address"
        },
        {
          "internalType": "uint256",
          "name": "value",
          "type": "uint256"
        }
      ],
      "name": "safeTransferETH",
      "outputs": [],
      "stateMutability": "nonpayable",
      "type": "function"
    },
    {
      "inputs": [
        {
          "internalType": "address",
          "name": "token",
          "type": "address"
        },
        {
          "internalType": "address",
          "name": "from",
          "type": "address"
        },
        {
          "internalType": "address",
          "name": "to",
          "type": "address"
        },
        {
          "internalType": "uint256",
          "name": "value",
          "type": "uint256"
        }
      ],
      "name": "safeTransferFrom",
      "outputs": [],
      "stateMutability": "nonpayable",
      "type": "function"
    }
  ],
  "bytecode": "0x608060405234801561001057600080fd5b506106a1806100206000396000f3fe608060405234801561001057600080fd5b506004361061004c5760003560e01c80637c4368c114610051578063d1660f9914610066578063d9fc4b6114610079578063eb5625d91461008c575b600080fd5b61006461005f366004610556565b61009f565b005b610064610074366004610580565b6100ad565b6100646100873660046105bc565b6100bd565b61006461009a366004610580565b6100cf565b6100a982826100da565b5050565b6100b883838361019c565b505050565b6100c9848484846102d0565b50505050565b6100b883838361040d565b604080516000808252602082019092526001600160a01b0384169083906040516101049190610607565b60006040518083038185875af1925050503d8060008114610141576040519150601f19603f3d011682016040523d82523d6000602084013e610146565b606091505b50509050806100b85760405162461bcd60e51b815260206004820152600360248201527f535445000000000000000000000000000000000000000000000000000000000060448201526064015b60405180910390fd5b604080516001600160a01b038481166024830152604480830185905283518084039091018152606490920183526020820180516001600160e01b03167fa9059cbb0000000000000000000000000000000000000000000000000000000017905291516000928392908716916102119190610607565b6000604051808303816000865af19150503d806000811461024e576040519150601f19603f3d011682016040523d82523d6000602084013e610253565b606091505b509150915081801561027d57508051158061027d57508080602001905181019061027d9190610642565b6102c95760405162461bcd60e51b815260206004820152600260248201527f53540000000000000000000000000000000000000000000000000000000000006044820152606401610193565b5050505050565b604080516001600160a01b0385811660248301528481166044830152606480830185905283518084039091018152608490920183526020820180516001600160e01b03167f23b872dd00000000000000000000000000000000000000000000000000000000179052915160009283929088169161034d9190610607565b6000604051808303816000865af19150503d806000811461038a576040519150601f19603f3d011682016040523d82523d6000602084013e61038f565b606091505b50915091508180156103b95750805115806103b95750808060200190518101906103b99190610642565b6104055760405162461bcd60e51b815260206004820152600360248201527f53544600000000000000000000000000000000000000000000000000000000006044820152606401610193565b505050505050565b604080516001600160a01b038481166024830152604480830185905283518084039091018152606490920183526020820180516001600160e01b03167f095ea7b30000000000000000000000000000000000000000000000000000000017905291516000928392908716916104829190610607565b6000604051808303816000865af19150503d80600081146104bf576040519150601f19603f3d011682016040523d82523d6000602084013e6104c4565b606091505b50915091508180156104ee5750805115806104ee5750808060200190518101906104ee9190610642565b6102c95760405162461bcd60e51b815260206004820152600260248201527f53410000000000000000000000000000000000000000000000000000000000006044820152606401610193565b80356001600160a01b038116811461055157600080fd5b919050565b6000806040838503121561056957600080fd5b6105728361053a565b946020939093013593505050565b60008060006060848603121561059557600080fd5b61059e8461053a565b92506105ac6020850161053a565b9150604084013590509250925092565b600080600080608085870312156105d257600080fd5b6105db8561053a565b93506105e96020860161053a565b92506105f76040860161053a565b9396929550929360600135925050565b6000825160005b81811015610628576020818601810151858301520161060e565b81811115610637576000828501525b509190910192915050565b60006020828403121561065457600080fd5b8151801515811461066457600080fd5b939250505056fea2646970667358221220ca0b89e1abe4b0da5f673e0105f8885a64d6a4a058eb64f6855aaf30630ad62864736f6c634300080a0033",
  "linkReferences": {},
  "deployedLinkReferences": {}
}