{
  "_format": "hh-sol-artifact-1",
  "contractName": "TransferMock",
  "sourceName": "contracts/mocks/TransferMock.sol",
  "abi": [
    {
      "inputs": [
        {
          "internalType": "address",
          "name": "token",
          "type": "address"
        },
        {
          "internalType": "address",
          "name": "to",
          "type": "address"
        },
        {
          "internalType": "uint256",
          "name": "value",
          "type": "uint256"
        }
      ],
      "name": "safeApprove",
      "outputs": [],
      "stateMutability": "nonpayable",
      "type": "function"
    },
    {
      "inputs": [
        {
          "internalType": "address",
          "name": "token",
          "type": "address"
        },
        {
          "internalType": "address",
          "name": "to",
          "type": "address"
        },
        {
          "internalType": "uint256",
          "name": "value",
          "type": "uint256"
        }
      ],
      "name": "safeTransfer",
      "outputs": [],
      "stateMutability": "nonpayable",
      "type": "function"
    },
    {
      "inputs": [
        {
          "internalType": "address",
          "name": "to",
          "type": "address"
        },
        {
          "internalType": "uint256",
          "name": "value",
          "type": "uint256"
        }
      ],
      "name": "safeTransferETH",
      "outputs": [],
      "stateMutability": "nonpayable",
      "type": "function"
    },
    {
      "inputs": [
        {
          "internalType": "address",
          "name": "token",
          "type": "address"
        },
        {
          "internalType": "address",
          "name": "from",
          "type": "address"
        },
        {
          "internalType": "address",
          "name": "to",
          "type": "address"
        },
        {
          "internalType": "uint256",
          "name": "value",
          "type": "uint256"
        }
      ],
      "name": "safeTransferFrom",
      "outputs": [],
      "stateMutability": "nonpayable",
      "type": "function"
    }
  ],
  "bytecode": "0x608060405234801561001057600080fd5b506105ec806100206000396000f3fe608060405234801561001057600080fd5b506004361061004c5760003560e01c80637c4368c114610051578063d1660f9914610066578063d9fc4b6114610079578063eb5625d91461008c575b600080fd5b61006461005f3660046104a1565b61009f565b005b6100646100743660046104cb565b6100ad565b610064610087366004610507565b6100bd565b61006461009a3660046104cb565b6100cf565b6100a982826100da565b5050565b6100b8838383610182565b505050565b6100c984848484610282565b50505050565b6100b883838361038c565b604080516000808252602082019092526001600160a01b0384169083906040516101049190610552565b60006040518083038185875af1925050503d8060008114610141576040519150601f19603f3d011682016040523d82523d6000602084013e610146565b606091505b50509050806100b85760405162461bcd60e51b815260206004820152600360248201526253544560e81b60448201526064015b60405180910390fd5b604080516001600160a01b038481166024830152604480830185905283518084039091018152606490920183526020820180516001600160e01b031663a9059cbb60e01b17905291516000928392908716916101de9190610552565b6000604051808303816000865af19150503d806000811461021b576040519150601f19603f3d011682016040523d82523d6000602084013e610220565b606091505b509150915081801561024a57508051158061024a57508080602001905181019061024a919061058d565b61027b5760405162461bcd60e51b815260206004820152600260248201526114d560f21b6044820152606401610179565b5050505050565b604080516001600160a01b0385811660248301528481166044830152606480830185905283518084039091018152608490920183526020820180516001600160e01b03166323b872dd60e01b17905291516000928392908816916102e69190610552565b6000604051808303816000865af19150503d8060008114610323576040519150601f19603f3d011682016040523d82523d6000602084013e610328565b606091505b5091509150818015610352575080511580610352575080806020019051810190610352919061058d565b6103845760405162461bcd60e51b815260206004820152600360248201526229aa2360e91b6044820152606401610179565b505050505050565b604080516001600160a01b038481166024830152604480830185905283518084039091018152606490920183526020820180516001600160e01b031663095ea7b360e01b17905291516000928392908716916103e89190610552565b6000604051808303816000865af19150503d8060008114610425576040519150601f19603f3d011682016040523d82523d6000602084013e61042a565b606091505b5091509150818015610454575080511580610454575080806020019051810190610454919061058d565b61027b5760405162461bcd60e51b8152602060048201526002602482015261534160f01b6044820152606401610179565b80356001600160a01b038116811461049c57600080fd5b919050565b600080604083850312156104b457600080fd5b6104bd83610485565b946020939093013593505050565b6000806000606084860312156104e057600080fd5b6104e984610485565b92506104f760208501610485565b9150604084013590509250925092565b6000806000806080858703121561051d57600080fd5b61052685610485565b935061053460208601610485565b925061054260408601610485565b9396929550929360600135925050565b6000825160005b818110156105735760208186018101518583015201610559565b81811115610582576000828501525b509190910192915050565b60006020828403121561059f57600080fd5b815180151581146105af57600080fd5b939250505056fea264697066735822122031dda408e94ef1997250e52cd29095b66b8ddd0a6306afec6ba186c51b05e92664736f6c634300080a0033",
  "linkReferences": {},
  "deployedLinkReferences": {}
}