{
  "_format": "hh-sol-artifact-1",
  "contractName": "TridentSushiRollCP",
  "sourceName": "contracts/migration/TridentSushiRollCP.sol",
  "abi": [
    {
      "inputs": [
        {
          "internalType": "contract IVaultMinimal",
          "name": "_vault",
          "type": "address"
        },
        {
          "internalType": "contract IPoolFactory",
          "name": "_poolFactory",
          "type": "address"
        },
        {
          "internalType": "contract IMasterDeployer",
          "name": "_masterDeployer",
          "type": "address"
        }
      ],
      "stateMutability": "nonpayable",
      "type": "constructor"
    },
    {
      "inputs": [],
      "name": "MinimumOutput",
      "type": "error"
    },
    {
      "inputs": [
        {
          "internalType": "contract IUniswapV2Minimal",
          "name": "pair",
          "type": "address"
        },
        {
          "internalType": "uint256",
          "name": "amount",
          "type": "uint256"
        },
        {
          "internalType": "uint256",
          "name": "swapFee",
          "type": "uint256"
        },
        {
          "internalType": "bool",
          "name": "twapSupport",
          "type": "bool"
        },
        {
          "internalType": "uint256",
          "name": "minToken0Received",
          "type": "uint256"
        },
        {
          "internalType": "uint256",
          "name": "minToken1Received",
          "type": "uint256"
        },
        {
          "internalType": "uint256",
          "name": "minLpReceived",
          "type": "uint256"
        }
      ],
      "name": "migrate",
      "outputs": [
        {
          "internalType": "uint256",
          "name": "liquidity",
          "type": "uint256"
        }
      ],
      "stateMutability": "nonpayable",
      "type": "function"
    },
    {
      "inputs": [
        {
          "internalType": "bytes[]",
          "name": "data",
          "type": "bytes[]"
        }
      ],
      "name": "multicall",
      "outputs": [
        {
          "internalType": "bytes[]",
          "name": "results",
          "type": "bytes[]"
        }
      ],
      "stateMutability": "payable",
      "type": "function"
    },
    {
      "inputs": [
        {
          "internalType": "address",
          "name": "token",
          "type": "address"
        },
        {
          "internalType": "uint256",
          "name": "value",
          "type": "uint256"
        },
        {
          "internalType": "uint256",
          "name": "deadline",
          "type": "uint256"
        },
        {
          "internalType": "uint8",
          "name": "v",
          "type": "uint8"
        },
        {
          "internalType": "bytes32",
          "name": "r",
          "type": "bytes32"
        },
        {
          "internalType": "bytes32",
          "name": "s",
          "type": "bytes32"
        }
      ],
      "name": "selfPermit",
      "outputs": [],
      "stateMutability": "payable",
      "type": "function"
    },
    {
      "inputs": [
        {
          "internalType": "address",
          "name": "token",
          "type": "address"
        },
        {
          "internalType": "uint256",
          "name": "nonce",
          "type": "uint256"
        },
        {
          "internalType": "uint256",
          "name": "expiry",
          "type": "uint256"
        },
        {
          "internalType": "uint8",
          "name": "v",
          "type": "uint8"
        },
        {
          "internalType": "bytes32",
          "name": "r",
          "type": "bytes32"
        },
        {
          "internalType": "bytes32",
          "name": "s",
          "type": "bytes32"
        }
      ],
      "name": "selfPermitAllowed",
      "outputs": [],
      "stateMutability": "payable",
      "type": "function"
    },
    {
      "inputs": [
        {
          "internalType": "address",
          "name": "token",
          "type": "address"
        },
        {
          "internalType": "uint256",
          "name": "nonce",
          "type": "uint256"
        },
        {
          "internalType": "uint256",
          "name": "expiry",
          "type": "uint256"
        },
        {
          "internalType": "uint8",
          "name": "v",
          "type": "uint8"
        },
        {
          "internalType": "bytes32",
          "name": "r",
          "type": "bytes32"
        },
        {
          "internalType": "bytes32",
          "name": "s",
          "type": "bytes32"
        }
      ],
      "name": "selfPermitAllowedIfNecessary",
      "outputs": [],
      "stateMutability": "payable",
      "type": "function"
    },
    {
      "inputs": [
        {
          "internalType": "address",
          "name": "token",
          "type": "address"
        },
        {
          "internalType": "uint256",
          "name": "value",
          "type": "uint256"
        },
        {
          "internalType": "uint256",
          "name": "deadline",
          "type": "uint256"
        },
        {
          "internalType": "uint8",
          "name": "v",
          "type": "uint8"
        },
        {
          "internalType": "bytes32",
          "name": "r",
          "type": "bytes32"
        },
        {
          "internalType": "bytes32",
          "name": "s",
          "type": "bytes32"
        }
      ],
      "name": "selfPermitIfNecessary",
      "outputs": [],
      "stateMutability": "payable",
      "type": "function"
    }
  ],
  "bytecode": "0x60e060405234801561001057600080fd5b50604051610ffd380380610ffd83398101604081905261002f91610064565b6001600160a01b0392831660805290821660a0521660c0526100b1565b6001600160a01b038116811461006157600080fd5b50565b60008060006060848603121561007957600080fd5b83516100848161004c565b60208501519093506100958161004c565b60408501519092506100a68161004c565b809150509250925092565b60805160a05160c051610f086100f560003960006106a70152600081816105f201526106d4015260008181610806015281816108cc01526109760152610f086000f3fe6080604052600436106100655760003560e01c8063c2e3140a11610043578063c2e3140a146100bb578063f3995c67146100ce578063fb728f12146100e157600080fd5b80634659a4941461006a578063a4a78f0c1461007f578063ac9650d814610092575b600080fd5b61007d610078366004610ad8565b61010f565b005b61007d61008d366004610ad8565b6101bd565b6100a56100a0366004610b3a565b61024b565b6040516100b29190610c0b565b60405180910390f35b61007d6100c9366004610ad8565b6103bb565b61007d6100dc366004610ad8565b61043b565b3480156100ed57600080fd5b506101016100fc366004610c7b565b6104ab565b6040519081526020016100b2565b6040517f8fcbaf0c00000000000000000000000000000000000000000000000000000000815233600482015230602482015260448101869052606481018590526001608482015260ff841660a482015260c4810183905260e481018290526001600160a01b03871690638fcbaf0c90610104015b600060405180830381600087803b15801561019d57600080fd5b505af11580156101b1573d6000803e3d6000fd5b50505050505050505050565b604051636eb1769f60e11b8152336004820152306024820152600019906001600160a01b0388169063dd62ed3e90604401602060405180830381865afa15801561020b573d6000803e3d6000fd5b505050506040513d601f19601f8201168201806040525081019061022f9190610ce0565b10156102435761024386868686868661010f565b505050505050565b60608167ffffffffffffffff81111561026657610266610cf9565b60405190808252806020026020018201604052801561029957816020015b60608152602001906001900390816102845790505b50905060005b828110156103b457600080308686858181106102bd576102bd610d0f565b90506020028101906102cf9190610d25565b6040516102dd929190610d73565b600060405180830381855af49150503d8060008114610318576040519150601f19603f3d011682016040523d82523d6000602084013e61031d565b606091505b50915091508161038c5760448151101561033657600080fd5b600481019050808060200190518101906103509190610d83565b6040517f08c379a00000000000000000000000000000000000000000000000000000000081526004016103839190610e30565b60405180910390fd5b8084848151811061039f5761039f610d0f565b6020908102919091010152505060010161029f565b5092915050565b604051636eb1769f60e11b815233600482015230602482015285906001600160a01b0388169063dd62ed3e90604401602060405180830381865afa158015610407573d6000803e3d6000fd5b505050506040513d601f19601f8201168201806040525081019061042b9190610ce0565b1015610243576102438686868686865b6040517fd505accf000000000000000000000000000000000000000000000000000000008152336004820152306024820152604481018690526064810185905260ff8416608482015260a4810183905260c481018290526001600160a01b0387169063d505accf9060e401610183565b600080886001600160a01b0316630dfe16816040518163ffffffff1660e01b8152600401602060405180830381865afa1580156104ec573d6000803e3d6000fd5b505050506040513d601f19601f820116820180604052508101906105109190610e4a565b90506000896001600160a01b031663d21220a76040518163ffffffff1660e01b8152600401602060405180830381865afa158015610552573d6000803e3d6000fd5b505050506040513d601f19601f820116820180604052508101906105769190610e4a565b604080516001600160a01b038086166020830152831691810191909152606081018a9052881515608082015290915060009060a00160408051808303601f1901815290829052805160208201207ff6ab6d99000000000000000000000000000000000000000000000000000000008352600483015291506000907f00000000000000000000000000000000000000000000000000000000000000006001600160a01b03169063f6ab6d99906024016020604051808303816000875af1158015610643573d6000803e3d6000fd5b505050506040513d601f19601f820116820180604052508101906106679190610e4a565b90506001600160a01b038116610744576040517f250558dc0000000000000000000000000000000000000000000000000000000081526001600160a01b037f0000000000000000000000000000000000000000000000000000000000000000169063250558dc906106fe907f0000000000000000000000000000000000000000000000000000000000000000908690600401610e67565b6020604051808303816000875af115801561071d573d6000803e3d6000fd5b505050506040513d601f19601f820116820180604052508101906107419190610e4a565b90505b6040517f23b872dd0000000000000000000000000000000000000000000000000000000081523360048201526001600160a01b038d1660248201819052604482018d9052906323b872dd906064016020604051808303816000875af11580156107b1573d6000803e3d6000fd5b505050506040513d601f19601f820116820180604052508101906107d59190610e91565b506040517f89afcb440000000000000000000000000000000000000000000000000000000081526001600160a01b037f00000000000000000000000000000000000000000000000000000000000000008116600483015260009182918f16906389afcb449060240160408051808303816000875af115801561085b573d6000803e3d6000fd5b505050506040513d601f19601f8201168201806040525081019061087f9190610eae565b915091508982108061089057508881105b156108ae57604051639b9d48e160e01b815260040160405180910390fd5b60405162ae511b60e21b81526001600160a01b0387811660048301527f000000000000000000000000000000000000000000000000000000000000000081166024830181905290851660448301526064820184905260006084830152906302b9446c9060a40160408051808303816000875af1158015610932573d6000803e3d6000fd5b505050506040513d601f19601f820116820180604052508101906109569190610eae565b505060405162ae511b60e21b81526001600160a01b0386811660048301527f000000000000000000000000000000000000000000000000000000000000000081166024830181905290851660448301526064820183905260006084830152906302b9446c9060a40160408051808303816000875af11580156109dc573d6000803e3d6000fd5b505050506040513d601f19601f82011682018060405250810190610a009190610eae565b5050604080513360208201526001600160a01b03851691637ba0e2e791016040516020818303038152906040526040518263ffffffff1660e01b8152600401610a499190610e30565b6020604051808303816000875af1158015610a68573d6000803e3d6000fd5b505050506040513d601f19601f82011682018060405250810190610a8c9190610ce0565b965087871015610aaf57604051639b9d48e160e01b815260040160405180910390fd5b505050505050979650505050505050565b6001600160a01b0381168114610ad557600080fd5b50565b60008060008060008060c08789031215610af157600080fd5b8635610afc81610ac0565b95506020870135945060408701359350606087013560ff81168114610b2057600080fd5b9598949750929560808101359460a0909101359350915050565b60008060208385031215610b4d57600080fd5b823567ffffffffffffffff80821115610b6557600080fd5b818501915085601f830112610b7957600080fd5b813581811115610b8857600080fd5b8660208260051b8501011115610b9d57600080fd5b60209290920196919550909350505050565b60005b83811015610bca578181015183820152602001610bb2565b83811115610bd9576000848401525b50505050565b60008151808452610bf7816020860160208601610baf565b601f01601f19169290920160200192915050565b6000602080830181845280855180835260408601915060408160051b870101925083870160005b82811015610c6057603f19888603018452610c4e858351610bdf565b94509285019290850190600101610c32565b5092979650505050505050565b8015158114610ad557600080fd5b600080600080600080600060e0888a031215610c9657600080fd5b8735610ca181610ac0565b965060208801359550604088013594506060880135610cbf81610c6d565b9699959850939660808101359560a0820135955060c0909101359350915050565b600060208284031215610cf257600080fd5b5051919050565b634e487b7160e01b600052604160045260246000fd5b634e487b7160e01b600052603260045260246000fd5b6000808335601e19843603018112610d3c57600080fd5b83018035915067ffffffffffffffff821115610d5757600080fd5b602001915036819003821315610d6c57600080fd5b9250929050565b8183823760009101908152919050565b600060208284031215610d9557600080fd5b815167ffffffffffffffff80821115610dad57600080fd5b818401915084601f830112610dc157600080fd5b815181811115610dd357610dd3610cf9565b604051601f8201601f19908116603f01168101908382118183101715610dfb57610dfb610cf9565b81604052828152876020848701011115610e1457600080fd5b610e25836020830160208801610baf565b979650505050505050565b602081526000610e436020830184610bdf565b9392505050565b600060208284031215610e5c57600080fd5b8151610e4381610ac0565b6001600160a01b0383168152604060208201526000610e896040830184610bdf565b949350505050565b600060208284031215610ea357600080fd5b8151610e4381610c6d565b60008060408385031215610ec157600080fd5b50508051602090910151909290915056fea2646970667358221220be99957178bec225c90244cfc6490a4dfe4c06164c05ab7ad350e7962c5bcc8564736f6c634300080a0033",
  "linkReferences": {},
  "deployedLinkReferences": {}
}