{
  "_format": "hh-sol-artifact-1",
  "contractName": "ConcentratedLiquidityPoolHelper",
  "sourceName": "contracts/pool/concentrated/ConcentratedLiquidityPoolHelper.sol",
  "abi": [
    {
      "inputs": [
        {
          "internalType": "contract IConcentratedLiquidityPool",
          "name": "pool",
          "type": "address"
        },
        {
          "internalType": "uint24",
          "name": "tickCount",
          "type": "uint24"
        }
      ],
      "name": "getTickState",
      "outputs": [
        {
          "components": [
            {
              "internalType": "int24",
              "name": "index",
              "type": "int24"
            },
            {
              "internalType": "uint128",
              "name": "liquidity",
              "type": "uint128"
            }
          ],
          "internalType": "struct ConcentratedLiquidityPoolHelper.SimpleTick[]",
          "name": "",
          "type": "tuple[]"
        }
      ],
      "stateMutability": "view",
      "type": "function"
    }
  ],
  "bytecode": "0x608060405234801561001057600080fd5b506104f8806100206000396000f3fe608060405234801561001057600080fd5b506004361061002b5760003560e01c8063f01a1b6814610030575b600080fd5b61004361003e3660046102c6565b610059565b6040516100509190610307565b60405180910390f35b606060008262ffffff1667ffffffffffffffff81111561007b5761007b610362565b6040519080825280602002602001820160405280156100c057816020015b60408051808201909152600080825260208201528152602001906001900390816100995790505b506040805160c081018252600080825260208201819052918101829052606081018290526080810182905260a08101829052919250620d89e7195b610108620d89e71961038e565b60020b8160020b146101e15760405163f30dba9360e01b8152600282900b60048201526001600160a01b0388169063f30dba939060240160c060405180830381865afa15801561015c573d6000803e3d6000fd5b505050506040513d601f19601f8201168201806040525081019061018091906103ea565b925060405180604001604052808260020b815260200184604001516001600160801b03168152508483806101b390610489565b945062ffffff16815181106101ca576101ca6104ac565b6020026020010181905250826020015190506100fb565b60405163f30dba9360e01b8152600282900b60048201526001600160a01b0388169063f30dba939060240160c060405180830381865afa158015610229573d6000803e3d6000fd5b505050506040513d601f19601f8201168201806040525081019061024d91906103ea565b92506040518060400160405280620d89e7196102689061038e565b60020b815260200184604001516001600160801b0316815250848362ffffff1681518110610298576102986104ac565b6020908102919091010152509195945050505050565b6001600160a01b03811681146102c357600080fd5b50565b600080604083850312156102d957600080fd5b82356102e4816102ae565b9150602083013562ffffff811681146102fc57600080fd5b809150509250929050565b602080825282518282018190526000919060409081850190868401855b82811015610355578151805160020b85528601516001600160801b0316868501529284019290850190600101610324565b5091979650505050505050565b634e487b7160e01b600052604160045260246000fd5b634e487b7160e01b600052601160045260246000fd5b60008160020b627fffff198114156103a8576103a8610378565b60000392915050565b8051600281900b81146103c357600080fd5b919050565b80516001600160801b03811681146103c357600080fd5b80516103c3816102ae565b600060c082840312156103fc57600080fd5b60405160c0810181811067ffffffffffffffff8211171561042d57634e487b7160e01b600052604160045260246000fd5b604052610439836103b1565b8152610447602084016103b1565b6020820152610458604084016103c8565b6040820152606083015160608201526080830151608082015261047d60a084016103df565b60a08201529392505050565b600062ffffff808316818114156104a2576104a2610378565b6001019392505050565b634e487b7160e01b600052603260045260246000fdfea26469706673582212205bf8a3f9e8e4689c607d55e2372153296c0e9f69064b334cb30d49baaa47b89264736f6c634300080a0033",
  "linkReferences": {},
  "deployedLinkReferences": {}
}