{
  "_format": "hh-sol-artifact-1",
  "contractName": "ConcentratedLiquidityPoolHelper",
  "sourceName": "contracts/pool/concentrated/ConcentratedLiquidityPoolHelper.sol",
  "abi": [
    {
      "inputs": [
        {
          "internalType": "contract IConcentratedLiquidityPool",
          "name": "pool",
          "type": "address"
        },
        {
          "internalType": "uint24",
          "name": "tickCount",
          "type": "uint24"
        }
      ],
      "name": "getTickState",
      "outputs": [
        {
          "components": [
            {
              "internalType": "int24",
              "name": "index",
              "type": "int24"
            },
            {
              "internalType": "uint128",
              "name": "liquidity",
              "type": "uint128"
            }
          ],
          "internalType": "struct ConcentratedLiquidityPoolHelper.SimpleTick[]",
          "name": "",
          "type": "tuple[]"
        }
      ],
      "stateMutability": "view",
      "type": "function"
    }
  ],
  "bytecode": "0x608060405234801561001057600080fd5b50610543806100206000396000f3fe608060405234801561001057600080fd5b506004361061002b5760003560e01c8063f01a1b6814610030575b600080fd5b61004361003e3660046102ff565b610059565b6040516100509190610340565b60405180910390f35b606060008262ffffff1667ffffffffffffffff81111561007b5761007b6103a4565b6040519080825280602002602001820160405280156100c057816020015b60408051808201909152600080825260208201528152602001906001900390816100995790505b506040805160c081018252600080825260208201819052918101829052606081018290526080810182905260a08101829052919250620d89e7195b610108620d89e7196103d0565b60020b8160020b146101f75760405163f30dba9360e01b8152600282900b600482015273ffffffffffffffffffffffffffffffffffffffff88169063f30dba939060240160c060405180830381865afa158015610169573d6000803e3d6000fd5b505050506040513d601f19601f8201168201806040525081019061018d9190610435565b925060405180604001604052808260020b815260200184604001516fffffffffffffffffffffffffffffffff168152508483806101c9906104d4565b945062ffffff16815181106101e0576101e06104f7565b6020026020010181905250826020015190506100fb565b60405163f30dba9360e01b8152600282900b600482015273ffffffffffffffffffffffffffffffffffffffff88169063f30dba939060240160c060405180830381865afa15801561024c573d6000803e3d6000fd5b505050506040513d601f19601f820116820180604052508101906102709190610435565b92506040518060400160405280620d89e71961028b906103d0565b60020b815260200184604001516fffffffffffffffffffffffffffffffff16815250848362ffffff16815181106102c4576102c46104f7565b6020908102919091010152509195945050505050565b73ffffffffffffffffffffffffffffffffffffffff811681146102fc57600080fd5b50565b6000806040838503121561031257600080fd5b823561031d816102da565b9150602083013562ffffff8116811461033557600080fd5b809150509250929050565b602080825282518282018190526000919060409081850190868401855b82811015610397578151805160020b85528601516fffffffffffffffffffffffffffffffff1686850152928401929085019060010161035d565b5091979650505050505050565b634e487b7160e01b600052604160045260246000fd5b634e487b7160e01b600052601160045260246000fd5b60008160020b627fffff198114156103ea576103ea6103ba565b60000392915050565b8051600281900b811461040557600080fd5b919050565b80516fffffffffffffffffffffffffffffffff8116811461040557600080fd5b8051610405816102da565b600060c0828403121561044757600080fd5b60405160c0810181811067ffffffffffffffff8211171561047857634e487b7160e01b600052604160045260246000fd5b604052610484836103f3565b8152610492602084016103f3565b60208201526104a36040840161040a565b604082015260608301516060820152608083015160808201526104c860a0840161042a565b60a08201529392505050565b600062ffffff808316818114156104ed576104ed6103ba565b6001019392505050565b634e487b7160e01b600052603260045260246000fdfea26469706673582212204f5d2539bd2f6adeb675312baddb7f3c822b39048473540e3c4b5f2fb187cb4964736f6c634300080a0033",
  "linkReferences": {},
  "deployedLinkReferences": {}
}