{
  "_format": "hh-sol-artifact-1",
  "contractName": "Vault",
  "sourceName": "contracts/Vault/Vault.sol",
  "abi": [
    {
      "inputs": [
        {
          "internalType": "contract IERC20",
          "name": "wethToken_",
          "type": "address"
        }
      ],
      "stateMutability": "nonpayable",
      "type": "constructor"
    },
    {
      "anonymous": false,
      "inputs": [
        {
          "indexed": true,
          "internalType": "address",
          "name": "masterContract",
          "type": "address"
        },
        {
          "indexed": false,
          "internalType": "bytes",
          "name": "data",
          "type": "bytes"
        },
        {
          "indexed": true,
          "internalType": "address",
          "name": "cloneAddress",
          "type": "address"
        }
      ],
      "name": "LogDeploy",
      "type": "event"
    },
    {
      "anonymous": false,
      "inputs": [
        {
          "indexed": true,
          "internalType": "contract IERC20",
          "name": "token",
          "type": "address"
        },
        {
          "indexed": true,
          "internalType": "address",
          "name": "from",
          "type": "address"
        },
        {
          "indexed": true,
          "internalType": "address",
          "name": "to",
          "type": "address"
        },
        {
          "indexed": false,
          "internalType": "uint256",
          "name": "amount",
          "type": "uint256"
        },
        {
          "indexed": false,
          "internalType": "uint256",
          "name": "share",
          "type": "uint256"
        }
      ],
      "name": "LogDeposit",
      "type": "event"
    },
    {
      "anonymous": false,
      "inputs": [
        {
          "indexed": true,
          "internalType": "address",
          "name": "protocol",
          "type": "address"
        }
      ],
      "name": "LogRegisterProtocol",
      "type": "event"
    },
    {
      "anonymous": false,
      "inputs": [
        {
          "indexed": true,
          "internalType": "address",
          "name": "masterContract",
          "type": "address"
        },
        {
          "indexed": true,
          "internalType": "address",
          "name": "user",
          "type": "address"
        },
        {
          "indexed": false,
          "internalType": "bool",
          "name": "approved",
          "type": "bool"
        }
      ],
      "name": "LogSetMasterContractApproval",
      "type": "event"
    },
    {
      "anonymous": false,
      "inputs": [
        {
          "indexed": true,
          "internalType": "contract IERC20",
          "name": "token",
          "type": "address"
        },
        {
          "indexed": true,
          "internalType": "address",
          "name": "from",
          "type": "address"
        },
        {
          "indexed": true,
          "internalType": "address",
          "name": "to",
          "type": "address"
        },
        {
          "indexed": false,
          "internalType": "uint256",
          "name": "share",
          "type": "uint256"
        }
      ],
      "name": "LogTransfer",
      "type": "event"
    },
    {
      "anonymous": false,
      "inputs": [
        {
          "indexed": true,
          "internalType": "address",
          "name": "masterContract",
          "type": "address"
        },
        {
          "indexed": false,
          "internalType": "bool",
          "name": "approved",
          "type": "bool"
        }
      ],
      "name": "LogWhiteListMasterContract",
      "type": "event"
    },
    {
      "anonymous": false,
      "inputs": [
        {
          "indexed": true,
          "internalType": "contract IERC20",
          "name": "token",
          "type": "address"
        },
        {
          "indexed": true,
          "internalType": "address",
          "name": "from",
          "type": "address"
        },
        {
          "indexed": true,
          "internalType": "address",
          "name": "to",
          "type": "address"
        },
        {
          "indexed": false,
          "internalType": "uint256",
          "name": "amount",
          "type": "uint256"
        },
        {
          "indexed": false,
          "internalType": "uint256",
          "name": "share",
          "type": "uint256"
        }
      ],
      "name": "LogWithdraw",
      "type": "event"
    },
    {
      "anonymous": false,
      "inputs": [
        {
          "indexed": true,
          "internalType": "address",
          "name": "previousOwner",
          "type": "address"
        },
        {
          "indexed": true,
          "internalType": "address",
          "name": "newOwner",
          "type": "address"
        }
      ],
      "name": "OwnershipTransferred",
      "type": "event"
    },
    {
      "inputs": [],
      "name": "DOMAIN_SEPARATOR",
      "outputs": [
        {
          "internalType": "bytes32",
          "name": "",
          "type": "bytes32"
        }
      ],
      "stateMutability": "view",
      "type": "function"
    },
    {
      "inputs": [
        {
          "internalType": "contract IERC20",
          "name": "",
          "type": "address"
        },
        {
          "internalType": "address",
          "name": "",
          "type": "address"
        }
      ],
      "name": "balanceOf",
      "outputs": [
        {
          "internalType": "uint256",
          "name": "",
          "type": "uint256"
        }
      ],
      "stateMutability": "view",
      "type": "function"
    },
    {
      "inputs": [
        {
          "internalType": "bytes[]",
          "name": "calls",
          "type": "bytes[]"
        },
        {
          "internalType": "bool",
          "name": "revertOnFail",
          "type": "bool"
        }
      ],
      "name": "batch",
      "outputs": [],
      "stateMutability": "payable",
      "type": "function"
    },
    {
      "inputs": [],
      "name": "claimOwnership",
      "outputs": [],
      "stateMutability": "nonpayable",
      "type": "function"
    },
    {
      "inputs": [
        {
          "internalType": "address",
          "name": "",
          "type": "address"
        },
        {
          "internalType": "uint256",
          "name": "",
          "type": "uint256"
        }
      ],
      "name": "clonesOf",
      "outputs": [
        {
          "internalType": "address",
          "name": "",
          "type": "address"
        }
      ],
      "stateMutability": "view",
      "type": "function"
    },
    {
      "inputs": [
        {
          "internalType": "address",
          "name": "masterContract",
          "type": "address"
        }
      ],
      "name": "clonesOfCount",
      "outputs": [
        {
          "internalType": "uint256",
          "name": "cloneCount",
          "type": "uint256"
        }
      ],
      "stateMutability": "view",
      "type": "function"
    },
    {
      "inputs": [
        {
          "internalType": "address",
          "name": "masterContract",
          "type": "address"
        },
        {
          "internalType": "bytes",
          "name": "data",
          "type": "bytes"
        },
        {
          "internalType": "bool",
          "name": "useCreate2",
          "type": "bool"
        }
      ],
      "name": "deploy",
      "outputs": [
        {
          "internalType": "address",
          "name": "cloneAddress",
          "type": "address"
        }
      ],
      "stateMutability": "payable",
      "type": "function"
    },
    {
      "inputs": [
        {
          "internalType": "contract IERC20",
          "name": "token_",
          "type": "address"
        },
        {
          "internalType": "address",
          "name": "from",
          "type": "address"
        },
        {
          "internalType": "address",
          "name": "to",
          "type": "address"
        },
        {
          "internalType": "uint256",
          "name": "amount",
          "type": "uint256"
        },
        {
          "internalType": "uint256",
          "name": "share",
          "type": "uint256"
        }
      ],
      "name": "deposit",
      "outputs": [
        {
          "internalType": "uint256",
          "name": "amountOut",
          "type": "uint256"
        },
        {
          "internalType": "uint256",
          "name": "shareOut",
          "type": "uint256"
        }
      ],
      "stateMutability": "payable",
      "type": "function"
    },
    {
      "inputs": [
        {
          "internalType": "address",
          "name": "",
          "type": "address"
        },
        {
          "internalType": "address",
          "name": "",
          "type": "address"
        }
      ],
      "name": "masterContractApproved",
      "outputs": [
        {
          "internalType": "bool",
          "name": "",
          "type": "bool"
        }
      ],
      "stateMutability": "view",
      "type": "function"
    },
    {
      "inputs": [
        {
          "internalType": "address",
          "name": "",
          "type": "address"
        }
      ],
      "name": "masterContractOf",
      "outputs": [
        {
          "internalType": "address",
          "name": "",
          "type": "address"
        }
      ],
      "stateMutability": "view",
      "type": "function"
    },
    {
      "inputs": [
        {
          "internalType": "address",
          "name": "",
          "type": "address"
        }
      ],
      "name": "nonces",
      "outputs": [
        {
          "internalType": "uint256",
          "name": "",
          "type": "uint256"
        }
      ],
      "stateMutability": "view",
      "type": "function"
    },
    {
      "inputs": [],
      "name": "owner",
      "outputs": [
        {
          "internalType": "address",
          "name": "",
          "type": "address"
        }
      ],
      "stateMutability": "view",
      "type": "function"
    },
    {
      "inputs": [],
      "name": "pendingOwner",
      "outputs": [
        {
          "internalType": "address",
          "name": "",
          "type": "address"
        }
      ],
      "stateMutability": "view",
      "type": "function"
    },
    {
      "inputs": [
        {
          "internalType": "contract IERC20",
          "name": "token",
          "type": "address"
        },
        {
          "internalType": "address",
          "name": "from",
          "type": "address"
        },
        {
          "internalType": "address",
          "name": "to",
          "type": "address"
        },
        {
          "internalType": "uint256",
          "name": "amount",
          "type": "uint256"
        },
        {
          "internalType": "uint256",
          "name": "deadline",
          "type": "uint256"
        },
        {
          "internalType": "uint8",
          "name": "v",
          "type": "uint8"
        },
        {
          "internalType": "bytes32",
          "name": "r",
          "type": "bytes32"
        },
        {
          "internalType": "bytes32",
          "name": "s",
          "type": "bytes32"
        }
      ],
      "name": "permitToken",
      "outputs": [],
      "stateMutability": "nonpayable",
      "type": "function"
    },
    {
      "inputs": [],
      "name": "registerProtocol",
      "outputs": [],
      "stateMutability": "nonpayable",
      "type": "function"
    },
    {
      "inputs": [
        {
          "internalType": "address",
          "name": "user",
          "type": "address"
        },
        {
          "internalType": "address",
          "name": "masterContract",
          "type": "address"
        },
        {
          "internalType": "bool",
          "name": "approved",
          "type": "bool"
        },
        {
          "internalType": "uint8",
          "name": "v",
          "type": "uint8"
        },
        {
          "internalType": "bytes32",
          "name": "r",
          "type": "bytes32"
        },
        {
          "internalType": "bytes32",
          "name": "s",
          "type": "bytes32"
        }
      ],
      "name": "setMasterContractApproval",
      "outputs": [],
      "stateMutability": "nonpayable",
      "type": "function"
    },
    {
      "inputs": [
        {
          "internalType": "contract IERC20",
          "name": "token",
          "type": "address"
        },
        {
          "internalType": "uint256",
          "name": "share",
          "type": "uint256"
        },
        {
          "internalType": "bool",
          "name": "roundUp",
          "type": "bool"
        }
      ],
      "name": "toAmount",
      "outputs": [
        {
          "internalType": "uint256",
          "name": "amount",
          "type": "uint256"
        }
      ],
      "stateMutability": "view",
      "type": "function"
    },
    {
      "inputs": [
        {
          "internalType": "contract IERC20",
          "name": "token",
          "type": "address"
        },
        {
          "internalType": "uint256",
          "name": "amount",
          "type": "uint256"
        },
        {
          "internalType": "bool",
          "name": "roundUp",
          "type": "bool"
        }
      ],
      "name": "toShare",
      "outputs": [
        {
          "internalType": "uint256",
          "name": "share",
          "type": "uint256"
        }
      ],
      "stateMutability": "view",
      "type": "function"
    },
    {
      "inputs": [
        {
          "internalType": "contract IERC20",
          "name": "",
          "type": "address"
        }
      ],
      "name": "totals",
      "outputs": [
        {
          "internalType": "uint128",
          "name": "elastic",
          "type": "uint128"
        },
        {
          "internalType": "uint128",
          "name": "base",
          "type": "uint128"
        }
      ],
      "stateMutability": "view",
      "type": "function"
    },
    {
      "inputs": [
        {
          "internalType": "contract IERC20",
          "name": "token",
          "type": "address"
        },
        {
          "internalType": "address",
          "name": "from",
          "type": "address"
        },
        {
          "internalType": "address",
          "name": "to",
          "type": "address"
        },
        {
          "internalType": "uint256",
          "name": "share",
          "type": "uint256"
        }
      ],
      "name": "transfer",
      "outputs": [],
      "stateMutability": "nonpayable",
      "type": "function"
    },
    {
      "inputs": [
        {
          "internalType": "contract IERC20",
          "name": "token",
          "type": "address"
        },
        {
          "internalType": "address",
          "name": "from",
          "type": "address"
        },
        {
          "internalType": "address[]",
          "name": "tos",
          "type": "address[]"
        },
        {
          "internalType": "uint256[]",
          "name": "shares",
          "type": "uint256[]"
        }
      ],
      "name": "transferMultiple",
      "outputs": [],
      "stateMutability": "nonpayable",
      "type": "function"
    },
    {
      "inputs": [
        {
          "internalType": "address",
          "name": "newOwner",
          "type": "address"
        },
        {
          "internalType": "bool",
          "name": "direct",
          "type": "bool"
        },
        {
          "internalType": "bool",
          "name": "renounce",
          "type": "bool"
        }
      ],
      "name": "transferOwnership",
      "outputs": [],
      "stateMutability": "nonpayable",
      "type": "function"
    },
    {
      "inputs": [
        {
          "internalType": "address",
          "name": "masterContract",
          "type": "address"
        },
        {
          "internalType": "bool",
          "name": "approved",
          "type": "bool"
        }
      ],
      "name": "whitelistMasterContract",
      "outputs": [],
      "stateMutability": "nonpayable",
      "type": "function"
    },
    {
      "inputs": [
        {
          "internalType": "address",
          "name": "",
          "type": "address"
        }
      ],
      "name": "whitelistedMasterContracts",
      "outputs": [
        {
          "internalType": "bool",
          "name": "",
          "type": "bool"
        }
      ],
      "stateMutability": "view",
      "type": "function"
    },
    {
      "inputs": [
        {
          "internalType": "contract IERC20",
          "name": "token_",
          "type": "address"
        },
        {
          "internalType": "address",
          "name": "from",
          "type": "address"
        },
        {
          "internalType": "address",
          "name": "to",
          "type": "address"
        },
        {
          "internalType": "uint256",
          "name": "amount",
          "type": "uint256"
        },
        {
          "internalType": "uint256",
          "name": "share",
          "type": "uint256"
        }
      ],
      "name": "withdraw",
      "outputs": [
        {
          "internalType": "uint256",
          "name": "amountOut",
          "type": "uint256"
        },
        {
          "internalType": "uint256",
          "name": "shareOut",
          "type": "uint256"
        }
      ],
      "stateMutability": "nonpayable",
      "type": "function"
    },
    {
      "stateMutability": "payable",
      "type": "receive"
    }
  ],
  "bytecode": "0x60e06040523480156200001157600080fd5b506040516200300138038062003001833981016040819052620000349162000109565b600080546001600160a01b0319163390811782556040519091907f8be0079c531659141344cd1fd0a4f28419497f9722a3daafe3b4186f6b6457e0908290a34660a0818152604080517f8cad95687ba82c2ce50e74f7b754645e5117c3a5bec8151c0726d5857980a8666020808301919091527fd7df266aff736d415a9dc14b4158201d612e70d75b9c7f4e375ccfd20aa5166f82840152606082018590523060808084019190915283518084039091018152919093019091528051910120608052506001600160a01b031660c0526200013b565b6000602082840312156200011c57600080fd5b81516001600160a01b03811681146200013457600080fd5b9392505050565b60805160a05160c051612e81620001806000396000818161064d0152818161092c0152818161150901526116f00152600061106b015260006111120152612e816000f3fe60806040526004361061016a5760003560e01c80638da5cb5b116100d1578063c0a47c931161008a578063e30c397811610064578063e30c3978146104af578063f18d03cc146104cf578063f7888aec146104ef578063fba96be81461052757600080fd5b8063c0a47c931461045c578063d2423b511461047c578063da5139ca1461048f57600080fd5b80638da5cb5b146103765780638fd436541461039657806391e0eab5146103b657806397da6d30146103f1578063aee4d1b214610411578063bafe4f141461042657600080fd5b80634e71e0c8116101235780634e71e0c8146102735780634ffe34db1461028857806356623118146102e9578063733a9d7c146103095780637c516e94146103295780637ecebe001461034957600080fd5b806302b9446c14610176578063078dfbe7146101a35780630fca8843146101c557806312a90c8a146101e55780631f54245b146102255780633644e5151461025057600080fd5b3661017157005b600080fd5b6101896101843660046125e6565b61055d565b604080519283526020830191909152015b60405180910390f35b3480156101af57600080fd5b506101c36101be36600461264f565b610a3c565b005b3480156101d157600080fd5b506101c36101e03660046126e6565b610b7b565b3480156101f157600080fd5b5061021561020036600461277b565b60056020526000908152604090205460ff1681565b604051901515815260200161019a565b610238610233366004612798565b610e56565b6040516001600160a01b03909116815260200161019a565b34801561025c57600080fd5b50610265611066565b60405190815260200161019a565b34801561027f57600080fd5b506101c3611138565b34801561029457600080fd5b506102c96102a336600461277b565b6008602052600090815260409020546001600160801b0380821691600160801b90041682565b604080516001600160801b0393841681529290911660208301520161019a565b3480156102f557600080fd5b50610265610304366004612830565b6111f5565b34801561031557600080fd5b506101c3610324366004612867565b611249565b34801561033557600080fd5b506101c36103443660046128b6565b611358565b34801561035557600080fd5b5061026561036436600461277b565b60066020526000908152604090205481565b34801561038257600080fd5b50600054610238906001600160a01b031681565b3480156103a257600080fd5b506102386103b1366004612937565b6113ea565b3480156103c257600080fd5b506102156103d1366004612963565b600460209081526000928352604080842090915290825290205460ff1681565b3480156103fd57600080fd5b5061018961040c3660046125e6565b611422565b34801561041d57600080fd5b506101c361185f565b34801561043257600080fd5b5061023861044136600461277b565b6002602052600090815260409020546001600160a01b031681565b34801561046857600080fd5b506101c3610477366004612991565b6118a6565b6101c361048a3660046129fd565b611d09565b34801561049b57600080fd5b506102656104aa366004612830565b611ddc565b3480156104bb57600080fd5b50600154610238906001600160a01b031681565b3480156104db57600080fd5b506101c36104ea366004612a49565b611e28565b3480156104fb57600080fd5b5061026561050a366004612963565b600760209081526000928352604080842090915290825290205481565b34801561053357600080fd5b5061026561054236600461277b565b6001600160a01b031660009081526003602052604090205490565b600080856001600160a01b038116331480159061058357506001600160a01b0381163014155b1561060e57336000908152600260205260409020546001600160a01b0316806105c75760405162461bcd60e51b81526004016105be90612a9a565b60405180910390fd5b6001600160a01b0380821660009081526004602090815260408083209386168352929052205460ff1661060c5760405162461bcd60e51b81526004016105be90612ac5565b505b6001600160a01b0386166106345760405162461bcd60e51b81526004016105be90612af4565b60006001600160a01b0389161561064b578861066d565b7f00000000000000000000000000000000000000000000000000000000000000005b6001600160a01b0381166000908152600860209081526040918290208251808401909352546001600160801b03808216808552600160801b90920416918301919091529192509015158061072257506000826001600160a01b03166318160ddd6040518163ffffffff1660e01b8152600401602060405180830381865afa1580156106fc573d6000803e3d6000fd5b505050506040513d601f19601f820116820180604052508101906107209190612b20565b115b61075a5760405162461bcd60e51b81526020600482015260096024820152684e6f20746f6b656e7360b81b60448201526064016105be565b856107b25761076b81886000611fce565b95506103e861079061077c88612067565b60208401516001600160801b0316906120c4565b6001600160801b031610156107ad57600080945094505050610a31565b6107c1565b6107be81876001612135565b96505b6001600160a01b038916301415806107e057506001600160a01b038a16155b8061080857508051610804906001600160801b03166107fe846121ae565b90612219565b8711155b6108445760405162461bcd60e51b815260206004820152600d60248201526c0a6d6d2da40e8dede40daeac6d609b1b60448201526064016105be565b6001600160a01b038083166000908152600760209081526040808320938c1683529290522054610874908761226f565b6001600160a01b038084166000908152600760209081526040808320938d16835292905220556108ba6108a687612067565b60208301516001600160801b0316906120c4565b6001600160801b031660208201526108e56108d488612067565b82516001600160801b0316906120c4565b6001600160801b0390811682526001600160a01b0380841660009081526008602090815260409091208451918501518416600160801b0291909316179091558a166109a3577f00000000000000000000000000000000000000000000000000000000000000006001600160a01b031663d0e30db0886040518263ffffffff1660e01b81526004016000604051808303818588803b15801561098557600080fd5b505af1158015610999573d6000803e3d6000fd5b50505050506109c8565b6001600160a01b03891630146109c8576109c86001600160a01b0383168a308a6122c8565b876001600160a01b0316896001600160a01b0316836001600160a01b03167fb2346165e782564f17f5b7e555c21f4fd96fbc93458572bf0113ea35a958fc558a8a604051610a20929190918252602082015260400190565b60405180910390a486945085935050505b509550959350505050565b6000546001600160a01b03163314610a965760405162461bcd60e51b815260206004820181905260248201527f4f776e61626c653a2063616c6c6572206973206e6f7420746865206f776e657260448201526064016105be565b8115610b59576001600160a01b038316151580610ab05750805b610af45760405162461bcd60e51b81526020600482015260156024820152744f776e61626c653a207a65726f206164647265737360581b60448201526064016105be565b600080546040516001600160a01b03808716939216917f8be0079c531659141344cd1fd0a4f28419497f9722a3daafe3b4186f6b6457e091a3600080546001600160a01b0385166001600160a01b031991821617909155600180549091169055505050565b600180546001600160a01b0385166001600160a01b0319909116179055505050565b846001600160a01b0381163314801590610b9e57506001600160a01b0381163014155b15610c2057336000908152600260205260409020546001600160a01b031680610bd95760405162461bcd60e51b81526004016105be90612a9a565b6001600160a01b0380821660009081526004602090815260408083209386168352929052205460ff16610c1e5760405162461bcd60e51b81526004016105be90612ac5565b505b600085858281610c3257610c32612b39565b9050602002016020810190610c47919061277b565b6001600160a01b03161415610c6e5760405162461bcd60e51b81526004016105be90612af4565b600084815b81811015610dee576000888883818110610c8f57610c8f612b39565b9050602002016020810190610ca4919061277b565b9050610d19878784818110610cbb57610cbb612b39565b90506020020135600760008e6001600160a01b03166001600160a01b031681526020019081526020016000206000846001600160a01b03166001600160a01b031681526020019081526020016000205461226f90919063ffffffff16565b6001600160a01b03808d16600090815260076020908152604080832093861683529290522055610d6a878784818110610d5457610d54612b39565b905060200201358561226f90919063ffffffff16565b9350806001600160a01b03168a6001600160a01b03168c6001600160a01b03167f6eabe333476233fd382224f233210cb808a7bc4c4de64f9d76628bf63c677b1a8a8a87818110610dbd57610dbd612b39565b90506020020135604051610dd391815260200190565b60405180910390a45080610de681612b65565b915050610c73565b506001600160a01b03808a166000908152600760209081526040808320938c1683529290522054610e1f9083612219565b6001600160a01b03998a1660009081526007602090815260408083209b909c16825299909952989097209790975550505050505050565b60006001600160a01b038516610eae5760405162461bcd60e51b815260206004820181905260248201527f426f72696e67466163746f72793a204e6f206d6173746572436f6e747261637460448201526064016105be565b606085901b8215610f205760008585604051610ecb929190612b80565b60405180910390209050604051733d602d80600a3d3981f3363d3d373d3d3d363d7360601b81528260148201526e5af43d82803e903d91602b57fd5bf360881b6028820152816037826000f593505050610f65565b604051733d602d80600a3d3981f3363d3d373d3d3d363d7360601b81528160148201526e5af43d82803e903d91602b57fd5bf360881b60288201526037816000f09250505b6001600160a01b0380831660008181526002602090815260408083208054958c166001600160a01b0319968716811790915583526003825280832080546001810182559084529190922001805490931682179092559051631377d1f560e21b8152634ddf47d4903490610fde9089908990600401612b90565b6000604051808303818588803b158015610ff757600080fd5b505af115801561100b573d6000803e3d6000fd5b5050505050816001600160a01b0316866001600160a01b03167fd62166f3c2149208e51788b1401cc356bf5da1fc6c7886a32e18570f57d88b3b8787604051611055929190612b90565b60405180910390a350949350505050565b6000467f0000000000000000000000000000000000000000000000000000000000000000811461111057604080517f8cad95687ba82c2ce50e74f7b754645e5117c3a5bec8151c0726d5857980a8666020808301919091527fd7df266aff736d415a9dc14b4158201d612e70d75b9c7f4e375ccfd20aa5166f8284015260608201849052306080808401919091528351808403909101815260a09092019092528051910120611132565b7f00000000000000000000000000000000000000000000000000000000000000005b91505090565b6001546001600160a01b03163381146111935760405162461bcd60e51b815260206004820181905260248201527f4f776e61626c653a2063616c6c657220213d2070656e64696e67206f776e657260448201526064016105be565b600080546040516001600160a01b03808516939216917f8be0079c531659141344cd1fd0a4f28419497f9722a3daafe3b4186f6b6457e091a3600080546001600160a01b039092166001600160a01b0319928316179055600180549091169055565b6001600160a01b03831660009081526008602090815260408083208151808301909252546001600160801b038082168352600160801b9091041691810191909152611241908484612135565b949350505050565b6000546001600160a01b031633146112a35760405162461bcd60e51b815260206004820181905260248201527f4f776e61626c653a2063616c6c6572206973206e6f7420746865206f776e657260448201526064016105be565b6001600160a01b0382166112f95760405162461bcd60e51b815260206004820152601c60248201527f4d6173746572434d67723a2043616e6e6f7420617070726f766520300000000060448201526064016105be565b6001600160a01b038216600081815260056020908152604091829020805460ff191685151590811790915591519182527f31a1e0eac44b54ac6c2a2efa87e92c83405ffcf33fceef02a7bca695130e2600910160405180910390a25050565b60405163d505accf60e01b81526001600160a01b0388811660048301528781166024830152604482018790526064820186905260ff8516608483015260a4820184905260c4820183905289169063d505accf9060e401600060405180830381600087803b1580156113c857600080fd5b505af11580156113dc573d6000803e3d6000fd5b505050505050505050505050565b6003602052816000526040600020818154811061140657600080fd5b6000918252602090912001546001600160a01b03169150829050565b600080856001600160a01b038116331480159061144857506001600160a01b0381163014155b156114ca57336000908152600260205260409020546001600160a01b0316806114835760405162461bcd60e51b81526004016105be90612a9a565b6001600160a01b0380821660009081526004602090815260408083209386168352929052205460ff166114c85760405162461bcd60e51b81526004016105be90612ac5565b505b6001600160a01b0386166114f05760405162461bcd60e51b81526004016105be90612af4565b60006001600160a01b038916156115075788611529565b7f00000000000000000000000000000000000000000000000000000000000000005b6001600160a01b0381166000908152600860209081526040918290208251808401909352546001600160801b038082168452600160801b9091041690820152909150856115835761157c81886001611fce565b9550611592565b61158f81876000612135565b96505b6001600160a01b038083166000908152600760209081526040808320938d16835292905220546115c29087612219565b6001600160a01b038084166000908152600760209081526040808320938e16835292905220556116056115f488612067565b82516001600160801b0316906123ec565b6001600160801b0316815261163061161c87612067565b60208301516001600160801b0316906123ec565b6001600160801b0316602082018190526103e811158061165b575060208101516001600160801b0316155b6116995760405162461bcd60e51b815260206004820152600f60248201526e63616e6e6f7420626520656d70747960881b60448201526064016105be565b6001600160a01b0380831660009081526008602090815260409091208351918401516001600160801b03908116600160801b0292169190911790558a166117f357604051632e1a7d4d60e01b8152600481018890527f00000000000000000000000000000000000000000000000000000000000000006001600160a01b031690632e1a7d4d90602401600060405180830381600087803b15801561173c57600080fd5b505af1158015611750573d6000803e3d6000fd5b505050506000886001600160a01b03168860405160006040518083038185875af1925050503d80600081146117a1576040519150601f19603f3d011682016040523d82523d6000602084013e6117a6565b606091505b50509050806117ed5760405162461bcd60e51b8152602060048201526013602482015272115512081d1c985b9cd9995c8819985a5b1959606a1b60448201526064016105be565b50611807565b6118076001600160a01b0383168989612454565b876001600160a01b0316896001600160a01b0316836001600160a01b03167fad9ab9ee6953d4d177f4a03b3a3ac3178ffcb9816319f348060194aa76b144868a8a604051610a20929190918252602082015260400190565b3360008181526002602052604080822080546001600160a01b03191684179055517fdfb44ffabf0d3a8f650d3ce43eff98f6d050e7ea1a396d5794f014e7dadabacb9190a2565b6001600160a01b0385166118fc5760405162461bcd60e51b815260206004820152601b60248201527f4d6173746572434d67723a206d617374657243206e6f7420736574000000000060448201526064016105be565b81158015611908575080155b8015611915575060ff8316155b15611a47576001600160a01b03861633146119725760405162461bcd60e51b815260206004820152601b60248201527f4d6173746572434d67723a2075736572206e6f742073656e646572000000000060448201526064016105be565b6001600160a01b0386811660009081526002602052604090205416156119da5760405162461bcd60e51b815260206004820152601960248201527f4d6173746572434d67723a207573657220697320636c6f6e650000000000000060448201526064016105be565b6001600160a01b03851660009081526005602052604090205460ff16611a425760405162461bcd60e51b815260206004820152601b60248201527f4d6173746572434d67723a206e6f742077686974656c6973746564000000000060448201526064016105be565b611c99565b6001600160a01b038616611a9d5760405162461bcd60e51b815260206004820152601c60248201527f4d6173746572434d67723a20557365722063616e6e6f7420626520300000000060448201526064016105be565b600060405180604001604052806002815260200161190160f01b815250611ac2611066565b7f1962bc9f5484cb7a998701b81090e966ee1fce5771af884cceee7c081b14ade287611b0e577fb426802f1f7dc850a7b6b38805edea2442f3992878a9ab985abfe8091d95d0b1611b30565b7f422ac5323fe049241dee67716229a1cc1bc7b313b23dfe3ef6d42ab177a3b2845b6001600160a01b038b16600090815260066020526040812080548d928d928d9291611b5a83612b65565b909155506040805160208101979097528601949094526001600160a01b03928316606086015291166080840152151560a083015260c082015260e00160405160208183030381529060405280519060200120604051602001611bbe93929190612beb565b60408051601f198184030181528282528051602091820120600080855291840180845281905260ff88169284019290925260608301869052608083018590529092509060019060a0016020604051602081039080840390855afa158015611c29573d6000803e3d6000fd5b505050602060405103519050876001600160a01b0316816001600160a01b031614611c965760405162461bcd60e51b815260206004820152601d60248201527f4d6173746572434d67723a20496e76616c6964205369676e617475726500000060448201526064016105be565b50505b6001600160a01b038581166000818152600460209081526040808320948b1680845294825291829020805460ff191689151590811790915591519182527f5f6ebb64ba012a851c6f014e6cad458ddf213d1512049b31cd06365c2b059257910160405180910390a3505050505050565b60005b82811015611dd65760008030868685818110611d2a57611d2a612b39565b9050602002810190611d3c9190612c12565b604051611d4a929190612b80565b600060405180830381855af49150503d8060008114611d85576040519150601f19603f3d011682016040523d82523d6000602084013e611d8a565b606091505b509150915081158015611d9a5750835b15611dc157611da88161256f565b60405162461bcd60e51b81526004016105be9190612c59565b50508080611dce90612b65565b915050611d0c565b50505050565b6001600160a01b03831660009081526008602090815260408083208151808301909252546001600160801b038082168352600160801b9091041691810191909152611241908484611fce565b826001600160a01b0381163314801590611e4b57506001600160a01b0381163014155b15611ecd57336000908152600260205260409020546001600160a01b031680611e865760405162461bcd60e51b81526004016105be90612a9a565b6001600160a01b0380821660009081526004602090815260408083209386168352929052205460ff16611ecb5760405162461bcd60e51b81526004016105be90612ac5565b505b6001600160a01b038316611ef35760405162461bcd60e51b81526004016105be90612af4565b6001600160a01b03808616600090815260076020908152604080832093881683529290522054611f239083612219565b6001600160a01b03868116600090815260076020908152604080832089851684529091528082209390935590851681522054611f5f908361226f565b6001600160a01b0380871660008181526007602090815260408083208986168085529252918290209490945551918716917f6eabe333476233fd382224f233210cb808a7bc4c4de64f9d76628bf63c677b1a90611fbf9087815260200190565b60405180910390a45050505050565b82516000906001600160801b0316611fe7575081612060565b835160208501516001600160801b0391821691612005911685612c8c565b61200f9190612cab565b905081801561204d57508284602001516001600160801b031685600001516001600160801b0316836120419190612c8c565b61204b9190612cab565b105b15612060578061205c81612b65565b9150505b9392505050565b60006001600160801b038211156120c05760405162461bcd60e51b815260206004820152601c60248201527f426f72696e674d6174683a2075696e74313238204f766572666c6f770000000060448201526064016105be565b5090565b60006001600160801b0382166120da8385612ccd565b9150816001600160801b0316101561212f5760405162461bcd60e51b8152602060048201526018602482015277426f72696e674d6174683a20416464204f766572666c6f7760401b60448201526064016105be565b92915050565b600083602001516001600160801b031660001415612154575081612060565b602084015184516001600160801b0391821691612172911685612c8c565b61217c9190612cab565b905081801561204d57508284600001516001600160801b031685602001516001600160801b0316836120419190612c8c565b6040516370a0823160e01b81523060048201526000906001600160a01b038316906370a0823190602401602060405180830381865afa1580156121f5573d6000803e3d6000fd5b505050506040513d601f19601f8201168201806040525081019061212f9190612b20565b6000826122268382612cf8565b915081111561212f5760405162461bcd60e51b8152602060048201526015602482015274426f72696e674d6174683a20556e646572666c6f7760581b60448201526064016105be565b60008161227c8185612d0f565b915081101561212f5760405162461bcd60e51b8152602060048201526018602482015277426f72696e674d6174683a20416464204f766572666c6f7760401b60448201526064016105be565b604080516001600160a01b0385811660248301528481166044830152606480830185905283518084039091018152608490920183526020820180516001600160e01b03166323b872dd60e01b179052915160009283929088169161232c9190612d27565b6000604051808303816000865af19150503d8060008114612369576040519150601f19603f3d011682016040523d82523d6000602084013e61236e565b606091505b50915091508180156123985750805115806123985750808060200190518101906123989190612d43565b6123e45760405162461bcd60e51b815260206004820181905260248201527f426f72696e6745524332303a205472616e7366657246726f6d206661696c656460448201526064016105be565b505050505050565b60006001600160801b0383166124028385612d60565b9150816001600160801b0316111561212f5760405162461bcd60e51b8152602060048201526015602482015274426f72696e674d6174683a20556e646572666c6f7760581b60448201526064016105be565b604080516001600160a01b038481166024830152604480830185905283518084039091018152606490920183526020820180516001600160e01b031663a9059cbb60e01b17905291516000928392908716916124b09190612d27565b6000604051808303816000865af19150503d80600081146124ed576040519150601f19603f3d011682016040523d82523d6000602084013e6124f2565b606091505b509150915081801561251c57508051158061251c57508080602001905181019061251c9190612d43565b6125685760405162461bcd60e51b815260206004820152601c60248201527f426f72696e6745524332303a205472616e73666572206661696c65640000000060448201526064016105be565b5050505050565b60606044825110156125b457505060408051808201909152601d81527f5472616e73616374696f6e2072657665727465642073696c656e746c79000000602082015290565b6004820191508180602001905181019061212f9190612d9e565b6001600160a01b03811681146125e357600080fd5b50565b600080600080600060a086880312156125fe57600080fd5b8535612609816125ce565b94506020860135612619816125ce565b93506040860135612629816125ce565b94979396509394606081013594506080013592915050565b80151581146125e357600080fd5b60008060006060848603121561266457600080fd5b833561266f816125ce565b9250602084013561267f81612641565b9150604084013561268f81612641565b809150509250925092565b60008083601f8401126126ac57600080fd5b50813567ffffffffffffffff8111156126c457600080fd5b6020830191508360208260051b85010111156126df57600080fd5b9250929050565b600080600080600080608087890312156126ff57600080fd5b863561270a816125ce565b9550602087013561271a816125ce565b9450604087013567ffffffffffffffff8082111561273757600080fd5b6127438a838b0161269a565b9096509450606089013591508082111561275c57600080fd5b5061276989828a0161269a565b979a9699509497509295939492505050565b60006020828403121561278d57600080fd5b8135612060816125ce565b600080600080606085870312156127ae57600080fd5b84356127b9816125ce565b9350602085013567ffffffffffffffff808211156127d657600080fd5b818701915087601f8301126127ea57600080fd5b8135818111156127f957600080fd5b88602082850101111561280b57600080fd5b602083019550809450505050604085013561282581612641565b939692955090935050565b60008060006060848603121561284557600080fd5b8335612850816125ce565b925060208401359150604084013561268f81612641565b6000806040838503121561287a57600080fd5b8235612885816125ce565b9150602083013561289581612641565b809150509250929050565b803560ff811681146128b157600080fd5b919050565b600080600080600080600080610100898b0312156128d357600080fd5b88356128de816125ce565b975060208901356128ee816125ce565b965060408901356128fe816125ce565b9550606089013594506080890135935061291a60a08a016128a0565b925060c0890135915060e089013590509295985092959890939650565b6000806040838503121561294a57600080fd5b8235612955816125ce565b946020939093013593505050565b6000806040838503121561297657600080fd5b8235612981816125ce565b91506020830135612895816125ce565b60008060008060008060c087890312156129aa57600080fd5b86356129b5816125ce565b955060208701356129c5816125ce565b945060408701356129d581612641565b93506129e3606088016128a0565b92506080870135915060a087013590509295509295509295565b600080600060408486031215612a1257600080fd5b833567ffffffffffffffff811115612a2957600080fd5b612a358682870161269a565b909450925050602084013561268f81612641565b60008060008060808587031215612a5f57600080fd5b8435612a6a816125ce565b93506020850135612a7a816125ce565b92506040850135612a8a816125ce565b9396929550929360600135925050565b602080825260119082015270139bc81b585cdd195c90dbdb9d1c9858dd607a1b604082015260600190565b602080825260159082015274151c985b9cd9995c881b9bdd08185c1c1c9bdd9959605a1b604082015260600190565b6020808252601290820152711d1bc81859191c995cdcc81b9bdd081cd95d60721b604082015260600190565b600060208284031215612b3257600080fd5b5051919050565b634e487b7160e01b600052603260045260246000fd5b634e487b7160e01b600052601160045260246000fd5b6000600019821415612b7957612b79612b4f565b5060010190565b8183823760009101908152919050565b60208152816020820152818360408301376000818301604090810191909152601f909201601f19160101919050565b60005b83811015612bda578181015183820152602001612bc2565b83811115611dd65750506000910152565b60008451612bfd818460208901612bbf565b91909101928352506020820152604001919050565b6000808335601e19843603018112612c2957600080fd5b83018035915067ffffffffffffffff821115612c4457600080fd5b6020019150368190038213156126df57600080fd5b6020815260008251806020840152612c78816040850160208701612bbf565b601f01601f19169190910160400192915050565b6000816000190483118215151615612ca657612ca6612b4f565b500290565b600082612cc857634e487b7160e01b600052601260045260246000fd5b500490565b60006001600160801b03808316818516808303821115612cef57612cef612b4f565b01949350505050565b600082821015612d0a57612d0a612b4f565b500390565b60008219821115612d2257612d22612b4f565b500190565b60008251612d39818460208701612bbf565b9190910192915050565b600060208284031215612d5557600080fd5b815161206081612641565b60006001600160801b0383811690831681811015612d8057612d80612b4f565b039392505050565b634e487b7160e01b600052604160045260246000fd5b600060208284031215612db057600080fd5b815167ffffffffffffffff80821115612dc857600080fd5b818401915084601f830112612ddc57600080fd5b815181811115612dee57612dee612d88565b604051601f8201601f19908116603f01168101908382118183101715612e1657612e16612d88565b81604052828152876020848701011115612e2f57600080fd5b612e40836020830160208801612bbf565b97965050505050505056fea2646970667358221220159cbd0546245a682b64859a3095722a99d772b8f4f00e23d2c9fe1fdebf117764736f6c634300080a0033",
  "linkReferences": {},
  "deployedLinkReferences": {}
}