{
  "_format": "hh-sol-artifact-1",
  "contractName": "Vault",
  "sourceName": "contracts/Vault/Vault.sol",
  "abi": [
    {
      "inputs": [
        {
          "internalType": "contract IERC20",
          "name": "wethToken_",
          "type": "address"
        }
      ],
      "stateMutability": "nonpayable",
      "type": "constructor"
    },
    {
      "anonymous": false,
      "inputs": [
        {
          "indexed": true,
          "internalType": "address",
          "name": "masterContract",
          "type": "address"
        },
        {
          "indexed": false,
          "internalType": "bytes",
          "name": "data",
          "type": "bytes"
        },
        {
          "indexed": true,
          "internalType": "address",
          "name": "cloneAddress",
          "type": "address"
        }
      ],
      "name": "LogDeploy",
      "type": "event"
    },
    {
      "anonymous": false,
      "inputs": [
        {
          "indexed": true,
          "internalType": "contract IERC20",
          "name": "token",
          "type": "address"
        },
        {
          "indexed": true,
          "internalType": "address",
          "name": "from",
          "type": "address"
        },
        {
          "indexed": true,
          "internalType": "address",
          "name": "to",
          "type": "address"
        },
        {
          "indexed": false,
          "internalType": "uint256",
          "name": "amount",
          "type": "uint256"
        },
        {
          "indexed": false,
          "internalType": "uint256",
          "name": "share",
          "type": "uint256"
        }
      ],
      "name": "LogDeposit",
      "type": "event"
    },
    {
      "anonymous": false,
      "inputs": [
        {
          "indexed": true,
          "internalType": "address",
          "name": "protocol",
          "type": "address"
        }
      ],
      "name": "LogRegisterProtocol",
      "type": "event"
    },
    {
      "anonymous": false,
      "inputs": [
        {
          "indexed": true,
          "internalType": "address",
          "name": "masterContract",
          "type": "address"
        },
        {
          "indexed": true,
          "internalType": "address",
          "name": "user",
          "type": "address"
        },
        {
          "indexed": false,
          "internalType": "bool",
          "name": "approved",
          "type": "bool"
        }
      ],
      "name": "LogSetMasterContractApproval",
      "type": "event"
    },
    {
      "anonymous": false,
      "inputs": [
        {
          "indexed": true,
          "internalType": "contract IERC20",
          "name": "token",
          "type": "address"
        },
        {
          "indexed": true,
          "internalType": "address",
          "name": "from",
          "type": "address"
        },
        {
          "indexed": true,
          "internalType": "address",
          "name": "to",
          "type": "address"
        },
        {
          "indexed": false,
          "internalType": "uint256",
          "name": "share",
          "type": "uint256"
        }
      ],
      "name": "LogTransfer",
      "type": "event"
    },
    {
      "anonymous": false,
      "inputs": [
        {
          "indexed": true,
          "internalType": "address",
          "name": "masterContract",
          "type": "address"
        },
        {
          "indexed": false,
          "internalType": "bool",
          "name": "approved",
          "type": "bool"
        }
      ],
      "name": "LogWhiteListMasterContract",
      "type": "event"
    },
    {
      "anonymous": false,
      "inputs": [
        {
          "indexed": true,
          "internalType": "contract IERC20",
          "name": "token",
          "type": "address"
        },
        {
          "indexed": true,
          "internalType": "address",
          "name": "from",
          "type": "address"
        },
        {
          "indexed": true,
          "internalType": "address",
          "name": "to",
          "type": "address"
        },
        {
          "indexed": false,
          "internalType": "uint256",
          "name": "amount",
          "type": "uint256"
        },
        {
          "indexed": false,
          "internalType": "uint256",
          "name": "share",
          "type": "uint256"
        }
      ],
      "name": "LogWithdraw",
      "type": "event"
    },
    {
      "anonymous": false,
      "inputs": [
        {
          "indexed": true,
          "internalType": "address",
          "name": "previousOwner",
          "type": "address"
        },
        {
          "indexed": true,
          "internalType": "address",
          "name": "newOwner",
          "type": "address"
        }
      ],
      "name": "OwnershipTransferred",
      "type": "event"
    },
    {
      "inputs": [],
      "name": "DOMAIN_SEPARATOR",
      "outputs": [
        {
          "internalType": "bytes32",
          "name": "",
          "type": "bytes32"
        }
      ],
      "stateMutability": "view",
      "type": "function"
    },
    {
      "inputs": [
        {
          "internalType": "contract IERC20",
          "name": "",
          "type": "address"
        },
        {
          "internalType": "address",
          "name": "",
          "type": "address"
        }
      ],
      "name": "balanceOf",
      "outputs": [
        {
          "internalType": "uint256",
          "name": "",
          "type": "uint256"
        }
      ],
      "stateMutability": "view",
      "type": "function"
    },
    {
      "inputs": [
        {
          "internalType": "bytes[]",
          "name": "calls",
          "type": "bytes[]"
        },
        {
          "internalType": "bool",
          "name": "revertOnFail",
          "type": "bool"
        }
      ],
      "name": "batch",
      "outputs": [],
      "stateMutability": "payable",
      "type": "function"
    },
    {
      "inputs": [],
      "name": "claimOwnership",
      "outputs": [],
      "stateMutability": "nonpayable",
      "type": "function"
    },
    {
      "inputs": [
        {
          "internalType": "address",
          "name": "",
          "type": "address"
        },
        {
          "internalType": "uint256",
          "name": "",
          "type": "uint256"
        }
      ],
      "name": "clonesOf",
      "outputs": [
        {
          "internalType": "address",
          "name": "",
          "type": "address"
        }
      ],
      "stateMutability": "view",
      "type": "function"
    },
    {
      "inputs": [
        {
          "internalType": "address",
          "name": "masterContract",
          "type": "address"
        }
      ],
      "name": "clonesOfCount",
      "outputs": [
        {
          "internalType": "uint256",
          "name": "cloneCount",
          "type": "uint256"
        }
      ],
      "stateMutability": "view",
      "type": "function"
    },
    {
      "inputs": [
        {
          "internalType": "address",
          "name": "masterContract",
          "type": "address"
        },
        {
          "internalType": "bytes",
          "name": "data",
          "type": "bytes"
        },
        {
          "internalType": "bool",
          "name": "useCreate2",
          "type": "bool"
        }
      ],
      "name": "deploy",
      "outputs": [
        {
          "internalType": "address",
          "name": "cloneAddress",
          "type": "address"
        }
      ],
      "stateMutability": "payable",
      "type": "function"
    },
    {
      "inputs": [
        {
          "internalType": "contract IERC20",
          "name": "token_",
          "type": "address"
        },
        {
          "internalType": "address",
          "name": "from",
          "type": "address"
        },
        {
          "internalType": "address",
          "name": "to",
          "type": "address"
        },
        {
          "internalType": "uint256",
          "name": "amount",
          "type": "uint256"
        },
        {
          "internalType": "uint256",
          "name": "share",
          "type": "uint256"
        }
      ],
      "name": "deposit",
      "outputs": [
        {
          "internalType": "uint256",
          "name": "amountOut",
          "type": "uint256"
        },
        {
          "internalType": "uint256",
          "name": "shareOut",
          "type": "uint256"
        }
      ],
      "stateMutability": "payable",
      "type": "function"
    },
    {
      "inputs": [
        {
          "internalType": "address",
          "name": "",
          "type": "address"
        },
        {
          "internalType": "address",
          "name": "",
          "type": "address"
        }
      ],
      "name": "masterContractApproved",
      "outputs": [
        {
          "internalType": "bool",
          "name": "",
          "type": "bool"
        }
      ],
      "stateMutability": "view",
      "type": "function"
    },
    {
      "inputs": [
        {
          "internalType": "address",
          "name": "",
          "type": "address"
        }
      ],
      "name": "masterContractOf",
      "outputs": [
        {
          "internalType": "address",
          "name": "",
          "type": "address"
        }
      ],
      "stateMutability": "view",
      "type": "function"
    },
    {
      "inputs": [
        {
          "internalType": "address",
          "name": "",
          "type": "address"
        }
      ],
      "name": "nonces",
      "outputs": [
        {
          "internalType": "uint256",
          "name": "",
          "type": "uint256"
        }
      ],
      "stateMutability": "view",
      "type": "function"
    },
    {
      "inputs": [],
      "name": "owner",
      "outputs": [
        {
          "internalType": "address",
          "name": "",
          "type": "address"
        }
      ],
      "stateMutability": "view",
      "type": "function"
    },
    {
      "inputs": [],
      "name": "pendingOwner",
      "outputs": [
        {
          "internalType": "address",
          "name": "",
          "type": "address"
        }
      ],
      "stateMutability": "view",
      "type": "function"
    },
    {
      "inputs": [
        {
          "internalType": "contract IERC20",
          "name": "token",
          "type": "address"
        },
        {
          "internalType": "address",
          "name": "from",
          "type": "address"
        },
        {
          "internalType": "address",
          "name": "to",
          "type": "address"
        },
        {
          "internalType": "uint256",
          "name": "amount",
          "type": "uint256"
        },
        {
          "internalType": "uint256",
          "name": "deadline",
          "type": "uint256"
        },
        {
          "internalType": "uint8",
          "name": "v",
          "type": "uint8"
        },
        {
          "internalType": "bytes32",
          "name": "r",
          "type": "bytes32"
        },
        {
          "internalType": "bytes32",
          "name": "s",
          "type": "bytes32"
        }
      ],
      "name": "permitToken",
      "outputs": [],
      "stateMutability": "nonpayable",
      "type": "function"
    },
    {
      "inputs": [],
      "name": "registerProtocol",
      "outputs": [],
      "stateMutability": "nonpayable",
      "type": "function"
    },
    {
      "inputs": [
        {
          "internalType": "address",
          "name": "user",
          "type": "address"
        },
        {
          "internalType": "address",
          "name": "masterContract",
          "type": "address"
        },
        {
          "internalType": "bool",
          "name": "approved",
          "type": "bool"
        },
        {
          "internalType": "uint8",
          "name": "v",
          "type": "uint8"
        },
        {
          "internalType": "bytes32",
          "name": "r",
          "type": "bytes32"
        },
        {
          "internalType": "bytes32",
          "name": "s",
          "type": "bytes32"
        }
      ],
      "name": "setMasterContractApproval",
      "outputs": [],
      "stateMutability": "nonpayable",
      "type": "function"
    },
    {
      "inputs": [
        {
          "internalType": "contract IERC20",
          "name": "token",
          "type": "address"
        },
        {
          "internalType": "uint256",
          "name": "share",
          "type": "uint256"
        },
        {
          "internalType": "bool",
          "name": "roundUp",
          "type": "bool"
        }
      ],
      "name": "toAmount",
      "outputs": [
        {
          "internalType": "uint256",
          "name": "amount",
          "type": "uint256"
        }
      ],
      "stateMutability": "view",
      "type": "function"
    },
    {
      "inputs": [
        {
          "internalType": "contract IERC20",
          "name": "token",
          "type": "address"
        },
        {
          "internalType": "uint256",
          "name": "amount",
          "type": "uint256"
        },
        {
          "internalType": "bool",
          "name": "roundUp",
          "type": "bool"
        }
      ],
      "name": "toShare",
      "outputs": [
        {
          "internalType": "uint256",
          "name": "share",
          "type": "uint256"
        }
      ],
      "stateMutability": "view",
      "type": "function"
    },
    {
      "inputs": [
        {
          "internalType": "contract IERC20",
          "name": "",
          "type": "address"
        }
      ],
      "name": "totals",
      "outputs": [
        {
          "internalType": "uint128",
          "name": "elastic",
          "type": "uint128"
        },
        {
          "internalType": "uint128",
          "name": "base",
          "type": "uint128"
        }
      ],
      "stateMutability": "view",
      "type": "function"
    },
    {
      "inputs": [
        {
          "internalType": "contract IERC20",
          "name": "token",
          "type": "address"
        },
        {
          "internalType": "address",
          "name": "from",
          "type": "address"
        },
        {
          "internalType": "address",
          "name": "to",
          "type": "address"
        },
        {
          "internalType": "uint256",
          "name": "share",
          "type": "uint256"
        }
      ],
      "name": "transfer",
      "outputs": [],
      "stateMutability": "nonpayable",
      "type": "function"
    },
    {
      "inputs": [
        {
          "internalType": "contract IERC20",
          "name": "token",
          "type": "address"
        },
        {
          "internalType": "address",
          "name": "from",
          "type": "address"
        },
        {
          "internalType": "address[]",
          "name": "tos",
          "type": "address[]"
        },
        {
          "internalType": "uint256[]",
          "name": "shares",
          "type": "uint256[]"
        }
      ],
      "name": "transferMultiple",
      "outputs": [],
      "stateMutability": "nonpayable",
      "type": "function"
    },
    {
      "inputs": [
        {
          "internalType": "address",
          "name": "newOwner",
          "type": "address"
        },
        {
          "internalType": "bool",
          "name": "direct",
          "type": "bool"
        },
        {
          "internalType": "bool",
          "name": "renounce",
          "type": "bool"
        }
      ],
      "name": "transferOwnership",
      "outputs": [],
      "stateMutability": "nonpayable",
      "type": "function"
    },
    {
      "inputs": [
        {
          "internalType": "address",
          "name": "masterContract",
          "type": "address"
        },
        {
          "internalType": "bool",
          "name": "approved",
          "type": "bool"
        }
      ],
      "name": "whitelistMasterContract",
      "outputs": [],
      "stateMutability": "nonpayable",
      "type": "function"
    },
    {
      "inputs": [
        {
          "internalType": "address",
          "name": "",
          "type": "address"
        }
      ],
      "name": "whitelistedMasterContracts",
      "outputs": [
        {
          "internalType": "bool",
          "name": "",
          "type": "bool"
        }
      ],
      "stateMutability": "view",
      "type": "function"
    },
    {
      "inputs": [
        {
          "internalType": "contract IERC20",
          "name": "token_",
          "type": "address"
        },
        {
          "internalType": "address",
          "name": "from",
          "type": "address"
        },
        {
          "internalType": "address",
          "name": "to",
          "type": "address"
        },
        {
          "internalType": "uint256",
          "name": "amount",
          "type": "uint256"
        },
        {
          "internalType": "uint256",
          "name": "share",
          "type": "uint256"
        }
      ],
      "name": "withdraw",
      "outputs": [
        {
          "internalType": "uint256",
          "name": "amountOut",
          "type": "uint256"
        },
        {
          "internalType": "uint256",
          "name": "shareOut",
          "type": "uint256"
        }
      ],
      "stateMutability": "nonpayable",
      "type": "function"
    },
    {
      "stateMutability": "payable",
      "type": "receive"
    }
  ],
  "bytecode": "0x60e06040523480156200001157600080fd5b50604051620032d2380380620032d2833981016040819052620000349162000109565b600080546001600160a01b0319163390811782556040519091907f8be0079c531659141344cd1fd0a4f28419497f9722a3daafe3b4186f6b6457e0908290a34660a0818152604080517f8cad95687ba82c2ce50e74f7b754645e5117c3a5bec8151c0726d5857980a8666020808301919091527fd7df266aff736d415a9dc14b4158201d612e70d75b9c7f4e375ccfd20aa5166f82840152606082018590523060808084019190915283518084039091018152919093019091528051910120608052506001600160a01b031660c0526200013b565b6000602082840312156200011c57600080fd5b81516001600160a01b03811681146200013457600080fd5b9392505050565b60805160a05160c05161315262000180600039600081816106ea015281816109ed015281816117140152611922015260006111ec0152600061129301526131526000f3fe60806040526004361061019a5760003560e01c80638da5cb5b116100e1578063c0a47c931161008a578063e30c397811610064578063e30c3978146104df578063f18d03cc146104ff578063f7888aec1461051f578063fba96be81461055757600080fd5b8063c0a47c931461048c578063d2423b51146104ac578063da5139ca146104bf57600080fd5b806397da6d30116100bb57806397da6d3014610421578063aee4d1b214610441578063bafe4f141461045657600080fd5b80638da5cb5b146103a65780638fd43654146103c657806391e0eab5146103e657600080fd5b80634e71e0c811610143578063733a9d7c1161011d578063733a9d7c146103395780637c516e94146103595780637ecebe001461037957600080fd5b80634e71e0c8146102a35780634ffe34db146102b8578063566231181461031957600080fd5b806312a90c8a1161017457806312a90c8a146102155780631f54245b146102555780633644e5151461028057600080fd5b806302b9446c146101a6578063078dfbe7146101d35780630fca8843146101f557600080fd5b366101a157005b600080fd5b6101b96101b436600461293d565b61058d565b604080519283526020830191909152015b60405180910390f35b3480156101df57600080fd5b506101f36101ee3660046129a6565b610afd565b005b34801561020157600080fd5b506101f3610210366004612a3d565b610c44565b34801561022157600080fd5b50610245610230366004612ad2565b60056020526000908152604090205460ff1681565b60405190151581526020016101ca565b610268610263366004612aef565b610f90565b6040516001600160a01b0390911681526020016101ca565b34801561028c57600080fd5b506102956111e7565b6040519081526020016101ca565b3480156102af57600080fd5b506101f36112b9565b3480156102c457600080fd5b506102f96102d3366004612ad2565b6008602052600090815260409020546001600160801b0380821691600160801b90041682565b604080516001600160801b039384168152929091166020830152016101ca565b34801561032557600080fd5b50610295610334366004612b87565b611376565b34801561034557600080fd5b506101f3610354366004612bbe565b6113ca565b34801561036557600080fd5b506101f3610374366004612c0d565b6114d9565b34801561038557600080fd5b50610295610394366004612ad2565b60066020526000908152604090205481565b3480156103b257600080fd5b50600054610268906001600160a01b031681565b3480156103d257600080fd5b506102686103e1366004612c8e565b611584565b3480156103f257600080fd5b50610245610401366004612cba565b600460209081526000928352604080842090915290825290205460ff1681565b34801561042d57600080fd5b506101b961043c36600461293d565b6115bc565b34801561044d57600080fd5b506101f3611a9b565b34801561046257600080fd5b50610268610471366004612ad2565b6002602052600090815260409020546001600160a01b031681565b34801561049857600080fd5b506101f36104a7366004612ce8565b611ae2565b6101f36104ba366004612d54565b611f60565b3480156104cb57600080fd5b506102956104da366004612b87565b612033565b3480156104eb57600080fd5b50600154610268906001600160a01b031681565b34801561050b57600080fd5b506101f361051a366004612da0565b61207f565b34801561052b57600080fd5b5061029561053a366004612cba565b600760209081526000928352604080842090915290825290205481565b34801561056357600080fd5b50610295610572366004612ad2565b6001600160a01b031660009081526003602052604090205490565b600080856001600160a01b03811633148015906105b357506001600160a01b0381163014155b1561068657336000908152600260205260409020546001600160a01b0316806106175760405162461bcd60e51b8152602060048201526011602482015270139bc81b585cdd195c90dbdb9d1c9858dd607a1b60448201526064015b60405180910390fd5b6001600160a01b0380821660009081526004602090815260408083209386168352929052205460ff166106845760405162461bcd60e51b8152602060048201526015602482015274151c985b9cd9995c881b9bdd08185c1c1c9bdd9959605a1b604482015260640161060e565b505b6001600160a01b0386166106d15760405162461bcd60e51b81526020600482015260126024820152711d1bc81859191c995cdcc81b9bdd081cd95d60721b604482015260640161060e565b60006001600160a01b038916156106e8578861070a565b7f00000000000000000000000000000000000000000000000000000000000000005b6001600160a01b0381166000908152600860209081526040918290208251808401909352546001600160801b03808216808552600160801b9092041691830191909152919250901515806107bf57506000826001600160a01b03166318160ddd6040518163ffffffff1660e01b8152600401602060405180830381865afa158015610799573d6000803e3d6000fd5b505050506040513d601f19601f820116820180604052508101906107bd9190612df1565b115b61080b5760405162461bcd60e51b815260206004820152600960248201527f4e6f20746f6b656e730000000000000000000000000000000000000000000000604482015260640161060e565b856108635761081c81886000612296565b95506103e861084161082d8861232f565b60208401516001600160801b03169061238c565b6001600160801b0316101561085e57600080945094505050610af2565b610872565b61086f81876001612402565b96505b6001600160a01b0389163014158061089157506001600160a01b038a16155b806108b9575080516108b5906001600160801b03166108af8461247b565b906124ff565b8711155b6109055760405162461bcd60e51b815260206004820152600d60248201527f536b696d20746f6f206d75636800000000000000000000000000000000000000604482015260640161060e565b6001600160a01b038083166000908152600760209081526040808320938c1683529290522054610935908761255d565b6001600160a01b038084166000908152600760209081526040808320938d168352929052205561097b6109678761232f565b60208301516001600160801b03169061238c565b6001600160801b031660208201526109a66109958861232f565b82516001600160801b03169061238c565b6001600160801b0390811682526001600160a01b0380841660009081526008602090815260409091208451918501518416600160801b0291909316179091558a16610a64577f00000000000000000000000000000000000000000000000000000000000000006001600160a01b031663d0e30db0886040518263ffffffff1660e01b81526004016000604051808303818588803b158015610a4657600080fd5b505af1158015610a5a573d6000803e3d6000fd5b5050505050610a89565b6001600160a01b0389163014610a8957610a896001600160a01b0383168a308a6125bb565b876001600160a01b0316896001600160a01b0316836001600160a01b03167fb2346165e782564f17f5b7e555c21f4fd96fbc93458572bf0113ea35a958fc558a8a604051610ae1929190918252602082015260400190565b60405180910390a486945085935050505b509550959350505050565b6000546001600160a01b03163314610b575760405162461bcd60e51b815260206004820181905260248201527f4f776e61626c653a2063616c6c6572206973206e6f7420746865206f776e6572604482015260640161060e565b8115610c22576001600160a01b038316151580610b715750805b610bbd5760405162461bcd60e51b815260206004820152601560248201527f4f776e61626c653a207a65726f20616464726573730000000000000000000000604482015260640161060e565b600080546040516001600160a01b03808716939216917f8be0079c531659141344cd1fd0a4f28419497f9722a3daafe3b4186f6b6457e091a3600080546001600160a01b0385166001600160a01b031991821617909155600180549091169055505050565b600180546001600160a01b0385166001600160a01b0319909116179055505050565b846001600160a01b0381163314801590610c6757506001600160a01b0381163014155b15610d3557336000908152600260205260409020546001600160a01b031680610cc65760405162461bcd60e51b8152602060048201526011602482015270139bc81b585cdd195c90dbdb9d1c9858dd607a1b604482015260640161060e565b6001600160a01b0380821660009081526004602090815260408083209386168352929052205460ff16610d335760405162461bcd60e51b8152602060048201526015602482015274151c985b9cd9995c881b9bdd08185c1c1c9bdd9959605a1b604482015260640161060e565b505b600085858281610d4757610d47612e0a565b9050602002016020810190610d5c9190612ad2565b6001600160a01b03161415610da85760405162461bcd60e51b81526020600482015260126024820152711d1bc81859191c995cdcc81b9bdd081cd95d60721b604482015260640161060e565b600084815b81811015610f28576000888883818110610dc957610dc9612e0a565b9050602002016020810190610dde9190612ad2565b9050610e53878784818110610df557610df5612e0a565b90506020020135600760008e6001600160a01b03166001600160a01b031681526020019081526020016000206000846001600160a01b03166001600160a01b031681526020019081526020016000205461255d90919063ffffffff16565b6001600160a01b03808d16600090815260076020908152604080832093861683529290522055610ea4878784818110610e8e57610e8e612e0a565b905060200201358561255d90919063ffffffff16565b9350806001600160a01b03168a6001600160a01b03168c6001600160a01b03167f6eabe333476233fd382224f233210cb808a7bc4c4de64f9d76628bf63c677b1a8a8a87818110610ef757610ef7612e0a565b90506020020135604051610f0d91815260200190565b60405180910390a45080610f2081612e36565b915050610dad565b506001600160a01b03808a166000908152600760209081526040808320938c1683529290522054610f5990836124ff565b6001600160a01b03998a1660009081526007602090815260408083209b909c16825299909952989097209790975550505050505050565b60006001600160a01b038516610fe85760405162461bcd60e51b815260206004820181905260248201527f426f72696e67466163746f72793a204e6f206d6173746572436f6e7472616374604482015260640161060e565b606085901b82156110715760008585604051611005929190612e51565b604051809103902090506040517f3d602d80600a3d3981f3363d3d373d3d3d363d7300000000000000000000000081528260148201527f5af43d82803e903d91602b57fd5bf300000000000000000000000000000000006028820152816037826000f5935050506110cd565b6040517f3d602d80600a3d3981f3363d3d373d3d3d363d7300000000000000000000000081528160148201527f5af43d82803e903d91602b57fd5bf3000000000000000000000000000000000060288201526037816000f09250505b6001600160a01b0380831660008181526002602090815260408083208054958c166001600160a01b03199687168117909155835260038252808320805460018101825590845291909220018054909316821790925590517f4ddf47d4000000000000000000000000000000000000000000000000000000008152634ddf47d490349061115f9089908990600401612e61565b6000604051808303818588803b15801561117857600080fd5b505af115801561118c573d6000803e3d6000fd5b5050505050816001600160a01b0316866001600160a01b03167fd62166f3c2149208e51788b1401cc356bf5da1fc6c7886a32e18570f57d88b3b87876040516111d6929190612e61565b60405180910390a350949350505050565b6000467f0000000000000000000000000000000000000000000000000000000000000000811461129157604080517f8cad95687ba82c2ce50e74f7b754645e5117c3a5bec8151c0726d5857980a8666020808301919091527fd7df266aff736d415a9dc14b4158201d612e70d75b9c7f4e375ccfd20aa5166f8284015260608201849052306080808401919091528351808403909101815260a090920190925280519101206112b3565b7f00000000000000000000000000000000000000000000000000000000000000005b91505090565b6001546001600160a01b03163381146113145760405162461bcd60e51b815260206004820181905260248201527f4f776e61626c653a2063616c6c657220213d2070656e64696e67206f776e6572604482015260640161060e565b600080546040516001600160a01b03808516939216917f8be0079c531659141344cd1fd0a4f28419497f9722a3daafe3b4186f6b6457e091a3600080546001600160a01b039092166001600160a01b0319928316179055600180549091169055565b6001600160a01b03831660009081526008602090815260408083208151808301909252546001600160801b038082168352600160801b90910416918101919091526113c2908484612402565b949350505050565b6000546001600160a01b031633146114245760405162461bcd60e51b815260206004820181905260248201527f4f776e61626c653a2063616c6c6572206973206e6f7420746865206f776e6572604482015260640161060e565b6001600160a01b03821661147a5760405162461bcd60e51b815260206004820152601c60248201527f4d6173746572434d67723a2043616e6e6f7420617070726f7665203000000000604482015260640161060e565b6001600160a01b038216600081815260056020908152604091829020805460ff191685151590811790915591519182527f31a1e0eac44b54ac6c2a2efa87e92c83405ffcf33fceef02a7bca695130e2600910160405180910390a25050565b6040517fd505accf0000000000000000000000000000000000000000000000000000000081526001600160a01b0388811660048301528781166024830152604482018790526064820186905260ff8516608483015260a4820184905260c4820183905289169063d505accf9060e401600060405180830381600087803b15801561156257600080fd5b505af1158015611576573d6000803e3d6000fd5b505050505050505050505050565b600360205281600052604060002081815481106115a057600080fd5b6000918252602090912001546001600160a01b03169150829050565b600080856001600160a01b03811633148015906115e257506001600160a01b0381163014155b156116b057336000908152600260205260409020546001600160a01b0316806116415760405162461bcd60e51b8152602060048201526011602482015270139bc81b585cdd195c90dbdb9d1c9858dd607a1b604482015260640161060e565b6001600160a01b0380821660009081526004602090815260408083209386168352929052205460ff166116ae5760405162461bcd60e51b8152602060048201526015602482015274151c985b9cd9995c881b9bdd08185c1c1c9bdd9959605a1b604482015260640161060e565b505b6001600160a01b0386166116fb5760405162461bcd60e51b81526020600482015260126024820152711d1bc81859191c995cdcc81b9bdd081cd95d60721b604482015260640161060e565b60006001600160a01b038916156117125788611734565b7f00000000000000000000000000000000000000000000000000000000000000005b6001600160a01b0381166000908152600860209081526040918290208251808401909352546001600160801b038082168452600160801b90910416908201529091508561178e5761178781886001612296565b955061179d565b61179a81876000612402565b96505b6001600160a01b038083166000908152600760209081526040808320938d16835292905220546117cd90876124ff565b6001600160a01b038084166000908152600760209081526040808320938e16835292905220556118106117ff8861232f565b82516001600160801b03169061270d565b6001600160801b0316815261183b6118278761232f565b60208301516001600160801b03169061270d565b6001600160801b0316602082018190526103e8111580611866575060208101516001600160801b0316155b6118b25760405162461bcd60e51b815260206004820152600f60248201527f63616e6e6f7420626520656d7074790000000000000000000000000000000000604482015260640161060e565b6001600160a01b0380831660009081526008602090815260409091208351918401516001600160801b03908116600160801b0292169190911790558a16611a2f576040517f2e1a7d4d000000000000000000000000000000000000000000000000000000008152600481018890527f00000000000000000000000000000000000000000000000000000000000000006001600160a01b031690632e1a7d4d90602401600060405180830381600087803b15801561196e57600080fd5b505af1158015611982573d6000803e3d6000fd5b505050506000886001600160a01b03168860405160006040518083038185875af1925050503d80600081146119d3576040519150601f19603f3d011682016040523d82523d6000602084013e6119d8565b606091505b5050905080611a295760405162461bcd60e51b815260206004820152601360248201527f455448207472616e73666572206661696c656400000000000000000000000000604482015260640161060e565b50611a43565b611a436001600160a01b038316898961277d565b876001600160a01b0316896001600160a01b0316836001600160a01b03167fad9ab9ee6953d4d177f4a03b3a3ac3178ffcb9816319f348060194aa76b144868a8a604051610ae1929190918252602082015260400190565b3360008181526002602052604080822080546001600160a01b03191684179055517fdfb44ffabf0d3a8f650d3ce43eff98f6d050e7ea1a396d5794f014e7dadabacb9190a2565b6001600160a01b038516611b385760405162461bcd60e51b815260206004820152601b60248201527f4d6173746572434d67723a206d617374657243206e6f74207365740000000000604482015260640161060e565b81158015611b44575080155b8015611b51575060ff8316155b15611c83576001600160a01b0386163314611bae5760405162461bcd60e51b815260206004820152601b60248201527f4d6173746572434d67723a2075736572206e6f742073656e6465720000000000604482015260640161060e565b6001600160a01b038681166000908152600260205260409020541615611c165760405162461bcd60e51b815260206004820152601960248201527f4d6173746572434d67723a207573657220697320636c6f6e6500000000000000604482015260640161060e565b6001600160a01b03851660009081526005602052604090205460ff16611c7e5760405162461bcd60e51b815260206004820152601b60248201527f4d6173746572434d67723a206e6f742077686974656c69737465640000000000604482015260640161060e565b611ef0565b6001600160a01b038616611cd95760405162461bcd60e51b815260206004820152601c60248201527f4d6173746572434d67723a20557365722063616e6e6f74206265203000000000604482015260640161060e565b60006040518060400160405280600281526020017f1901000000000000000000000000000000000000000000000000000000000000815250611d196111e7565b7f1962bc9f5484cb7a998701b81090e966ee1fce5771af884cceee7c081b14ade287611d65577fb426802f1f7dc850a7b6b38805edea2442f3992878a9ab985abfe8091d95d0b1611d87565b7f422ac5323fe049241dee67716229a1cc1bc7b313b23dfe3ef6d42ab177a3b2845b6001600160a01b038b16600090815260066020526040812080548d928d928d9291611db183612e36565b909155506040805160208101979097528601949094526001600160a01b03928316606086015291166080840152151560a083015260c082015260e00160405160208183030381529060405280519060200120604051602001611e1593929190612ebc565b60408051601f198184030181528282528051602091820120600080855291840180845281905260ff88169284019290925260608301869052608083018590529092509060019060a0016020604051602081039080840390855afa158015611e80573d6000803e3d6000fd5b505050602060405103519050876001600160a01b0316816001600160a01b031614611eed5760405162461bcd60e51b815260206004820152601d60248201527f4d6173746572434d67723a20496e76616c6964205369676e6174757265000000604482015260640161060e565b50505b6001600160a01b038581166000818152600460209081526040808320948b1680845294825291829020805460ff191689151590811790915591519182527f5f6ebb64ba012a851c6f014e6cad458ddf213d1512049b31cd06365c2b059257910160405180910390a3505050505050565b60005b8281101561202d5760008030868685818110611f8157611f81612e0a565b9050602002810190611f939190612ee3565b604051611fa1929190612e51565b600060405180830381855af49150503d8060008114611fdc576040519150601f19603f3d011682016040523d82523d6000602084013e611fe1565b606091505b509150915081158015611ff15750835b1561201857611fff816128c6565b60405162461bcd60e51b815260040161060e9190612f2a565b5050808061202590612e36565b915050611f63565b50505050565b6001600160a01b03831660009081526008602090815260408083208151808301909252546001600160801b038082168352600160801b90910416918101919091526113c2908484612296565b826001600160a01b03811633148015906120a257506001600160a01b0381163014155b1561217057336000908152600260205260409020546001600160a01b0316806121015760405162461bcd60e51b8152602060048201526011602482015270139bc81b585cdd195c90dbdb9d1c9858dd607a1b604482015260640161060e565b6001600160a01b0380821660009081526004602090815260408083209386168352929052205460ff1661216e5760405162461bcd60e51b8152602060048201526015602482015274151c985b9cd9995c881b9bdd08185c1c1c9bdd9959605a1b604482015260640161060e565b505b6001600160a01b0383166121bb5760405162461bcd60e51b81526020600482015260126024820152711d1bc81859191c995cdcc81b9bdd081cd95d60721b604482015260640161060e565b6001600160a01b038086166000908152600760209081526040808320938816835292905220546121eb90836124ff565b6001600160a01b03868116600090815260076020908152604080832089851684529091528082209390935590851681522054612227908361255d565b6001600160a01b0380871660008181526007602090815260408083208986168085529252918290209490945551918716917f6eabe333476233fd382224f233210cb808a7bc4c4de64f9d76628bf63c677b1a906122879087815260200190565b60405180910390a45050505050565b82516000906001600160801b03166122af575081612328565b835160208501516001600160801b03918216916122cd911685612f5d565b6122d79190612f7c565b905081801561231557508284602001516001600160801b031685600001516001600160801b0316836123099190612f5d565b6123139190612f7c565b105b15612328578061232481612e36565b9150505b9392505050565b60006001600160801b038211156123885760405162461bcd60e51b815260206004820152601c60248201527f426f72696e674d6174683a2075696e74313238204f766572666c6f7700000000604482015260640161060e565b5090565b60006001600160801b0382166123a28385612f9e565b9150816001600160801b031610156123fc5760405162461bcd60e51b815260206004820152601860248201527f426f72696e674d6174683a20416464204f766572666c6f770000000000000000604482015260640161060e565b92915050565b600083602001516001600160801b031660001415612421575081612328565b602084015184516001600160801b039182169161243f911685612f5d565b6124499190612f7c565b905081801561231557508284600001516001600160801b031685602001516001600160801b0316836123099190612f5d565b6040517f70a082310000000000000000000000000000000000000000000000000000000081523060048201526000906001600160a01b038316906370a0823190602401602060405180830381865afa1580156124db573d6000803e3d6000fd5b505050506040513d601f19601f820116820180604052508101906123fc9190612df1565b60008261250c8382612fc9565b91508111156123fc5760405162461bcd60e51b815260206004820152601560248201527f426f72696e674d6174683a20556e646572666c6f770000000000000000000000604482015260640161060e565b60008161256a8185612fe0565b91508110156123fc5760405162461bcd60e51b815260206004820152601860248201527f426f72696e674d6174683a20416464204f766572666c6f770000000000000000604482015260640161060e565b604080516001600160a01b0385811660248301528481166044830152606480830185905283518084039091018152608490920183526020820180517bffffffffffffffffffffffffffffffffffffffffffffffffffffffff167f23b872dd00000000000000000000000000000000000000000000000000000000179052915160009283929088169161264d9190612ff8565b6000604051808303816000865af19150503d806000811461268a576040519150601f19603f3d011682016040523d82523d6000602084013e61268f565b606091505b50915091508180156126b95750805115806126b95750808060200190518101906126b99190613014565b6127055760405162461bcd60e51b815260206004820181905260248201527f426f72696e6745524332303a205472616e7366657246726f6d206661696c6564604482015260640161060e565b505050505050565b60006001600160801b0383166127238385613031565b9150816001600160801b031611156123fc5760405162461bcd60e51b815260206004820152601560248201527f426f72696e674d6174683a20556e646572666c6f770000000000000000000000604482015260640161060e565b604080516001600160a01b038481166024830152604480830185905283518084039091018152606490920183526020820180517bffffffffffffffffffffffffffffffffffffffffffffffffffffffff167fa9059cbb0000000000000000000000000000000000000000000000000000000017905291516000928392908716916128079190612ff8565b6000604051808303816000865af19150503d8060008114612844576040519150601f19603f3d011682016040523d82523d6000602084013e612849565b606091505b50915091508180156128735750805115806128735750808060200190518101906128739190613014565b6128bf5760405162461bcd60e51b815260206004820152601c60248201527f426f72696e6745524332303a205472616e73666572206661696c656400000000604482015260640161060e565b5050505050565b606060448251101561290b57505060408051808201909152601d81527f5472616e73616374696f6e2072657665727465642073696c656e746c79000000602082015290565b600482019150818060200190518101906123fc919061306f565b6001600160a01b038116811461293a57600080fd5b50565b600080600080600060a0868803121561295557600080fd5b853561296081612925565b9450602086013561297081612925565b9350604086013561298081612925565b94979396509394606081013594506080013592915050565b801515811461293a57600080fd5b6000806000606084860312156129bb57600080fd5b83356129c681612925565b925060208401356129d681612998565b915060408401356129e681612998565b809150509250925092565b60008083601f840112612a0357600080fd5b50813567ffffffffffffffff811115612a1b57600080fd5b6020830191508360208260051b8501011115612a3657600080fd5b9250929050565b60008060008060008060808789031215612a5657600080fd5b8635612a6181612925565b95506020870135612a7181612925565b9450604087013567ffffffffffffffff80821115612a8e57600080fd5b612a9a8a838b016129f1565b90965094506060890135915080821115612ab357600080fd5b50612ac089828a016129f1565b979a9699509497509295939492505050565b600060208284031215612ae457600080fd5b813561232881612925565b60008060008060608587031215612b0557600080fd5b8435612b1081612925565b9350602085013567ffffffffffffffff80821115612b2d57600080fd5b818701915087601f830112612b4157600080fd5b813581811115612b5057600080fd5b886020828501011115612b6257600080fd5b6020830195508094505050506040850135612b7c81612998565b939692955090935050565b600080600060608486031215612b9c57600080fd5b8335612ba781612925565b92506020840135915060408401356129e681612998565b60008060408385031215612bd157600080fd5b8235612bdc81612925565b91506020830135612bec81612998565b809150509250929050565b803560ff81168114612c0857600080fd5b919050565b600080600080600080600080610100898b031215612c2a57600080fd5b8835612c3581612925565b97506020890135612c4581612925565b96506040890135612c5581612925565b95506060890135945060808901359350612c7160a08a01612bf7565b925060c0890135915060e089013590509295985092959890939650565b60008060408385031215612ca157600080fd5b8235612cac81612925565b946020939093013593505050565b60008060408385031215612ccd57600080fd5b8235612cd881612925565b91506020830135612bec81612925565b60008060008060008060c08789031215612d0157600080fd5b8635612d0c81612925565b95506020870135612d1c81612925565b94506040870135612d2c81612998565b9350612d3a60608801612bf7565b92506080870135915060a087013590509295509295509295565b600080600060408486031215612d6957600080fd5b833567ffffffffffffffff811115612d8057600080fd5b612d8c868287016129f1565b90945092505060208401356129e681612998565b60008060008060808587031215612db657600080fd5b8435612dc181612925565b93506020850135612dd181612925565b92506040850135612de181612925565b9396929550929360600135925050565b600060208284031215612e0357600080fd5b5051919050565b634e487b7160e01b600052603260045260246000fd5b634e487b7160e01b600052601160045260246000fd5b6000600019821415612e4a57612e4a612e20565b5060010190565b8183823760009101908152919050565b60208152816020820152818360408301376000818301604090810191909152601f909201601f19160101919050565b60005b83811015612eab578181015183820152602001612e93565b8381111561202d5750506000910152565b60008451612ece818460208901612e90565b91909101928352506020820152604001919050565b6000808335601e19843603018112612efa57600080fd5b83018035915067ffffffffffffffff821115612f1557600080fd5b602001915036819003821315612a3657600080fd5b6020815260008251806020840152612f49816040850160208701612e90565b601f01601f19169190910160400192915050565b6000816000190483118215151615612f7757612f77612e20565b500290565b600082612f9957634e487b7160e01b600052601260045260246000fd5b500490565b60006001600160801b03808316818516808303821115612fc057612fc0612e20565b01949350505050565b600082821015612fdb57612fdb612e20565b500390565b60008219821115612ff357612ff3612e20565b500190565b6000825161300a818460208701612e90565b9190910192915050565b60006020828403121561302657600080fd5b815161232881612998565b60006001600160801b038381169083168181101561305157613051612e20565b039392505050565b634e487b7160e01b600052604160045260246000fd5b60006020828403121561308157600080fd5b815167ffffffffffffffff8082111561309957600080fd5b818401915084601f8301126130ad57600080fd5b8151818111156130bf576130bf613059565b604051601f8201601f19908116603f011681019083821181831017156130e7576130e7613059565b8160405282815287602084870101111561310057600080fd5b613111836020830160208801612e90565b97965050505050505056fea264697066735822122013c546be84987f38ca4eaa79157155349a2e807e9a7fc18b0738341760ebfcd164736f6c634300080a0033",
  "linkReferences": {},
  "deployedLinkReferences": {}
}