{
  "_format": "hh-sol-artifact-1",
  "contractName": "DfynMathUI",
  "sourceName": "contracts/libraries/DfynMathUI.sol",
  "abi": [
    {
      "inputs": [
        {
          "internalType": "uint160",
          "name": "_tickZeroPrice",
          "type": "uint160"
        },
        {
          "internalType": "uint160",
          "name": "_sqrtPrice",
          "type": "uint160"
        }
      ],
      "name": "priceFromSqrtprice",
      "outputs": [
        {
          "internalType": "uint160",
          "name": "price",
          "type": "uint160"
        }
      ],
      "stateMutability": "view",
      "type": "function"
    },
    {
      "inputs": [
        {
          "internalType": "uint256",
          "name": "x",
          "type": "uint256"
        }
      ],
      "name": "sqrt",
      "outputs": [
        {
          "internalType": "uint256",
          "name": "z",
          "type": "uint256"
        }
      ],
      "stateMutability": "pure",
      "type": "function"
    },
    {
      "inputs": [
        {
          "internalType": "uint160",
          "name": "_tickZeroPrice",
          "type": "uint160"
        },
        {
          "internalType": "uint160",
          "name": "price",
          "type": "uint160"
        }
      ],
      "name": "sqrtPriceFromPrice",
      "outputs": [
        {
          "internalType": "uint160",
          "name": "sqrtRatioX96",
          "type": "uint160"
        }
      ],
      "stateMutability": "view",
      "type": "function"
    }
  ],
  "bytecode": "0x61035561003a600b82828239805160001a60731461002d57634e487b7160e01b600052600060045260246000fd5b30600052607381538281f3fe730000000000000000000000000000000000000000301460806040526004361061004b5760003560e01c8063677342ce146100505780639f85c4b814610076578063ebe0ebd2146100a1575b600080fd5b61006361005e3660046101e5565b6100b4565b6040519081526020015b60405180910390f35b61008961008436600461021a565b61018d565b6040516001600160a01b03909116815260200161006d565b6100896100af36600461021a565b6101a0565b600181600160801b81106100cd5760409190911b9060801c5b6801000000000000000081106100e85760209190911b9060401c5b64010000000081106100ff5760109190911b9060201c5b6201000081106101145760089190911b9060101c5b61010081106101285760049190911b9060081c5b6010811061013b5760029190911b9060041c5b6008811061014a578160011b91505b5080820401600190811c80830401811c80830401811c80830401811c80830401811c80830401811c80830401901c80820481811015610187578091505b50919050565b60006101998284610263565b9392505050565b6000826101b083620f4240610263565b6101ba91906102a8565b90506101c683836102ce565b6001600160a01b0316156101df576101996001826102f4565b92915050565b6000602082840312156101f757600080fd5b5035919050565b80356001600160a01b038116811461021557600080fd5b919050565b6000806040838503121561022d57600080fd5b610236836101fe565b9150610244602084016101fe565b90509250929050565b634e487b7160e01b600052601160045260246000fd5b60006001600160a01b03828116848216811515828404821116156102895761028961024d565b02949350505050565b634e487b7160e01b600052601260045260246000fd5b60006001600160a01b03838116806102c2576102c2610292565b92169190910492915050565b60006001600160a01b03838116806102e8576102e8610292565b92169190910692915050565b60006001600160a01b038281168482168083038211156103165761031661024d565b0194935050505056fea26469706673582212206baad753663f246439b86cb0bb9cca089e7f2a0184bb2b6821a0ccbebcc402b964736f6c634300080a0033",
  "linkReferences": {},
  "deployedLinkReferences": {}
}